{"contracts/LiquidUnstakePool.sol":{"LiquidUnstakePool":{"abi":[{"inputs":[],"name":"AssetsTooLow","type":"error"},{"inputs":[{"internalType":"uint256","name":"_minAmount","type":"uint256"},{"internalType":"uint256","name":"_amountSent","type":"uint256"}],"name":"DepositTooLow","type":"error"},{"inputs":[{"internalType":"address","name":"_caller","type":"address"},{"internalType":"address","name":"_authorized","type":"address"}],"name":"NotAuthorized","type":"error"},{"inputs":[{"internalType":"uint256","name":"_ethRequested","type":"uint256"},{"internalType":"uint256","name":"_availableETH","type":"uint256"}],"name":"RequestedETHReachMinProportion","type":"error"},{"inputs":[],"name":"SharesTooLow","type":"error"},{"inputs":[{"internalType":"uint256","name":"_minOut","type":"uint256"},{"internalType":"uint256","name":"_amountOut","type":"uint256"}],"name":"SwapMinOut","type":"error"},{"anonymous":false,"inputs":[{"indexed":true,"internalType":"address","name":"user","type":"address"},{"indexed":true,"internalType":"address","name":"receiver","type":"address"},{"indexed":false,"internalType":"uint256","name":"amount","type":"uint256"},{"indexed":false,"internalType":"uint256","name":"shares","type":"uint256"}],"name":"AddLiquidity","type":"event"},{"anonymous":false,"inputs":[{"indexed":true,"internalType":"address","name":"owner","type":"address"},{"indexed":true,"internalType":"address","name":"spender","type":"address"},{"indexed":false,"internalType":"uint256","name":"value","type":"uint256"}],"name":"Approval","type":"event"},{"anonymous":false,"inputs":[{"indexed":true,"internalType":"address","name":"sender","type":"address"},{"indexed":true,"internalType":"address","name":"owner","type":"address"},{"indexed":false,"internalType":"uint256","name":"assets","type":"uint256"},{"indexed":false,"internalType":"uint256","name":"shares","type":"uint256"}],"name":"Deposit","type":"event"},{"anonymous":false,"inputs":[{"indexed":false,"internalType":"uint8","name":"version","type":"uint8"}],"name":"Initialized","type":"event"},{"anonymous":false,"inputs":[{"indexed":true,"internalType":"address","name":"previousOwner","type":"address"},{"indexed":true,"internalType":"address","name":"newOwner","type":"address"}],"name":"OwnershipTransferred","type":"event"},{"anonymous":false,"inputs":[{"indexed":true,"internalType":"address","name":"caller","type":"address"},{"indexed":true,"internalType":"address","name":"owner","type":"address"},{"indexed":false,"internalType":"uint256","name":"shares","type":"uint256"},{"indexed":false,"internalType":"uint256","name":"eth","type":"uint256"},{"indexed":false,"internalType":"uint256","name":"mpETH","type":"uint256"}],"name":"RemoveLiquidity","type":"event"},{"anonymous":false,"inputs":[{"indexed":false,"internalType":"uint256","name":"timestamp","type":"uint256"},{"indexed":false,"internalType":"uint256","name":"amount","type":"uint256"}],"name":"SendETHForValidator","type":"event"},{"anonymous":false,"inputs":[{"indexed":true,"internalType":"address","name":"user","type":"address"},{"indexed":false,"internalType":"uint256","name":"amountIn","type":"uint256"},{"indexed":false,"internalType":"uint256","name":"amountOut","type":"uint256"},{"indexed":false,"internalType":"uint256","name":"fees","type":"uint256"},{"indexed":false,"internalType":"uint256","name":"treasuryFees","type":"uint256"}],"name":"Swap","type":"event"},{"anonymous":false,"inputs":[{"indexed":true,"internalType":"address","name":"from","type":"address"},{"indexed":true,"internalType":"address","name":"to","type":"address"},{"indexed":false,"internalType":"uint256","name":"value","type":"uint256"}],"name":"Transfer","type":"event"},{"anonymous":false,"inputs":[{"indexed":true,"internalType":"address","name":"sender","type":"address"},{"indexed":true,"internalType":"address","name":"receiver","type":"address"},{"indexed":true,"internalType":"address","name":"owner","type":"address"},{"indexed":false,"internalType":"uint256","name":"assets","type":"uint256"},{"indexed":false,"internalType":"uint256","name":"shares","type":"uint256"}],"name":"Withdraw","type":"event"},{"inputs":[],"name":"MAX_FEE","outputs":[{"internalType":"uint16","name":"","type":"uint16"}],"stateMutability":"view","type":"function"},{"inputs":[],"name":"MIN_DEPOSIT","outputs":[{"internalType":"uint64","name":"","type":"uint64"}],"stateMutability":"view","type":"function"},{"inputs":[],"name":"MIN_FEE","outputs":[{"internalType":"uint16","name":"","type":"uint16"}],"stateMutability":"view","type":"function"},{"inputs":[],"name":"STAKING","outputs":[{"internalType":"address payable","name":"","type":"address"}],"stateMutability":"view","type":"function"},{"inputs":[{"internalType":"address","name":"owner","type":"address"},{"internalType":"address","name":"spender","type":"address"}],"name":"allowance","outputs":[{"internalType":"uint256","name":"","type":"uint256"}],"stateMutability":"view","type":"function"},{"inputs":[{"internalType":"address","name":"spender","type":"address"},{"internalType":"uint256","name":"amount","type":"uint256"}],"name":"approve","outputs":[{"internalType":"bool","name":"","type":"bool"}],"stateMutability":"nonpayable","type":"function"},{"inputs":[],"name":"asset","outputs":[{"internalType":"address","name":"","type":"address"}],"stateMutability":"view","type":"function"},{"inputs":[{"internalType":"address","name":"account","type":"address"}],"name":"balanceOf","outputs":[{"internalType":"uint256","name":"","type":"uint256"}],"stateMutability":"view","type":"function"},{"inputs":[{"internalType":"uint256","name":"shares","type":"uint256"}],"name":"convertToAssets","outputs":[{"internalType":"uint256","name":"assets","type":"uint256"}],"stateMutability":"view","type":"function"},{"inputs":[{"internalType":"uint256","name":"assets","type":"uint256"}],"name":"convertToShares","outputs":[{"internalType":"uint256","name":"shares","type":"uint256"}],"stateMutability":"view","type":"function"},{"inputs":[],"name":"decimals","outputs":[{"internalType":"uint8","name":"","type":"uint8"}],"stateMutability":"view","type":"function"},{"inputs":[{"internalType":"address","name":"spender","type":"address"},{"internalType":"uint256","name":"subtractedValue","type":"uint256"}],"name":"decreaseAllowance","outputs":[{"internalType":"bool","name":"","type":"bool"}],"stateMutability":"nonpayable","type":"function"},{"inputs":[{"internalType":"uint256","name":"_assets","type":"uint256"},{"internalType":"address","name":"_receiver","type":"address"}],"name":"deposit","outputs":[{"internalType":"uint256","name":"","type":"uint256"}],"stateMutability":"nonpayable","type":"function"},{"inputs":[{"internalType":"address","name":"_receiver","type":"address"}],"name":"depositETH","outputs":[{"internalType":"uint256","name":"","type":"uint256"}],"stateMutability":"payable","type":"function"},{"inputs":[],"name":"ethBalance","outputs":[{"internalType":"uint256","name":"","type":"uint256"}],"stateMutability":"view","type":"function"},{"inputs":[{"internalType":"uint256","name":"_amountIn","type":"uint256"}],"name":"getAmountOut","outputs":[{"internalType":"uint256","name":"amountOut","type":"uint256"},{"internalType":"uint256","name":"feeAmount","type":"uint256"}],"stateMutability":"view","type":"function"},{"inputs":[],"name":"getAvailableEthForValidator","outputs":[{"internalType":"uint256","name":"availableETH","type":"uint256"}],"stateMutability":"view","type":"function"},{"inputs":[{"internalType":"uint256","name":"_requestedETH","type":"uint256"}],"name":"getEthForValidator","outputs":[],"stateMutability":"nonpayable","type":"function"},{"inputs":[{"internalType":"address","name":"spender","type":"address"},{"internalType":"uint256","name":"addedValue","type":"uint256"}],"name":"increaseAllowance","outputs":[{"internalType":"bool","name":"","type":"bool"}],"stateMutability":"nonpayable","type":"function"},{"inputs":[{"internalType":"address payable","name":"_staking","type":"address"},{"internalType":"contract IERC20MetadataUpgradeable","name":"_weth","type":"address"},{"internalType":"address","name":"_treasury","type":"address"}],"name":"initialize","outputs":[],"stateMutability":"nonpayable","type":"function"},{"inputs":[{"internalType":"address","name":"","type":"address"}],"name":"maxDeposit","outputs":[{"internalType":"uint256","name":"","type":"uint256"}],"stateMutability":"view","type":"function"},{"inputs":[{"internalType":"address","name":"","type":"address"}],"name":"maxMint","outputs":[{"internalType":"uint256","name":"","type":"uint256"}],"stateMutability":"view","type":"function"},{"inputs":[{"internalType":"address","name":"owner","type":"address"}],"name":"maxRedeem","outputs":[{"internalType":"uint256","name":"","type":"uint256"}],"stateMutability":"view","type":"function"},{"inputs":[{"internalType":"address","name":"owner","type":"address"}],"name":"maxWithdraw","outputs":[{"internalType":"uint256","name":"","type":"uint256"}],"stateMutability":"view","type":"function"},{"inputs":[],"name":"minETHPercentage","outputs":[{"internalType":"uint256","name":"","type":"uint256"}],"stateMutability":"view","type":"function"},{"inputs":[{"internalType":"uint256","name":"shares","type":"uint256"},{"internalType":"address","name":"receiver","type":"address"}],"name":"mint","outputs":[{"internalType":"uint256","name":"","type":"uint256"}],"stateMutability":"nonpayable","type":"function"},{"inputs":[],"name":"name","outputs":[{"internalType":"string","name":"","type":"string"}],"stateMutability":"view","type":"function"},{"inputs":[],"name":"owner","outputs":[{"internalType":"address","name":"","type":"address"}],"stateMutability":"view","type":"function"},{"inputs":[{"internalType":"uint256","name":"assets","type":"uint256"}],"name":"previewDeposit","outputs":[{"internalType":"uint256","name":"","type":"uint256"}],"stateMutability":"view","type":"function"},{"inputs":[{"internalType":"uint256","name":"shares","type":"uint256"}],"name":"previewMint","outputs":[{"internalType":"uint256","name":"","type":"uint256"}],"stateMutability":"view","type":"function"},{"inputs":[{"internalType":"uint256","name":"shares","type":"uint256"}],"name":"previewRedeem","outputs":[{"internalType":"uint256","name":"","type":"uint256"}],"stateMutability":"view","type":"function"},{"inputs":[{"internalType":"uint256","name":"assets","type":"uint256"}],"name":"previewWithdraw","outputs":[{"internalType":"uint256","name":"","type":"uint256"}],"stateMutability":"view","type":"function"},{"inputs":[{"internalType":"uint256","name":"_shares","type":"uint256"},{"internalType":"address","name":"_receiver","type":"address"},{"internalType":"address","name":"_owner","type":"address"}],"name":"redeem","outputs":[{"internalType":"uint256","name":"ETHToSend","type":"uint256"}],"stateMutability":"nonpayable","type":"function"},{"inputs":[],"name":"renounceOwnership","outputs":[],"stateMutability":"nonpayable","type":"function"},{"inputs":[{"internalType":"address","name":"_to","type":"address"}],"name":"swapETHFormpETH","outputs":[{"internalType":"uint256","name":"","type":"uint256"}],"stateMutability":"payable","type":"function"},{"inputs":[{"internalType":"uint256","name":"_amount","type":"uint256"},{"internalType":"uint256","name":"_minOut","type":"uint256"}],"name":"swapmpETHforETH","outputs":[{"internalType":"uint256","name":"","type":"uint256"}],"stateMutability":"nonpayable","type":"function"},{"inputs":[],"name":"symbol","outputs":[{"internalType":"string","name":"","type":"string"}],"stateMutability":"view","type":"function"},{"inputs":[],"name":"targetLiquidity","outputs":[{"internalType":"uint256","name":"","type":"uint256"}],"stateMutability":"view","type":"function"},{"inputs":[],"name":"totalAssets","outputs":[{"internalType":"uint256","name":"","type":"uint256"}],"stateMutability":"view","type":"function"},{"inputs":[],"name":"totalSupply","outputs":[{"internalType":"uint256","name":"","type":"uint256"}],"stateMutability":"view","type":"function"},{"inputs":[{"internalType":"address","name":"to","type":"address"},{"internalType":"uint256","name":"amount","type":"uint256"}],"name":"transfer","outputs":[{"internalType":"bool","name":"","type":"bool"}],"stateMutability":"nonpayable","type":"function"},{"inputs":[{"internalType":"address","name":"from","type":"address"},{"internalType":"address","name":"to","type":"address"},{"internalType":"uint256","name":"amount","type":"uint256"}],"name":"transferFrom","outputs":[{"internalType":"bool","name":"","type":"bool"}],"stateMutability":"nonpayable","type":"function"},{"inputs":[{"internalType":"address","name":"newOwner","type":"address"}],"name":"transferOwnership","outputs":[],"stateMutability":"nonpayable","type":"function"},{"inputs":[],"name":"treasury","outputs":[{"internalType":"address","name":"","type":"address"}],"stateMutability":"view","type":"function"},{"inputs":[{"internalType":"uint256","name":"_minETHPercentage","type":"uint256"}],"name":"updateMinETHPercentage","outputs":[],"stateMutability":"nonpayable","type":"function"},{"inputs":[{"internalType":"uint256","name":"_targetLiquidity","type":"uint256"}],"name":"updateTargetLiquidity","outputs":[],"stateMutability":"nonpayable","type":"function"},{"inputs":[{"internalType":"uint256","name":"_assets","type":"uint256"},{"internalType":"address","name":"_receiver","type":"address"},{"internalType":"address","name":"_owner","type":"address"}],"name":"withdraw","outputs":[{"internalType":"uint256","name":"shares","type":"uint256"}],"stateMutability":"nonpayable","type":"function"},{"stateMutability":"payable","type":"receive"}],"evm":{"bytecode":{"linkReferences":{},"object":"608060405234801561001057600080fd5b50612e6c806100206000396000f3fe60806040526004361061028c5760003560e01c8063715018a61161015a578063ba087652116100c1578063ce96cb771161007a578063ce96cb7714610797578063d905777e146107b7578063dd62ed3e146107d7578063e1e158a5146107f7578063ef8b30f714610777578063f2fde38b1461082b57600080fd5b8063ba087652146106ec578063bc063e1a1461070c578063c0c53b8b14610722578063c3e8c4fa14610742578063c63d75b614610755578063c6e6f5921461077757600080fd5b806395d89b411161011357806395d89b411461063757806397610f301461064c578063a457c2d71461066c578063a9059cbb1461068c578063b3d7f6b9146106ac578063b460af94146106cc57600080fd5b8063715018a61461058657806376c7a3c71461059b5780637d287f4f146105c35780638da5cb5b146105e357806392258ec81461060157806394bf804d1461061757600080fd5b8063313ce567116101fe5780634cdad506116101b75780634cdad506146102e25780634e6630b0146104c55780635c195217146104db57806361d027b3146105105780636e553f651461053057806370a082311461055057600080fd5b8063313ce567146103e55780633701206b1461041157806338d52e0f146104335780633950935114610465578063402d267d14610485578063489569d7146104a557600080fd5b806318160ddd1161025057806318160ddd146103525780631efc117314610367578063201687301461037c57806323b872dd1461039c5780632d2da806146103bc5780633100f4f2146103cf57600080fd5b806301e1d1141461029857806306fdde03146102c057806307a2d13a146102e2578063095ea7b3146103025780630a28a4771461033257600080fd5b3661029357005b600080fd5b3480156102a457600080fd5b506102ad61084b565b6040519081526020015b60405180910390f35b3480156102cc57600080fd5b506102d561094f565b6040516102b79190612c95565b3480156102ee57600080fd5b506102ad6102fd366004612bbd565b6109e1565b34801561030e57600080fd5b5061032261031d366004612b72565b6109f4565b60405190151581526020016102b7565b34801561033e57600080fd5b506102ad61034d366004612bbd565b610a0c565b34801561035e57600080fd5b506035546102ad565b34801561037357600080fd5b506102ad610a19565b34801561038857600080fd5b506102ad610397366004612c37565b610a95565b3480156103a857600080fd5b506103226103b7366004612b32565b610bb3565b6102ad6103ca366004612a94565b610bd9565b3480156103db57600080fd5b506102ad60ff5481565b3480156103f157600080fd5b50606554600160a01b900460ff1660405160ff90911681526020016102b7565b34801561041d57600080fd5b5061043161042c366004612bbd565b610bf4565b005b34801561043f57600080fd5b506065546001600160a01b03165b6040516001600160a01b0390911681526020016102b7565b34801561047157600080fd5b50610322610480366004612b72565b610d51565b34801561049157600080fd5b506102ad6104a0366004612a94565b610d73565b3480156104b157600080fd5b506104316104c0366004612bbd565b610d91565b3480156104d157600080fd5b506102ad60fd5481565b3480156104e757600080fd5b506104fb6104f6366004612bbd565b610d9e565b604080519283526020830191909152016102b7565b34801561051c57600080fd5b5060fb5461044d906001600160a01b031681565b34801561053c57600080fd5b506102ad61054b366004612bed565b610f64565b34801561055c57600080fd5b506102ad61056b366004612a94565b6001600160a01b031660009081526033602052604090205490565b34801561059257600080fd5b50610431610f7e565b3480156105a757600080fd5b506105b0601e81565b60405161ffff90911681526020016102b7565b3480156105cf57600080fd5b506104316105de366004612bbd565b610f92565b3480156105ef57600080fd5b506097546001600160a01b031661044d565b34801561060d57600080fd5b506102ad60fe5481565b34801561062357600080fd5b506102ad610632366004612bed565b610f9f565b34801561064357600080fd5b506102d5610fb9565b34801561065857600080fd5b5060fc5461044d906001600160a01b031681565b34801561067857600080fd5b50610322610687366004612b72565b610fc8565b34801561069857600080fd5b506103226106a7366004612b72565b61104e565b3480156106b857600080fd5b506102ad6106c7366004612bbd565b61105c565b3480156106d857600080fd5b506102ad6106e7366004612c11565b611069565b3480156106f857600080fd5b506102ad610707366004612c11565b611287565b34801561071857600080fd5b506105b06101f481565b34801561072e57600080fd5b5061043161073d366004612ab0565b6114a3565b6102ad610750366004612a94565b61179c565b34801561076157600080fd5b506102ad610770366004612a94565b5060001990565b34801561078357600080fd5b506102ad610792366004612bbd565b6118a6565b3480156107a357600080fd5b506102ad6107b2366004612a94565b6118b3565b3480156107c357600080fd5b506102ad6107d2366004612a94565b6118d7565b3480156107e357600080fd5b506102ad6107f2366004612afa565b6118f5565b34801561080357600080fd5b50610812662386f26fc1000081565b60405167ffffffffffffffff90911681526020016102b7565b34801561083757600080fd5b50610431610846366004612a94565b611920565b60fc546040516370a0823160e01b81523060048201526000916001600160a01b0316906307a2d13a9082906370a082319060240160206040518083038186803b15801561089757600080fd5b505afa1580156108ab573d6000803e3d6000fd5b505050506040513d601f19601f820116820180604052508101906108cf9190612bd5565b6040518263ffffffff1660e01b81526004016108ed91815260200190565b60206040518083038186803b15801561090557600080fd5b505afa158015610919573d6000803e3d6000fd5b505050506040513d601f19601f8201168201806040525081019061093d9190612bd5565b60fd5461094a9190612d13565b905090565b60606036805461095e90612dd0565b80601f016020809104026020016040519081016040528092919081815260200182805461098a90612dd0565b80156109d75780601f106109ac576101008083540402835291602001916109d7565b820191906000526020600020905b8154815290600101906020018083116109ba57829003601f168201915b5050505050905090565b60006109ee826000611996565b92915050565b600033610a028185856119cd565b5060019392505050565b60006109ee826001611af1565b6000610a2361084b565b610a2d5750600090565b6000610a3761084b565b60fd54610a4690612710612d4b565b610a509190612d2b565b905060ff548111610a6357600091505090565b612710610a6e61084b565b60ff54610a7b9084612d8d565b610a859190612d4b565b610a8f9190612d2b565b91505090565b6000610a9f611b23565b60fc546001600160a01b0316600080610ab786610d9e565b9150915084821015610aeb5760405163ab32395f60e01b815260048101869052602481018390526044015b60405180910390fd5b6000612710610afc836109c4612d4b565b610b069190612d2b565b90508260fd6000828254610b1a9190612d8d565b90915550610b3590506001600160a01b03851633308a611b7d565b60fb54610b4f906001600160a01b03868116911683611be8565b610b593384611c1d565b60408051888152602081018590529081018390526060810182905233907f49926bbebe8474393f434dfa4f78694c0923efa07d19f2284518bfabd06eb7379060800160405180910390a25090925050506109ee600160c955565b600033610bc1858285611d3d565b610bcc858585611db1565b60019150505b9392505050565b600080610be5346118a6565b90506109ee3384600084611f5c565b610bfc611b23565b60fc546001600160a01b03163314610c3c5760fc5460405163c55ddc9760e01b81523360048201526001600160a01b039091166024820152604401610ae2565b6000610c46610a19565b905080821115610c73576040516336047df560e21b81526004810183905260248101829052604401610ae2565b8160fd6000828254610c859190612d8d565b909155505060fc54604051631696d40360e11b81523060048201526001600160a01b0390911690632d2da8069084906024016020604051808303818588803b158015610cd057600080fd5b505af1158015610ce4573d6000803e3d6000fd5b50505050506040513d601f19601f82011682018060405250810190610d099190612bd5565b5060408051428152602081018490527f7ac2a41af785a0be7c54324b10c6f29b473018b57e4b58f9b86a050124173b1b910160405180910390a150610d4e600160c955565b50565b600033610a02818585610d6483836118f5565b610d6e9190612d13565b6119cd565b6000610d7d611fec565b610d885760006109ee565b60001992915050565b610d99612006565b60ff55565b60fc5460009081906001600160a01b031681610dbd601e6101f4612d6a565b6040516303d1689d60e11b8152600481018790529091506001600160a01b038316906307a2d13a9060240160206040518083038186803b158015610e0057600080fd5b505afa158015610e14573d6000803e3d6000fd5b505050506040513d601f19601f82011682018060405250810190610e389190612bd5565b93506000610e79856040518060400160405280600e81526020016d09cdee840cadcdeeaced0408aa8960931b81525060fd546120609092919063ffffffff16565b60fe54909150601e90821015610eb95760fe54600090610e9d8461ffff8716612d4b565b610ea79190612d2b565b9050610eb5816101f4612d8d565b9150505b612710610ec68289612d4b565b610ed09190612d2b565b94506001600160a01b0384166307a2d13a610eeb878a612d8d565b6040518263ffffffff1660e01b8152600401610f0991815260200190565b60206040518083038186803b158015610f2157600080fd5b505afa158015610f35573d6000803e3d6000fd5b505050506040513d601f19601f82011682018060405250810190610f599190612bd5565b955050505050915091565b600080610f70846118a6565b9050610bd233848684611f5c565b610f86612006565b610f90600061208c565b565b610f9a612006565b60fe55565b600080610fab8461105c565b9050610bd233848387611f5c565b60606037805461095e90612dd0565b60003381610fd682866118f5565b9050838110156110365760405162461bcd60e51b815260206004820152602560248201527f45524332303a2064656372656173656420616c6c6f77616e63652062656c6f77604482015264207a65726f60d81b6064820152608401610ae2565b61104382868684036119cd565b506001949350505050565b600033610a02818585611db1565b60006109ee826001611996565b600061107484610a0c565b9050336001600160a01b0383161461109157611091823383611d3d565b600061109b61084b565b6110ad86670de0b6b3a7640000612d4b565b6110b79190612d2b565b9050806110d7576040516304fe3aa360e21b815260040160405180910390fd5b6000670de0b6b3a764000060fd54836110f09190612d4b565b6110fa9190612d2b565b60fc546040516370a0823160e01b8152306004820152919250600091670de0b6b3a7640000916001600160a01b0316906370a082319060240160206040518083038186803b15801561114b57600080fd5b505afa15801561115f573d6000803e3d6000fd5b505050506040513d601f19601f820116820180604052508101906111839190612bd5565b61118d9085612d4b565b6111979190612d2b565b90506111a385856120de565b8160fd60008282546111b59190612d8d565b909155505060fc546111d1906001600160a01b03168783611be8565b6111e46001600160a01b03871683611c1d565b60408051858152602081018490529081018290526001600160a01b0386169033907feb755d537a0caac69ccb1ac1dc2b7397a32bb19f93bd06013c57ac0b2e5dd69c9060600160405180910390a360408051838152602081018690526001600160a01b03808816929089169133917ffbde797d201c681b91056529119e0b02407c7bb96a4a2c75c01fc9667232c8db910160405180910390a45050509392505050565b6000611291611b23565b336001600160a01b038316146112ac576112ac823386611d3d565b60006112b760355490565b6112c986670de0b6b3a7640000612d4b565b6112d39190612d2b565b9050806112f3576040516376af5f4b60e01b815260040160405180910390fd5b670de0b6b3a764000060fd548261130a9190612d4b565b6113149190612d2b565b60fc546040516370a0823160e01b8152306004820152919350600091670de0b6b3a7640000916001600160a01b0316906370a082319060240160206040518083038186803b15801561136557600080fd5b505afa158015611379573d6000803e3d6000fd5b505050506040513d601f19601f8201168201806040525081019061139d9190612bd5565b6113a79084612d4b565b6113b19190612d2b565b90506113bd84876120de565b8260fd60008282546113cf9190612d8d565b909155505060fc546113eb906001600160a01b03168683611be8565b6113fe6001600160a01b03861684611c1d565b60408051878152602081018590529081018290526001600160a01b0385169033907feb755d537a0caac69ccb1ac1dc2b7397a32bb19f93bd06013c57ac0b2e5dd69c9060600160405180910390a360408051848152602081018890526001600160a01b03808716929088169133917ffbde797d201c681b91056529119e0b02407c7bb96a4a2c75c01fc9667232c8db910160405180910390a45050610bd2600160c955565b600054610100900460ff16158080156114c35750600054600160ff909116105b806114dd5750303b1580156114dd575060005460ff166001145b6115405760405162461bcd60e51b815260206004820152602e60248201527f496e697469616c697a61626c653a20636f6e747261637420697320616c72656160448201526d191e481a5b9a5d1a585b1a5e995960921b6064820152608401610ae2565b6000805460ff191660011790558015611563576000805461ff0019166101001790555b47156115bf5760405162461bcd60e51b815260206004820152602560248201527f4572726f7220696e697469616c697a652077697468206e6f207a65726f2062616044820152646c616e636560d81b6064820152608401610ae2565b826001600160a01b031663313ce5676040518163ffffffff1660e01b815260040160206040518083038186803b1580156115f857600080fd5b505afa15801561160c573d6000803e3d6000fd5b505050506040513d601f19601f820116820180604052508101906116309190612c58565b60ff1660121461169e5760405162461bcd60e51b815260206004820152603360248201527f774e617469766520746f6b656e206572726f722c20696d706c656d656e746174604482015272696f6e20666f7220313820646563696d616c7360681b6064820152608401610ae2565b6116a783612212565b6116f36040518060400160405280600981526020016804d6574614554484c560bc1b815250604051806040016040528060098152602001680dae08aa8905e8aa8960bb1b815250612242565b6116fb612277565b6117036122a6565b60fc80546001600160a01b038087166001600160a01b03199283161790925560fb8054928516929091169190911790556117456801a055690d9db80000610f92565b611750611388610d91565b8015611796576000805461ff0019169055604051600181527f7f26b83ff96e1f2b6a682f133852f6798a09c465da95921460cefb38474024989060200160405180910390a15b50505050565b60006117a6611b23565b60fc546001600160a01b031633146117e65760fc5460405163c55ddc9760e01b81523360048201526001600160a01b039091166024820152604401610ae2565b60fc5460405163ef8b30f760e01b81523460048201526001600160a01b0390911690600090829063ef8b30f79060240160206040518083038186803b15801561182e57600080fd5b505afa158015611842573d6000803e3d6000fd5b505050506040513d601f19601f820116820180604052508101906118669190612bd5565b905061187c6001600160a01b0383168583611be8565b3460fd600082825461188e9190612d13565b9091555090925050506118a1600160c955565b919050565b60006109ee826000611af1565b6001600160a01b0381166000908152603360205260408120546109ee906000611996565b6001600160a01b0381166000908152603360205260408120546109ee565b6001600160a01b03918216600090815260346020908152604080832093909416825291909152205490565b611928612006565b6001600160a01b03811661198d5760405162461bcd60e51b815260206004820152602660248201527f4f776e61626c653a206e6577206f776e657220697320746865207a65726f206160448201526564647265737360d01b6064820152608401610ae2565b610d4e8161208c565b6000806119a260355490565b905080156119c3576119be6119b561084b565b859083866122d5565b6119c5565b835b949350505050565b6001600160a01b038316611a2f5760405162461bcd60e51b8152602060048201526024808201527f45524332303a20617070726f76652066726f6d20746865207a65726f206164646044820152637265737360e01b6064820152608401610ae2565b6001600160a01b038216611a905760405162461bcd60e51b815260206004820152602260248201527f45524332303a20617070726f766520746f20746865207a65726f206164647265604482015261737360f01b6064820152608401610ae2565b6001600160a01b0383811660008181526034602090815260408083209487168084529482529182902085905590518481527f8c5be1e5ebec7d5bd14f71427d1e84f3dd0314c0f7b2291e5b200ac8c7c3b925910160405180910390a3505050565b600080611afd60355490565b9050831580611b0a575080155b6119c3576119be81611b1a61084b565b869190866122d5565b600260c9541415611b765760405162461bcd60e51b815260206004820152601f60248201527f5265656e7472616e637947756172643a207265656e7472616e742063616c6c006044820152606401610ae2565b600260c955565b6040516001600160a01b03808516602483015283166044820152606481018290526117969085906323b872dd60e01b906084015b60408051601f198184030181529190526020810180516001600160e01b03166001600160e01b03199093169290921790915261234e565b6040516001600160a01b038316602482015260448101829052611c1890849063a9059cbb60e01b90606401611bb1565b505050565b80471015611c6d5760405162461bcd60e51b815260206004820152601d60248201527f416464726573733a20696e73756666696369656e742062616c616e63650000006044820152606401610ae2565b6000826001600160a01b03168260405160006040518083038185875af1925050503d8060008114611cba576040519150601f19603f3d011682016040523d82523d6000602084013e611cbf565b606091505b5050905080611c185760405162461bcd60e51b815260206004820152603a60248201527f416464726573733a20756e61626c6520746f2073656e642076616c75652c207260448201527f6563697069656e74206d617920686176652072657665727465640000000000006064820152608401610ae2565b600160c955565b6000611d4984846118f5565b905060001981146117965781811015611da45760405162461bcd60e51b815260206004820152601d60248201527f45524332303a20696e73756666696369656e7420616c6c6f77616e63650000006044820152606401610ae2565b61179684848484036119cd565b6001600160a01b038316611e155760405162461bcd60e51b815260206004820152602560248201527f45524332303a207472616e736665722066726f6d20746865207a65726f206164604482015264647265737360d81b6064820152608401610ae2565b6001600160a01b038216611e775760405162461bcd60e51b815260206004820152602360248201527f45524332303a207472616e7366657220746f20746865207a65726f206164647260448201526265737360e81b6064820152608401610ae2565b6001600160a01b03831660009081526033602052604090205481811015611eef5760405162461bcd60e51b815260206004820152602660248201527f45524332303a207472616e7366657220616d6f756e7420657863656564732062604482015265616c616e636560d01b6064820152608401610ae2565b6001600160a01b0380851660008181526033602052604080822086860390559286168082529083902080548601905591517fddf252ad1be2c89b69c2b068fc378daa952ba7f163c4a11628f55a4df523b3ef90611f4f9086815260200190565b60405180910390a3611796565b611f64611b23565b611f6d82612420565b9150611f78826124b9565b611f8283826124f1565b8160fd6000828254611f949190612d13565b909155505060408051838152602081018390526001600160a01b0380861692908716917fd2491a9b4fe81a7cd4511e8b7b7743951b061dad5bed7da8a7795b080ee08c7e910160405180910390a3611796600160c955565b600080611ff761084b565b118061094a5750506035541590565b6097546001600160a01b03163314610f905760405162461bcd60e51b815260206004820181905260248201527f4f776e61626c653a2063616c6c6572206973206e6f7420746865206f776e65726044820152606401610ae2565b600081848411156120845760405162461bcd60e51b8152600401610ae29190612c95565b505050900390565b609780546001600160a01b038381166001600160a01b0319831681179093556040519116919082907f8be0079c531659141344cd1fd0a4f28419497f9722a3daafe3b4186f6b6457e090600090a35050565b6001600160a01b03821661213e5760405162461bcd60e51b815260206004820152602160248201527f45524332303a206275726e2066726f6d20746865207a65726f206164647265736044820152607360f81b6064820152608401610ae2565b6001600160a01b038216600090815260336020526040902054818110156121b25760405162461bcd60e51b815260206004820152602260248201527f45524332303a206275726e20616d6f756e7420657863656564732062616c616e604482015261636560f01b6064820152608401610ae2565b6001600160a01b03831660008181526033602090815260408083208686039055603580548790039055518581529192917fddf252ad1be2c89b69c2b068fc378daa952ba7f163c4a11628f55a4df523b3ef910160405180910390a3505050565b600054610100900460ff166122395760405162461bcd60e51b8152600401610ae290612cc8565b610d4e816125b2565b600054610100900460ff166122695760405162461bcd60e51b8152600401610ae290612cc8565b6122738282612637565b5050565b600054610100900460ff1661229e5760405162461bcd60e51b8152600401610ae290612cc8565b610f90612685565b600054610100900460ff166122cd5760405162461bcd60e51b8152600401610ae290612cc8565b610f906126b5565b6000806122e38686866126dc565b9050600183600281111561230757634e487b7160e01b600052602160045260246000fd5b14801561233257506000848061232d57634e487b7160e01b600052601260045260246000fd5b868809115b1561234557612342600182612d13565b90505b95945050505050565b60006123a3826040518060400160405280602081526020017f5361666545524332303a206c6f772d6c6576656c2063616c6c206661696c6564815250856001600160a01b031661279a9092919063ffffffff16565b805190915015611c1857808060200190518101906123c19190612b9d565b611c185760405162461bcd60e51b815260206004820152602a60248201527f5361666545524332303a204552433230206f7065726174696f6e20646964206e6044820152691bdd081cdd58d8d9595960b21b6064820152608401610ae2565b60008161242e573491505090565b6124573330846124466065546001600160a01b031690565b6001600160a01b0316929190611b7d565b606554604051632e1a7d4d60e01b8152600481018490526001600160a01b0390911690632e1a7d4d90602401600060405180830381600087803b15801561249d57600080fd5b505af11580156124b1573d6000803e3d6000fd5b505050505090565b662386f26fc10000811015610d4e5760405163ea691a4b60e01b8152662386f26fc10000600482015260248101829052604401610ae2565b6001600160a01b0382166125475760405162461bcd60e51b815260206004820152601f60248201527f45524332303a206d696e7420746f20746865207a65726f2061646472657373006044820152606401610ae2565b80603560008282546125599190612d13565b90915550506001600160a01b0382166000818152603360209081526040808320805486019055518481527fddf252ad1be2c89b69c2b068fc378daa952ba7f163c4a11628f55a4df523b3ef910160405180910390a35050565b600054610100900460ff166125d95760405162461bcd60e51b8152600401610ae290612cc8565b6000806125e5836127a9565b91509150816125f55760126125f7565b805b606580546001600160a01b039095166001600160a01b031960ff93909316600160a01b02929092166001600160a81b031990951694909417179092555050565b600054610100900460ff1661265e5760405162461bcd60e51b8152600401610ae290612cc8565b81516126719060369060208501906129fb565b508051611c189060379060208401906129fb565b600054610100900460ff166126ac5760405162461bcd60e51b8152600401610ae290612cc8565b610f903361208c565b600054610100900460ff16611d365760405162461bcd60e51b8152600401610ae290612cc8565b6000808060001985870985870292508281108382030391505080600014156127255783828161271b57634e487b7160e01b600052601260045260246000fd5b0492505050610bd2565b80841161273157600080fd5b60008486880960026001871981018816978890046003810283188082028403028082028403028082028403028082028403028082028403029081029092039091026000889003889004909101858311909403939093029303949094049190911702949350505050565b60606119c58484600085612885565b60408051600481526024810182526020810180516001600160e01b031663313ce56760e01b17905290516000918291829182916001600160a01b038716916127f091612c79565b600060405180830381855afa9150503d806000811461282b576040519150601f19603f3d011682016040523d82523d6000602084013e612830565b606091505b509150915081801561284457506020815110155b156128785760008180602001905181019061285f9190612bd5565b905060ff8111612876576001969095509350505050565b505b5060009485945092505050565b6060824710156128e65760405162461bcd60e51b815260206004820152602660248201527f416464726573733a20696e73756666696369656e742062616c616e636520666f6044820152651c8818d85b1b60d21b6064820152608401610ae2565b600080866001600160a01b031685876040516129029190612c79565b60006040518083038185875af1925050503d806000811461293f576040519150601f19603f3d011682016040523d82523d6000602084013e612944565b606091505b509150915061295587838387612960565b979650505050505050565b606083156129cc5782516129c5576001600160a01b0385163b6129c55760405162461bcd60e51b815260206004820152601d60248201527f416464726573733a2063616c6c20746f206e6f6e2d636f6e74726163740000006044820152606401610ae2565b50816119c5565b6119c583838151156129e15781518083602001fd5b8060405162461bcd60e51b8152600401610ae29190612c95565b828054612a0790612dd0565b90600052602060002090601f016020900481019282612a295760008555612a6f565b82601f10612a4257805160ff1916838001178555612a6f565b82800160010185558215612a6f579182015b82811115612a6f578251825591602001919060010190612a54565b50612a7b929150612a7f565b5090565b5b80821115612a7b5760008155600101612a80565b600060208284031215612aa5578081fd5b8135610bd281612e21565b600080600060608486031215612ac4578182fd5b8335612acf81612e21565b92506020840135612adf81612e21565b91506040840135612aef81612e21565b809150509250925092565b60008060408385031215612b0c578182fd5b8235612b1781612e21565b91506020830135612b2781612e21565b809150509250929050565b600080600060608486031215612b46578283fd5b8335612b5181612e21565b92506020840135612b6181612e21565b929592945050506040919091013590565b60008060408385031215612b84578182fd5b8235612b8f81612e21565b946020939093013593505050565b600060208284031215612bae578081fd5b81518015158114610bd2578182fd5b600060208284031215612bce578081fd5b5035919050565b600060208284031215612be6578081fd5b5051919050565b60008060408385031215612bff578182fd5b823591506020830135612b2781612e21565b600080600060608486031215612c25578283fd5b833592506020840135612adf81612e21565b60008060408385031215612c49578182fd5b50508035926020909101359150565b600060208284031215612c69578081fd5b815160ff81168114610bd2578182fd5b60008251612c8b818460208701612da4565b9190910192915050565b6020815260008251806020840152612cb4816040850160208701612da4565b601f01601f19169190910160400192915050565b6020808252602b908201527f496e697469616c697a61626c653a20636f6e7472616374206973206e6f74206960408201526a6e697469616c697a696e6760a81b606082015260800190565b60008219821115612d2657612d26612e0b565b500190565b600082612d4657634e487b7160e01b81526012600452602481fd5b500490565b6000816000190483118215151615612d6557612d65612e0b565b500290565b600061ffff83811690831681811015612d8557612d85612e0b565b039392505050565b600082821015612d9f57612d9f612e0b565b500390565b60005b83811015612dbf578181015183820152602001612da7565b838111156117965750506000910152565b600181811c90821680612de457607f821691505b60208210811415612e0557634e487b7160e01b600052602260045260246000fd5b50919050565b634e487b7160e01b600052601160045260246000fd5b6001600160a01b0381168114610d4e57600080fdfea26469706673582212201ba5869e58b569e508e4f70c95eb1cfe6066409c69b37a1c314a8bf1af4d5ffa64736f6c63430008040033","opcodes":"PUSH1 0x80 PUSH1 0x40 MSTORE CALLVALUE DUP1 ISZERO PUSH2 0x10 JUMPI PUSH1 0x0 DUP1 REVERT JUMPDEST POP PUSH2 0x2E6C DUP1 PUSH2 0x20 PUSH1 0x0 CODECOPY PUSH1 0x0 RETURN INVALID PUSH1 0x80 PUSH1 0x40 MSTORE PUSH1 0x4 CALLDATASIZE LT PUSH2 0x28C JUMPI PUSH1 0x0 CALLDATALOAD PUSH1 0xE0 SHR DUP1 PUSH4 0x715018A6 GT PUSH2 0x15A JUMPI DUP1 PUSH4 0xBA087652 GT PUSH2 0xC1 JUMPI DUP1 PUSH4 0xCE96CB77 GT PUSH2 0x7A JUMPI DUP1 PUSH4 0xCE96CB77 EQ PUSH2 0x797 JUMPI DUP1 PUSH4 0xD905777E EQ PUSH2 0x7B7 JUMPI DUP1 PUSH4 0xDD62ED3E EQ PUSH2 0x7D7 JUMPI DUP1 PUSH4 0xE1E158A5 EQ PUSH2 0x7F7 JUMPI DUP1 PUSH4 0xEF8B30F7 EQ PUSH2 0x777 JUMPI DUP1 PUSH4 0xF2FDE38B EQ PUSH2 0x82B JUMPI PUSH1 0x0 DUP1 REVERT JUMPDEST DUP1 PUSH4 0xBA087652 EQ PUSH2 0x6EC JUMPI DUP1 PUSH4 0xBC063E1A EQ PUSH2 0x70C JUMPI DUP1 PUSH4 0xC0C53B8B EQ PUSH2 0x722 JUMPI DUP1 PUSH4 0xC3E8C4FA EQ PUSH2 0x742 JUMPI DUP1 PUSH4 0xC63D75B6 EQ PUSH2 0x755 JUMPI DUP1 PUSH4 0xC6E6F592 EQ PUSH2 0x777 JUMPI PUSH1 0x0 DUP1 REVERT JUMPDEST DUP1 PUSH4 0x95D89B41 GT PUSH2 0x113 JUMPI DUP1 PUSH4 0x95D89B41 EQ PUSH2 0x637 JUMPI DUP1 PUSH4 0x97610F30 EQ PUSH2 0x64C JUMPI DUP1 PUSH4 0xA457C2D7 EQ PUSH2 0x66C JUMPI DUP1 PUSH4 0xA9059CBB EQ PUSH2 0x68C JUMPI DUP1 PUSH4 0xB3D7F6B9 EQ PUSH2 0x6AC JUMPI DUP1 PUSH4 0xB460AF94 EQ PUSH2 0x6CC JUMPI PUSH1 0x0 DUP1 REVERT JUMPDEST DUP1 PUSH4 0x715018A6 EQ PUSH2 0x586 JUMPI DUP1 PUSH4 0x76C7A3C7 EQ PUSH2 0x59B JUMPI DUP1 PUSH4 0x7D287F4F EQ PUSH2 0x5C3 JUMPI DUP1 PUSH4 0x8DA5CB5B EQ PUSH2 0x5E3 JUMPI DUP1 PUSH4 0x92258EC8 EQ PUSH2 0x601 JUMPI DUP1 PUSH4 0x94BF804D EQ PUSH2 0x617 JUMPI PUSH1 0x0 DUP1 REVERT JUMPDEST DUP1 PUSH4 0x313CE567 GT PUSH2 0x1FE JUMPI DUP1 PUSH4 0x4CDAD506 GT PUSH2 0x1B7 JUMPI DUP1 PUSH4 0x4CDAD506 EQ PUSH2 0x2E2 JUMPI DUP1 PUSH4 0x4E6630B0 EQ PUSH2 0x4C5 JUMPI DUP1 PUSH4 0x5C195217 EQ PUSH2 0x4DB JUMPI DUP1 PUSH4 0x61D027B3 EQ PUSH2 0x510 JUMPI DUP1 PUSH4 0x6E553F65 EQ PUSH2 0x530 JUMPI DUP1 PUSH4 0x70A08231 EQ PUSH2 0x550 JUMPI PUSH1 0x0 DUP1 REVERT JUMPDEST DUP1 PUSH4 0x313CE567 EQ PUSH2 0x3E5 JUMPI DUP1 PUSH4 0x3701206B EQ PUSH2 0x411 JUMPI DUP1 PUSH4 0x38D52E0F EQ PUSH2 0x433 JUMPI DUP1 PUSH4 0x39509351 EQ PUSH2 0x465 JUMPI DUP1 PUSH4 0x402D267D EQ PUSH2 0x485 JUMPI DUP1 PUSH4 0x489569D7 EQ PUSH2 0x4A5 JUMPI PUSH1 0x0 DUP1 REVERT JUMPDEST DUP1 PUSH4 0x18160DDD GT PUSH2 0x250 JUMPI DUP1 PUSH4 0x18160DDD EQ PUSH2 0x352 JUMPI DUP1 PUSH4 0x1EFC1173 EQ PUSH2 0x367 JUMPI DUP1 PUSH4 0x20168730 EQ PUSH2 0x37C JUMPI DUP1 PUSH4 0x23B872DD EQ PUSH2 0x39C JUMPI DUP1 PUSH4 0x2D2DA806 EQ PUSH2 0x3BC JUMPI DUP1 PUSH4 0x3100F4F2 EQ PUSH2 0x3CF JUMPI PUSH1 0x0 DUP1 REVERT JUMPDEST DUP1 PUSH4 0x1E1D114 EQ PUSH2 0x298 JUMPI DUP1 PUSH4 0x6FDDE03 EQ PUSH2 0x2C0 JUMPI DUP1 PUSH4 0x7A2D13A EQ PUSH2 0x2E2 JUMPI DUP1 PUSH4 0x95EA7B3 EQ PUSH2 0x302 JUMPI DUP1 PUSH4 0xA28A477 EQ PUSH2 0x332 JUMPI PUSH1 0x0 DUP1 REVERT JUMPDEST CALLDATASIZE PUSH2 0x293 JUMPI STOP JUMPDEST PUSH1 0x0 DUP1 REVERT JUMPDEST CALLVALUE DUP1 ISZERO PUSH2 0x2A4 JUMPI PUSH1 0x0 DUP1 REVERT JUMPDEST POP PUSH2 0x2AD PUSH2 0x84B JUMP JUMPDEST PUSH1 0x40 MLOAD SWAP1 DUP2 MSTORE PUSH1 0x20 ADD JUMPDEST PUSH1 0x40 MLOAD DUP1 SWAP2 SUB SWAP1 RETURN JUMPDEST CALLVALUE DUP1 ISZERO PUSH2 0x2CC JUMPI PUSH1 0x0 DUP1 REVERT JUMPDEST POP PUSH2 0x2D5 PUSH2 0x94F JUMP JUMPDEST PUSH1 0x40 MLOAD PUSH2 0x2B7 SWAP2 SWAP1 PUSH2 0x2C95 JUMP JUMPDEST CALLVALUE DUP1 ISZERO PUSH2 0x2EE JUMPI PUSH1 0x0 DUP1 REVERT JUMPDEST POP PUSH2 0x2AD PUSH2 0x2FD CALLDATASIZE PUSH1 0x4 PUSH2 0x2BBD JUMP JUMPDEST PUSH2 0x9E1 JUMP JUMPDEST CALLVALUE DUP1 ISZERO PUSH2 0x30E JUMPI PUSH1 0x0 DUP1 REVERT JUMPDEST POP PUSH2 0x322 PUSH2 0x31D CALLDATASIZE PUSH1 0x4 PUSH2 0x2B72 JUMP JUMPDEST PUSH2 0x9F4 JUMP JUMPDEST PUSH1 0x40 MLOAD SWAP1 ISZERO ISZERO DUP2 MSTORE PUSH1 0x20 ADD PUSH2 0x2B7 JUMP JUMPDEST CALLVALUE DUP1 ISZERO PUSH2 0x33E JUMPI PUSH1 0x0 DUP1 REVERT JUMPDEST POP PUSH2 0x2AD PUSH2 0x34D CALLDATASIZE PUSH1 0x4 PUSH2 0x2BBD JUMP JUMPDEST PUSH2 0xA0C JUMP JUMPDEST CALLVALUE DUP1 ISZERO PUSH2 0x35E JUMPI PUSH1 0x0 DUP1 REVERT JUMPDEST POP PUSH1 0x35 SLOAD PUSH2 0x2AD JUMP JUMPDEST CALLVALUE DUP1 ISZERO PUSH2 0x373 JUMPI PUSH1 0x0 DUP1 REVERT JUMPDEST POP PUSH2 0x2AD PUSH2 0xA19 JUMP JUMPDEST CALLVALUE DUP1 ISZERO PUSH2 0x388 JUMPI PUSH1 0x0 DUP1 REVERT JUMPDEST POP PUSH2 0x2AD PUSH2 0x397 CALLDATASIZE PUSH1 0x4 PUSH2 0x2C37 JUMP JUMPDEST PUSH2 0xA95 JUMP JUMPDEST CALLVALUE DUP1 ISZERO PUSH2 0x3A8 JUMPI PUSH1 0x0 DUP1 REVERT JUMPDEST POP PUSH2 0x322 PUSH2 0x3B7 CALLDATASIZE PUSH1 0x4 PUSH2 0x2B32 JUMP JUMPDEST PUSH2 0xBB3 JUMP JUMPDEST PUSH2 0x2AD PUSH2 0x3CA CALLDATASIZE PUSH1 0x4 PUSH2 0x2A94 JUMP JUMPDEST PUSH2 0xBD9 JUMP JUMPDEST CALLVALUE DUP1 ISZERO PUSH2 0x3DB JUMPI PUSH1 0x0 DUP1 REVERT JUMPDEST POP PUSH2 0x2AD PUSH1 0xFF SLOAD DUP2 JUMP JUMPDEST CALLVALUE DUP1 ISZERO PUSH2 0x3F1 JUMPI PUSH1 0x0 DUP1 REVERT JUMPDEST POP PUSH1 0x65 SLOAD PUSH1 0x1 PUSH1 0xA0 SHL SWAP1 DIV PUSH1 0xFF AND PUSH1 0x40 MLOAD PUSH1 0xFF SWAP1 SWAP2 AND DUP2 MSTORE PUSH1 0x20 ADD PUSH2 0x2B7 JUMP JUMPDEST CALLVALUE DUP1 ISZERO PUSH2 0x41D JUMPI PUSH1 0x0 DUP1 REVERT JUMPDEST POP PUSH2 0x431 PUSH2 0x42C CALLDATASIZE PUSH1 0x4 PUSH2 0x2BBD JUMP JUMPDEST PUSH2 0xBF4 JUMP JUMPDEST STOP JUMPDEST CALLVALUE DUP1 ISZERO PUSH2 0x43F JUMPI PUSH1 0x0 DUP1 REVERT JUMPDEST POP PUSH1 0x65 SLOAD PUSH1 0x1 PUSH1 0x1 PUSH1 0xA0 SHL SUB AND JUMPDEST PUSH1 0x40 MLOAD PUSH1 0x1 PUSH1 0x1 PUSH1 0xA0 SHL SUB SWAP1 SWAP2 AND DUP2 MSTORE PUSH1 0x20 ADD PUSH2 0x2B7 JUMP JUMPDEST CALLVALUE DUP1 ISZERO PUSH2 0x471 JUMPI PUSH1 0x0 DUP1 REVERT JUMPDEST POP PUSH2 0x322 PUSH2 0x480 CALLDATASIZE PUSH1 0x4 PUSH2 0x2B72 JUMP JUMPDEST PUSH2 0xD51 JUMP JUMPDEST CALLVALUE DUP1 ISZERO PUSH2 0x491 JUMPI PUSH1 0x0 DUP1 REVERT JUMPDEST POP PUSH2 0x2AD PUSH2 0x4A0 CALLDATASIZE PUSH1 0x4 PUSH2 0x2A94 JUMP JUMPDEST PUSH2 0xD73 JUMP JUMPDEST CALLVALUE DUP1 ISZERO PUSH2 0x4B1 JUMPI PUSH1 0x0 DUP1 REVERT JUMPDEST POP PUSH2 0x431 PUSH2 0x4C0 CALLDATASIZE PUSH1 0x4 PUSH2 0x2BBD JUMP JUMPDEST PUSH2 0xD91 JUMP JUMPDEST CALLVALUE DUP1 ISZERO PUSH2 0x4D1 JUMPI PUSH1 0x0 DUP1 REVERT JUMPDEST POP PUSH2 0x2AD PUSH1 0xFD SLOAD DUP2 JUMP JUMPDEST CALLVALUE DUP1 ISZERO PUSH2 0x4E7 JUMPI PUSH1 0x0 DUP1 REVERT JUMPDEST POP PUSH2 0x4FB PUSH2 0x4F6 CALLDATASIZE PUSH1 0x4 PUSH2 0x2BBD JUMP JUMPDEST PUSH2 0xD9E JUMP JUMPDEST PUSH1 0x40 DUP1 MLOAD SWAP3 DUP4 MSTORE PUSH1 0x20 DUP4 ADD SWAP2 SWAP1 SWAP2 MSTORE ADD PUSH2 0x2B7 JUMP JUMPDEST CALLVALUE DUP1 ISZERO PUSH2 0x51C JUMPI PUSH1 0x0 DUP1 REVERT JUMPDEST POP PUSH1 0xFB SLOAD PUSH2 0x44D SWAP1 PUSH1 0x1 PUSH1 0x1 PUSH1 0xA0 SHL SUB AND DUP2 JUMP JUMPDEST CALLVALUE DUP1 ISZERO PUSH2 0x53C JUMPI PUSH1 0x0 DUP1 REVERT JUMPDEST POP PUSH2 0x2AD PUSH2 0x54B CALLDATASIZE PUSH1 0x4 PUSH2 0x2BED JUMP JUMPDEST PUSH2 0xF64 JUMP JUMPDEST CALLVALUE DUP1 ISZERO PUSH2 0x55C JUMPI PUSH1 0x0 DUP1 REVERT JUMPDEST POP PUSH2 0x2AD PUSH2 0x56B CALLDATASIZE PUSH1 0x4 PUSH2 0x2A94 JUMP JUMPDEST PUSH1 0x1 PUSH1 0x1 PUSH1 0xA0 SHL SUB AND PUSH1 0x0 SWAP1 DUP2 MSTORE PUSH1 0x33 PUSH1 0x20 MSTORE PUSH1 0x40 SWAP1 KECCAK256 SLOAD SWAP1 JUMP JUMPDEST CALLVALUE DUP1 ISZERO PUSH2 0x592 JUMPI PUSH1 0x0 DUP1 REVERT JUMPDEST POP PUSH2 0x431 PUSH2 0xF7E JUMP JUMPDEST CALLVALUE DUP1 ISZERO PUSH2 0x5A7 JUMPI PUSH1 0x0 DUP1 REVERT JUMPDEST POP PUSH2 0x5B0 PUSH1 0x1E DUP2 JUMP JUMPDEST PUSH1 0x40 MLOAD PUSH2 0xFFFF SWAP1 SWAP2 AND DUP2 MSTORE PUSH1 0x20 ADD PUSH2 0x2B7 JUMP JUMPDEST CALLVALUE DUP1 ISZERO PUSH2 0x5CF JUMPI PUSH1 0x0 DUP1 REVERT JUMPDEST POP PUSH2 0x431 PUSH2 0x5DE CALLDATASIZE PUSH1 0x4 PUSH2 0x2BBD JUMP JUMPDEST PUSH2 0xF92 JUMP JUMPDEST CALLVALUE DUP1 ISZERO PUSH2 0x5EF JUMPI PUSH1 0x0 DUP1 REVERT JUMPDEST POP PUSH1 0x97 SLOAD PUSH1 0x1 PUSH1 0x1 PUSH1 0xA0 SHL SUB AND PUSH2 0x44D JUMP JUMPDEST CALLVALUE DUP1 ISZERO PUSH2 0x60D JUMPI PUSH1 0x0 DUP1 REVERT JUMPDEST POP PUSH2 0x2AD PUSH1 0xFE SLOAD DUP2 JUMP JUMPDEST CALLVALUE DUP1 ISZERO PUSH2 0x623 JUMPI PUSH1 0x0 DUP1 REVERT JUMPDEST POP PUSH2 0x2AD PUSH2 0x632 CALLDATASIZE PUSH1 0x4 PUSH2 0x2BED JUMP JUMPDEST PUSH2 0xF9F JUMP JUMPDEST CALLVALUE DUP1 ISZERO PUSH2 0x643 JUMPI PUSH1 0x0 DUP1 REVERT JUMPDEST POP PUSH2 0x2D5 PUSH2 0xFB9 JUMP JUMPDEST CALLVALUE DUP1 ISZERO PUSH2 0x658 JUMPI PUSH1 0x0 DUP1 REVERT JUMPDEST POP PUSH1 0xFC SLOAD PUSH2 0x44D SWAP1 PUSH1 0x1 PUSH1 0x1 PUSH1 0xA0 SHL SUB AND DUP2 JUMP JUMPDEST CALLVALUE DUP1 ISZERO PUSH2 0x678 JUMPI PUSH1 0x0 DUP1 REVERT JUMPDEST POP PUSH2 0x322 PUSH2 0x687 CALLDATASIZE PUSH1 0x4 PUSH2 0x2B72 JUMP JUMPDEST PUSH2 0xFC8 JUMP JUMPDEST CALLVALUE DUP1 ISZERO PUSH2 0x698 JUMPI PUSH1 0x0 DUP1 REVERT JUMPDEST POP PUSH2 0x322 PUSH2 0x6A7 CALLDATASIZE PUSH1 0x4 PUSH2 0x2B72 JUMP JUMPDEST PUSH2 0x104E JUMP JUMPDEST CALLVALUE DUP1 ISZERO PUSH2 0x6B8 JUMPI PUSH1 0x0 DUP1 REVERT JUMPDEST POP PUSH2 0x2AD PUSH2 0x6C7 CALLDATASIZE PUSH1 0x4 PUSH2 0x2BBD JUMP JUMPDEST PUSH2 0x105C JUMP JUMPDEST CALLVALUE DUP1 ISZERO PUSH2 0x6D8 JUMPI PUSH1 0x0 DUP1 REVERT JUMPDEST POP PUSH2 0x2AD PUSH2 0x6E7 CALLDATASIZE PUSH1 0x4 PUSH2 0x2C11 JUMP JUMPDEST PUSH2 0x1069 JUMP JUMPDEST CALLVALUE DUP1 ISZERO PUSH2 0x6F8 JUMPI PUSH1 0x0 DUP1 REVERT JUMPDEST POP PUSH2 0x2AD PUSH2 0x707 CALLDATASIZE PUSH1 0x4 PUSH2 0x2C11 JUMP JUMPDEST PUSH2 0x1287 JUMP JUMPDEST CALLVALUE DUP1 ISZERO PUSH2 0x718 JUMPI PUSH1 0x0 DUP1 REVERT JUMPDEST POP PUSH2 0x5B0 PUSH2 0x1F4 DUP2 JUMP JUMPDEST CALLVALUE DUP1 ISZERO PUSH2 0x72E JUMPI PUSH1 0x0 DUP1 REVERT JUMPDEST POP PUSH2 0x431 PUSH2 0x73D CALLDATASIZE PUSH1 0x4 PUSH2 0x2AB0 JUMP JUMPDEST PUSH2 0x14A3 JUMP JUMPDEST PUSH2 0x2AD PUSH2 0x750 CALLDATASIZE PUSH1 0x4 PUSH2 0x2A94 JUMP JUMPDEST PUSH2 0x179C JUMP JUMPDEST CALLVALUE DUP1 ISZERO PUSH2 0x761 JUMPI PUSH1 0x0 DUP1 REVERT JUMPDEST POP PUSH2 0x2AD PUSH2 0x770 CALLDATASIZE PUSH1 0x4 PUSH2 0x2A94 JUMP JUMPDEST POP PUSH1 0x0 NOT SWAP1 JUMP JUMPDEST CALLVALUE DUP1 ISZERO PUSH2 0x783 JUMPI PUSH1 0x0 DUP1 REVERT JUMPDEST POP PUSH2 0x2AD PUSH2 0x792 CALLDATASIZE PUSH1 0x4 PUSH2 0x2BBD JUMP JUMPDEST PUSH2 0x18A6 JUMP JUMPDEST CALLVALUE DUP1 ISZERO PUSH2 0x7A3 JUMPI PUSH1 0x0 DUP1 REVERT JUMPDEST POP PUSH2 0x2AD PUSH2 0x7B2 CALLDATASIZE PUSH1 0x4 PUSH2 0x2A94 JUMP JUMPDEST PUSH2 0x18B3 JUMP JUMPDEST CALLVALUE DUP1 ISZERO PUSH2 0x7C3 JUMPI PUSH1 0x0 DUP1 REVERT JUMPDEST POP PUSH2 0x2AD PUSH2 0x7D2 CALLDATASIZE PUSH1 0x4 PUSH2 0x2A94 JUMP JUMPDEST PUSH2 0x18D7 JUMP JUMPDEST CALLVALUE DUP1 ISZERO PUSH2 0x7E3 JUMPI PUSH1 0x0 DUP1 REVERT JUMPDEST POP PUSH2 0x2AD PUSH2 0x7F2 CALLDATASIZE PUSH1 0x4 PUSH2 0x2AFA JUMP JUMPDEST PUSH2 0x18F5 JUMP JUMPDEST CALLVALUE DUP1 ISZERO PUSH2 0x803 JUMPI PUSH1 0x0 DUP1 REVERT JUMPDEST POP PUSH2 0x812 PUSH7 0x2386F26FC10000 DUP2 JUMP JUMPDEST PUSH1 0x40 MLOAD PUSH8 0xFFFFFFFFFFFFFFFF SWAP1 SWAP2 AND DUP2 MSTORE PUSH1 0x20 ADD PUSH2 0x2B7 JUMP JUMPDEST CALLVALUE DUP1 ISZERO PUSH2 0x837 JUMPI PUSH1 0x0 DUP1 REVERT JUMPDEST POP PUSH2 0x431 PUSH2 0x846 CALLDATASIZE PUSH1 0x4 PUSH2 0x2A94 JUMP JUMPDEST PUSH2 0x1920 JUMP JUMPDEST PUSH1 0xFC SLOAD PUSH1 0x40 MLOAD PUSH4 0x70A08231 PUSH1 0xE0 SHL DUP2 MSTORE ADDRESS PUSH1 0x4 DUP3 ADD MSTORE PUSH1 0x0 SWAP2 PUSH1 0x1 PUSH1 0x1 PUSH1 0xA0 SHL SUB AND SWAP1 PUSH4 0x7A2D13A SWAP1 DUP3 SWAP1 PUSH4 0x70A08231 SWAP1 PUSH1 0x24 ADD PUSH1 0x20 PUSH1 0x40 MLOAD DUP1 DUP4 SUB DUP2 DUP7 DUP1 EXTCODESIZE ISZERO DUP1 ISZERO PUSH2 0x897 JUMPI PUSH1 0x0 DUP1 REVERT JUMPDEST POP GAS STATICCALL ISZERO DUP1 ISZERO PUSH2 0x8AB JUMPI RETURNDATASIZE PUSH1 0x0 DUP1 RETURNDATACOPY RETURNDATASIZE PUSH1 0x0 REVERT JUMPDEST POP POP POP POP PUSH1 0x40 MLOAD RETURNDATASIZE PUSH1 0x1F NOT PUSH1 0x1F DUP3 ADD AND DUP3 ADD DUP1 PUSH1 0x40 MSTORE POP DUP2 ADD SWAP1 PUSH2 0x8CF SWAP2 SWAP1 PUSH2 0x2BD5 JUMP JUMPDEST PUSH1 0x40 MLOAD DUP3 PUSH4 0xFFFFFFFF AND PUSH1 0xE0 SHL DUP2 MSTORE PUSH1 0x4 ADD PUSH2 0x8ED SWAP2 DUP2 MSTORE PUSH1 0x20 ADD SWAP1 JUMP JUMPDEST PUSH1 0x20 PUSH1 0x40 MLOAD DUP1 DUP4 SUB DUP2 DUP7 DUP1 EXTCODESIZE ISZERO DUP1 ISZERO PUSH2 0x905 JUMPI PUSH1 0x0 DUP1 REVERT JUMPDEST POP GAS STATICCALL ISZERO DUP1 ISZERO PUSH2 0x919 JUMPI RETURNDATASIZE PUSH1 0x0 DUP1 RETURNDATACOPY RETURNDATASIZE PUSH1 0x0 REVERT JUMPDEST POP POP POP POP PUSH1 0x40 MLOAD RETURNDATASIZE PUSH1 0x1F NOT PUSH1 0x1F DUP3 ADD AND DUP3 ADD DUP1 PUSH1 0x40 MSTORE POP DUP2 ADD SWAP1 PUSH2 0x93D SWAP2 SWAP1 PUSH2 0x2BD5 JUMP JUMPDEST PUSH1 0xFD SLOAD PUSH2 0x94A SWAP2 SWAP1 PUSH2 0x2D13 JUMP JUMPDEST SWAP1 POP SWAP1 JUMP JUMPDEST PUSH1 0x60 PUSH1 0x36 DUP1 SLOAD PUSH2 0x95E SWAP1 PUSH2 0x2DD0 JUMP JUMPDEST DUP1 PUSH1 0x1F ADD PUSH1 0x20 DUP1 SWAP2 DIV MUL PUSH1 0x20 ADD PUSH1 0x40 MLOAD SWAP1 DUP2 ADD PUSH1 0x40 MSTORE DUP1 SWAP3 SWAP2 SWAP1 DUP2 DUP2 MSTORE PUSH1 0x20 ADD DUP3 DUP1 SLOAD PUSH2 0x98A SWAP1 PUSH2 0x2DD0 JUMP JUMPDEST DUP1 ISZERO PUSH2 0x9D7 JUMPI DUP1 PUSH1 0x1F LT PUSH2 0x9AC JUMPI PUSH2 0x100 DUP1 DUP4 SLOAD DIV MUL DUP4 MSTORE SWAP2 PUSH1 0x20 ADD SWAP2 PUSH2 0x9D7 JUMP JUMPDEST DUP3 ADD SWAP2 SWAP1 PUSH1 0x0 MSTORE PUSH1 0x20 PUSH1 0x0 KECCAK256 SWAP1 JUMPDEST DUP2 SLOAD DUP2 MSTORE SWAP1 PUSH1 0x1 ADD SWAP1 PUSH1 0x20 ADD DUP1 DUP4 GT PUSH2 0x9BA JUMPI DUP3 SWAP1 SUB PUSH1 0x1F AND DUP3 ADD SWAP2 JUMPDEST POP POP POP POP POP SWAP1 POP SWAP1 JUMP JUMPDEST PUSH1 0x0 PUSH2 0x9EE DUP3 PUSH1 0x0 PUSH2 0x1996 JUMP JUMPDEST SWAP3 SWAP2 POP POP JUMP JUMPDEST PUSH1 0x0 CALLER PUSH2 0xA02 DUP2 DUP6 DUP6 PUSH2 0x19CD JUMP JUMPDEST POP PUSH1 0x1 SWAP4 SWAP3 POP POP POP JUMP JUMPDEST PUSH1 0x0 PUSH2 0x9EE DUP3 PUSH1 0x1 PUSH2 0x1AF1 JUMP JUMPDEST PUSH1 0x0 PUSH2 0xA23 PUSH2 0x84B JUMP JUMPDEST PUSH2 0xA2D JUMPI POP PUSH1 0x0 SWAP1 JUMP JUMPDEST PUSH1 0x0 PUSH2 0xA37 PUSH2 0x84B JUMP JUMPDEST PUSH1 0xFD SLOAD PUSH2 0xA46 SWAP1 PUSH2 0x2710 PUSH2 0x2D4B JUMP JUMPDEST PUSH2 0xA50 SWAP2 SWAP1 PUSH2 0x2D2B JUMP JUMPDEST SWAP1 POP PUSH1 0xFF SLOAD DUP2 GT PUSH2 0xA63 JUMPI PUSH1 0x0 SWAP2 POP POP SWAP1 JUMP JUMPDEST PUSH2 0x2710 PUSH2 0xA6E PUSH2 0x84B JUMP JUMPDEST PUSH1 0xFF SLOAD PUSH2 0xA7B SWAP1 DUP5 PUSH2 0x2D8D JUMP JUMPDEST PUSH2 0xA85 SWAP2 SWAP1 PUSH2 0x2D4B JUMP JUMPDEST PUSH2 0xA8F SWAP2 SWAP1 PUSH2 0x2D2B JUMP JUMPDEST SWAP2 POP POP SWAP1 JUMP JUMPDEST PUSH1 0x0 PUSH2 0xA9F PUSH2 0x1B23 JUMP JUMPDEST PUSH1 0xFC SLOAD PUSH1 0x1 PUSH1 0x1 PUSH1 0xA0 SHL SUB AND PUSH1 0x0 DUP1 PUSH2 0xAB7 DUP7 PUSH2 0xD9E JUMP JUMPDEST SWAP2 POP SWAP2 POP DUP5 DUP3 LT ISZERO PUSH2 0xAEB JUMPI PUSH1 0x40 MLOAD PUSH4 0xAB32395F PUSH1 0xE0 SHL DUP2 MSTORE PUSH1 0x4 DUP2 ADD DUP7 SWAP1 MSTORE PUSH1 0x24 DUP2 ADD DUP4 SWAP1 MSTORE PUSH1 0x44 ADD JUMPDEST PUSH1 0x40 MLOAD DUP1 SWAP2 SUB SWAP1 REVERT JUMPDEST PUSH1 0x0 PUSH2 0x2710 PUSH2 0xAFC DUP4 PUSH2 0x9C4 PUSH2 0x2D4B JUMP JUMPDEST PUSH2 0xB06 SWAP2 SWAP1 PUSH2 0x2D2B JUMP JUMPDEST SWAP1 POP DUP3 PUSH1 0xFD PUSH1 0x0 DUP3 DUP3 SLOAD PUSH2 0xB1A SWAP2 SWAP1 PUSH2 0x2D8D JUMP JUMPDEST SWAP1 SWAP2 SSTORE POP PUSH2 0xB35 SWAP1 POP PUSH1 0x1 PUSH1 0x1 PUSH1 0xA0 SHL SUB DUP6 AND CALLER ADDRESS DUP11 PUSH2 0x1B7D JUMP JUMPDEST PUSH1 0xFB SLOAD PUSH2 0xB4F SWAP1 PUSH1 0x1 PUSH1 0x1 PUSH1 0xA0 SHL SUB DUP7 DUP2 AND SWAP2 AND DUP4 PUSH2 0x1BE8 JUMP JUMPDEST PUSH2 0xB59 CALLER DUP5 PUSH2 0x1C1D JUMP JUMPDEST PUSH1 0x40 DUP1 MLOAD DUP9 DUP2 MSTORE PUSH1 0x20 DUP2 ADD DUP6 SWAP1 MSTORE SWAP1 DUP2 ADD DUP4 SWAP1 MSTORE PUSH1 0x60 DUP2 ADD DUP3 SWAP1 MSTORE CALLER SWAP1 PUSH32 0x49926BBEBE8474393F434DFA4F78694C0923EFA07D19F2284518BFABD06EB737 SWAP1 PUSH1 0x80 ADD PUSH1 0x40 MLOAD DUP1 SWAP2 SUB SWAP1 LOG2 POP SWAP1 SWAP3 POP POP POP PUSH2 0x9EE PUSH1 0x1 PUSH1 0xC9 SSTORE JUMP JUMPDEST PUSH1 0x0 CALLER PUSH2 0xBC1 DUP6 DUP3 DUP6 PUSH2 0x1D3D JUMP JUMPDEST PUSH2 0xBCC DUP6 DUP6 DUP6 PUSH2 0x1DB1 JUMP JUMPDEST PUSH1 0x1 SWAP2 POP POP JUMPDEST SWAP4 SWAP3 POP POP POP JUMP JUMPDEST PUSH1 0x0 DUP1 PUSH2 0xBE5 CALLVALUE PUSH2 0x18A6 JUMP JUMPDEST SWAP1 POP PUSH2 0x9EE CALLER DUP5 PUSH1 0x0 DUP5 PUSH2 0x1F5C JUMP JUMPDEST PUSH2 0xBFC PUSH2 0x1B23 JUMP JUMPDEST PUSH1 0xFC SLOAD PUSH1 0x1 PUSH1 0x1 PUSH1 0xA0 SHL SUB AND CALLER EQ PUSH2 0xC3C JUMPI PUSH1 0xFC SLOAD PUSH1 0x40 MLOAD PUSH4 0xC55DDC97 PUSH1 0xE0 SHL DUP2 MSTORE CALLER PUSH1 0x4 DUP3 ADD MSTORE PUSH1 0x1 PUSH1 0x1 PUSH1 0xA0 SHL SUB SWAP1 SWAP2 AND PUSH1 0x24 DUP3 ADD MSTORE PUSH1 0x44 ADD PUSH2 0xAE2 JUMP JUMPDEST PUSH1 0x0 PUSH2 0xC46 PUSH2 0xA19 JUMP JUMPDEST SWAP1 POP DUP1 DUP3 GT ISZERO PUSH2 0xC73 JUMPI PUSH1 0x40 MLOAD PUSH4 0x36047DF5 PUSH1 0xE2 SHL DUP2 MSTORE PUSH1 0x4 DUP2 ADD DUP4 SWAP1 MSTORE PUSH1 0x24 DUP2 ADD DUP3 SWAP1 MSTORE PUSH1 0x44 ADD PUSH2 0xAE2 JUMP JUMPDEST DUP2 PUSH1 0xFD PUSH1 0x0 DUP3 DUP3 SLOAD PUSH2 0xC85 SWAP2 SWAP1 PUSH2 0x2D8D JUMP JUMPDEST SWAP1 SWAP2 SSTORE POP POP PUSH1 0xFC SLOAD PUSH1 0x40 MLOAD PUSH4 0x1696D403 PUSH1 0xE1 SHL DUP2 MSTORE ADDRESS PUSH1 0x4 DUP3 ADD MSTORE PUSH1 0x1 PUSH1 0x1 PUSH1 0xA0 SHL SUB SWAP1 SWAP2 AND SWAP1 PUSH4 0x2D2DA806 SWAP1 DUP5 SWAP1 PUSH1 0x24 ADD PUSH1 0x20 PUSH1 0x40 MLOAD DUP1 DUP4 SUB DUP2 DUP6 DUP9 DUP1 EXTCODESIZE ISZERO DUP1 ISZERO PUSH2 0xCD0 JUMPI PUSH1 0x0 DUP1 REVERT JUMPDEST POP GAS CALL ISZERO DUP1 ISZERO PUSH2 0xCE4 JUMPI RETURNDATASIZE PUSH1 0x0 DUP1 RETURNDATACOPY RETURNDATASIZE PUSH1 0x0 REVERT JUMPDEST POP POP POP POP POP PUSH1 0x40 MLOAD RETURNDATASIZE PUSH1 0x1F NOT PUSH1 0x1F DUP3 ADD AND DUP3 ADD DUP1 PUSH1 0x40 MSTORE POP DUP2 ADD SWAP1 PUSH2 0xD09 SWAP2 SWAP1 PUSH2 0x2BD5 JUMP JUMPDEST POP PUSH1 0x40 DUP1 MLOAD TIMESTAMP DUP2 MSTORE PUSH1 0x20 DUP2 ADD DUP5 SWAP1 MSTORE PUSH32 0x7AC2A41AF785A0BE7C54324B10C6F29B473018B57E4B58F9B86A050124173B1B SWAP2 ADD PUSH1 0x40 MLOAD DUP1 SWAP2 SUB SWAP1 LOG1 POP PUSH2 0xD4E PUSH1 0x1 PUSH1 0xC9 SSTORE JUMP JUMPDEST POP JUMP JUMPDEST PUSH1 0x0 CALLER PUSH2 0xA02 DUP2 DUP6 DUP6 PUSH2 0xD64 DUP4 DUP4 PUSH2 0x18F5 JUMP JUMPDEST PUSH2 0xD6E SWAP2 SWAP1 PUSH2 0x2D13 JUMP JUMPDEST PUSH2 0x19CD JUMP JUMPDEST PUSH1 0x0 PUSH2 0xD7D PUSH2 0x1FEC JUMP JUMPDEST PUSH2 0xD88 JUMPI PUSH1 0x0 PUSH2 0x9EE JUMP JUMPDEST PUSH1 0x0 NOT SWAP3 SWAP2 POP POP JUMP JUMPDEST PUSH2 0xD99 PUSH2 0x2006 JUMP JUMPDEST PUSH1 0xFF SSTORE JUMP JUMPDEST PUSH1 0xFC SLOAD PUSH1 0x0 SWAP1 DUP2 SWAP1 PUSH1 0x1 PUSH1 0x1 PUSH1 0xA0 SHL SUB AND DUP2 PUSH2 0xDBD PUSH1 0x1E PUSH2 0x1F4 PUSH2 0x2D6A JUMP JUMPDEST PUSH1 0x40 MLOAD PUSH4 0x3D1689D PUSH1 0xE1 SHL DUP2 MSTORE PUSH1 0x4 DUP2 ADD DUP8 SWAP1 MSTORE SWAP1 SWAP2 POP PUSH1 0x1 PUSH1 0x1 PUSH1 0xA0 SHL SUB DUP4 AND SWAP1 PUSH4 0x7A2D13A SWAP1 PUSH1 0x24 ADD PUSH1 0x20 PUSH1 0x40 MLOAD DUP1 DUP4 SUB DUP2 DUP7 DUP1 EXTCODESIZE ISZERO DUP1 ISZERO PUSH2 0xE00 JUMPI PUSH1 0x0 DUP1 REVERT JUMPDEST POP GAS STATICCALL ISZERO DUP1 ISZERO PUSH2 0xE14 JUMPI RETURNDATASIZE PUSH1 0x0 DUP1 RETURNDATACOPY RETURNDATASIZE PUSH1 0x0 REVERT JUMPDEST POP POP POP POP PUSH1 0x40 MLOAD RETURNDATASIZE PUSH1 0x1F NOT PUSH1 0x1F DUP3 ADD AND DUP3 ADD DUP1 PUSH1 0x40 MSTORE POP DUP2 ADD SWAP1 PUSH2 0xE38 SWAP2 SWAP1 PUSH2 0x2BD5 JUMP JUMPDEST SWAP4 POP PUSH1 0x0 PUSH2 0xE79 DUP6 PUSH1 0x40 MLOAD DUP1 PUSH1 0x40 ADD PUSH1 0x40 MSTORE DUP1 PUSH1 0xE DUP2 MSTORE PUSH1 0x20 ADD PUSH14 0x9CDEE840CADCDEEACED0408AA89 PUSH1 0x93 SHL DUP2 MSTORE POP PUSH1 0xFD SLOAD PUSH2 0x2060 SWAP1 SWAP3 SWAP2 SWAP1 PUSH4 0xFFFFFFFF AND JUMP JUMPDEST PUSH1 0xFE SLOAD SWAP1 SWAP2 POP PUSH1 0x1E SWAP1 DUP3 LT ISZERO PUSH2 0xEB9 JUMPI PUSH1 0xFE SLOAD PUSH1 0x0 SWAP1 PUSH2 0xE9D DUP5 PUSH2 0xFFFF DUP8 AND PUSH2 0x2D4B JUMP JUMPDEST PUSH2 0xEA7 SWAP2 SWAP1 PUSH2 0x2D2B JUMP JUMPDEST SWAP1 POP PUSH2 0xEB5 DUP2 PUSH2 0x1F4 PUSH2 0x2D8D JUMP JUMPDEST SWAP2 POP POP JUMPDEST PUSH2 0x2710 PUSH2 0xEC6 DUP3 DUP10 PUSH2 0x2D4B JUMP JUMPDEST PUSH2 0xED0 SWAP2 SWAP1 PUSH2 0x2D2B JUMP JUMPDEST SWAP5 POP PUSH1 0x1 PUSH1 0x1 PUSH1 0xA0 SHL SUB DUP5 AND PUSH4 0x7A2D13A PUSH2 0xEEB DUP8 DUP11 PUSH2 0x2D8D JUMP JUMPDEST PUSH1 0x40 MLOAD DUP3 PUSH4 0xFFFFFFFF AND PUSH1 0xE0 SHL DUP2 MSTORE PUSH1 0x4 ADD PUSH2 0xF09 SWAP2 DUP2 MSTORE PUSH1 0x20 ADD SWAP1 JUMP JUMPDEST PUSH1 0x20 PUSH1 0x40 MLOAD DUP1 DUP4 SUB DUP2 DUP7 DUP1 EXTCODESIZE ISZERO DUP1 ISZERO PUSH2 0xF21 JUMPI PUSH1 0x0 DUP1 REVERT JUMPDEST POP GAS STATICCALL ISZERO DUP1 ISZERO PUSH2 0xF35 JUMPI RETURNDATASIZE PUSH1 0x0 DUP1 RETURNDATACOPY RETURNDATASIZE PUSH1 0x0 REVERT JUMPDEST POP POP POP POP PUSH1 0x40 MLOAD RETURNDATASIZE PUSH1 0x1F NOT PUSH1 0x1F DUP3 ADD AND DUP3 ADD DUP1 PUSH1 0x40 MSTORE POP DUP2 ADD SWAP1 PUSH2 0xF59 SWAP2 SWAP1 PUSH2 0x2BD5 JUMP JUMPDEST SWAP6 POP POP POP POP POP SWAP2 POP SWAP2 JUMP JUMPDEST PUSH1 0x0 DUP1 PUSH2 0xF70 DUP5 PUSH2 0x18A6 JUMP JUMPDEST SWAP1 POP PUSH2 0xBD2 CALLER DUP5 DUP7 DUP5 PUSH2 0x1F5C JUMP JUMPDEST PUSH2 0xF86 PUSH2 0x2006 JUMP JUMPDEST PUSH2 0xF90 PUSH1 0x0 PUSH2 0x208C JUMP JUMPDEST JUMP JUMPDEST PUSH2 0xF9A PUSH2 0x2006 JUMP JUMPDEST PUSH1 0xFE SSTORE JUMP JUMPDEST PUSH1 0x0 DUP1 PUSH2 0xFAB DUP5 PUSH2 0x105C JUMP JUMPDEST SWAP1 POP PUSH2 0xBD2 CALLER DUP5 DUP4 DUP8 PUSH2 0x1F5C JUMP JUMPDEST PUSH1 0x60 PUSH1 0x37 DUP1 SLOAD PUSH2 0x95E SWAP1 PUSH2 0x2DD0 JUMP JUMPDEST PUSH1 0x0 CALLER DUP2 PUSH2 0xFD6 DUP3 DUP7 PUSH2 0x18F5 JUMP JUMPDEST SWAP1 POP DUP4 DUP2 LT ISZERO PUSH2 0x1036 JUMPI PUSH1 0x40 MLOAD PUSH3 0x461BCD PUSH1 0xE5 SHL DUP2 MSTORE PUSH1 0x20 PUSH1 0x4 DUP3 ADD MSTORE PUSH1 0x25 PUSH1 0x24 DUP3 ADD MSTORE PUSH32 0x45524332303A2064656372656173656420616C6C6F77616E63652062656C6F77 PUSH1 0x44 DUP3 ADD MSTORE PUSH5 0x207A65726F PUSH1 0xD8 SHL PUSH1 0x64 DUP3 ADD MSTORE PUSH1 0x84 ADD PUSH2 0xAE2 JUMP JUMPDEST PUSH2 0x1043 DUP3 DUP7 DUP7 DUP5 SUB PUSH2 0x19CD JUMP JUMPDEST POP PUSH1 0x1 SWAP5 SWAP4 POP POP POP POP JUMP JUMPDEST PUSH1 0x0 CALLER PUSH2 0xA02 DUP2 DUP6 DUP6 PUSH2 0x1DB1 JUMP JUMPDEST PUSH1 0x0 PUSH2 0x9EE DUP3 PUSH1 0x1 PUSH2 0x1996 JUMP JUMPDEST PUSH1 0x0 PUSH2 0x1074 DUP5 PUSH2 0xA0C JUMP JUMPDEST SWAP1 POP CALLER PUSH1 0x1 PUSH1 0x1 PUSH1 0xA0 SHL SUB DUP4 AND EQ PUSH2 0x1091 JUMPI PUSH2 0x1091 DUP3 CALLER DUP4 PUSH2 0x1D3D JUMP JUMPDEST PUSH1 0x0 PUSH2 0x109B PUSH2 0x84B JUMP JUMPDEST PUSH2 0x10AD DUP7 PUSH8 0xDE0B6B3A7640000 PUSH2 0x2D4B JUMP JUMPDEST PUSH2 0x10B7 SWAP2 SWAP1 PUSH2 0x2D2B JUMP JUMPDEST SWAP1 POP DUP1 PUSH2 0x10D7 JUMPI PUSH1 0x40 MLOAD PUSH4 0x4FE3AA3 PUSH1 0xE2 SHL DUP2 MSTORE PUSH1 0x4 ADD PUSH1 0x40 MLOAD DUP1 SWAP2 SUB SWAP1 REVERT JUMPDEST PUSH1 0x0 PUSH8 0xDE0B6B3A7640000 PUSH1 0xFD SLOAD DUP4 PUSH2 0x10F0 SWAP2 SWAP1 PUSH2 0x2D4B JUMP JUMPDEST PUSH2 0x10FA SWAP2 SWAP1 PUSH2 0x2D2B JUMP JUMPDEST PUSH1 0xFC SLOAD PUSH1 0x40 MLOAD PUSH4 0x70A08231 PUSH1 0xE0 SHL DUP2 MSTORE ADDRESS PUSH1 0x4 DUP3 ADD MSTORE SWAP2 SWAP3 POP PUSH1 0x0 SWAP2 PUSH8 0xDE0B6B3A7640000 SWAP2 PUSH1 0x1 PUSH1 0x1 PUSH1 0xA0 SHL SUB AND SWAP1 PUSH4 0x70A08231 SWAP1 PUSH1 0x24 ADD PUSH1 0x20 PUSH1 0x40 MLOAD DUP1 DUP4 SUB DUP2 DUP7 DUP1 EXTCODESIZE ISZERO DUP1 ISZERO PUSH2 0x114B JUMPI PUSH1 0x0 DUP1 REVERT JUMPDEST POP GAS STATICCALL ISZERO DUP1 ISZERO PUSH2 0x115F JUMPI RETURNDATASIZE PUSH1 0x0 DUP1 RETURNDATACOPY RETURNDATASIZE PUSH1 0x0 REVERT JUMPDEST POP POP POP POP PUSH1 0x40 MLOAD RETURNDATASIZE PUSH1 0x1F NOT PUSH1 0x1F DUP3 ADD AND DUP3 ADD DUP1 PUSH1 0x40 MSTORE POP DUP2 ADD SWAP1 PUSH2 0x1183 SWAP2 SWAP1 PUSH2 0x2BD5 JUMP JUMPDEST PUSH2 0x118D SWAP1 DUP6 PUSH2 0x2D4B JUMP JUMPDEST PUSH2 0x1197 SWAP2 SWAP1 PUSH2 0x2D2B JUMP JUMPDEST SWAP1 POP PUSH2 0x11A3 DUP6 DUP6 PUSH2 0x20DE JUMP JUMPDEST DUP2 PUSH1 0xFD PUSH1 0x0 DUP3 DUP3 SLOAD PUSH2 0x11B5 SWAP2 SWAP1 PUSH2 0x2D8D JUMP JUMPDEST SWAP1 SWAP2 SSTORE POP POP PUSH1 0xFC SLOAD PUSH2 0x11D1 SWAP1 PUSH1 0x1 PUSH1 0x1 PUSH1 0xA0 SHL SUB AND DUP8 DUP4 PUSH2 0x1BE8 JUMP JUMPDEST PUSH2 0x11E4 PUSH1 0x1 PUSH1 0x1 PUSH1 0xA0 SHL SUB DUP8 AND DUP4 PUSH2 0x1C1D JUMP JUMPDEST PUSH1 0x40 DUP1 MLOAD DUP6 DUP2 MSTORE PUSH1 0x20 DUP2 ADD DUP5 SWAP1 MSTORE SWAP1 DUP2 ADD DUP3 SWAP1 MSTORE PUSH1 0x1 PUSH1 0x1 PUSH1 0xA0 SHL SUB DUP7 AND SWAP1 CALLER SWAP1 PUSH32 0xEB755D537A0CAAC69CCB1AC1DC2B7397A32BB19F93BD06013C57AC0B2E5DD69C SWAP1 PUSH1 0x60 ADD PUSH1 0x40 MLOAD DUP1 SWAP2 SUB SWAP1 LOG3 PUSH1 0x40 DUP1 MLOAD DUP4 DUP2 MSTORE PUSH1 0x20 DUP2 ADD DUP7 SWAP1 MSTORE PUSH1 0x1 PUSH1 0x1 PUSH1 0xA0 SHL SUB DUP1 DUP9 AND SWAP3 SWAP1 DUP10 AND SWAP2 CALLER SWAP2 PUSH32 0xFBDE797D201C681B91056529119E0B02407C7BB96A4A2C75C01FC9667232C8DB SWAP2 ADD PUSH1 0x40 MLOAD DUP1 SWAP2 SUB SWAP1 LOG4 POP POP POP SWAP4 SWAP3 POP POP POP JUMP JUMPDEST PUSH1 0x0 PUSH2 0x1291 PUSH2 0x1B23 JUMP JUMPDEST CALLER PUSH1 0x1 PUSH1 0x1 PUSH1 0xA0 SHL SUB DUP4 AND EQ PUSH2 0x12AC JUMPI PUSH2 0x12AC DUP3 CALLER DUP7 PUSH2 0x1D3D JUMP JUMPDEST PUSH1 0x0 PUSH2 0x12B7 PUSH1 0x35 SLOAD SWAP1 JUMP JUMPDEST PUSH2 0x12C9 DUP7 PUSH8 0xDE0B6B3A7640000 PUSH2 0x2D4B JUMP JUMPDEST PUSH2 0x12D3 SWAP2 SWAP1 PUSH2 0x2D2B JUMP JUMPDEST SWAP1 POP DUP1 PUSH2 0x12F3 JUMPI PUSH1 0x40 MLOAD PUSH4 0x76AF5F4B PUSH1 0xE0 SHL DUP2 MSTORE PUSH1 0x4 ADD PUSH1 0x40 MLOAD DUP1 SWAP2 SUB SWAP1 REVERT JUMPDEST PUSH8 0xDE0B6B3A7640000 PUSH1 0xFD SLOAD DUP3 PUSH2 0x130A SWAP2 SWAP1 PUSH2 0x2D4B JUMP JUMPDEST PUSH2 0x1314 SWAP2 SWAP1 PUSH2 0x2D2B JUMP JUMPDEST PUSH1 0xFC SLOAD PUSH1 0x40 MLOAD PUSH4 0x70A08231 PUSH1 0xE0 SHL DUP2 MSTORE ADDRESS PUSH1 0x4 DUP3 ADD MSTORE SWAP2 SWAP4 POP PUSH1 0x0 SWAP2 PUSH8 0xDE0B6B3A7640000 SWAP2 PUSH1 0x1 PUSH1 0x1 PUSH1 0xA0 SHL SUB AND SWAP1 PUSH4 0x70A08231 SWAP1 PUSH1 0x24 ADD PUSH1 0x20 PUSH1 0x40 MLOAD DUP1 DUP4 SUB DUP2 DUP7 DUP1 EXTCODESIZE ISZERO DUP1 ISZERO PUSH2 0x1365 JUMPI PUSH1 0x0 DUP1 REVERT JUMPDEST POP GAS STATICCALL ISZERO DUP1 ISZERO PUSH2 0x1379 JUMPI RETURNDATASIZE PUSH1 0x0 DUP1 RETURNDATACOPY RETURNDATASIZE PUSH1 0x0 REVERT JUMPDEST POP POP POP POP PUSH1 0x40 MLOAD RETURNDATASIZE PUSH1 0x1F NOT PUSH1 0x1F DUP3 ADD AND DUP3 ADD DUP1 PUSH1 0x40 MSTORE POP DUP2 ADD SWAP1 PUSH2 0x139D SWAP2 SWAP1 PUSH2 0x2BD5 JUMP JUMPDEST PUSH2 0x13A7 SWAP1 DUP5 PUSH2 0x2D4B JUMP JUMPDEST PUSH2 0x13B1 SWAP2 SWAP1 PUSH2 0x2D2B JUMP JUMPDEST SWAP1 POP PUSH2 0x13BD DUP5 DUP8 PUSH2 0x20DE JUMP JUMPDEST DUP3 PUSH1 0xFD PUSH1 0x0 DUP3 DUP3 SLOAD PUSH2 0x13CF SWAP2 SWAP1 PUSH2 0x2D8D JUMP JUMPDEST SWAP1 SWAP2 SSTORE POP POP PUSH1 0xFC SLOAD PUSH2 0x13EB SWAP1 PUSH1 0x1 PUSH1 0x1 PUSH1 0xA0 SHL SUB AND DUP7 DUP4 PUSH2 0x1BE8 JUMP JUMPDEST PUSH2 0x13FE PUSH1 0x1 PUSH1 0x1 PUSH1 0xA0 SHL SUB DUP7 AND DUP5 PUSH2 0x1C1D JUMP JUMPDEST PUSH1 0x40 DUP1 MLOAD DUP8 DUP2 MSTORE PUSH1 0x20 DUP2 ADD DUP6 SWAP1 MSTORE SWAP1 DUP2 ADD DUP3 SWAP1 MSTORE PUSH1 0x1 PUSH1 0x1 PUSH1 0xA0 SHL SUB DUP6 AND SWAP1 CALLER SWAP1 PUSH32 0xEB755D537A0CAAC69CCB1AC1DC2B7397A32BB19F93BD06013C57AC0B2E5DD69C SWAP1 PUSH1 0x60 ADD PUSH1 0x40 MLOAD DUP1 SWAP2 SUB SWAP1 LOG3 PUSH1 0x40 DUP1 MLOAD DUP5 DUP2 MSTORE PUSH1 0x20 DUP2 ADD DUP9 SWAP1 MSTORE PUSH1 0x1 PUSH1 0x1 PUSH1 0xA0 SHL SUB DUP1 DUP8 AND SWAP3 SWAP1 DUP9 AND SWAP2 CALLER SWAP2 PUSH32 0xFBDE797D201C681B91056529119E0B02407C7BB96A4A2C75C01FC9667232C8DB SWAP2 ADD PUSH1 0x40 MLOAD DUP1 SWAP2 SUB SWAP1 LOG4 POP POP PUSH2 0xBD2 PUSH1 0x1 PUSH1 0xC9 SSTORE JUMP JUMPDEST PUSH1 0x0 SLOAD PUSH2 0x100 SWAP1 DIV PUSH1 0xFF AND ISZERO DUP1 DUP1 ISZERO PUSH2 0x14C3 JUMPI POP PUSH1 0x0 SLOAD PUSH1 0x1 PUSH1 0xFF SWAP1 SWAP2 AND LT JUMPDEST DUP1 PUSH2 0x14DD JUMPI POP ADDRESS EXTCODESIZE ISZERO DUP1 ISZERO PUSH2 0x14DD JUMPI POP PUSH1 0x0 SLOAD PUSH1 0xFF AND PUSH1 0x1 EQ JUMPDEST PUSH2 0x1540 JUMPI PUSH1 0x40 MLOAD PUSH3 0x461BCD PUSH1 0xE5 SHL DUP2 MSTORE PUSH1 0x20 PUSH1 0x4 DUP3 ADD MSTORE PUSH1 0x2E PUSH1 0x24 DUP3 ADD MSTORE PUSH32 0x496E697469616C697A61626C653A20636F6E747261637420697320616C726561 PUSH1 0x44 DUP3 ADD MSTORE PUSH14 0x191E481A5B9A5D1A585B1A5E9959 PUSH1 0x92 SHL PUSH1 0x64 DUP3 ADD MSTORE PUSH1 0x84 ADD PUSH2 0xAE2 JUMP JUMPDEST PUSH1 0x0 DUP1 SLOAD PUSH1 0xFF NOT AND PUSH1 0x1 OR SWAP1 SSTORE DUP1 ISZERO PUSH2 0x1563 JUMPI PUSH1 0x0 DUP1 SLOAD PUSH2 0xFF00 NOT AND PUSH2 0x100 OR SWAP1 SSTORE JUMPDEST SELFBALANCE ISZERO PUSH2 0x15BF JUMPI PUSH1 0x40 MLOAD PUSH3 0x461BCD PUSH1 0xE5 SHL DUP2 MSTORE PUSH1 0x20 PUSH1 0x4 DUP3 ADD MSTORE PUSH1 0x25 PUSH1 0x24 DUP3 ADD MSTORE PUSH32 0x4572726F7220696E697469616C697A652077697468206E6F207A65726F206261 PUSH1 0x44 DUP3 ADD MSTORE PUSH5 0x6C616E6365 PUSH1 0xD8 SHL PUSH1 0x64 DUP3 ADD MSTORE PUSH1 0x84 ADD PUSH2 0xAE2 JUMP JUMPDEST DUP3 PUSH1 0x1 PUSH1 0x1 PUSH1 0xA0 SHL SUB AND PUSH4 0x313CE567 PUSH1 0x40 MLOAD DUP2 PUSH4 0xFFFFFFFF AND PUSH1 0xE0 SHL DUP2 MSTORE PUSH1 0x4 ADD PUSH1 0x20 PUSH1 0x40 MLOAD DUP1 DUP4 SUB DUP2 DUP7 DUP1 EXTCODESIZE ISZERO DUP1 ISZERO PUSH2 0x15F8 JUMPI PUSH1 0x0 DUP1 REVERT JUMPDEST POP GAS STATICCALL ISZERO DUP1 ISZERO PUSH2 0x160C JUMPI RETURNDATASIZE PUSH1 0x0 DUP1 RETURNDATACOPY RETURNDATASIZE PUSH1 0x0 REVERT JUMPDEST POP POP POP POP PUSH1 0x40 MLOAD RETURNDATASIZE PUSH1 0x1F NOT PUSH1 0x1F DUP3 ADD AND DUP3 ADD DUP1 PUSH1 0x40 MSTORE POP DUP2 ADD SWAP1 PUSH2 0x1630 SWAP2 SWAP1 PUSH2 0x2C58 JUMP JUMPDEST PUSH1 0xFF AND PUSH1 0x12 EQ PUSH2 0x169E JUMPI PUSH1 0x40 MLOAD PUSH3 0x461BCD PUSH1 0xE5 SHL DUP2 MSTORE PUSH1 0x20 PUSH1 0x4 DUP3 ADD MSTORE PUSH1 0x33 PUSH1 0x24 DUP3 ADD MSTORE PUSH32 0x774E617469766520746F6B656E206572726F722C20696D706C656D656E746174 PUSH1 0x44 DUP3 ADD MSTORE PUSH19 0x696F6E20666F7220313820646563696D616C73 PUSH1 0x68 SHL PUSH1 0x64 DUP3 ADD MSTORE PUSH1 0x84 ADD PUSH2 0xAE2 JUMP JUMPDEST PUSH2 0x16A7 DUP4 PUSH2 0x2212 JUMP JUMPDEST PUSH2 0x16F3 PUSH1 0x40 MLOAD DUP1 PUSH1 0x40 ADD PUSH1 0x40 MSTORE DUP1 PUSH1 0x9 DUP2 MSTORE PUSH1 0x20 ADD PUSH9 0x4D6574614554484C5 PUSH1 0xBC SHL DUP2 MSTORE POP PUSH1 0x40 MLOAD DUP1 PUSH1 0x40 ADD PUSH1 0x40 MSTORE DUP1 PUSH1 0x9 DUP2 MSTORE PUSH1 0x20 ADD PUSH9 0xDAE08AA8905E8AA89 PUSH1 0xBB SHL DUP2 MSTORE POP PUSH2 0x2242 JUMP JUMPDEST PUSH2 0x16FB PUSH2 0x2277 JUMP JUMPDEST PUSH2 0x1703 PUSH2 0x22A6 JUMP JUMPDEST PUSH1 0xFC DUP1 SLOAD PUSH1 0x1 PUSH1 0x1 PUSH1 0xA0 SHL SUB DUP1 DUP8 AND PUSH1 0x1 PUSH1 0x1 PUSH1 0xA0 SHL SUB NOT SWAP3 DUP4 AND OR SWAP1 SWAP3 SSTORE PUSH1 0xFB DUP1 SLOAD SWAP3 DUP6 AND SWAP3 SWAP1 SWAP2 AND SWAP2 SWAP1 SWAP2 OR SWAP1 SSTORE PUSH2 0x1745 PUSH9 0x1A055690D9DB80000 PUSH2 0xF92 JUMP JUMPDEST PUSH2 0x1750 PUSH2 0x1388 PUSH2 0xD91 JUMP JUMPDEST DUP1 ISZERO PUSH2 0x1796 JUMPI PUSH1 0x0 DUP1 SLOAD PUSH2 0xFF00 NOT AND SWAP1 SSTORE PUSH1 0x40 MLOAD PUSH1 0x1 DUP2 MSTORE PUSH32 0x7F26B83FF96E1F2B6A682F133852F6798A09C465DA95921460CEFB3847402498 SWAP1 PUSH1 0x20 ADD PUSH1 0x40 MLOAD DUP1 SWAP2 SUB SWAP1 LOG1 JUMPDEST POP POP POP POP JUMP JUMPDEST PUSH1 0x0 PUSH2 0x17A6 PUSH2 0x1B23 JUMP JUMPDEST PUSH1 0xFC SLOAD PUSH1 0x1 PUSH1 0x1 PUSH1 0xA0 SHL SUB AND CALLER EQ PUSH2 0x17E6 JUMPI PUSH1 0xFC SLOAD PUSH1 0x40 MLOAD PUSH4 0xC55DDC97 PUSH1 0xE0 SHL DUP2 MSTORE CALLER PUSH1 0x4 DUP3 ADD MSTORE PUSH1 0x1 PUSH1 0x1 PUSH1 0xA0 SHL SUB SWAP1 SWAP2 AND PUSH1 0x24 DUP3 ADD MSTORE PUSH1 0x44 ADD PUSH2 0xAE2 JUMP JUMPDEST PUSH1 0xFC SLOAD PUSH1 0x40 MLOAD PUSH4 0xEF8B30F7 PUSH1 0xE0 SHL DUP2 MSTORE CALLVALUE PUSH1 0x4 DUP3 ADD MSTORE PUSH1 0x1 PUSH1 0x1 PUSH1 0xA0 SHL SUB SWAP1 SWAP2 AND SWAP1 PUSH1 0x0 SWAP1 DUP3 SWAP1 PUSH4 0xEF8B30F7 SWAP1 PUSH1 0x24 ADD PUSH1 0x20 PUSH1 0x40 MLOAD DUP1 DUP4 SUB DUP2 DUP7 DUP1 EXTCODESIZE ISZERO DUP1 ISZERO PUSH2 0x182E JUMPI PUSH1 0x0 DUP1 REVERT JUMPDEST POP GAS STATICCALL ISZERO DUP1 ISZERO PUSH2 0x1842 JUMPI RETURNDATASIZE PUSH1 0x0 DUP1 RETURNDATACOPY RETURNDATASIZE PUSH1 0x0 REVERT JUMPDEST POP POP POP POP PUSH1 0x40 MLOAD RETURNDATASIZE PUSH1 0x1F NOT PUSH1 0x1F DUP3 ADD AND DUP3 ADD DUP1 PUSH1 0x40 MSTORE POP DUP2 ADD SWAP1 PUSH2 0x1866 SWAP2 SWAP1 PUSH2 0x2BD5 JUMP JUMPDEST SWAP1 POP PUSH2 0x187C PUSH1 0x1 PUSH1 0x1 PUSH1 0xA0 SHL SUB DUP4 AND DUP6 DUP4 PUSH2 0x1BE8 JUMP JUMPDEST CALLVALUE PUSH1 0xFD PUSH1 0x0 DUP3 DUP3 SLOAD PUSH2 0x188E SWAP2 SWAP1 PUSH2 0x2D13 JUMP JUMPDEST SWAP1 SWAP2 SSTORE POP SWAP1 SWAP3 POP POP POP PUSH2 0x18A1 PUSH1 0x1 PUSH1 0xC9 SSTORE JUMP JUMPDEST SWAP2 SWAP1 POP JUMP JUMPDEST PUSH1 0x0 PUSH2 0x9EE DUP3 PUSH1 0x0 PUSH2 0x1AF1 JUMP JUMPDEST PUSH1 0x1 PUSH1 0x1 PUSH1 0xA0 SHL SUB DUP2 AND PUSH1 0x0 SWAP1 DUP2 MSTORE PUSH1 0x33 PUSH1 0x20 MSTORE PUSH1 0x40 DUP2 KECCAK256 SLOAD PUSH2 0x9EE SWAP1 PUSH1 0x0 PUSH2 0x1996 JUMP JUMPDEST PUSH1 0x1 PUSH1 0x1 PUSH1 0xA0 SHL SUB DUP2 AND PUSH1 0x0 SWAP1 DUP2 MSTORE PUSH1 0x33 PUSH1 0x20 MSTORE PUSH1 0x40 DUP2 KECCAK256 SLOAD PUSH2 0x9EE JUMP JUMPDEST PUSH1 0x1 PUSH1 0x1 PUSH1 0xA0 SHL SUB SWAP2 DUP3 AND PUSH1 0x0 SWAP1 DUP2 MSTORE PUSH1 0x34 PUSH1 0x20 SWAP1 DUP2 MSTORE PUSH1 0x40 DUP1 DUP4 KECCAK256 SWAP4 SWAP1 SWAP5 AND DUP3 MSTORE SWAP2 SWAP1 SWAP2 MSTORE KECCAK256 SLOAD SWAP1 JUMP JUMPDEST PUSH2 0x1928 PUSH2 0x2006 JUMP JUMPDEST PUSH1 0x1 PUSH1 0x1 PUSH1 0xA0 SHL SUB DUP2 AND PUSH2 0x198D JUMPI PUSH1 0x40 MLOAD PUSH3 0x461BCD PUSH1 0xE5 SHL DUP2 MSTORE PUSH1 0x20 PUSH1 0x4 DUP3 ADD MSTORE PUSH1 0x26 PUSH1 0x24 DUP3 ADD MSTORE PUSH32 0x4F776E61626C653A206E6577206F776E657220697320746865207A65726F2061 PUSH1 0x44 DUP3 ADD MSTORE PUSH6 0x646472657373 PUSH1 0xD0 SHL PUSH1 0x64 DUP3 ADD MSTORE PUSH1 0x84 ADD PUSH2 0xAE2 JUMP JUMPDEST PUSH2 0xD4E DUP2 PUSH2 0x208C JUMP JUMPDEST PUSH1 0x0 DUP1 PUSH2 0x19A2 PUSH1 0x35 SLOAD SWAP1 JUMP JUMPDEST SWAP1 POP DUP1 ISZERO PUSH2 0x19C3 JUMPI PUSH2 0x19BE PUSH2 0x19B5 PUSH2 0x84B JUMP JUMPDEST DUP6 SWAP1 DUP4 DUP7 PUSH2 0x22D5 JUMP JUMPDEST PUSH2 0x19C5 JUMP JUMPDEST DUP4 JUMPDEST SWAP5 SWAP4 POP POP POP POP JUMP JUMPDEST PUSH1 0x1 PUSH1 0x1 PUSH1 0xA0 SHL SUB DUP4 AND PUSH2 0x1A2F JUMPI PUSH1 0x40 MLOAD PUSH3 0x461BCD PUSH1 0xE5 SHL DUP2 MSTORE PUSH1 0x20 PUSH1 0x4 DUP3 ADD MSTORE PUSH1 0x24 DUP1 DUP3 ADD MSTORE PUSH32 0x45524332303A20617070726F76652066726F6D20746865207A65726F20616464 PUSH1 0x44 DUP3 ADD MSTORE PUSH4 0x72657373 PUSH1 0xE0 SHL PUSH1 0x64 DUP3 ADD MSTORE PUSH1 0x84 ADD PUSH2 0xAE2 JUMP JUMPDEST PUSH1 0x1 PUSH1 0x1 PUSH1 0xA0 SHL SUB DUP3 AND PUSH2 0x1A90 JUMPI PUSH1 0x40 MLOAD PUSH3 0x461BCD PUSH1 0xE5 SHL DUP2 MSTORE PUSH1 0x20 PUSH1 0x4 DUP3 ADD MSTORE PUSH1 0x22 PUSH1 0x24 DUP3 ADD MSTORE PUSH32 0x45524332303A20617070726F766520746F20746865207A65726F206164647265 PUSH1 0x44 DUP3 ADD MSTORE PUSH2 0x7373 PUSH1 0xF0 SHL PUSH1 0x64 DUP3 ADD MSTORE PUSH1 0x84 ADD PUSH2 0xAE2 JUMP JUMPDEST PUSH1 0x1 PUSH1 0x1 PUSH1 0xA0 SHL SUB DUP4 DUP2 AND PUSH1 0x0 DUP2 DUP2 MSTORE PUSH1 0x34 PUSH1 0x20 SWAP1 DUP2 MSTORE PUSH1 0x40 DUP1 DUP4 KECCAK256 SWAP5 DUP8 AND DUP1 DUP5 MSTORE SWAP5 DUP3 MSTORE SWAP2 DUP3 SWAP1 KECCAK256 DUP6 SWAP1 SSTORE SWAP1 MLOAD DUP5 DUP2 MSTORE PUSH32 0x8C5BE1E5EBEC7D5BD14F71427D1E84F3DD0314C0F7B2291E5B200AC8C7C3B925 SWAP2 ADD PUSH1 0x40 MLOAD DUP1 SWAP2 SUB SWAP1 LOG3 POP POP POP JUMP JUMPDEST PUSH1 0x0 DUP1 PUSH2 0x1AFD PUSH1 0x35 SLOAD SWAP1 JUMP JUMPDEST SWAP1 POP DUP4 ISZERO DUP1 PUSH2 0x1B0A JUMPI POP DUP1 ISZERO JUMPDEST PUSH2 0x19C3 JUMPI PUSH2 0x19BE DUP2 PUSH2 0x1B1A PUSH2 0x84B JUMP JUMPDEST DUP7 SWAP2 SWAP1 DUP7 PUSH2 0x22D5 JUMP JUMPDEST PUSH1 0x2 PUSH1 0xC9 SLOAD EQ ISZERO PUSH2 0x1B76 JUMPI PUSH1 0x40 MLOAD PUSH3 0x461BCD PUSH1 0xE5 SHL DUP2 MSTORE PUSH1 0x20 PUSH1 0x4 DUP3 ADD MSTORE PUSH1 0x1F PUSH1 0x24 DUP3 ADD MSTORE PUSH32 0x5265656E7472616E637947756172643A207265656E7472616E742063616C6C00 PUSH1 0x44 DUP3 ADD MSTORE PUSH1 0x64 ADD PUSH2 0xAE2 JUMP JUMPDEST PUSH1 0x2 PUSH1 0xC9 SSTORE JUMP JUMPDEST PUSH1 0x40 MLOAD PUSH1 0x1 PUSH1 0x1 PUSH1 0xA0 SHL SUB DUP1 DUP6 AND PUSH1 0x24 DUP4 ADD MSTORE DUP4 AND PUSH1 0x44 DUP3 ADD MSTORE PUSH1 0x64 DUP2 ADD DUP3 SWAP1 MSTORE PUSH2 0x1796 SWAP1 DUP6 SWAP1 PUSH4 0x23B872DD PUSH1 0xE0 SHL SWAP1 PUSH1 0x84 ADD JUMPDEST PUSH1 0x40 DUP1 MLOAD PUSH1 0x1F NOT DUP2 DUP5 SUB ADD DUP2 MSTORE SWAP2 SWAP1 MSTORE PUSH1 0x20 DUP2 ADD DUP1 MLOAD PUSH1 0x1 PUSH1 0x1 PUSH1 0xE0 SHL SUB AND PUSH1 0x1 PUSH1 0x1 PUSH1 0xE0 SHL SUB NOT SWAP1 SWAP4 AND SWAP3 SWAP1 SWAP3 OR SWAP1 SWAP2 MSTORE PUSH2 0x234E JUMP JUMPDEST PUSH1 0x40 MLOAD PUSH1 0x1 PUSH1 0x1 PUSH1 0xA0 SHL SUB DUP4 AND PUSH1 0x24 DUP3 ADD MSTORE PUSH1 0x44 DUP2 ADD DUP3 SWAP1 MSTORE PUSH2 0x1C18 SWAP1 DUP5 SWAP1 PUSH4 0xA9059CBB PUSH1 0xE0 SHL SWAP1 PUSH1 0x64 ADD PUSH2 0x1BB1 JUMP JUMPDEST POP POP POP JUMP JUMPDEST DUP1 SELFBALANCE LT ISZERO PUSH2 0x1C6D JUMPI PUSH1 0x40 MLOAD PUSH3 0x461BCD PUSH1 0xE5 SHL DUP2 MSTORE PUSH1 0x20 PUSH1 0x4 DUP3 ADD MSTORE PUSH1 0x1D PUSH1 0x24 DUP3 ADD MSTORE PUSH32 0x416464726573733A20696E73756666696369656E742062616C616E6365000000 PUSH1 0x44 DUP3 ADD MSTORE PUSH1 0x64 ADD PUSH2 0xAE2 JUMP JUMPDEST PUSH1 0x0 DUP3 PUSH1 0x1 PUSH1 0x1 PUSH1 0xA0 SHL SUB AND DUP3 PUSH1 0x40 MLOAD PUSH1 0x0 PUSH1 0x40 MLOAD DUP1 DUP4 SUB DUP2 DUP6 DUP8 GAS CALL SWAP3 POP POP POP RETURNDATASIZE DUP1 PUSH1 0x0 DUP2 EQ PUSH2 0x1CBA JUMPI PUSH1 0x40 MLOAD SWAP2 POP PUSH1 0x1F NOT PUSH1 0x3F RETURNDATASIZE ADD AND DUP3 ADD PUSH1 0x40 MSTORE RETURNDATASIZE DUP3 MSTORE RETURNDATASIZE PUSH1 0x0 PUSH1 0x20 DUP5 ADD RETURNDATACOPY PUSH2 0x1CBF JUMP JUMPDEST PUSH1 0x60 SWAP2 POP JUMPDEST POP POP SWAP1 POP DUP1 PUSH2 0x1C18 JUMPI PUSH1 0x40 MLOAD PUSH3 0x461BCD PUSH1 0xE5 SHL DUP2 MSTORE PUSH1 0x20 PUSH1 0x4 DUP3 ADD MSTORE PUSH1 0x3A PUSH1 0x24 DUP3 ADD MSTORE PUSH32 0x416464726573733A20756E61626C6520746F2073656E642076616C75652C2072 PUSH1 0x44 DUP3 ADD MSTORE PUSH32 0x6563697069656E74206D61792068617665207265766572746564000000000000 PUSH1 0x64 DUP3 ADD MSTORE PUSH1 0x84 ADD PUSH2 0xAE2 JUMP JUMPDEST PUSH1 0x1 PUSH1 0xC9 SSTORE JUMP JUMPDEST PUSH1 0x0 PUSH2 0x1D49 DUP5 DUP5 PUSH2 0x18F5 JUMP JUMPDEST SWAP1 POP PUSH1 0x0 NOT DUP2 EQ PUSH2 0x1796 JUMPI DUP2 DUP2 LT ISZERO PUSH2 0x1DA4 JUMPI PUSH1 0x40 MLOAD PUSH3 0x461BCD PUSH1 0xE5 SHL DUP2 MSTORE PUSH1 0x20 PUSH1 0x4 DUP3 ADD MSTORE PUSH1 0x1D PUSH1 0x24 DUP3 ADD MSTORE PUSH32 0x45524332303A20696E73756666696369656E7420616C6C6F77616E6365000000 PUSH1 0x44 DUP3 ADD MSTORE PUSH1 0x64 ADD PUSH2 0xAE2 JUMP JUMPDEST PUSH2 0x1796 DUP5 DUP5 DUP5 DUP5 SUB PUSH2 0x19CD JUMP JUMPDEST PUSH1 0x1 PUSH1 0x1 PUSH1 0xA0 SHL SUB DUP4 AND PUSH2 0x1E15 JUMPI PUSH1 0x40 MLOAD PUSH3 0x461BCD PUSH1 0xE5 SHL DUP2 MSTORE PUSH1 0x20 PUSH1 0x4 DUP3 ADD MSTORE PUSH1 0x25 PUSH1 0x24 DUP3 ADD MSTORE PUSH32 0x45524332303A207472616E736665722066726F6D20746865207A65726F206164 PUSH1 0x44 DUP3 ADD MSTORE PUSH5 0x6472657373 PUSH1 0xD8 SHL PUSH1 0x64 DUP3 ADD MSTORE PUSH1 0x84 ADD PUSH2 0xAE2 JUMP JUMPDEST PUSH1 0x1 PUSH1 0x1 PUSH1 0xA0 SHL SUB DUP3 AND PUSH2 0x1E77 JUMPI PUSH1 0x40 MLOAD PUSH3 0x461BCD PUSH1 0xE5 SHL DUP2 MSTORE PUSH1 0x20 PUSH1 0x4 DUP3 ADD MSTORE PUSH1 0x23 PUSH1 0x24 DUP3 ADD MSTORE PUSH32 0x45524332303A207472616E7366657220746F20746865207A65726F2061646472 PUSH1 0x44 DUP3 ADD MSTORE PUSH3 0x657373 PUSH1 0xE8 SHL PUSH1 0x64 DUP3 ADD MSTORE PUSH1 0x84 ADD PUSH2 0xAE2 JUMP JUMPDEST PUSH1 0x1 PUSH1 0x1 PUSH1 0xA0 SHL SUB DUP4 AND PUSH1 0x0 SWAP1 DUP2 MSTORE PUSH1 0x33 PUSH1 0x20 MSTORE PUSH1 0x40 SWAP1 KECCAK256 SLOAD DUP2 DUP2 LT ISZERO PUSH2 0x1EEF JUMPI PUSH1 0x40 MLOAD PUSH3 0x461BCD PUSH1 0xE5 SHL DUP2 MSTORE PUSH1 0x20 PUSH1 0x4 DUP3 ADD MSTORE PUSH1 0x26 PUSH1 0x24 DUP3 ADD MSTORE PUSH32 0x45524332303A207472616E7366657220616D6F756E7420657863656564732062 PUSH1 0x44 DUP3 ADD MSTORE PUSH6 0x616C616E6365 PUSH1 0xD0 SHL PUSH1 0x64 DUP3 ADD MSTORE PUSH1 0x84 ADD PUSH2 0xAE2 JUMP JUMPDEST PUSH1 0x1 PUSH1 0x1 PUSH1 0xA0 SHL SUB DUP1 DUP6 AND PUSH1 0x0 DUP2 DUP2 MSTORE PUSH1 0x33 PUSH1 0x20 MSTORE PUSH1 0x40 DUP1 DUP3 KECCAK256 DUP7 DUP7 SUB SWAP1 SSTORE SWAP3 DUP7 AND DUP1 DUP3 MSTORE SWAP1 DUP4 SWAP1 KECCAK256 DUP1 SLOAD DUP7 ADD SWAP1 SSTORE SWAP2 MLOAD PUSH32 0xDDF252AD1BE2C89B69C2B068FC378DAA952BA7F163C4A11628F55A4DF523B3EF SWAP1 PUSH2 0x1F4F SWAP1 DUP7 DUP2 MSTORE PUSH1 0x20 ADD SWAP1 JUMP JUMPDEST PUSH1 0x40 MLOAD DUP1 SWAP2 SUB SWAP1 LOG3 PUSH2 0x1796 JUMP JUMPDEST PUSH2 0x1F64 PUSH2 0x1B23 JUMP JUMPDEST PUSH2 0x1F6D DUP3 PUSH2 0x2420 JUMP JUMPDEST SWAP2 POP PUSH2 0x1F78 DUP3 PUSH2 0x24B9 JUMP JUMPDEST PUSH2 0x1F82 DUP4 DUP3 PUSH2 0x24F1 JUMP JUMPDEST DUP2 PUSH1 0xFD PUSH1 0x0 DUP3 DUP3 SLOAD PUSH2 0x1F94 SWAP2 SWAP1 PUSH2 0x2D13 JUMP JUMPDEST SWAP1 SWAP2 SSTORE POP POP PUSH1 0x40 DUP1 MLOAD DUP4 DUP2 MSTORE PUSH1 0x20 DUP2 ADD DUP4 SWAP1 MSTORE PUSH1 0x1 PUSH1 0x1 PUSH1 0xA0 SHL SUB DUP1 DUP7 AND SWAP3 SWAP1 DUP8 AND SWAP2 PUSH32 0xD2491A9B4FE81A7CD4511E8B7B7743951B061DAD5BED7DA8A7795B080EE08C7E SWAP2 ADD PUSH1 0x40 MLOAD DUP1 SWAP2 SUB SWAP1 LOG3 PUSH2 0x1796 PUSH1 0x1 PUSH1 0xC9 SSTORE JUMP JUMPDEST PUSH1 0x0 DUP1 PUSH2 0x1FF7 PUSH2 0x84B JUMP JUMPDEST GT DUP1 PUSH2 0x94A JUMPI POP POP PUSH1 0x35 SLOAD ISZERO SWAP1 JUMP JUMPDEST PUSH1 0x97 SLOAD PUSH1 0x1 PUSH1 0x1 PUSH1 0xA0 SHL SUB AND CALLER EQ PUSH2 0xF90 JUMPI PUSH1 0x40 MLOAD PUSH3 0x461BCD PUSH1 0xE5 SHL DUP2 MSTORE PUSH1 0x20 PUSH1 0x4 DUP3 ADD DUP2 SWAP1 MSTORE PUSH1 0x24 DUP3 ADD MSTORE PUSH32 0x4F776E61626C653A2063616C6C6572206973206E6F7420746865206F776E6572 PUSH1 0x44 DUP3 ADD MSTORE PUSH1 0x64 ADD PUSH2 0xAE2 JUMP JUMPDEST PUSH1 0x0 DUP2 DUP5 DUP5 GT ISZERO PUSH2 0x2084 JUMPI PUSH1 0x40 MLOAD PUSH3 0x461BCD PUSH1 0xE5 SHL DUP2 MSTORE PUSH1 0x4 ADD PUSH2 0xAE2 SWAP2 SWAP1 PUSH2 0x2C95 JUMP JUMPDEST POP POP POP SWAP1 SUB SWAP1 JUMP JUMPDEST PUSH1 0x97 DUP1 SLOAD PUSH1 0x1 PUSH1 0x1 PUSH1 0xA0 SHL SUB DUP4 DUP2 AND PUSH1 0x1 PUSH1 0x1 PUSH1 0xA0 SHL SUB NOT DUP4 AND DUP2 OR SWAP1 SWAP4 SSTORE PUSH1 0x40 MLOAD SWAP2 AND SWAP2 SWAP1 DUP3 SWAP1 PUSH32 0x8BE0079C531659141344CD1FD0A4F28419497F9722A3DAAFE3B4186F6B6457E0 SWAP1 PUSH1 0x0 SWAP1 LOG3 POP POP JUMP JUMPDEST PUSH1 0x1 PUSH1 0x1 PUSH1 0xA0 SHL SUB DUP3 AND PUSH2 0x213E JUMPI PUSH1 0x40 MLOAD PUSH3 0x461BCD PUSH1 0xE5 SHL DUP2 MSTORE PUSH1 0x20 PUSH1 0x4 DUP3 ADD MSTORE PUSH1 0x21 PUSH1 0x24 DUP3 ADD MSTORE PUSH32 0x45524332303A206275726E2066726F6D20746865207A65726F20616464726573 PUSH1 0x44 DUP3 ADD MSTORE PUSH1 0x73 PUSH1 0xF8 SHL PUSH1 0x64 DUP3 ADD MSTORE PUSH1 0x84 ADD PUSH2 0xAE2 JUMP JUMPDEST PUSH1 0x1 PUSH1 0x1 PUSH1 0xA0 SHL SUB DUP3 AND PUSH1 0x0 SWAP1 DUP2 MSTORE PUSH1 0x33 PUSH1 0x20 MSTORE PUSH1 0x40 SWAP1 KECCAK256 SLOAD DUP2 DUP2 LT ISZERO PUSH2 0x21B2 JUMPI PUSH1 0x40 MLOAD PUSH3 0x461BCD PUSH1 0xE5 SHL DUP2 MSTORE PUSH1 0x20 PUSH1 0x4 DUP3 ADD MSTORE PUSH1 0x22 PUSH1 0x24 DUP3 ADD MSTORE PUSH32 0x45524332303A206275726E20616D6F756E7420657863656564732062616C616E PUSH1 0x44 DUP3 ADD MSTORE PUSH2 0x6365 PUSH1 0xF0 SHL PUSH1 0x64 DUP3 ADD MSTORE PUSH1 0x84 ADD PUSH2 0xAE2 JUMP JUMPDEST PUSH1 0x1 PUSH1 0x1 PUSH1 0xA0 SHL SUB DUP4 AND PUSH1 0x0 DUP2 DUP2 MSTORE PUSH1 0x33 PUSH1 0x20 SWAP1 DUP2 MSTORE PUSH1 0x40 DUP1 DUP4 KECCAK256 DUP7 DUP7 SUB SWAP1 SSTORE PUSH1 0x35 DUP1 SLOAD DUP8 SWAP1 SUB SWAP1 SSTORE MLOAD DUP6 DUP2 MSTORE SWAP2 SWAP3 SWAP2 PUSH32 0xDDF252AD1BE2C89B69C2B068FC378DAA952BA7F163C4A11628F55A4DF523B3EF SWAP2 ADD PUSH1 0x40 MLOAD DUP1 SWAP2 SUB SWAP1 LOG3 POP POP POP JUMP JUMPDEST PUSH1 0x0 SLOAD PUSH2 0x100 SWAP1 DIV PUSH1 0xFF AND PUSH2 0x2239 JUMPI PUSH1 0x40 MLOAD PUSH3 0x461BCD PUSH1 0xE5 SHL DUP2 MSTORE PUSH1 0x4 ADD PUSH2 0xAE2 SWAP1 PUSH2 0x2CC8 JUMP JUMPDEST PUSH2 0xD4E DUP2 PUSH2 0x25B2 JUMP JUMPDEST PUSH1 0x0 SLOAD PUSH2 0x100 SWAP1 DIV PUSH1 0xFF AND PUSH2 0x2269 JUMPI PUSH1 0x40 MLOAD PUSH3 0x461BCD PUSH1 0xE5 SHL DUP2 MSTORE PUSH1 0x4 ADD PUSH2 0xAE2 SWAP1 PUSH2 0x2CC8 JUMP JUMPDEST PUSH2 0x2273 DUP3 DUP3 PUSH2 0x2637 JUMP JUMPDEST POP POP JUMP JUMPDEST PUSH1 0x0 SLOAD PUSH2 0x100 SWAP1 DIV PUSH1 0xFF AND PUSH2 0x229E JUMPI PUSH1 0x40 MLOAD PUSH3 0x461BCD PUSH1 0xE5 SHL DUP2 MSTORE PUSH1 0x4 ADD PUSH2 0xAE2 SWAP1 PUSH2 0x2CC8 JUMP JUMPDEST PUSH2 0xF90 PUSH2 0x2685 JUMP JUMPDEST PUSH1 0x0 SLOAD PUSH2 0x100 SWAP1 DIV PUSH1 0xFF AND PUSH2 0x22CD JUMPI PUSH1 0x40 MLOAD PUSH3 0x461BCD PUSH1 0xE5 SHL DUP2 MSTORE PUSH1 0x4 ADD PUSH2 0xAE2 SWAP1 PUSH2 0x2CC8 JUMP JUMPDEST PUSH2 0xF90 PUSH2 0x26B5 JUMP JUMPDEST PUSH1 0x0 DUP1 PUSH2 0x22E3 DUP7 DUP7 DUP7 PUSH2 0x26DC JUMP JUMPDEST SWAP1 POP PUSH1 0x1 DUP4 PUSH1 0x2 DUP2 GT ISZERO PUSH2 0x2307 JUMPI PUSH4 0x4E487B71 PUSH1 0xE0 SHL PUSH1 0x0 MSTORE PUSH1 0x21 PUSH1 0x4 MSTORE PUSH1 0x24 PUSH1 0x0 REVERT JUMPDEST EQ DUP1 ISZERO PUSH2 0x2332 JUMPI POP PUSH1 0x0 DUP5 DUP1 PUSH2 0x232D JUMPI PUSH4 0x4E487B71 PUSH1 0xE0 SHL PUSH1 0x0 MSTORE PUSH1 0x12 PUSH1 0x4 MSTORE PUSH1 0x24 PUSH1 0x0 REVERT JUMPDEST DUP7 DUP9 MULMOD GT JUMPDEST ISZERO PUSH2 0x2345 JUMPI PUSH2 0x2342 PUSH1 0x1 DUP3 PUSH2 0x2D13 JUMP JUMPDEST SWAP1 POP JUMPDEST SWAP6 SWAP5 POP POP POP POP POP JUMP JUMPDEST PUSH1 0x0 PUSH2 0x23A3 DUP3 PUSH1 0x40 MLOAD DUP1 PUSH1 0x40 ADD PUSH1 0x40 MSTORE DUP1 PUSH1 0x20 DUP2 MSTORE PUSH1 0x20 ADD PUSH32 0x5361666545524332303A206C6F772D6C6576656C2063616C6C206661696C6564 DUP2 MSTORE POP DUP6 PUSH1 0x1 PUSH1 0x1 PUSH1 0xA0 SHL SUB AND PUSH2 0x279A SWAP1 SWAP3 SWAP2 SWAP1 PUSH4 0xFFFFFFFF AND JUMP JUMPDEST DUP1 MLOAD SWAP1 SWAP2 POP ISZERO PUSH2 0x1C18 JUMPI DUP1 DUP1 PUSH1 0x20 ADD SWAP1 MLOAD DUP2 ADD SWAP1 PUSH2 0x23C1 SWAP2 SWAP1 PUSH2 0x2B9D JUMP JUMPDEST PUSH2 0x1C18 JUMPI PUSH1 0x40 MLOAD PUSH3 0x461BCD PUSH1 0xE5 SHL DUP2 MSTORE PUSH1 0x20 PUSH1 0x4 DUP3 ADD MSTORE PUSH1 0x2A PUSH1 0x24 DUP3 ADD MSTORE PUSH32 0x5361666545524332303A204552433230206F7065726174696F6E20646964206E PUSH1 0x44 DUP3 ADD MSTORE PUSH10 0x1BDD081CDD58D8D95959 PUSH1 0xB2 SHL PUSH1 0x64 DUP3 ADD MSTORE PUSH1 0x84 ADD PUSH2 0xAE2 JUMP JUMPDEST PUSH1 0x0 DUP2 PUSH2 0x242E JUMPI CALLVALUE SWAP2 POP POP SWAP1 JUMP JUMPDEST PUSH2 0x2457 CALLER ADDRESS DUP5 PUSH2 0x2446 PUSH1 0x65 SLOAD PUSH1 0x1 PUSH1 0x1 PUSH1 0xA0 SHL SUB AND SWAP1 JUMP JUMPDEST PUSH1 0x1 PUSH1 0x1 PUSH1 0xA0 SHL SUB AND SWAP3 SWAP2 SWAP1 PUSH2 0x1B7D JUMP JUMPDEST PUSH1 0x65 SLOAD PUSH1 0x40 MLOAD PUSH4 0x2E1A7D4D PUSH1 0xE0 SHL DUP2 MSTORE PUSH1 0x4 DUP2 ADD DUP5 SWAP1 MSTORE PUSH1 0x1 PUSH1 0x1 PUSH1 0xA0 SHL SUB SWAP1 SWAP2 AND SWAP1 PUSH4 0x2E1A7D4D SWAP1 PUSH1 0x24 ADD PUSH1 0x0 PUSH1 0x40 MLOAD DUP1 DUP4 SUB DUP2 PUSH1 0x0 DUP8 DUP1 EXTCODESIZE ISZERO DUP1 ISZERO PUSH2 0x249D JUMPI PUSH1 0x0 DUP1 REVERT JUMPDEST POP GAS CALL ISZERO DUP1 ISZERO PUSH2 0x24B1 JUMPI RETURNDATASIZE PUSH1 0x0 DUP1 RETURNDATACOPY RETURNDATASIZE PUSH1 0x0 REVERT JUMPDEST POP POP POP POP POP SWAP1 JUMP JUMPDEST PUSH7 0x2386F26FC10000 DUP2 LT ISZERO PUSH2 0xD4E JUMPI PUSH1 0x40 MLOAD PUSH4 0xEA691A4B PUSH1 0xE0 SHL DUP2 MSTORE PUSH7 0x2386F26FC10000 PUSH1 0x4 DUP3 ADD MSTORE PUSH1 0x24 DUP2 ADD DUP3 SWAP1 MSTORE PUSH1 0x44 ADD PUSH2 0xAE2 JUMP JUMPDEST PUSH1 0x1 PUSH1 0x1 PUSH1 0xA0 SHL SUB DUP3 AND PUSH2 0x2547 JUMPI PUSH1 0x40 MLOAD PUSH3 0x461BCD PUSH1 0xE5 SHL DUP2 MSTORE PUSH1 0x20 PUSH1 0x4 DUP3 ADD MSTORE PUSH1 0x1F PUSH1 0x24 DUP3 ADD MSTORE PUSH32 0x45524332303A206D696E7420746F20746865207A65726F206164647265737300 PUSH1 0x44 DUP3 ADD MSTORE PUSH1 0x64 ADD PUSH2 0xAE2 JUMP JUMPDEST DUP1 PUSH1 0x35 PUSH1 0x0 DUP3 DUP3 SLOAD PUSH2 0x2559 SWAP2 SWAP1 PUSH2 0x2D13 JUMP JUMPDEST SWAP1 SWAP2 SSTORE POP POP PUSH1 0x1 PUSH1 0x1 PUSH1 0xA0 SHL SUB DUP3 AND PUSH1 0x0 DUP2 DUP2 MSTORE PUSH1 0x33 PUSH1 0x20 SWAP1 DUP2 MSTORE PUSH1 0x40 DUP1 DUP4 KECCAK256 DUP1 SLOAD DUP7 ADD SWAP1 SSTORE MLOAD DUP5 DUP2 MSTORE PUSH32 0xDDF252AD1BE2C89B69C2B068FC378DAA952BA7F163C4A11628F55A4DF523B3EF SWAP2 ADD PUSH1 0x40 MLOAD DUP1 SWAP2 SUB SWAP1 LOG3 POP POP JUMP JUMPDEST PUSH1 0x0 SLOAD PUSH2 0x100 SWAP1 DIV PUSH1 0xFF AND PUSH2 0x25D9 JUMPI PUSH1 0x40 MLOAD PUSH3 0x461BCD PUSH1 0xE5 SHL DUP2 MSTORE PUSH1 0x4 ADD PUSH2 0xAE2 SWAP1 PUSH2 0x2CC8 JUMP JUMPDEST PUSH1 0x0 DUP1 PUSH2 0x25E5 DUP4 PUSH2 0x27A9 JUMP JUMPDEST SWAP2 POP SWAP2 POP DUP2 PUSH2 0x25F5 JUMPI PUSH1 0x12 PUSH2 0x25F7 JUMP JUMPDEST DUP1 JUMPDEST PUSH1 0x65 DUP1 SLOAD PUSH1 0x1 PUSH1 0x1 PUSH1 0xA0 SHL SUB SWAP1 SWAP6 AND PUSH1 0x1 PUSH1 0x1 PUSH1 0xA0 SHL SUB NOT PUSH1 0xFF SWAP4 SWAP1 SWAP4 AND PUSH1 0x1 PUSH1 0xA0 SHL MUL SWAP3 SWAP1 SWAP3 AND PUSH1 0x1 PUSH1 0x1 PUSH1 0xA8 SHL SUB NOT SWAP1 SWAP6 AND SWAP5 SWAP1 SWAP5 OR OR SWAP1 SWAP3 SSTORE POP POP JUMP JUMPDEST PUSH1 0x0 SLOAD PUSH2 0x100 SWAP1 DIV PUSH1 0xFF AND PUSH2 0x265E JUMPI PUSH1 0x40 MLOAD PUSH3 0x461BCD PUSH1 0xE5 SHL DUP2 MSTORE PUSH1 0x4 ADD PUSH2 0xAE2 SWAP1 PUSH2 0x2CC8 JUMP JUMPDEST DUP2 MLOAD PUSH2 0x2671 SWAP1 PUSH1 0x36 SWAP1 PUSH1 0x20 DUP6 ADD SWAP1 PUSH2 0x29FB JUMP JUMPDEST POP DUP1 MLOAD PUSH2 0x1C18 SWAP1 PUSH1 0x37 SWAP1 PUSH1 0x20 DUP5 ADD SWAP1 PUSH2 0x29FB JUMP JUMPDEST PUSH1 0x0 SLOAD PUSH2 0x100 SWAP1 DIV PUSH1 0xFF AND PUSH2 0x26AC JUMPI PUSH1 0x40 MLOAD PUSH3 0x461BCD PUSH1 0xE5 SHL DUP2 MSTORE PUSH1 0x4 ADD PUSH2 0xAE2 SWAP1 PUSH2 0x2CC8 JUMP JUMPDEST PUSH2 0xF90 CALLER PUSH2 0x208C JUMP JUMPDEST PUSH1 0x0 SLOAD PUSH2 0x100 SWAP1 DIV PUSH1 0xFF AND PUSH2 0x1D36 JUMPI PUSH1 0x40 MLOAD PUSH3 0x461BCD PUSH1 0xE5 SHL DUP2 MSTORE PUSH1 0x4 ADD PUSH2 0xAE2 SWAP1 PUSH2 0x2CC8 JUMP JUMPDEST PUSH1 0x0 DUP1 DUP1 PUSH1 0x0 NOT DUP6 DUP8 MULMOD DUP6 DUP8 MUL SWAP3 POP DUP3 DUP2 LT DUP4 DUP3 SUB SUB SWAP2 POP POP DUP1 PUSH1 0x0 EQ ISZERO PUSH2 0x2725 JUMPI DUP4 DUP3 DUP2 PUSH2 0x271B JUMPI PUSH4 0x4E487B71 PUSH1 0xE0 SHL PUSH1 0x0 MSTORE PUSH1 0x12 PUSH1 0x4 MSTORE PUSH1 0x24 PUSH1 0x0 REVERT JUMPDEST DIV SWAP3 POP POP POP PUSH2 0xBD2 JUMP JUMPDEST DUP1 DUP5 GT PUSH2 0x2731 JUMPI PUSH1 0x0 DUP1 REVERT JUMPDEST PUSH1 0x0 DUP5 DUP7 DUP9 MULMOD PUSH1 0x2 PUSH1 0x1 DUP8 NOT DUP2 ADD DUP9 AND SWAP8 DUP9 SWAP1 DIV PUSH1 0x3 DUP2 MUL DUP4 XOR DUP1 DUP3 MUL DUP5 SUB MUL DUP1 DUP3 MUL DUP5 SUB MUL DUP1 DUP3 MUL DUP5 SUB MUL DUP1 DUP3 MUL DUP5 SUB MUL DUP1 DUP3 MUL DUP5 SUB MUL SWAP1 DUP2 MUL SWAP1 SWAP3 SUB SWAP1 SWAP2 MUL PUSH1 0x0 DUP9 SWAP1 SUB DUP9 SWAP1 DIV SWAP1 SWAP2 ADD DUP6 DUP4 GT SWAP1 SWAP5 SUB SWAP4 SWAP1 SWAP4 MUL SWAP4 SUB SWAP5 SWAP1 SWAP5 DIV SWAP2 SWAP1 SWAP2 OR MUL SWAP5 SWAP4 POP POP POP POP JUMP JUMPDEST PUSH1 0x60 PUSH2 0x19C5 DUP5 DUP5 PUSH1 0x0 DUP6 PUSH2 0x2885 JUMP JUMPDEST PUSH1 0x40 DUP1 MLOAD PUSH1 0x4 DUP2 MSTORE PUSH1 0x24 DUP2 ADD DUP3 MSTORE PUSH1 0x20 DUP2 ADD DUP1 MLOAD PUSH1 0x1 PUSH1 0x1 PUSH1 0xE0 SHL SUB AND PUSH4 0x313CE567 PUSH1 0xE0 SHL OR SWAP1 MSTORE SWAP1 MLOAD PUSH1 0x0 SWAP2 DUP3 SWAP2 DUP3 SWAP2 DUP3 SWAP2 PUSH1 0x1 PUSH1 0x1 PUSH1 0xA0 SHL SUB DUP8 AND SWAP2 PUSH2 0x27F0 SWAP2 PUSH2 0x2C79 JUMP JUMPDEST PUSH1 0x0 PUSH1 0x40 MLOAD DUP1 DUP4 SUB DUP2 DUP6 GAS STATICCALL SWAP2 POP POP RETURNDATASIZE DUP1 PUSH1 0x0 DUP2 EQ PUSH2 0x282B JUMPI PUSH1 0x40 MLOAD SWAP2 POP PUSH1 0x1F NOT PUSH1 0x3F RETURNDATASIZE ADD AND DUP3 ADD PUSH1 0x40 MSTORE RETURNDATASIZE DUP3 MSTORE RETURNDATASIZE PUSH1 0x0 PUSH1 0x20 DUP5 ADD RETURNDATACOPY PUSH2 0x2830 JUMP JUMPDEST PUSH1 0x60 SWAP2 POP JUMPDEST POP SWAP2 POP SWAP2 POP DUP2 DUP1 ISZERO PUSH2 0x2844 JUMPI POP PUSH1 0x20 DUP2 MLOAD LT ISZERO JUMPDEST ISZERO PUSH2 0x2878 JUMPI PUSH1 0x0 DUP2 DUP1 PUSH1 0x20 ADD SWAP1 MLOAD DUP2 ADD SWAP1 PUSH2 0x285F SWAP2 SWAP1 PUSH2 0x2BD5 JUMP JUMPDEST SWAP1 POP PUSH1 0xFF DUP2 GT PUSH2 0x2876 JUMPI PUSH1 0x1 SWAP7 SWAP1 SWAP6 POP SWAP4 POP POP POP POP JUMP JUMPDEST POP JUMPDEST POP PUSH1 0x0 SWAP5 DUP6 SWAP5 POP SWAP3 POP POP POP JUMP JUMPDEST PUSH1 0x60 DUP3 SELFBALANCE LT ISZERO PUSH2 0x28E6 JUMPI PUSH1 0x40 MLOAD PUSH3 0x461BCD PUSH1 0xE5 SHL DUP2 MSTORE PUSH1 0x20 PUSH1 0x4 DUP3 ADD MSTORE PUSH1 0x26 PUSH1 0x24 DUP3 ADD MSTORE PUSH32 0x416464726573733A20696E73756666696369656E742062616C616E636520666F PUSH1 0x44 DUP3 ADD MSTORE PUSH6 0x1C8818D85B1B PUSH1 0xD2 SHL PUSH1 0x64 DUP3 ADD MSTORE PUSH1 0x84 ADD PUSH2 0xAE2 JUMP JUMPDEST PUSH1 0x0 DUP1 DUP7 PUSH1 0x1 PUSH1 0x1 PUSH1 0xA0 SHL SUB AND DUP6 DUP8 PUSH1 0x40 MLOAD PUSH2 0x2902 SWAP2 SWAP1 PUSH2 0x2C79 JUMP JUMPDEST PUSH1 0x0 PUSH1 0x40 MLOAD DUP1 DUP4 SUB DUP2 DUP6 DUP8 GAS CALL SWAP3 POP POP POP RETURNDATASIZE DUP1 PUSH1 0x0 DUP2 EQ PUSH2 0x293F JUMPI PUSH1 0x40 MLOAD SWAP2 POP PUSH1 0x1F NOT PUSH1 0x3F RETURNDATASIZE ADD AND DUP3 ADD PUSH1 0x40 MSTORE RETURNDATASIZE DUP3 MSTORE RETURNDATASIZE PUSH1 0x0 PUSH1 0x20 DUP5 ADD RETURNDATACOPY PUSH2 0x2944 JUMP JUMPDEST PUSH1 0x60 SWAP2 POP JUMPDEST POP SWAP2 POP SWAP2 POP PUSH2 0x2955 DUP8 DUP4 DUP4 DUP8 PUSH2 0x2960 JUMP JUMPDEST SWAP8 SWAP7 POP POP POP POP POP POP POP JUMP JUMPDEST PUSH1 0x60 DUP4 ISZERO PUSH2 0x29CC JUMPI DUP3 MLOAD PUSH2 0x29C5 JUMPI PUSH1 0x1 PUSH1 0x1 PUSH1 0xA0 SHL SUB DUP6 AND EXTCODESIZE PUSH2 0x29C5 JUMPI PUSH1 0x40 MLOAD PUSH3 0x461BCD PUSH1 0xE5 SHL DUP2 MSTORE PUSH1 0x20 PUSH1 0x4 DUP3 ADD MSTORE PUSH1 0x1D PUSH1 0x24 DUP3 ADD MSTORE PUSH32 0x416464726573733A2063616C6C20746F206E6F6E2D636F6E7472616374000000 PUSH1 0x44 DUP3 ADD MSTORE PUSH1 0x64 ADD PUSH2 0xAE2 JUMP JUMPDEST POP DUP2 PUSH2 0x19C5 JUMP JUMPDEST PUSH2 0x19C5 DUP4 DUP4 DUP2 MLOAD ISZERO PUSH2 0x29E1 JUMPI DUP2 MLOAD DUP1 DUP4 PUSH1 0x20 ADD REVERT JUMPDEST DUP1 PUSH1 0x40 MLOAD PUSH3 0x461BCD PUSH1 0xE5 SHL DUP2 MSTORE PUSH1 0x4 ADD PUSH2 0xAE2 SWAP2 SWAP1 PUSH2 0x2C95 JUMP JUMPDEST DUP3 DUP1 SLOAD PUSH2 0x2A07 SWAP1 PUSH2 0x2DD0 JUMP JUMPDEST SWAP1 PUSH1 0x0 MSTORE PUSH1 0x20 PUSH1 0x0 KECCAK256 SWAP1 PUSH1 0x1F ADD PUSH1 0x20 SWAP1 DIV DUP2 ADD SWAP3 DUP3 PUSH2 0x2A29 JUMPI PUSH1 0x0 DUP6 SSTORE PUSH2 0x2A6F JUMP JUMPDEST DUP3 PUSH1 0x1F LT PUSH2 0x2A42 JUMPI DUP1 MLOAD PUSH1 0xFF NOT AND DUP4 DUP1 ADD OR DUP6 SSTORE PUSH2 0x2A6F JUMP JUMPDEST DUP3 DUP1 ADD PUSH1 0x1 ADD DUP6 SSTORE DUP3 ISZERO PUSH2 0x2A6F JUMPI SWAP2 DUP3 ADD JUMPDEST DUP3 DUP2 GT ISZERO PUSH2 0x2A6F JUMPI DUP3 MLOAD DUP3 SSTORE SWAP2 PUSH1 0x20 ADD SWAP2 SWAP1 PUSH1 0x1 ADD SWAP1 PUSH2 0x2A54 JUMP JUMPDEST POP PUSH2 0x2A7B SWAP3 SWAP2 POP PUSH2 0x2A7F JUMP JUMPDEST POP SWAP1 JUMP JUMPDEST JUMPDEST DUP1 DUP3 GT ISZERO PUSH2 0x2A7B JUMPI PUSH1 0x0 DUP2 SSTORE PUSH1 0x1 ADD PUSH2 0x2A80 JUMP JUMPDEST PUSH1 0x0 PUSH1 0x20 DUP3 DUP5 SUB SLT ISZERO PUSH2 0x2AA5 JUMPI DUP1 DUP2 REVERT JUMPDEST DUP2 CALLDATALOAD PUSH2 0xBD2 DUP2 PUSH2 0x2E21 JUMP JUMPDEST PUSH1 0x0 DUP1 PUSH1 0x0 PUSH1 0x60 DUP5 DUP7 SUB SLT ISZERO PUSH2 0x2AC4 JUMPI DUP2 DUP3 REVERT JUMPDEST DUP4 CALLDATALOAD PUSH2 0x2ACF DUP2 PUSH2 0x2E21 JUMP JUMPDEST SWAP3 POP PUSH1 0x20 DUP5 ADD CALLDATALOAD PUSH2 0x2ADF DUP2 PUSH2 0x2E21 JUMP JUMPDEST SWAP2 POP PUSH1 0x40 DUP5 ADD CALLDATALOAD PUSH2 0x2AEF DUP2 PUSH2 0x2E21 JUMP JUMPDEST DUP1 SWAP2 POP POP SWAP3 POP SWAP3 POP SWAP3 JUMP JUMPDEST PUSH1 0x0 DUP1 PUSH1 0x40 DUP4 DUP6 SUB SLT ISZERO PUSH2 0x2B0C JUMPI DUP2 DUP3 REVERT JUMPDEST DUP3 CALLDATALOAD PUSH2 0x2B17 DUP2 PUSH2 0x2E21 JUMP JUMPDEST SWAP2 POP PUSH1 0x20 DUP4 ADD CALLDATALOAD PUSH2 0x2B27 DUP2 PUSH2 0x2E21 JUMP JUMPDEST DUP1 SWAP2 POP POP SWAP3 POP SWAP3 SWAP1 POP JUMP JUMPDEST PUSH1 0x0 DUP1 PUSH1 0x0 PUSH1 0x60 DUP5 DUP7 SUB SLT ISZERO PUSH2 0x2B46 JUMPI DUP3 DUP4 REVERT JUMPDEST DUP4 CALLDATALOAD PUSH2 0x2B51 DUP2 PUSH2 0x2E21 JUMP JUMPDEST SWAP3 POP PUSH1 0x20 DUP5 ADD CALLDATALOAD PUSH2 0x2B61 DUP2 PUSH2 0x2E21 JUMP JUMPDEST SWAP3 SWAP6 SWAP3 SWAP5 POP POP POP PUSH1 0x40 SWAP2 SWAP1 SWAP2 ADD CALLDATALOAD SWAP1 JUMP JUMPDEST PUSH1 0x0 DUP1 PUSH1 0x40 DUP4 DUP6 SUB SLT ISZERO PUSH2 0x2B84 JUMPI DUP2 DUP3 REVERT JUMPDEST DUP3 CALLDATALOAD PUSH2 0x2B8F DUP2 PUSH2 0x2E21 JUMP JUMPDEST SWAP5 PUSH1 0x20 SWAP4 SWAP1 SWAP4 ADD CALLDATALOAD SWAP4 POP POP POP JUMP JUMPDEST PUSH1 0x0 PUSH1 0x20 DUP3 DUP5 SUB SLT ISZERO PUSH2 0x2BAE JUMPI DUP1 DUP2 REVERT JUMPDEST DUP2 MLOAD DUP1 ISZERO ISZERO DUP2 EQ PUSH2 0xBD2 JUMPI DUP2 DUP3 REVERT JUMPDEST PUSH1 0x0 PUSH1 0x20 DUP3 DUP5 SUB SLT ISZERO PUSH2 0x2BCE JUMPI DUP1 DUP2 REVERT JUMPDEST POP CALLDATALOAD SWAP2 SWAP1 POP JUMP JUMPDEST PUSH1 0x0 PUSH1 0x20 DUP3 DUP5 SUB SLT ISZERO PUSH2 0x2BE6 JUMPI DUP1 DUP2 REVERT JUMPDEST POP MLOAD SWAP2 SWAP1 POP JUMP JUMPDEST PUSH1 0x0 DUP1 PUSH1 0x40 DUP4 DUP6 SUB SLT ISZERO PUSH2 0x2BFF JUMPI DUP2 DUP3 REVERT JUMPDEST DUP3 CALLDATALOAD SWAP2 POP PUSH1 0x20 DUP4 ADD CALLDATALOAD PUSH2 0x2B27 DUP2 PUSH2 0x2E21 JUMP JUMPDEST PUSH1 0x0 DUP1 PUSH1 0x0 PUSH1 0x60 DUP5 DUP7 SUB SLT ISZERO PUSH2 0x2C25 JUMPI DUP3 DUP4 REVERT JUMPDEST DUP4 CALLDATALOAD SWAP3 POP PUSH1 0x20 DUP5 ADD CALLDATALOAD PUSH2 0x2ADF DUP2 PUSH2 0x2E21 JUMP JUMPDEST PUSH1 0x0 DUP1 PUSH1 0x40 DUP4 DUP6 SUB SLT ISZERO PUSH2 0x2C49 JUMPI DUP2 DUP3 REVERT JUMPDEST POP POP DUP1 CALLDATALOAD SWAP3 PUSH1 0x20 SWAP1 SWAP2 ADD CALLDATALOAD SWAP2 POP JUMP JUMPDEST PUSH1 0x0 PUSH1 0x20 DUP3 DUP5 SUB SLT ISZERO PUSH2 0x2C69 JUMPI DUP1 DUP2 REVERT JUMPDEST DUP2 MLOAD PUSH1 0xFF DUP2 AND DUP2 EQ PUSH2 0xBD2 JUMPI DUP2 DUP3 REVERT JUMPDEST PUSH1 0x0 DUP3 MLOAD PUSH2 0x2C8B DUP2 DUP5 PUSH1 0x20 DUP8 ADD PUSH2 0x2DA4 JUMP JUMPDEST SWAP2 SWAP1 SWAP2 ADD SWAP3 SWAP2 POP POP JUMP JUMPDEST PUSH1 0x20 DUP2 MSTORE PUSH1 0x0 DUP3 MLOAD DUP1 PUSH1 0x20 DUP5 ADD MSTORE PUSH2 0x2CB4 DUP2 PUSH1 0x40 DUP6 ADD PUSH1 0x20 DUP8 ADD PUSH2 0x2DA4 JUMP JUMPDEST PUSH1 0x1F ADD PUSH1 0x1F NOT AND SWAP2 SWAP1 SWAP2 ADD PUSH1 0x40 ADD SWAP3 SWAP2 POP POP JUMP JUMPDEST PUSH1 0x20 DUP1 DUP3 MSTORE PUSH1 0x2B SWAP1 DUP3 ADD MSTORE PUSH32 0x496E697469616C697A61626C653A20636F6E7472616374206973206E6F742069 PUSH1 0x40 DUP3 ADD MSTORE PUSH11 0x6E697469616C697A696E67 PUSH1 0xA8 SHL PUSH1 0x60 DUP3 ADD MSTORE PUSH1 0x80 ADD SWAP1 JUMP JUMPDEST PUSH1 0x0 DUP3 NOT DUP3 GT ISZERO PUSH2 0x2D26 JUMPI PUSH2 0x2D26 PUSH2 0x2E0B JUMP JUMPDEST POP ADD SWAP1 JUMP JUMPDEST PUSH1 0x0 DUP3 PUSH2 0x2D46 JUMPI PUSH4 0x4E487B71 PUSH1 0xE0 SHL DUP2 MSTORE PUSH1 0x12 PUSH1 0x4 MSTORE PUSH1 0x24 DUP2 REVERT JUMPDEST POP DIV SWAP1 JUMP JUMPDEST PUSH1 0x0 DUP2 PUSH1 0x0 NOT DIV DUP4 GT DUP3 ISZERO ISZERO AND ISZERO PUSH2 0x2D65 JUMPI PUSH2 0x2D65 PUSH2 0x2E0B JUMP JUMPDEST POP MUL SWAP1 JUMP JUMPDEST PUSH1 0x0 PUSH2 0xFFFF DUP4 DUP2 AND SWAP1 DUP4 AND DUP2 DUP2 LT ISZERO PUSH2 0x2D85 JUMPI PUSH2 0x2D85 PUSH2 0x2E0B JUMP JUMPDEST SUB SWAP4 SWAP3 POP POP POP JUMP JUMPDEST PUSH1 0x0 DUP3 DUP3 LT ISZERO PUSH2 0x2D9F JUMPI PUSH2 0x2D9F PUSH2 0x2E0B JUMP JUMPDEST POP SUB SWAP1 JUMP JUMPDEST PUSH1 0x0 JUMPDEST DUP4 DUP2 LT ISZERO PUSH2 0x2DBF JUMPI DUP2 DUP2 ADD MLOAD DUP4 DUP3 ADD MSTORE PUSH1 0x20 ADD PUSH2 0x2DA7 JUMP JUMPDEST DUP4 DUP2 GT ISZERO PUSH2 0x1796 JUMPI POP POP PUSH1 0x0 SWAP2 ADD MSTORE JUMP JUMPDEST PUSH1 0x1 DUP2 DUP2 SHR SWAP1 DUP3 AND DUP1 PUSH2 0x2DE4 JUMPI PUSH1 0x7F DUP3 AND SWAP2 POP JUMPDEST PUSH1 0x20 DUP3 LT DUP2 EQ ISZERO PUSH2 0x2E05 JUMPI PUSH4 0x4E487B71 PUSH1 0xE0 SHL PUSH1 0x0 MSTORE PUSH1 0x22 PUSH1 0x4 MSTORE PUSH1 0x24 PUSH1 0x0 REVERT JUMPDEST POP SWAP2 SWAP1 POP JUMP JUMPDEST PUSH4 0x4E487B71 PUSH1 0xE0 SHL PUSH1 0x0 MSTORE PUSH1 0x11 PUSH1 0x4 MSTORE PUSH1 0x24 PUSH1 0x0 REVERT JUMPDEST PUSH1 0x1 PUSH1 0x1 PUSH1 0xA0 SHL SUB DUP2 AND DUP2 EQ PUSH2 0xD4E JUMPI PUSH1 0x0 DUP1 REVERT INVALID LOG2 PUSH5 0x6970667358 0x22 SLT KECCAK256 SHL 0xA5 DUP7 SWAP15 PC 0xB5 PUSH10 0xE508E4F70C95EB1CFE60 PUSH7 0x409C69B37A1C31 0x4A DUP12 CALL 0xAF 0x4D 0x5F STATICCALL PUSH5 0x736F6C6343 STOP ADDMOD DIV STOP CALLER "},"methodIdentifiers":{"MAX_FEE()":"bc063e1a","MIN_DEPOSIT()":"e1e158a5","MIN_FEE()":"76c7a3c7","STAKING()":"97610f30","allowance(address,address)":"dd62ed3e","approve(address,uint256)":"095ea7b3","asset()":"38d52e0f","balanceOf(address)":"70a08231","convertToAssets(uint256)":"07a2d13a","convertToShares(uint256)":"c6e6f592","decimals()":"313ce567","decreaseAllowance(address,uint256)":"a457c2d7","deposit(uint256,address)":"6e553f65","depositETH(address)":"2d2da806","ethBalance()":"4e6630b0","getAmountOut(uint256)":"5c195217","getAvailableEthForValidator()":"1efc1173","getEthForValidator(uint256)":"3701206b","increaseAllowance(address,uint256)":"39509351","initialize(address,address,address)":"c0c53b8b","maxDeposit(address)":"402d267d","maxMint(address)":"c63d75b6","maxRedeem(address)":"d905777e","maxWithdraw(address)":"ce96cb77","minETHPercentage()":"3100f4f2","mint(uint256,address)":"94bf804d","name()":"06fdde03","owner()":"8da5cb5b","previewDeposit(uint256)":"ef8b30f7","previewMint(uint256)":"b3d7f6b9","previewRedeem(uint256)":"4cdad506","previewWithdraw(uint256)":"0a28a477","redeem(uint256,address,address)":"ba087652","renounceOwnership()":"715018a6","swapETHFormpETH(address)":"c3e8c4fa","swapmpETHforETH(uint256,uint256)":"20168730","symbol()":"95d89b41","targetLiquidity()":"92258ec8","totalAssets()":"01e1d114","totalSupply()":"18160ddd","transfer(address,uint256)":"a9059cbb","transferFrom(address,address,uint256)":"23b872dd","transferOwnership(address)":"f2fde38b","treasury()":"61d027b3","updateMinETHPercentage(uint256)":"489569d7","updateTargetLiquidity(uint256)":"7d287f4f","withdraw(uint256,address,address)":"b460af94"}},"storageLayout":{"storage":[{"astId":715,"contract":"contracts/LiquidUnstakePool.sol:LiquidUnstakePool","label":"_initialized","offset":0,"slot":"0","type":"t_uint8"},{"astId":718,"contract":"contracts/LiquidUnstakePool.sol:LiquidUnstakePool","label":"_initializing","offset":1,"slot":"0","type":"t_bool"},{"astId":3013,"contract":"contracts/LiquidUnstakePool.sol:LiquidUnstakePool","label":"__gap","offset":0,"slot":"1","type":"t_array(t_uint256)50_storage"},{"astId":969,"contract":"contracts/LiquidUnstakePool.sol:LiquidUnstakePool","label":"_balances","offset":0,"slot":"51","type":"t_mapping(t_address,t_uint256)"},{"astId":975,"contract":"contracts/LiquidUnstakePool.sol:LiquidUnstakePool","label":"_allowances","offset":0,"slot":"52","type":"t_mapping(t_address,t_mapping(t_address,t_uint256))"},{"astId":977,"contract":"contracts/LiquidUnstakePool.sol:LiquidUnstakePool","label":"_totalSupply","offset":0,"slot":"53","type":"t_uint256"},{"astId":979,"contract":"contracts/LiquidUnstakePool.sol:LiquidUnstakePool","label":"_name","offset":0,"slot":"54","type":"t_string_storage"},{"astId":981,"contract":"contracts/LiquidUnstakePool.sol:LiquidUnstakePool","label":"_symbol","offset":0,"slot":"55","type":"t_string_storage"},{"astId":1561,"contract":"contracts/LiquidUnstakePool.sol:LiquidUnstakePool","label":"__gap","offset":0,"slot":"56","type":"t_array(t_uint256)45_storage"},{"astId":1660,"contract":"contracts/LiquidUnstakePool.sol:LiquidUnstakePool","label":"_asset","offset":0,"slot":"101","type":"t_contract(IERC20Upgradeable)1640"},{"astId":1662,"contract":"contracts/LiquidUnstakePool.sol:LiquidUnstakePool","label":"_decimals","offset":20,"slot":"101","type":"t_uint8"},{"astId":2345,"contract":"contracts/LiquidUnstakePool.sol:LiquidUnstakePool","label":"__gap","offset":0,"slot":"102","type":"t_array(t_uint256)49_storage"},{"astId":419,"contract":"contracts/LiquidUnstakePool.sol:LiquidUnstakePool","label":"_owner","offset":0,"slot":"151","type":"t_address"},{"astId":539,"contract":"contracts/LiquidUnstakePool.sol:LiquidUnstakePool","label":"__gap","offset":0,"slot":"152","type":"t_array(t_uint256)49_storage"},{"astId":891,"contract":"contracts/LiquidUnstakePool.sol:LiquidUnstakePool","label":"_status","offset":0,"slot":"201","type":"t_uint256"},{"astId":949,"contract":"contracts/LiquidUnstakePool.sol:LiquidUnstakePool","label":"__gap","offset":0,"slot":"202","type":"t_array(t_uint256)49_storage"},{"astId":5763,"contract":"contracts/LiquidUnstakePool.sol:LiquidUnstakePool","label":"treasury","offset":0,"slot":"251","type":"t_address"},{"astId":5765,"contract":"contracts/LiquidUnstakePool.sol:LiquidUnstakePool","label":"STAKING","offset":0,"slot":"252","type":"t_address_payable"},{"astId":5767,"contract":"contracts/LiquidUnstakePool.sol:LiquidUnstakePool","label":"ethBalance","offset":0,"slot":"253","type":"t_uint256"},{"astId":5769,"contract":"contracts/LiquidUnstakePool.sol:LiquidUnstakePool","label":"targetLiquidity","offset":0,"slot":"254","type":"t_uint256"},{"astId":5771,"contract":"contracts/LiquidUnstakePool.sol:LiquidUnstakePool","label":"minETHPercentage","offset":0,"slot":"255","type":"t_uint256"}],"types":{"t_address":{"encoding":"inplace","label":"address","numberOfBytes":"20"},"t_address_payable":{"encoding":"inplace","label":"address payable","numberOfBytes":"20"},"t_array(t_uint256)45_storage":{"base":"t_uint256","encoding":"inplace","label":"uint256[45]","numberOfBytes":"1440"},"t_array(t_uint256)49_storage":{"base":"t_uint256","encoding":"inplace","label":"uint256[49]","numberOfBytes":"1568"},"t_array(t_uint256)50_storage":{"base":"t_uint256","encoding":"inplace","label":"uint256[50]","numberOfBytes":"1600"},"t_bool":{"encoding":"inplace","label":"bool","numberOfBytes":"1"},"t_contract(IERC20Upgradeable)1640":{"encoding":"inplace","label":"contract IERC20Upgradeable","numberOfBytes":"20"},"t_mapping(t_address,t_mapping(t_address,t_uint256))":{"encoding":"mapping","key":"t_address","label":"mapping(address => mapping(address => uint256))","numberOfBytes":"32","value":"t_mapping(t_address,t_uint256)"},"t_mapping(t_address,t_uint256)":{"encoding":"mapping","key":"t_address","label":"mapping(address => uint256)","numberOfBytes":"32","value":"t_uint256"},"t_string_storage":{"encoding":"bytes","label":"string","numberOfBytes":"32"},"t_uint256":{"encoding":"inplace","label":"uint256","numberOfBytes":"32"},"t_uint8":{"encoding":"inplace","label":"uint8","numberOfBytes":"1"}}}}}}