{"contracts/Withdrawal.sol":{"Withdrawal":{"abi":[{"inputs":[{"internalType":"uint256","name":"_currentEpoch","type":"uint256"},{"internalType":"uint256","name":"_unlockEpoch","type":"uint256"}],"name":"EpochNotReached","type":"error"},{"inputs":[{"internalType":"uint256","name":"_timestampUnlock","type":"uint256"}],"name":"NewEpochDelayNotReached","type":"error"},{"inputs":[{"internalType":"address","name":"_caller","type":"address"},{"internalType":"address","name":"_authorized","type":"address"}],"name":"NotAuthorized","type":"error"},{"inputs":[{"internalType":"uint256","name":"_requested","type":"uint256"},{"internalType":"uint256","name":"_available","type":"uint256"}],"name":"NotEnoughETHtoStake","type":"error"},{"inputs":[{"internalType":"uint8","name":"_startEpochSent","type":"uint8"},{"internalType":"uint8","name":"_maxStartEpoch","type":"uint8"}],"name":"StartEpochTooHigh","type":"error"},{"inputs":[{"internalType":"address","name":"_user","type":"address"}],"name":"UserDontHavePendingWithdraw","type":"error"},{"inputs":[{"internalType":"uint256","name":"_currentEpoch","type":"uint256"},{"internalType":"uint256","name":"_startEpoch","type":"uint256"}],"name":"WithdrawalsNotStarted","type":"error"},{"anonymous":false,"inputs":[{"indexed":true,"internalType":"address","name":"caller","type":"address"},{"indexed":false,"internalType":"uint256","name":"amount","type":"uint256"},{"indexed":false,"internalType":"address","name":"receiver","type":"address"},{"indexed":false,"internalType":"uint256","name":"unlockEpoch","type":"uint256"}],"name":"CompleteWithdraw","type":"event"},{"anonymous":false,"inputs":[{"indexed":false,"internalType":"uint8","name":"version","type":"uint8"}],"name":"Initialized","type":"event"},{"anonymous":false,"inputs":[{"indexed":true,"internalType":"address","name":"previousOwner","type":"address"},{"indexed":true,"internalType":"address","name":"newOwner","type":"address"}],"name":"OwnershipTransferred","type":"event"},{"anonymous":false,"inputs":[{"indexed":true,"internalType":"address","name":"caller","type":"address"},{"indexed":false,"internalType":"uint256","name":"amount","type":"uint256"},{"indexed":false,"internalType":"address","name":"receiver","type":"address"},{"indexed":false,"internalType":"uint256","name":"unlockEpoch","type":"uint256"}],"name":"RequestWithdraw","type":"event"},{"inputs":[],"name":"completeWithdraw","outputs":[],"stateMutability":"nonpayable","type":"function"},{"inputs":[],"name":"getEpoch","outputs":[{"internalType":"uint256","name":"epoch","type":"uint256"}],"stateMutability":"view","type":"function"},{"inputs":[],"name":"getEpochStartedTime","outputs":[{"internalType":"uint256","name":"","type":"uint256"}],"stateMutability":"view","type":"function"},{"inputs":[],"name":"getEpochTimeLeft","outputs":[{"internalType":"uint256","name":"","type":"uint256"}],"stateMutability":"view","type":"function"},{"inputs":[{"internalType":"uint256","name":"_amount","type":"uint256"}],"name":"getEthForValidator","outputs":[],"stateMutability":"nonpayable","type":"function"},{"inputs":[{"internalType":"address payable","name":"_mpETH","type":"address"}],"name":"initialize","outputs":[],"stateMutability":"nonpayable","type":"function"},{"inputs":[],"name":"mpETH","outputs":[{"internalType":"address payable","name":"","type":"address"}],"stateMutability":"view","type":"function"},{"inputs":[],"name":"owner","outputs":[{"internalType":"address","name":"","type":"address"}],"stateMutability":"view","type":"function"},{"inputs":[{"internalType":"address","name":"","type":"address"}],"name":"pendingWithdraws","outputs":[{"internalType":"uint256","name":"amount","type":"uint256"},{"internalType":"uint256","name":"unlockEpoch","type":"uint256"},{"internalType":"address","name":"receiver","type":"address"}],"stateMutability":"view","type":"function"},{"inputs":[],"name":"renounceOwnership","outputs":[],"stateMutability":"nonpayable","type":"function"},{"inputs":[{"internalType":"uint256","name":"_amountOut","type":"uint256"},{"internalType":"address","name":"_user","type":"address"},{"internalType":"address","name":"_receiver","type":"address"}],"name":"requestWithdraw","outputs":[],"stateMutability":"nonpayable","type":"function"},{"inputs":[{"internalType":"uint8","name":"_epoch","type":"uint8"}],"name":"setWithdrawalsStartEpoch","outputs":[],"stateMutability":"nonpayable","type":"function"},{"inputs":[],"name":"startTimestamp","outputs":[{"internalType":"uint256","name":"","type":"uint256"}],"stateMutability":"view","type":"function"},{"inputs":[],"name":"totalPendingWithdraw","outputs":[{"internalType":"uint256","name":"","type":"uint256"}],"stateMutability":"view","type":"function"},{"inputs":[{"internalType":"address","name":"newOwner","type":"address"}],"name":"transferOwnership","outputs":[],"stateMutability":"nonpayable","type":"function"},{"inputs":[],"name":"withdrawalsStartEpoch","outputs":[{"internalType":"uint8","name":"","type":"uint8"}],"stateMutability":"view","type":"function"},{"stateMutability":"payable","type":"receive"}],"evm":{"bytecode":{"linkReferences":{},"object":"608060405234801561001057600080fd5b50610e2e806100206000396000f3fe6080604052600436106100f75760003560e01c80638da5cb5b1161008a578063f2fde38b11610059578063f2fde38b14610284578063f756fa21146102a4578063f7fc7002146102b9578063fa14d481146102cf57600080fd5b80638da5cb5b1461021b5780638f4f68a914610239578063c4d66de81461024e578063e6fd48bc1461026e57600080fd5b806361dd0ea5116100c657806361dd0ea5146101a2578063715018a6146101ce578063750f0ba6146101e3578063757991a81461020657600080fd5b806309e411fd1461010357806332f25a3a146101255780633701206b14610145578063405657f91461016557600080fd5b366100fe57005b600080fd5b34801561010f57600080fd5b5061012361011e366004610cf3565b610338565b005b34801561013157600080fd5b50610123610140366004610cb2565b61038c565b34801561015157600080fd5b50610123610160366004610c9a565b6104fb565b34801561017157600080fd5b50606554610185906001600160a01b031681565b6040516001600160a01b0390911681526020015b60405180910390f35b3480156101ae57600080fd5b506069546101bc9060ff1681565b60405160ff9091168152602001610199565b3480156101da57600080fd5b506101236105bf565b3480156101ef57600080fd5b506101f86105d3565b604051908152602001610199565b34801561021257600080fd5b506101f8610612565b34801561022757600080fd5b506033546001600160a01b0316610185565b34801561024557600080fd5b506101f8610630565b34801561025a57600080fd5b50610123610269366004610c77565b610654565b34801561027a57600080fd5b506101f860675481565b34801561029057600080fd5b5061012361029f366004610c77565b6107ea565b3480156102b057600080fd5b50610123610863565b3480156102c557600080fd5b506101f860665481565b3480156102db57600080fd5b506103146102ea366004610c77565b6068602052600090815260409020805460018201546002909201549091906001600160a01b031683565b6040805193845260208401929092526001600160a01b031690820152606001610199565b610340610a53565b60208160ff1611156103765760405163e4bf6abb60e01b815260ff82166004820152602060248201526044015b60405180910390fd5b6069805460ff191660ff92909216919091179055565b6065546001600160a01b031633146103cc5760655460405163c55ddc9760e01b81523360048201526001600160a01b03909116602482015260440161036d565b60695460ff166103da610612565b1015610410576103e8610612565b6069546040516392638fb760e01b8152600481019290925260ff16602482015260440161036d565b600061041a610612565b610425906001610d5f565b6001600160a01b038416600090815260686020526040812080549293508692909190610452908490610d5f565b90915550506001600160a01b0383811660009081526068602052604081206001810184905560020180546001600160a01b03191692851692909217909155606680548692906104a2908490610d5f565b9091555050604080518581526001600160a01b038481166020830152918101839052908416907fd49d4546791beefb79e592ab12e9eea6586cb0ae680bafd50d535d0835374ef39060600160405180910390a250505050565b6065546001600160a01b0316331461053b5760655460405163c55ddc9760e01b81523360048201526001600160a01b03909116602482015260440161036d565b47606654111561056857604051631cd24c3160e11b8152600481018290526000602482015260440161036d565b6000606654476105789190610db6565b9050808211156105a557604051631cd24c3160e11b8152600481018390526024810182905260440161036d565b6065546105bb906001600160a01b031683610aad565b5050565b6105c7610a53565b6105d16000610bcb565b565b6000426105de610612565b6105e9906001610d5f565b6105f69062093a80610d97565b6067546106039190610d5f565b61060d9190610db6565b905090565b600062093a80606754426106269190610db6565b61060d9190610d77565b600061063a610612565b6106479062093a80610d97565b60675461060d9190610d5f565b600054610100900460ff16158080156106745750600054600160ff909116105b8061068e5750303b15801561068e575060005460ff166001145b6106f15760405162461bcd60e51b815260206004820152602e60248201527f496e697469616c697a61626c653a20636f6e747261637420697320616c72656160448201526d191e481a5b9a5d1a585b1a5e995960921b606482015260840161036d565b6000805460ff191660011790558015610714576000805461ff0019166101001790555b47156107705760405162461bcd60e51b815260206004820152602560248201527f4572726f7220696e697469616c697a652077697468206e6f207a65726f2062616044820152646c616e636560d81b606482015260840161036d565b610778610c1d565b42606755606580546001600160a01b0319166001600160a01b0384161790556107a16008610338565b80156105bb576000805461ff0019169055604051600181527f7f26b83ff96e1f2b6a682f133852f6798a09c465da95921460cefb38474024989060200160405180910390a15050565b6107f2610a53565b6001600160a01b0381166108575760405162461bcd60e51b815260206004820152602660248201527f4f776e61626c653a206e6577206f776e657220697320746865207a65726f206160448201526564647265737360d01b606482015260840161036d565b61086081610bcb565b50565b33600081815260686020908152604091829020825160608101845281548082526001830154938201939093526002909101546001600160a01b0316928101929092526108cd57604051632285814f60e01b81526001600160a01b038316600482015260240161036d565b60006108d7610612565b90508160200151811015610914576108ed610612565b6020830151604051635415feb760e11b81526004810192909252602482015260440161036d565b816020015181141561095f57600061092a610630565b610937906202a300610d5f565b90508042101561095d5760405163bd4a18f760e01b81526004810182905260240161036d565b505b60408201516001600160a01b0316610981576001600160a01b03831660408301525b815160668054600090610995908490610db6565b90915550506001600160a01b038084166000908152606860205260408082208281556001810192909255600290910180546001600160a01b03191690558351908401516109e3921690610aad565b826001600160a01b03167f4ad6c9db614816b1d4fdd5a52f2080b9917d523b6e804ebd14e96182278c8c1f836000015184604001518560200151604051610a46939291909283526001600160a01b03919091166020830152604082015260600190565b60405180910390a2505050565b6033546001600160a01b031633146105d15760405162461bcd60e51b815260206004820181905260248201527f4f776e61626c653a2063616c6c6572206973206e6f7420746865206f776e6572604482015260640161036d565b80471015610afd5760405162461bcd60e51b815260206004820152601d60248201527f416464726573733a20696e73756666696369656e742062616c616e6365000000604482015260640161036d565b6000826001600160a01b03168260405160006040518083038185875af1925050503d8060008114610b4a576040519150601f19603f3d011682016040523d82523d6000602084013e610b4f565b606091505b5050905080610bc65760405162461bcd60e51b815260206004820152603a60248201527f416464726573733a20756e61626c6520746f2073656e642076616c75652c207260448201527f6563697069656e74206d61792068617665207265766572746564000000000000606482015260840161036d565b505050565b603380546001600160a01b038381166001600160a01b0319831681179093556040519116919082907f8be0079c531659141344cd1fd0a4f28419497f9722a3daafe3b4186f6b6457e090600090a35050565b600054610100900460ff16610c445760405162461bcd60e51b815260040161036d90610d14565b6105d1600054610100900460ff16610c6e5760405162461bcd60e51b815260040161036d90610d14565b6105d133610bcb565b600060208284031215610c88578081fd5b8135610c9381610de3565b9392505050565b600060208284031215610cab578081fd5b5035919050565b600080600060608486031215610cc6578182fd5b833592506020840135610cd881610de3565b91506040840135610ce881610de3565b809150509250925092565b600060208284031215610d04578081fd5b813560ff81168114610c93578182fd5b6020808252602b908201527f496e697469616c697a61626c653a20636f6e7472616374206973206e6f74206960408201526a6e697469616c697a696e6760a81b606082015260800190565b60008219821115610d7257610d72610dcd565b500190565b600082610d9257634e487b7160e01b81526012600452602481fd5b500490565b6000816000190483118215151615610db157610db1610dcd565b500290565b600082821015610dc857610dc8610dcd565b500390565b634e487b7160e01b600052601160045260246000fd5b6001600160a01b038116811461086057600080fdfea2646970667358221220d492c1197ad175b0bf83ee0e745aade6ff53b47deb5b5dc39d41282f384bd25764736f6c63430008040033","opcodes":"PUSH1 0x80 PUSH1 0x40 MSTORE CALLVALUE DUP1 ISZERO PUSH2 0x10 JUMPI PUSH1 0x0 DUP1 REVERT JUMPDEST POP PUSH2 0xE2E DUP1 PUSH2 0x20 PUSH1 0x0 CODECOPY PUSH1 0x0 RETURN INVALID PUSH1 0x80 PUSH1 0x40 MSTORE PUSH1 0x4 CALLDATASIZE LT PUSH2 0xF7 JUMPI PUSH1 0x0 CALLDATALOAD PUSH1 0xE0 SHR DUP1 PUSH4 0x8DA5CB5B GT PUSH2 0x8A JUMPI DUP1 PUSH4 0xF2FDE38B GT PUSH2 0x59 JUMPI DUP1 PUSH4 0xF2FDE38B EQ PUSH2 0x284 JUMPI DUP1 PUSH4 0xF756FA21 EQ PUSH2 0x2A4 JUMPI DUP1 PUSH4 0xF7FC7002 EQ PUSH2 0x2B9 JUMPI DUP1 PUSH4 0xFA14D481 EQ PUSH2 0x2CF JUMPI PUSH1 0x0 DUP1 REVERT JUMPDEST DUP1 PUSH4 0x8DA5CB5B EQ PUSH2 0x21B JUMPI DUP1 PUSH4 0x8F4F68A9 EQ PUSH2 0x239 JUMPI DUP1 PUSH4 0xC4D66DE8 EQ PUSH2 0x24E JUMPI DUP1 PUSH4 0xE6FD48BC EQ PUSH2 0x26E JUMPI PUSH1 0x0 DUP1 REVERT JUMPDEST DUP1 PUSH4 0x61DD0EA5 GT PUSH2 0xC6 JUMPI DUP1 PUSH4 0x61DD0EA5 EQ PUSH2 0x1A2 JUMPI DUP1 PUSH4 0x715018A6 EQ PUSH2 0x1CE JUMPI DUP1 PUSH4 0x750F0BA6 EQ PUSH2 0x1E3 JUMPI DUP1 PUSH4 0x757991A8 EQ PUSH2 0x206 JUMPI PUSH1 0x0 DUP1 REVERT JUMPDEST DUP1 PUSH4 0x9E411FD EQ PUSH2 0x103 JUMPI DUP1 PUSH4 0x32F25A3A EQ PUSH2 0x125 JUMPI DUP1 PUSH4 0x3701206B EQ PUSH2 0x145 JUMPI DUP1 PUSH4 0x405657F9 EQ PUSH2 0x165 JUMPI PUSH1 0x0 DUP1 REVERT JUMPDEST CALLDATASIZE PUSH2 0xFE JUMPI STOP JUMPDEST PUSH1 0x0 DUP1 REVERT JUMPDEST CALLVALUE DUP1 ISZERO PUSH2 0x10F JUMPI PUSH1 0x0 DUP1 REVERT JUMPDEST POP PUSH2 0x123 PUSH2 0x11E CALLDATASIZE PUSH1 0x4 PUSH2 0xCF3 JUMP JUMPDEST PUSH2 0x338 JUMP JUMPDEST STOP JUMPDEST CALLVALUE DUP1 ISZERO PUSH2 0x131 JUMPI PUSH1 0x0 DUP1 REVERT JUMPDEST POP PUSH2 0x123 PUSH2 0x140 CALLDATASIZE PUSH1 0x4 PUSH2 0xCB2 JUMP JUMPDEST PUSH2 0x38C JUMP JUMPDEST CALLVALUE DUP1 ISZERO PUSH2 0x151 JUMPI PUSH1 0x0 DUP1 REVERT JUMPDEST POP PUSH2 0x123 PUSH2 0x160 CALLDATASIZE PUSH1 0x4 PUSH2 0xC9A JUMP JUMPDEST PUSH2 0x4FB JUMP JUMPDEST CALLVALUE DUP1 ISZERO PUSH2 0x171 JUMPI PUSH1 0x0 DUP1 REVERT JUMPDEST POP PUSH1 0x65 SLOAD PUSH2 0x185 SWAP1 PUSH1 0x1 PUSH1 0x1 PUSH1 0xA0 SHL SUB AND DUP2 JUMP JUMPDEST PUSH1 0x40 MLOAD PUSH1 0x1 PUSH1 0x1 PUSH1 0xA0 SHL SUB SWAP1 SWAP2 AND DUP2 MSTORE PUSH1 0x20 ADD JUMPDEST PUSH1 0x40 MLOAD DUP1 SWAP2 SUB SWAP1 RETURN JUMPDEST CALLVALUE DUP1 ISZERO PUSH2 0x1AE JUMPI PUSH1 0x0 DUP1 REVERT JUMPDEST POP PUSH1 0x69 SLOAD PUSH2 0x1BC SWAP1 PUSH1 0xFF AND DUP2 JUMP JUMPDEST PUSH1 0x40 MLOAD PUSH1 0xFF SWAP1 SWAP2 AND DUP2 MSTORE PUSH1 0x20 ADD PUSH2 0x199 JUMP JUMPDEST CALLVALUE DUP1 ISZERO PUSH2 0x1DA JUMPI PUSH1 0x0 DUP1 REVERT JUMPDEST POP PUSH2 0x123 PUSH2 0x5BF JUMP JUMPDEST CALLVALUE DUP1 ISZERO PUSH2 0x1EF JUMPI PUSH1 0x0 DUP1 REVERT JUMPDEST POP PUSH2 0x1F8 PUSH2 0x5D3 JUMP JUMPDEST PUSH1 0x40 MLOAD SWAP1 DUP2 MSTORE PUSH1 0x20 ADD PUSH2 0x199 JUMP JUMPDEST CALLVALUE DUP1 ISZERO PUSH2 0x212 JUMPI PUSH1 0x0 DUP1 REVERT JUMPDEST POP PUSH2 0x1F8 PUSH2 0x612 JUMP JUMPDEST CALLVALUE DUP1 ISZERO PUSH2 0x227 JUMPI PUSH1 0x0 DUP1 REVERT JUMPDEST POP PUSH1 0x33 SLOAD PUSH1 0x1 PUSH1 0x1 PUSH1 0xA0 SHL SUB AND PUSH2 0x185 JUMP JUMPDEST CALLVALUE DUP1 ISZERO PUSH2 0x245 JUMPI PUSH1 0x0 DUP1 REVERT JUMPDEST POP PUSH2 0x1F8 PUSH2 0x630 JUMP JUMPDEST CALLVALUE DUP1 ISZERO PUSH2 0x25A JUMPI PUSH1 0x0 DUP1 REVERT JUMPDEST POP PUSH2 0x123 PUSH2 0x269 CALLDATASIZE PUSH1 0x4 PUSH2 0xC77 JUMP JUMPDEST PUSH2 0x654 JUMP JUMPDEST CALLVALUE DUP1 ISZERO PUSH2 0x27A JUMPI PUSH1 0x0 DUP1 REVERT JUMPDEST POP PUSH2 0x1F8 PUSH1 0x67 SLOAD DUP2 JUMP JUMPDEST CALLVALUE DUP1 ISZERO PUSH2 0x290 JUMPI PUSH1 0x0 DUP1 REVERT JUMPDEST POP PUSH2 0x123 PUSH2 0x29F CALLDATASIZE PUSH1 0x4 PUSH2 0xC77 JUMP JUMPDEST PUSH2 0x7EA JUMP JUMPDEST CALLVALUE DUP1 ISZERO PUSH2 0x2B0 JUMPI PUSH1 0x0 DUP1 REVERT JUMPDEST POP PUSH2 0x123 PUSH2 0x863 JUMP JUMPDEST CALLVALUE DUP1 ISZERO PUSH2 0x2C5 JUMPI PUSH1 0x0 DUP1 REVERT JUMPDEST POP PUSH2 0x1F8 PUSH1 0x66 SLOAD DUP2 JUMP JUMPDEST CALLVALUE DUP1 ISZERO PUSH2 0x2DB JUMPI PUSH1 0x0 DUP1 REVERT JUMPDEST POP PUSH2 0x314 PUSH2 0x2EA CALLDATASIZE PUSH1 0x4 PUSH2 0xC77 JUMP JUMPDEST PUSH1 0x68 PUSH1 0x20 MSTORE PUSH1 0x0 SWAP1 DUP2 MSTORE PUSH1 0x40 SWAP1 KECCAK256 DUP1 SLOAD PUSH1 0x1 DUP3 ADD SLOAD PUSH1 0x2 SWAP1 SWAP3 ADD SLOAD SWAP1 SWAP2 SWAP1 PUSH1 0x1 PUSH1 0x1 PUSH1 0xA0 SHL SUB AND DUP4 JUMP JUMPDEST PUSH1 0x40 DUP1 MLOAD SWAP4 DUP5 MSTORE PUSH1 0x20 DUP5 ADD SWAP3 SWAP1 SWAP3 MSTORE PUSH1 0x1 PUSH1 0x1 PUSH1 0xA0 SHL SUB AND SWAP1 DUP3 ADD MSTORE PUSH1 0x60 ADD PUSH2 0x199 JUMP JUMPDEST PUSH2 0x340 PUSH2 0xA53 JUMP JUMPDEST PUSH1 0x20 DUP2 PUSH1 0xFF AND GT ISZERO PUSH2 0x376 JUMPI PUSH1 0x40 MLOAD PUSH4 0xE4BF6ABB PUSH1 0xE0 SHL DUP2 MSTORE PUSH1 0xFF DUP3 AND PUSH1 0x4 DUP3 ADD MSTORE PUSH1 0x20 PUSH1 0x24 DUP3 ADD MSTORE PUSH1 0x44 ADD JUMPDEST PUSH1 0x40 MLOAD DUP1 SWAP2 SUB SWAP1 REVERT JUMPDEST PUSH1 0x69 DUP1 SLOAD PUSH1 0xFF NOT AND PUSH1 0xFF SWAP3 SWAP1 SWAP3 AND SWAP2 SWAP1 SWAP2 OR SWAP1 SSTORE JUMP JUMPDEST PUSH1 0x65 SLOAD PUSH1 0x1 PUSH1 0x1 PUSH1 0xA0 SHL SUB AND CALLER EQ PUSH2 0x3CC JUMPI PUSH1 0x65 SLOAD PUSH1 0x40 MLOAD PUSH4 0xC55DDC97 PUSH1 0xE0 SHL DUP2 MSTORE CALLER PUSH1 0x4 DUP3 ADD MSTORE PUSH1 0x1 PUSH1 0x1 PUSH1 0xA0 SHL SUB SWAP1 SWAP2 AND PUSH1 0x24 DUP3 ADD MSTORE PUSH1 0x44 ADD PUSH2 0x36D JUMP JUMPDEST PUSH1 0x69 SLOAD PUSH1 0xFF AND PUSH2 0x3DA PUSH2 0x612 JUMP JUMPDEST LT ISZERO PUSH2 0x410 JUMPI PUSH2 0x3E8 PUSH2 0x612 JUMP JUMPDEST PUSH1 0x69 SLOAD PUSH1 0x40 MLOAD PUSH4 0x92638FB7 PUSH1 0xE0 SHL DUP2 MSTORE PUSH1 0x4 DUP2 ADD SWAP3 SWAP1 SWAP3 MSTORE PUSH1 0xFF AND PUSH1 0x24 DUP3 ADD MSTORE PUSH1 0x44 ADD PUSH2 0x36D JUMP JUMPDEST PUSH1 0x0 PUSH2 0x41A PUSH2 0x612 JUMP JUMPDEST PUSH2 0x425 SWAP1 PUSH1 0x1 PUSH2 0xD5F JUMP JUMPDEST PUSH1 0x1 PUSH1 0x1 PUSH1 0xA0 SHL SUB DUP5 AND PUSH1 0x0 SWAP1 DUP2 MSTORE PUSH1 0x68 PUSH1 0x20 MSTORE PUSH1 0x40 DUP2 KECCAK256 DUP1 SLOAD SWAP3 SWAP4 POP DUP7 SWAP3 SWAP1 SWAP2 SWAP1 PUSH2 0x452 SWAP1 DUP5 SWAP1 PUSH2 0xD5F JUMP JUMPDEST SWAP1 SWAP2 SSTORE POP POP PUSH1 0x1 PUSH1 0x1 PUSH1 0xA0 SHL SUB DUP4 DUP2 AND PUSH1 0x0 SWAP1 DUP2 MSTORE PUSH1 0x68 PUSH1 0x20 MSTORE PUSH1 0x40 DUP2 KECCAK256 PUSH1 0x1 DUP2 ADD DUP5 SWAP1 SSTORE PUSH1 0x2 ADD DUP1 SLOAD PUSH1 0x1 PUSH1 0x1 PUSH1 0xA0 SHL SUB NOT AND SWAP3 DUP6 AND SWAP3 SWAP1 SWAP3 OR SWAP1 SWAP2 SSTORE PUSH1 0x66 DUP1 SLOAD DUP7 SWAP3 SWAP1 PUSH2 0x4A2 SWAP1 DUP5 SWAP1 PUSH2 0xD5F JUMP JUMPDEST SWAP1 SWAP2 SSTORE POP POP PUSH1 0x40 DUP1 MLOAD DUP6 DUP2 MSTORE PUSH1 0x1 PUSH1 0x1 PUSH1 0xA0 SHL SUB DUP5 DUP2 AND PUSH1 0x20 DUP4 ADD MSTORE SWAP2 DUP2 ADD DUP4 SWAP1 MSTORE SWAP1 DUP5 AND SWAP1 PUSH32 0xD49D4546791BEEFB79E592AB12E9EEA6586CB0AE680BAFD50D535D0835374EF3 SWAP1 PUSH1 0x60 ADD PUSH1 0x40 MLOAD DUP1 SWAP2 SUB SWAP1 LOG2 POP POP POP POP JUMP JUMPDEST PUSH1 0x65 SLOAD PUSH1 0x1 PUSH1 0x1 PUSH1 0xA0 SHL SUB AND CALLER EQ PUSH2 0x53B JUMPI PUSH1 0x65 SLOAD PUSH1 0x40 MLOAD PUSH4 0xC55DDC97 PUSH1 0xE0 SHL DUP2 MSTORE CALLER PUSH1 0x4 DUP3 ADD MSTORE PUSH1 0x1 PUSH1 0x1 PUSH1 0xA0 SHL SUB SWAP1 SWAP2 AND PUSH1 0x24 DUP3 ADD MSTORE PUSH1 0x44 ADD PUSH2 0x36D JUMP JUMPDEST SELFBALANCE PUSH1 0x66 SLOAD GT ISZERO PUSH2 0x568 JUMPI PUSH1 0x40 MLOAD PUSH4 0x1CD24C31 PUSH1 0xE1 SHL DUP2 MSTORE PUSH1 0x4 DUP2 ADD DUP3 SWAP1 MSTORE PUSH1 0x0 PUSH1 0x24 DUP3 ADD MSTORE PUSH1 0x44 ADD PUSH2 0x36D JUMP JUMPDEST PUSH1 0x0 PUSH1 0x66 SLOAD SELFBALANCE PUSH2 0x578 SWAP2 SWAP1 PUSH2 0xDB6 JUMP JUMPDEST SWAP1 POP DUP1 DUP3 GT ISZERO PUSH2 0x5A5 JUMPI PUSH1 0x40 MLOAD PUSH4 0x1CD24C31 PUSH1 0xE1 SHL DUP2 MSTORE PUSH1 0x4 DUP2 ADD DUP4 SWAP1 MSTORE PUSH1 0x24 DUP2 ADD DUP3 SWAP1 MSTORE PUSH1 0x44 ADD PUSH2 0x36D JUMP JUMPDEST PUSH1 0x65 SLOAD PUSH2 0x5BB SWAP1 PUSH1 0x1 PUSH1 0x1 PUSH1 0xA0 SHL SUB AND DUP4 PUSH2 0xAAD JUMP JUMPDEST POP POP JUMP JUMPDEST PUSH2 0x5C7 PUSH2 0xA53 JUMP JUMPDEST PUSH2 0x5D1 PUSH1 0x0 PUSH2 0xBCB JUMP JUMPDEST JUMP JUMPDEST PUSH1 0x0 TIMESTAMP PUSH2 0x5DE PUSH2 0x612 JUMP JUMPDEST PUSH2 0x5E9 SWAP1 PUSH1 0x1 PUSH2 0xD5F JUMP JUMPDEST PUSH2 0x5F6 SWAP1 PUSH3 0x93A80 PUSH2 0xD97 JUMP JUMPDEST PUSH1 0x67 SLOAD PUSH2 0x603 SWAP2 SWAP1 PUSH2 0xD5F JUMP JUMPDEST PUSH2 0x60D SWAP2 SWAP1 PUSH2 0xDB6 JUMP JUMPDEST SWAP1 POP SWAP1 JUMP JUMPDEST PUSH1 0x0 PUSH3 0x93A80 PUSH1 0x67 SLOAD TIMESTAMP PUSH2 0x626 SWAP2 SWAP1 PUSH2 0xDB6 JUMP JUMPDEST PUSH2 0x60D SWAP2 SWAP1 PUSH2 0xD77 JUMP JUMPDEST PUSH1 0x0 PUSH2 0x63A PUSH2 0x612 JUMP JUMPDEST PUSH2 0x647 SWAP1 PUSH3 0x93A80 PUSH2 0xD97 JUMP JUMPDEST PUSH1 0x67 SLOAD PUSH2 0x60D SWAP2 SWAP1 PUSH2 0xD5F JUMP JUMPDEST PUSH1 0x0 SLOAD PUSH2 0x100 SWAP1 DIV PUSH1 0xFF AND ISZERO DUP1 DUP1 ISZERO PUSH2 0x674 JUMPI POP PUSH1 0x0 SLOAD PUSH1 0x1 PUSH1 0xFF SWAP1 SWAP2 AND LT JUMPDEST DUP1 PUSH2 0x68E JUMPI POP ADDRESS EXTCODESIZE ISZERO DUP1 ISZERO PUSH2 0x68E JUMPI POP PUSH1 0x0 SLOAD PUSH1 0xFF AND PUSH1 0x1 EQ JUMPDEST PUSH2 0x6F1 JUMPI PUSH1 0x40 MLOAD PUSH3 0x461BCD PUSH1 0xE5 SHL DUP2 MSTORE PUSH1 0x20 PUSH1 0x4 DUP3 ADD MSTORE PUSH1 0x2E PUSH1 0x24 DUP3 ADD MSTORE PUSH32 0x496E697469616C697A61626C653A20636F6E747261637420697320616C726561 PUSH1 0x44 DUP3 ADD MSTORE PUSH14 0x191E481A5B9A5D1A585B1A5E9959 PUSH1 0x92 SHL PUSH1 0x64 DUP3 ADD MSTORE PUSH1 0x84 ADD PUSH2 0x36D JUMP JUMPDEST PUSH1 0x0 DUP1 SLOAD PUSH1 0xFF NOT AND PUSH1 0x1 OR SWAP1 SSTORE DUP1 ISZERO PUSH2 0x714 JUMPI PUSH1 0x0 DUP1 SLOAD PUSH2 0xFF00 NOT AND PUSH2 0x100 OR SWAP1 SSTORE JUMPDEST SELFBALANCE ISZERO PUSH2 0x770 JUMPI PUSH1 0x40 MLOAD PUSH3 0x461BCD PUSH1 0xE5 SHL DUP2 MSTORE PUSH1 0x20 PUSH1 0x4 DUP3 ADD MSTORE PUSH1 0x25 PUSH1 0x24 DUP3 ADD MSTORE PUSH32 0x4572726F7220696E697469616C697A652077697468206E6F207A65726F206261 PUSH1 0x44 DUP3 ADD MSTORE PUSH5 0x6C616E6365 PUSH1 0xD8 SHL PUSH1 0x64 DUP3 ADD MSTORE PUSH1 0x84 ADD PUSH2 0x36D JUMP JUMPDEST PUSH2 0x778 PUSH2 0xC1D JUMP JUMPDEST TIMESTAMP PUSH1 0x67 SSTORE PUSH1 0x65 DUP1 SLOAD PUSH1 0x1 PUSH1 0x1 PUSH1 0xA0 SHL SUB NOT AND PUSH1 0x1 PUSH1 0x1 PUSH1 0xA0 SHL SUB DUP5 AND OR SWAP1 SSTORE PUSH2 0x7A1 PUSH1 0x8 PUSH2 0x338 JUMP JUMPDEST DUP1 ISZERO PUSH2 0x5BB JUMPI PUSH1 0x0 DUP1 SLOAD PUSH2 0xFF00 NOT AND SWAP1 SSTORE PUSH1 0x40 MLOAD PUSH1 0x1 DUP2 MSTORE PUSH32 0x7F26B83FF96E1F2B6A682F133852F6798A09C465DA95921460CEFB3847402498 SWAP1 PUSH1 0x20 ADD PUSH1 0x40 MLOAD DUP1 SWAP2 SUB SWAP1 LOG1 POP POP JUMP JUMPDEST PUSH2 0x7F2 PUSH2 0xA53 JUMP JUMPDEST PUSH1 0x1 PUSH1 0x1 PUSH1 0xA0 SHL SUB DUP2 AND PUSH2 0x857 JUMPI PUSH1 0x40 MLOAD PUSH3 0x461BCD PUSH1 0xE5 SHL DUP2 MSTORE PUSH1 0x20 PUSH1 0x4 DUP3 ADD MSTORE PUSH1 0x26 PUSH1 0x24 DUP3 ADD MSTORE PUSH32 0x4F776E61626C653A206E6577206F776E657220697320746865207A65726F2061 PUSH1 0x44 DUP3 ADD MSTORE PUSH6 0x646472657373 PUSH1 0xD0 SHL PUSH1 0x64 DUP3 ADD MSTORE PUSH1 0x84 ADD PUSH2 0x36D JUMP JUMPDEST PUSH2 0x860 DUP2 PUSH2 0xBCB JUMP JUMPDEST POP JUMP JUMPDEST CALLER PUSH1 0x0 DUP2 DUP2 MSTORE PUSH1 0x68 PUSH1 0x20 SWAP1 DUP2 MSTORE PUSH1 0x40 SWAP2 DUP3 SWAP1 KECCAK256 DUP3 MLOAD PUSH1 0x60 DUP2 ADD DUP5 MSTORE DUP2 SLOAD DUP1 DUP3 MSTORE PUSH1 0x1 DUP4 ADD SLOAD SWAP4 DUP3 ADD SWAP4 SWAP1 SWAP4 MSTORE PUSH1 0x2 SWAP1 SWAP2 ADD SLOAD PUSH1 0x1 PUSH1 0x1 PUSH1 0xA0 SHL SUB AND SWAP3 DUP2 ADD SWAP3 SWAP1 SWAP3 MSTORE PUSH2 0x8CD JUMPI PUSH1 0x40 MLOAD PUSH4 0x2285814F PUSH1 0xE0 SHL DUP2 MSTORE PUSH1 0x1 PUSH1 0x1 PUSH1 0xA0 SHL SUB DUP4 AND PUSH1 0x4 DUP3 ADD MSTORE PUSH1 0x24 ADD PUSH2 0x36D JUMP JUMPDEST PUSH1 0x0 PUSH2 0x8D7 PUSH2 0x612 JUMP JUMPDEST SWAP1 POP DUP2 PUSH1 0x20 ADD MLOAD DUP2 LT ISZERO PUSH2 0x914 JUMPI PUSH2 0x8ED PUSH2 0x612 JUMP JUMPDEST PUSH1 0x20 DUP4 ADD MLOAD PUSH1 0x40 MLOAD PUSH4 0x5415FEB7 PUSH1 0xE1 SHL DUP2 MSTORE PUSH1 0x4 DUP2 ADD SWAP3 SWAP1 SWAP3 MSTORE PUSH1 0x24 DUP3 ADD MSTORE PUSH1 0x44 ADD PUSH2 0x36D JUMP JUMPDEST DUP2 PUSH1 0x20 ADD MLOAD DUP2 EQ ISZERO PUSH2 0x95F JUMPI PUSH1 0x0 PUSH2 0x92A PUSH2 0x630 JUMP JUMPDEST PUSH2 0x937 SWAP1 PUSH3 0x2A300 PUSH2 0xD5F JUMP JUMPDEST SWAP1 POP DUP1 TIMESTAMP LT ISZERO PUSH2 0x95D JUMPI PUSH1 0x40 MLOAD PUSH4 0xBD4A18F7 PUSH1 0xE0 SHL DUP2 MSTORE PUSH1 0x4 DUP2 ADD DUP3 SWAP1 MSTORE PUSH1 0x24 ADD PUSH2 0x36D JUMP JUMPDEST POP JUMPDEST PUSH1 0x40 DUP3 ADD MLOAD PUSH1 0x1 PUSH1 0x1 PUSH1 0xA0 SHL SUB AND PUSH2 0x981 JUMPI PUSH1 0x1 PUSH1 0x1 PUSH1 0xA0 SHL SUB DUP4 AND PUSH1 0x40 DUP4 ADD MSTORE JUMPDEST DUP2 MLOAD PUSH1 0x66 DUP1 SLOAD PUSH1 0x0 SWAP1 PUSH2 0x995 SWAP1 DUP5 SWAP1 PUSH2 0xDB6 JUMP JUMPDEST SWAP1 SWAP2 SSTORE POP POP PUSH1 0x1 PUSH1 0x1 PUSH1 0xA0 SHL SUB DUP1 DUP5 AND PUSH1 0x0 SWAP1 DUP2 MSTORE PUSH1 0x68 PUSH1 0x20 MSTORE PUSH1 0x40 DUP1 DUP3 KECCAK256 DUP3 DUP2 SSTORE PUSH1 0x1 DUP2 ADD SWAP3 SWAP1 SWAP3 SSTORE PUSH1 0x2 SWAP1 SWAP2 ADD DUP1 SLOAD PUSH1 0x1 PUSH1 0x1 PUSH1 0xA0 SHL SUB NOT AND SWAP1 SSTORE DUP4 MLOAD SWAP1 DUP5 ADD MLOAD PUSH2 0x9E3 SWAP3 AND SWAP1 PUSH2 0xAAD JUMP JUMPDEST DUP3 PUSH1 0x1 PUSH1 0x1 PUSH1 0xA0 SHL SUB AND PUSH32 0x4AD6C9DB614816B1D4FDD5A52F2080B9917D523B6E804EBD14E96182278C8C1F DUP4 PUSH1 0x0 ADD MLOAD DUP5 PUSH1 0x40 ADD MLOAD DUP6 PUSH1 0x20 ADD MLOAD PUSH1 0x40 MLOAD PUSH2 0xA46 SWAP4 SWAP3 SWAP2 SWAP1 SWAP3 DUP4 MSTORE PUSH1 0x1 PUSH1 0x1 PUSH1 0xA0 SHL SUB SWAP2 SWAP1 SWAP2 AND PUSH1 0x20 DUP4 ADD MSTORE PUSH1 0x40 DUP3 ADD MSTORE PUSH1 0x60 ADD SWAP1 JUMP JUMPDEST PUSH1 0x40 MLOAD DUP1 SWAP2 SUB SWAP1 LOG2 POP POP POP JUMP JUMPDEST PUSH1 0x33 SLOAD PUSH1 0x1 PUSH1 0x1 PUSH1 0xA0 SHL SUB AND CALLER EQ PUSH2 0x5D1 JUMPI PUSH1 0x40 MLOAD PUSH3 0x461BCD PUSH1 0xE5 SHL DUP2 MSTORE PUSH1 0x20 PUSH1 0x4 DUP3 ADD DUP2 SWAP1 MSTORE PUSH1 0x24 DUP3 ADD MSTORE PUSH32 0x4F776E61626C653A2063616C6C6572206973206E6F7420746865206F776E6572 PUSH1 0x44 DUP3 ADD MSTORE PUSH1 0x64 ADD PUSH2 0x36D JUMP JUMPDEST DUP1 SELFBALANCE LT ISZERO PUSH2 0xAFD JUMPI PUSH1 0x40 MLOAD PUSH3 0x461BCD PUSH1 0xE5 SHL DUP2 MSTORE PUSH1 0x20 PUSH1 0x4 DUP3 ADD MSTORE PUSH1 0x1D PUSH1 0x24 DUP3 ADD MSTORE PUSH32 0x416464726573733A20696E73756666696369656E742062616C616E6365000000 PUSH1 0x44 DUP3 ADD MSTORE PUSH1 0x64 ADD PUSH2 0x36D JUMP JUMPDEST PUSH1 0x0 DUP3 PUSH1 0x1 PUSH1 0x1 PUSH1 0xA0 SHL SUB AND DUP3 PUSH1 0x40 MLOAD PUSH1 0x0 PUSH1 0x40 MLOAD DUP1 DUP4 SUB DUP2 DUP6 DUP8 GAS CALL SWAP3 POP POP POP RETURNDATASIZE DUP1 PUSH1 0x0 DUP2 EQ PUSH2 0xB4A JUMPI PUSH1 0x40 MLOAD SWAP2 POP PUSH1 0x1F NOT PUSH1 0x3F RETURNDATASIZE ADD AND DUP3 ADD PUSH1 0x40 MSTORE RETURNDATASIZE DUP3 MSTORE RETURNDATASIZE PUSH1 0x0 PUSH1 0x20 DUP5 ADD RETURNDATACOPY PUSH2 0xB4F JUMP JUMPDEST PUSH1 0x60 SWAP2 POP JUMPDEST POP POP SWAP1 POP DUP1 PUSH2 0xBC6 JUMPI PUSH1 0x40 MLOAD PUSH3 0x461BCD PUSH1 0xE5 SHL DUP2 MSTORE PUSH1 0x20 PUSH1 0x4 DUP3 ADD MSTORE PUSH1 0x3A PUSH1 0x24 DUP3 ADD MSTORE PUSH32 0x416464726573733A20756E61626C6520746F2073656E642076616C75652C2072 PUSH1 0x44 DUP3 ADD MSTORE PUSH32 0x6563697069656E74206D61792068617665207265766572746564000000000000 PUSH1 0x64 DUP3 ADD MSTORE PUSH1 0x84 ADD PUSH2 0x36D JUMP JUMPDEST POP POP POP JUMP JUMPDEST PUSH1 0x33 DUP1 SLOAD PUSH1 0x1 PUSH1 0x1 PUSH1 0xA0 SHL SUB DUP4 DUP2 AND PUSH1 0x1 PUSH1 0x1 PUSH1 0xA0 SHL SUB NOT DUP4 AND DUP2 OR SWAP1 SWAP4 SSTORE PUSH1 0x40 MLOAD SWAP2 AND SWAP2 SWAP1 DUP3 SWAP1 PUSH32 0x8BE0079C531659141344CD1FD0A4F28419497F9722A3DAAFE3B4186F6B6457E0 SWAP1 PUSH1 0x0 SWAP1 LOG3 POP POP JUMP JUMPDEST PUSH1 0x0 SLOAD PUSH2 0x100 SWAP1 DIV PUSH1 0xFF AND PUSH2 0xC44 JUMPI PUSH1 0x40 MLOAD PUSH3 0x461BCD PUSH1 0xE5 SHL DUP2 MSTORE PUSH1 0x4 ADD PUSH2 0x36D SWAP1 PUSH2 0xD14 JUMP JUMPDEST PUSH2 0x5D1 PUSH1 0x0 SLOAD PUSH2 0x100 SWAP1 DIV PUSH1 0xFF AND PUSH2 0xC6E JUMPI PUSH1 0x40 MLOAD PUSH3 0x461BCD PUSH1 0xE5 SHL DUP2 MSTORE PUSH1 0x4 ADD PUSH2 0x36D SWAP1 PUSH2 0xD14 JUMP JUMPDEST PUSH2 0x5D1 CALLER PUSH2 0xBCB JUMP JUMPDEST PUSH1 0x0 PUSH1 0x20 DUP3 DUP5 SUB SLT ISZERO PUSH2 0xC88 JUMPI DUP1 DUP2 REVERT JUMPDEST DUP2 CALLDATALOAD PUSH2 0xC93 DUP2 PUSH2 0xDE3 JUMP JUMPDEST SWAP4 SWAP3 POP POP POP JUMP JUMPDEST PUSH1 0x0 PUSH1 0x20 DUP3 DUP5 SUB SLT ISZERO PUSH2 0xCAB JUMPI DUP1 DUP2 REVERT JUMPDEST POP CALLDATALOAD SWAP2 SWAP1 POP JUMP JUMPDEST PUSH1 0x0 DUP1 PUSH1 0x0 PUSH1 0x60 DUP5 DUP7 SUB SLT ISZERO PUSH2 0xCC6 JUMPI DUP2 DUP3 REVERT JUMPDEST DUP4 CALLDATALOAD SWAP3 POP PUSH1 0x20 DUP5 ADD CALLDATALOAD PUSH2 0xCD8 DUP2 PUSH2 0xDE3 JUMP JUMPDEST SWAP2 POP PUSH1 0x40 DUP5 ADD CALLDATALOAD PUSH2 0xCE8 DUP2 PUSH2 0xDE3 JUMP JUMPDEST DUP1 SWAP2 POP POP SWAP3 POP SWAP3 POP SWAP3 JUMP JUMPDEST PUSH1 0x0 PUSH1 0x20 DUP3 DUP5 SUB SLT ISZERO PUSH2 0xD04 JUMPI DUP1 DUP2 REVERT JUMPDEST DUP2 CALLDATALOAD PUSH1 0xFF DUP2 AND DUP2 EQ PUSH2 0xC93 JUMPI DUP2 DUP3 REVERT JUMPDEST PUSH1 0x20 DUP1 DUP3 MSTORE PUSH1 0x2B SWAP1 DUP3 ADD MSTORE PUSH32 0x496E697469616C697A61626C653A20636F6E7472616374206973206E6F742069 PUSH1 0x40 DUP3 ADD MSTORE PUSH11 0x6E697469616C697A696E67 PUSH1 0xA8 SHL PUSH1 0x60 DUP3 ADD MSTORE PUSH1 0x80 ADD SWAP1 JUMP JUMPDEST PUSH1 0x0 DUP3 NOT DUP3 GT ISZERO PUSH2 0xD72 JUMPI PUSH2 0xD72 PUSH2 0xDCD JUMP JUMPDEST POP ADD SWAP1 JUMP JUMPDEST PUSH1 0x0 DUP3 PUSH2 0xD92 JUMPI PUSH4 0x4E487B71 PUSH1 0xE0 SHL DUP2 MSTORE PUSH1 0x12 PUSH1 0x4 MSTORE PUSH1 0x24 DUP2 REVERT JUMPDEST POP DIV SWAP1 JUMP JUMPDEST PUSH1 0x0 DUP2 PUSH1 0x0 NOT DIV DUP4 GT DUP3 ISZERO ISZERO AND ISZERO PUSH2 0xDB1 JUMPI PUSH2 0xDB1 PUSH2 0xDCD JUMP JUMPDEST POP MUL SWAP1 JUMP JUMPDEST PUSH1 0x0 DUP3 DUP3 LT ISZERO PUSH2 0xDC8 JUMPI PUSH2 0xDC8 PUSH2 0xDCD JUMP JUMPDEST POP SUB SWAP1 JUMP JUMPDEST PUSH4 0x4E487B71 PUSH1 0xE0 SHL PUSH1 0x0 MSTORE PUSH1 0x11 PUSH1 0x4 MSTORE PUSH1 0x24 PUSH1 0x0 REVERT JUMPDEST PUSH1 0x1 PUSH1 0x1 PUSH1 0xA0 SHL SUB DUP2 AND DUP2 EQ PUSH2 0x860 JUMPI PUSH1 0x0 DUP1 REVERT INVALID LOG2 PUSH5 0x6970667358 0x22 SLT KECCAK256 0xD4 SWAP3 0xC1 NOT PUSH27 0xD175B0BF83EE0E745AADE6FF53B47DEB5B5DC39D41282F384BD257 PUSH5 0x736F6C6343 STOP ADDMOD DIV STOP CALLER "},"methodIdentifiers":{"completeWithdraw()":"f756fa21","getEpoch()":"757991a8","getEpochStartedTime()":"8f4f68a9","getEpochTimeLeft()":"750f0ba6","getEthForValidator(uint256)":"3701206b","initialize(address)":"c4d66de8","mpETH()":"405657f9","owner()":"8da5cb5b","pendingWithdraws(address)":"fa14d481","renounceOwnership()":"715018a6","requestWithdraw(uint256,address,address)":"32f25a3a","setWithdrawalsStartEpoch(uint8)":"09e411fd","startTimestamp()":"e6fd48bc","totalPendingWithdraw()":"f7fc7002","transferOwnership(address)":"f2fde38b","withdrawalsStartEpoch()":"61dd0ea5"}},"storageLayout":{"storage":[{"astId":715,"contract":"contracts/Withdrawal.sol:Withdrawal","label":"_initialized","offset":0,"slot":"0","type":"t_uint8"},{"astId":718,"contract":"contracts/Withdrawal.sol:Withdrawal","label":"_initializing","offset":1,"slot":"0","type":"t_bool"},{"astId":3013,"contract":"contracts/Withdrawal.sol:Withdrawal","label":"__gap","offset":0,"slot":"1","type":"t_array(t_uint256)50_storage"},{"astId":419,"contract":"contracts/Withdrawal.sol:Withdrawal","label":"_owner","offset":0,"slot":"51","type":"t_address"},{"astId":539,"contract":"contracts/Withdrawal.sol:Withdrawal","label":"__gap","offset":0,"slot":"52","type":"t_array(t_uint256)49_storage"},{"astId":8017,"contract":"contracts/Withdrawal.sol:Withdrawal","label":"mpETH","offset":0,"slot":"101","type":"t_address_payable"},{"astId":8019,"contract":"contracts/Withdrawal.sol:Withdrawal","label":"totalPendingWithdraw","offset":0,"slot":"102","type":"t_uint256"},{"astId":8021,"contract":"contracts/Withdrawal.sol:Withdrawal","label":"startTimestamp","offset":0,"slot":"103","type":"t_uint256"},{"astId":8026,"contract":"contracts/Withdrawal.sol:Withdrawal","label":"pendingWithdraws","offset":0,"slot":"104","type":"t_mapping(t_address,t_struct(withdrawRequest)8005_storage)"},{"astId":8028,"contract":"contracts/Withdrawal.sol:Withdrawal","label":"withdrawalsStartEpoch","offset":0,"slot":"105","type":"t_uint8"}],"types":{"t_address":{"encoding":"inplace","label":"address","numberOfBytes":"20"},"t_address_payable":{"encoding":"inplace","label":"address payable","numberOfBytes":"20"},"t_array(t_uint256)49_storage":{"base":"t_uint256","encoding":"inplace","label":"uint256[49]","numberOfBytes":"1568"},"t_array(t_uint256)50_storage":{"base":"t_uint256","encoding":"inplace","label":"uint256[50]","numberOfBytes":"1600"},"t_bool":{"encoding":"inplace","label":"bool","numberOfBytes":"1"},"t_mapping(t_address,t_struct(withdrawRequest)8005_storage)":{"encoding":"mapping","key":"t_address","label":"mapping(address => struct withdrawRequest)","numberOfBytes":"32","value":"t_struct(withdrawRequest)8005_storage"},"t_struct(withdrawRequest)8005_storage":{"encoding":"inplace","label":"struct withdrawRequest","members":[{"astId":8000,"contract":"contracts/Withdrawal.sol:Withdrawal","label":"amount","offset":0,"slot":"0","type":"t_uint256"},{"astId":8002,"contract":"contracts/Withdrawal.sol:Withdrawal","label":"unlockEpoch","offset":0,"slot":"1","type":"t_uint256"},{"astId":8004,"contract":"contracts/Withdrawal.sol:Withdrawal","label":"receiver","offset":0,"slot":"2","type":"t_address"}],"numberOfBytes":"96"},"t_uint256":{"encoding":"inplace","label":"uint256","numberOfBytes":"32"},"t_uint8":{"encoding":"inplace","label":"uint8","numberOfBytes":"1"}}}}}}