{"contracts/Staking.sol":{"Staking":{"abi":[{"inputs":[{"internalType":"uint16","name":"_acceptableUnderlyingChangeSent","type":"uint16"},{"internalType":"uint16","name":"_maxAcceptableUnderlyingChange","type":"uint16"}],"name":"AcceptableUnderlyingChangeTooBig","type":"error"},{"inputs":[{"internalType":"uint256","name":"_minAmount","type":"uint256"},{"internalType":"uint256","name":"_amountSent","type":"uint256"}],"name":"DepositTooLow","type":"error"},{"inputs":[{"internalType":"uint16","name":"_sentFee","type":"uint16"},{"internalType":"uint16","name":"_maxFee","type":"uint16"}],"name":"FeeSentTooBig","type":"error"},{"inputs":[{"internalType":"uint64","name":"_from","type":"uint64"},{"internalType":"uint64","name":"_lastEpochReported","type":"uint64"}],"name":"InvalidEpochFrom","type":"error"},{"inputs":[{"internalType":"uint64","name":"_from","type":"uint64"},{"internalType":"uint64","name":"_to","type":"uint64"}],"name":"InvalidEpochs","type":"error"},{"inputs":[{"internalType":"bytes","name":"_pubkey","type":"bytes"}],"name":"NodeAlreadyUsed","type":"error"},{"inputs":[{"internalType":"uint256","name":"_stakingBalance","type":"uint256"},{"internalType":"uint256","name":"_requestedToPool","type":"uint256"},{"internalType":"uint256","name":"_requestedToWithdrawal","type":"uint256"},{"internalType":"uint256","name":"_requiredBalance","type":"uint256"}],"name":"NotEnoughETHtoStake","type":"error"},{"inputs":[{"internalType":"int256","name":"_rewardsPerSecondSent","type":"int256"},{"internalType":"int256","name":"_maxRewardsPerSecond","type":"int256"}],"name":"RewardsPerSecondTooBig","type":"error"},{"inputs":[{"internalType":"uint256","name":"_unlockTimestamp","type":"uint256"},{"internalType":"uint256","name":"_currentTimestamp","type":"uint256"}],"name":"SubmitReportTimelocked","type":"error"},{"inputs":[{"internalType":"uint256","name":"_currentTotalAssets","type":"uint256"},{"internalType":"uint256","name":"_newTotalUnderlying","type":"uint256"},{"internalType":"uint256","name":"_difference","type":"uint256"},{"internalType":"uint256","name":"_maxDifference","type":"uint256"}],"name":"UpdateTooBig","type":"error"},{"inputs":[{"internalType":"address","name":"_user","type":"address"}],"name":"UserNotWhitelisted","type":"error"},{"inputs":[{"internalType":"string","name":"_address","type":"string"}],"name":"ZeroAddress","type":"error"},{"anonymous":false,"inputs":[{"indexed":true,"internalType":"address","name":"owner","type":"address"},{"indexed":true,"internalType":"address","name":"spender","type":"address"},{"indexed":false,"internalType":"uint256","name":"value","type":"uint256"}],"name":"Approval","type":"event"},{"anonymous":false,"inputs":[{"indexed":true,"internalType":"address","name":"sender","type":"address"},{"indexed":true,"internalType":"address","name":"owner","type":"address"},{"indexed":false,"internalType":"uint256","name":"assets","type":"uint256"},{"indexed":false,"internalType":"uint256","name":"shares","type":"uint256"}],"name":"Deposit","type":"event"},{"anonymous":false,"inputs":[{"indexed":false,"internalType":"uint8","name":"version","type":"uint8"}],"name":"Initialized","type":"event"},{"anonymous":false,"inputs":[{"indexed":true,"internalType":"address","name":"sender","type":"address"},{"indexed":true,"internalType":"address","name":"owner","type":"address"},{"indexed":false,"internalType":"uint256","name":"assets","type":"uint256"},{"indexed":false,"internalType":"uint256","name":"shares","type":"uint256"}],"name":"Mint","type":"event"},{"anonymous":false,"inputs":[{"components":[{"internalType":"uint64","name":"from","type":"uint64"},{"internalType":"uint64","name":"to","type":"uint64"},{"internalType":"uint256","name":"rewards","type":"uint256"},{"internalType":"uint256","name":"penalties","type":"uint256"}],"indexed":false,"internalType":"struct Staking.EpochsReport","name":"report","type":"tuple"},{"indexed":false,"internalType":"uint256","name":"newTotalUnderlying","type":"uint256"}],"name":"ReportEpochs","type":"event"},{"anonymous":false,"inputs":[{"indexed":true,"internalType":"bytes32","name":"role","type":"bytes32"},{"indexed":true,"internalType":"bytes32","name":"previousAdminRole","type":"bytes32"},{"indexed":true,"internalType":"bytes32","name":"newAdminRole","type":"bytes32"}],"name":"RoleAdminChanged","type":"event"},{"anonymous":false,"inputs":[{"indexed":true,"internalType":"bytes32","name":"role","type":"bytes32"},{"indexed":true,"internalType":"address","name":"account","type":"address"},{"indexed":true,"internalType":"address","name":"sender","type":"address"}],"name":"RoleGranted","type":"event"},{"anonymous":false,"inputs":[{"indexed":true,"internalType":"bytes32","name":"role","type":"bytes32"},{"indexed":true,"internalType":"address","name":"account","type":"address"},{"indexed":true,"internalType":"address","name":"sender","type":"address"}],"name":"RoleRevoked","type":"event"},{"anonymous":false,"inputs":[{"indexed":false,"internalType":"uint256","name":"nodeId","type":"uint256"},{"indexed":true,"internalType":"bytes","name":"pubkey","type":"bytes"}],"name":"Stake","type":"event"},{"anonymous":false,"inputs":[{"indexed":true,"internalType":"address","name":"from","type":"address"},{"indexed":true,"internalType":"address","name":"to","type":"address"},{"indexed":false,"internalType":"uint256","name":"value","type":"uint256"}],"name":"Transfer","type":"event"},{"anonymous":false,"inputs":[{"indexed":false,"internalType":"uint256","name":"nodeId","type":"uint256"},{"components":[{"internalType":"bytes","name":"pubkey","type":"bytes"},{"internalType":"bytes","name":"withdrawCredentials","type":"bytes"},{"internalType":"bytes","name":"signature","type":"bytes"},{"internalType":"bytes32","name":"depositDataRoot","type":"bytes32"}],"indexed":false,"internalType":"struct Staking.Node","name":"data","type":"tuple"}],"name":"UpdateNodeData","type":"event"},{"anonymous":false,"inputs":[{"indexed":true,"internalType":"address","name":"sender","type":"address"},{"indexed":true,"internalType":"address","name":"receiver","type":"address"},{"indexed":true,"internalType":"address","name":"owner","type":"address"},{"indexed":false,"internalType":"uint256","name":"assets","type":"uint256"},{"indexed":false,"internalType":"uint256","name":"shares","type":"uint256"}],"name":"Withdraw","type":"event"},{"inputs":[],"name":"ACTIVATOR_ROLE","outputs":[{"internalType":"bytes32","name":"","type":"bytes32"}],"stateMutability":"view","type":"function"},{"inputs":[],"name":"DEFAULT_ADMIN_ROLE","outputs":[{"internalType":"bytes32","name":"","type":"bytes32"}],"stateMutability":"view","type":"function"},{"inputs":[],"name":"MAX_ACCEPTABLE_UNDERLYING_CHANGE","outputs":[{"internalType":"uint16","name":"","type":"uint16"}],"stateMutability":"view","type":"function"},{"inputs":[],"name":"MAX_DEPOSIT_FEE","outputs":[{"internalType":"uint16","name":"","type":"uint16"}],"stateMutability":"view","type":"function"},{"inputs":[],"name":"MAX_REWARDS_FEE","outputs":[{"internalType":"uint16","name":"","type":"uint16"}],"stateMutability":"view","type":"function"},{"inputs":[],"name":"MIN_DEPOSIT","outputs":[{"internalType":"uint64","name":"","type":"uint64"}],"stateMutability":"view","type":"function"},{"inputs":[],"name":"SUBMIT_REPORT_TIMELOCK","outputs":[{"internalType":"uint64","name":"","type":"uint64"}],"stateMutability":"view","type":"function"},{"inputs":[],"name":"UPDATER_ROLE","outputs":[{"internalType":"bytes32","name":"","type":"bytes32"}],"stateMutability":"view","type":"function"},{"inputs":[],"name":"acceptableUnderlyingChange","outputs":[{"internalType":"uint16","name":"","type":"uint16"}],"stateMutability":"view","type":"function"},{"inputs":[{"internalType":"address[]","name":"addresses","type":"address[]"}],"name":"addToWhitelist","outputs":[],"stateMutability":"nonpayable","type":"function"},{"inputs":[{"internalType":"address","name":"owner","type":"address"},{"internalType":"address","name":"spender","type":"address"}],"name":"allowance","outputs":[{"internalType":"uint256","name":"","type":"uint256"}],"stateMutability":"view","type":"function"},{"inputs":[{"internalType":"address","name":"spender","type":"address"},{"internalType":"uint256","name":"amount","type":"uint256"}],"name":"approve","outputs":[{"internalType":"bool","name":"","type":"bool"}],"stateMutability":"nonpayable","type":"function"},{"inputs":[],"name":"asset","outputs":[{"internalType":"address","name":"","type":"address"}],"stateMutability":"view","type":"function"},{"inputs":[{"internalType":"address","name":"account","type":"address"}],"name":"balanceOf","outputs":[{"internalType":"uint256","name":"","type":"uint256"}],"stateMutability":"view","type":"function"},{"inputs":[{"internalType":"uint256","name":"shares","type":"uint256"}],"name":"convertToAssets","outputs":[{"internalType":"uint256","name":"assets","type":"uint256"}],"stateMutability":"view","type":"function"},{"inputs":[{"internalType":"uint256","name":"assets","type":"uint256"}],"name":"convertToShares","outputs":[{"internalType":"uint256","name":"shares","type":"uint256"}],"stateMutability":"view","type":"function"},{"inputs":[],"name":"decimals","outputs":[{"internalType":"uint8","name":"","type":"uint8"}],"stateMutability":"view","type":"function"},{"inputs":[{"internalType":"address","name":"spender","type":"address"},{"internalType":"uint256","name":"subtractedValue","type":"uint256"}],"name":"decreaseAllowance","outputs":[{"internalType":"bool","name":"","type":"bool"}],"stateMutability":"nonpayable","type":"function"},{"inputs":[{"internalType":"uint256","name":"_assets","type":"uint256"},{"internalType":"address","name":"_receiver","type":"address"}],"name":"deposit","outputs":[{"internalType":"uint256","name":"","type":"uint256"}],"stateMutability":"nonpayable","type":"function"},{"inputs":[],"name":"depositContract","outputs":[{"internalType":"contract IDeposit","name":"","type":"address"}],"stateMutability":"view","type":"function"},{"inputs":[{"internalType":"address","name":"_receiver","type":"address"}],"name":"depositETH","outputs":[{"internalType":"uint256","name":"","type":"uint256"}],"stateMutability":"payable","type":"function"},{"inputs":[],"name":"depositFee","outputs":[{"internalType":"uint16","name":"","type":"uint16"}],"stateMutability":"view","type":"function"},{"inputs":[],"name":"estimatedRewardsPerSecond","outputs":[{"internalType":"int256","name":"","type":"int256"}],"stateMutability":"view","type":"function"},{"inputs":[{"internalType":"bytes32","name":"role","type":"bytes32"}],"name":"getRoleAdmin","outputs":[{"internalType":"bytes32","name":"","type":"bytes32"}],"stateMutability":"view","type":"function"},{"inputs":[{"internalType":"bytes32","name":"role","type":"bytes32"},{"internalType":"address","name":"account","type":"address"}],"name":"grantRole","outputs":[],"stateMutability":"nonpayable","type":"function"},{"inputs":[{"internalType":"bytes32","name":"role","type":"bytes32"},{"internalType":"address","name":"account","type":"address"}],"name":"hasRole","outputs":[{"internalType":"bool","name":"","type":"bool"}],"stateMutability":"view","type":"function"},{"inputs":[{"internalType":"address","name":"spender","type":"address"},{"internalType":"uint256","name":"addedValue","type":"uint256"}],"name":"increaseAllowance","outputs":[{"internalType":"bool","name":"","type":"bool"}],"stateMutability":"nonpayable","type":"function"},{"inputs":[{"internalType":"address","name":"_liquidPool","type":"address"},{"internalType":"address","name":"_withdrawal","type":"address"},{"internalType":"address","name":"_depositContract","type":"address"},{"internalType":"contract IERC20MetadataUpgradeable","name":"_weth","type":"address"},{"internalType":"address","name":"_treasury","type":"address"},{"internalType":"address","name":"_updater","type":"address"},{"internalType":"address","name":"_activator","type":"address"}],"name":"initialize","outputs":[],"stateMutability":"nonpayable","type":"function"},{"inputs":[],"name":"lastEpochReported","outputs":[{"internalType":"uint64","name":"","type":"uint64"}],"stateMutability":"view","type":"function"},{"inputs":[],"name":"liquidUnstakePool","outputs":[{"internalType":"address payable","name":"","type":"address"}],"stateMutability":"view","type":"function"},{"inputs":[{"internalType":"address","name":"","type":"address"}],"name":"maxDeposit","outputs":[{"internalType":"uint256","name":"","type":"uint256"}],"stateMutability":"view","type":"function"},{"inputs":[{"internalType":"address","name":"","type":"address"}],"name":"maxMint","outputs":[{"internalType":"uint256","name":"","type":"uint256"}],"stateMutability":"view","type":"function"},{"inputs":[{"internalType":"address","name":"owner","type":"address"}],"name":"maxRedeem","outputs":[{"internalType":"uint256","name":"","type":"uint256"}],"stateMutability":"view","type":"function"},{"inputs":[{"internalType":"address","name":"owner","type":"address"}],"name":"maxWithdraw","outputs":[{"internalType":"uint256","name":"","type":"uint256"}],"stateMutability":"view","type":"function"},{"inputs":[{"internalType":"uint256","name":"shares","type":"uint256"},{"internalType":"address","name":"receiver","type":"address"}],"name":"mint","outputs":[{"internalType":"uint256","name":"","type":"uint256"}],"stateMutability":"nonpayable","type":"function"},{"inputs":[],"name":"name","outputs":[{"internalType":"string","name":"","type":"string"}],"stateMutability":"view","type":"function"},{"inputs":[{"internalType":"bytes","name":"","type":"bytes"}],"name":"nodePubkeyUsed","outputs":[{"internalType":"bool","name":"","type":"bool"}],"stateMutability":"view","type":"function"},{"inputs":[{"internalType":"uint256","name":"assets","type":"uint256"}],"name":"previewDeposit","outputs":[{"internalType":"uint256","name":"","type":"uint256"}],"stateMutability":"view","type":"function"},{"inputs":[{"internalType":"uint256","name":"shares","type":"uint256"}],"name":"previewMint","outputs":[{"internalType":"uint256","name":"","type":"uint256"}],"stateMutability":"view","type":"function"},{"inputs":[{"internalType":"uint256","name":"shares","type":"uint256"}],"name":"previewRedeem","outputs":[{"internalType":"uint256","name":"","type":"uint256"}],"stateMutability":"view","type":"function"},{"inputs":[{"internalType":"uint256","name":"assets","type":"uint256"}],"name":"previewWithdraw","outputs":[{"internalType":"uint256","name":"","type":"uint256"}],"stateMutability":"view","type":"function"},{"inputs":[{"components":[{"internalType":"bytes","name":"pubkey","type":"bytes"},{"internalType":"bytes","name":"withdrawCredentials","type":"bytes"},{"internalType":"bytes","name":"signature","type":"bytes"},{"internalType":"bytes32","name":"depositDataRoot","type":"bytes32"}],"internalType":"struct Staking.Node[]","name":"_nodes","type":"tuple[]"},{"internalType":"uint256","name":"_requestPoolAmount","type":"uint256"},{"internalType":"uint256","name":"_requestWithdrawalAmount","type":"uint256"}],"name":"pushToBeacon","outputs":[],"stateMutability":"nonpayable","type":"function"},{"inputs":[{"internalType":"uint256","name":"shares","type":"uint256"},{"internalType":"address","name":"receiver","type":"address"},{"internalType":"address","name":"owner","type":"address"}],"name":"redeem","outputs":[{"internalType":"uint256","name":"","type":"uint256"}],"stateMutability":"nonpayable","type":"function"},{"inputs":[{"internalType":"address[]","name":"addresses","type":"address[]"}],"name":"removeFromWhitelist","outputs":[],"stateMutability":"nonpayable","type":"function"},{"inputs":[{"internalType":"bytes32","name":"role","type":"bytes32"},{"internalType":"address","name":"account","type":"address"}],"name":"renounceRole","outputs":[],"stateMutability":"nonpayable","type":"function"},{"inputs":[{"components":[{"internalType":"uint64","name":"from","type":"uint64"},{"internalType":"uint64","name":"to","type":"uint64"},{"internalType":"uint256","name":"rewards","type":"uint256"},{"internalType":"uint256","name":"penalties","type":"uint256"}],"internalType":"struct Staking.EpochsReport","name":"_epochsReport","type":"tuple"},{"internalType":"int256","name":"_estimatedRewardsPerSecond","type":"int256"}],"name":"reportEpochs","outputs":[],"stateMutability":"nonpayable","type":"function"},{"inputs":[{"internalType":"uint256","name":"_requestedETH","type":"uint256"}],"name":"requestEthFromLiquidPoolToWithdrawal","outputs":[],"stateMutability":"nonpayable","type":"function"},{"inputs":[{"internalType":"bytes32","name":"role","type":"bytes32"},{"internalType":"address","name":"account","type":"address"}],"name":"revokeRole","outputs":[],"stateMutability":"nonpayable","type":"function"},{"inputs":[],"name":"rewardsFee","outputs":[{"internalType":"uint16","name":"","type":"uint16"}],"stateMutability":"view","type":"function"},{"inputs":[],"name":"submitReportUnlockTime","outputs":[{"internalType":"uint256","name":"","type":"uint256"}],"stateMutability":"view","type":"function"},{"inputs":[{"internalType":"bytes4","name":"interfaceId","type":"bytes4"}],"name":"supportsInterface","outputs":[{"internalType":"bool","name":"","type":"bool"}],"stateMutability":"view","type":"function"},{"inputs":[],"name":"symbol","outputs":[{"internalType":"string","name":"","type":"string"}],"stateMutability":"view","type":"function"},{"inputs":[],"name":"toggleWhitelistEnabled","outputs":[],"stateMutability":"nonpayable","type":"function"},{"inputs":[],"name":"totalAssets","outputs":[{"internalType":"uint256","name":"assets","type":"uint256"}],"stateMutability":"view","type":"function"},{"inputs":[],"name":"totalNodesActivated","outputs":[{"internalType":"uint32","name":"","type":"uint32"}],"stateMutability":"view","type":"function"},{"inputs":[],"name":"totalSupply","outputs":[{"internalType":"uint256","name":"","type":"uint256"}],"stateMutability":"view","type":"function"},{"inputs":[],"name":"totalUnderlying","outputs":[{"internalType":"uint256","name":"","type":"uint256"}],"stateMutability":"view","type":"function"},{"inputs":[{"internalType":"address","name":"to","type":"address"},{"internalType":"uint256","name":"amount","type":"uint256"}],"name":"transfer","outputs":[{"internalType":"bool","name":"","type":"bool"}],"stateMutability":"nonpayable","type":"function"},{"inputs":[{"internalType":"address","name":"from","type":"address"},{"internalType":"address","name":"to","type":"address"},{"internalType":"uint256","name":"amount","type":"uint256"}],"name":"transferFrom","outputs":[{"internalType":"bool","name":"","type":"bool"}],"stateMutability":"nonpayable","type":"function"},{"inputs":[],"name":"treasury","outputs":[{"internalType":"address","name":"","type":"address"}],"stateMutability":"view","type":"function"},{"inputs":[{"internalType":"uint16","name":"_acceptableUnderlyingChange","type":"uint16"}],"name":"updateAcceptableUnderlyingChange","outputs":[],"stateMutability":"nonpayable","type":"function"},{"inputs":[{"internalType":"uint16","name":"_depositFee","type":"uint16"}],"name":"updateDepositFee","outputs":[],"stateMutability":"nonpayable","type":"function"},{"inputs":[{"internalType":"int256","name":"_estimatedRewardsPerSecond","type":"int256"}],"name":"updateEstimatedRewardsPerSecond","outputs":[],"stateMutability":"nonpayable","type":"function"},{"inputs":[{"internalType":"address payable","name":"_liquidPool","type":"address"}],"name":"updateLiquidPool","outputs":[],"stateMutability":"nonpayable","type":"function"},{"inputs":[{"internalType":"uint16","name":"_rewardsFee","type":"uint16"}],"name":"updateRewardsFee","outputs":[],"stateMutability":"nonpayable","type":"function"},{"inputs":[{"internalType":"address payable","name":"_withdrawal","type":"address"}],"name":"updateWithdrawal","outputs":[],"stateMutability":"nonpayable","type":"function"},{"inputs":[],"name":"whitelistEnabled","outputs":[{"internalType":"bool","name":"","type":"bool"}],"stateMutability":"view","type":"function"},{"inputs":[{"internalType":"address","name":"","type":"address"}],"name":"whitelistedAccounts","outputs":[{"internalType":"bool","name":"","type":"bool"}],"stateMutability":"view","type":"function"},{"inputs":[{"internalType":"uint256","name":"assets","type":"uint256"},{"internalType":"address","name":"receiver","type":"address"},{"internalType":"address","name":"owner","type":"address"}],"name":"withdraw","outputs":[{"internalType":"uint256","name":"","type":"uint256"}],"stateMutability":"nonpayable","type":"function"},{"inputs":[],"name":"withdrawal","outputs":[{"internalType":"address payable","name":"","type":"address"}],"stateMutability":"view","type":"function"},{"stateMutability":"payable","type":"receive"}],"evm":{"bytecode":{"linkReferences":{},"object":"608060405234801561001057600080fd5b506140bc806100206000396000f3fe6080604052600436106104085760003560e01c80637f64978311610213578063c62b60f711610123578063d547741f116100ab578063e534744f1161007a578063e534744f14610cb7578063e94ad65b14610ccd578063ef8b30f714610b86578063f6a6830f14610ced578063f75cd13414610d1e57600080fd5b8063d547741f14610c3c578063d905777e14610c5c578063dd62ed3e14610c7c578063e1e158a514610c9c57600080fd5b8063c70920bc116100f2578063c70920bc14610ba6578063ce96cb7714610bbc578063d1906eb014610bdc578063d31c877114610bfc578063d4e9329214610c1c57600080fd5b8063c62b60f714610b2f578063c63d75b614610b4f578063c6d87dd514610b71578063c6e6f59214610b8657600080fd5b806395d89b41116101a6578063a457c2d711610175578063a457c2d714610a8f578063a9059cbb14610aaf578063b3d7f6b914610acf578063b460af9414610aef578063ba08765214610b0f57600080fd5b806395d89b4114610a05578063982c3c8d14610a1a5780639dc162ca14610a5a578063a217fddf14610a7a57600080fd5b806391d14854116101e257806391d148541461098e578063925c765e146109ae57806394131038146109c557806394bf804d146109e557600080fd5b80637f649783146108fc57806387d6c0171461091c5780638aab7d1c14610958578063911140bb1461097857600080fd5b8063358764761161031957806351fb012d116102a157806367a527931161027057806367a52793146108305780636e553f65146108535780636e64b5781461087357806370a08231146108a65780637ba8837f146108dc57600080fd5b806351fb012d146107b5578063548db174146107d0578063593f8907146107f057806361d027b31461081057600080fd5b8063402d267d116102e8578063402d267d1461073e57806346fd12681461075e57806347e63380146107735780634cdad506146104e45780634dc1d6fb1461079557600080fd5b806335876476146106ac57806336568abe146106cc57806338d52e0f146106ec578063395093511461071e57600080fd5b80630c8797dd1161039c578063248a9ca31161036b578063248a9ca3146105fc5780632bb14e1d1461062c5780632d2da8061461064d5780632f2ff15d14610660578063313ce5671461068057600080fd5b80630c8797dd1461057857806317ba07d51461058f57806318160ddd146105c757806323b872dd146105dc57600080fd5b806307a2d13a116103d857806307a2d13a146104e457806308740a3b14610504578063095ea7b3146105385780630a28a4771461055857600080fd5b8062ed53d61461044a57806301e1d1141461046a57806301ffc9a71461049257806306fdde03146104c257600080fd5b36610445576065546001600160a01b03163314801590610433575060fd546001600160a01b03163314155b156104435761044133610d33565b505b005b600080fd5b34801561045657600080fd5b50610443610465366004613ba7565b610d53565b34801561047657600080fd5b5061047f610dbe565b6040519081526020015b60405180910390f35b34801561049e57600080fd5b506104b26104ad366004613ae7565b610e2b565b6040519015158152602001610489565b3480156104ce57600080fd5b506104d7610e60565b6040516104899190613d00565b3480156104f057600080fd5b5061047f6104ff366004613aab565b610ef2565b34801561051057600080fd5b5061047f7fec5aad7bdface20c35bc02d6d2d5760df981277427368525d634f4e2603ea19281565b34801561054457600080fd5b506104b2610553366004613920565b610eff565b34801561056457600080fd5b5061047f610573366004613aab565b610f17565b34801561058457600080fd5b5061047f6101005481565b34801561059b57600080fd5b50610105546105b49065010000000000900461ffff1681565b60405161ffff9091168152602001610489565b3480156105d357600080fd5b5060355461047f565b3480156105e857600080fd5b506104b26105f73660046138e0565b610f24565b34801561060857600080fd5b5061047f610617366004613aab565b600090815260c9602052604090206001015490565b34801561063857600080fd5b50610105546105b490610100900461ffff1681565b61047f61065b3660046137f7565b610d33565b34801561066c57600080fd5b5061044361067b366004613ac3565b610f4a565b34801561068c57600080fd5b50606554600160a01b900460ff1660405160ff9091168152602001610489565b3480156106b857600080fd5b506104436106c736600461384b565b610f74565b3480156106d857600080fd5b506104436106e7366004613ac3565b611368565b3480156106f857600080fd5b506065546001600160a01b03165b6040516001600160a01b039091168152602001610489565b34801561072a57600080fd5b506104b2610739366004613920565b6113e6565b34801561074a57600080fd5b5061047f6107593660046137f7565b611408565b34801561076a57600080fd5b50610443611426565b34801561077f57600080fd5b5061047f60008051602061406783398151915281565b3480156107a157600080fd5b506104436107b0366004613ba7565b611447565b3480156107c157600080fd5b50610105546104b29060ff1681565b3480156107dc57600080fd5b506104436107eb36600461394b565b6114a7565b3480156107fc57600080fd5b5061044361080b3660046137f7565b611538565b34801561081c57600080fd5b5060fe54610706906001600160a01b031681565b34801561083c57600080fd5b50610105546105b4906301000000900461ffff1681565b34801561085f57600080fd5b5061047f61086e366004613ac3565b6115aa565b34801561087f57600080fd5b50610101546108919063ffffffff1681565b60405163ffffffff9091168152602001610489565b3480156108b257600080fd5b5061047f6108c13660046137f7565b6001600160a01b031660009081526033602052604090205490565b3480156108e857600080fd5b506104436108f73660046137f7565b61164b565b34801561090857600080fd5b5061044361091736600461394b565b6116bd565b34801561092857600080fd5b506104b2610937366004613b0f565b80516020818301810180516101038252928201919093012091525460ff1681565b34801561096457600080fd5b50610443610973366004613ba7565b611747565b34801561098457600080fd5b506105b46107d081565b34801561099a57600080fd5b506104b26109a9366004613ac3565b6117a9565b3480156109ba57600080fd5b5061047f6101025481565b3480156109d157600080fd5b506104436109e03660046139ba565b6117d4565b3480156109f157600080fd5b5061047f610a00366004613ac3565b611c31565b348015610a1157600080fd5b506104d7611c4b565b348015610a2657600080fd5b5061010554610a4290600160381b90046001600160401b031681565b6040516001600160401b039091168152602001610489565b348015610a6657600080fd5b5060fc54610706906001600160a01b031681565b348015610a8657600080fd5b5061047f600081565b348015610a9b57600080fd5b506104b2610aaa366004613920565b611c5a565b348015610abb57600080fd5b506104b2610aca366004613920565b611ce0565b348015610adb57600080fd5b5061047f610aea366004613aab565b611cee565b348015610afb57600080fd5b5061047f610b0a366004613be1565b611cfb565b348015610b1b57600080fd5b5061047f610b2a366004613be1565b611d77565b348015610b3b57600080fd5b50610443610b4a366004613aab565b611deb565b348015610b5b57600080fd5b5061047f610b6a3660046137f7565b5060001990565b348015610b7d57600080fd5b506105b4606481565b348015610b9257600080fd5b5061047f610ba1366004613aab565b611e78565b348015610bb257600080fd5b5061047f60ff5481565b348015610bc857600080fd5b5061047f610bd73660046137f7565b611e85565b348015610be857600080fd5b50610443610bf7366004613aab565b611ea9565b348015610c0857600080fd5b50610443610c17366004613b41565b611f21565b348015610c2857600080fd5b5060fd54610706906001600160a01b031681565b348015610c4857600080fd5b50610443610c57366004613ac3565b612234565b348015610c6857600080fd5b5061047f610c773660046137f7565b612259565b348015610c8857600080fd5b5061047f610c97366004613813565b612277565b348015610ca857600080fd5b50610a42662386f26fc1000081565b348015610cc357600080fd5b50610a4261384081565b348015610cd957600080fd5b5060fb54610706906001600160a01b031681565b348015610cf957600080fd5b506104b2610d083660046137f7565b6101046020526000908152604090205460ff1681565b348015610d2a57600080fd5b506105b460c881565b600080610d3f34611e78565b9050610d4d338434846122a2565b92915050565b6000610d5e81612446565b60c861ffff83161115610d9657604051632b34e40960e21b815261ffff8316600482015260c860248201526044015b60405180910390fd5b50610105805461ffff909216650100000000000266ffff000000000019909216919091179055565b6000806138406001600160401b031661010254610ddb9190613f37565b610de59042613f37565b61010054610df39190613e64565b905060008112610e11578060ff54610e0b9190613e01565b91505090565b610e1a8161400b565b60ff54610e0b9190613f37565b5090565b60006001600160e01b03198216637965db0b60e01b1480610d4d57506301ffc9a760e01b6001600160e01b0319831614610d4d565b606060368054610e6f90613f91565b80601f0160208091040260200160405190810160405280929190818152602001828054610e9b90613f91565b8015610ee85780601f10610ebd57610100808354040283529160200191610ee8565b820191906000526020600020905b815481529060010190602001808311610ecb57829003601f168201915b5050505050905090565b6000610d4d826000612453565b600033610f0d818585612486565b5060019392505050565b6000610d4d8260016125aa565b600033610f328582856125dc565b610f3d858585612656565b60019150505b9392505050565b600082815260c96020526040902060010154610f6581612446565b610f6f8383612801565b505050565b600054610100900460ff1615808015610f945750600054600160ff909116105b80610fae5750303b158015610fae575060005460ff166001145b6110115760405162461bcd60e51b815260206004820152602e60248201527f496e697469616c697a61626c653a20636f6e747261637420697320616c72656160448201526d191e481a5b9a5d1a585b1a5e995960921b6064820152608401610d8d565b6000805460ff191660011790558015611034576000805461ff0019166101001790555b6001600160a01b0384166110765760405163eac0d38960e01b8152602060048201526008602482015267747265617375727960c01b6044820152606401610d8d565b6001600160a01b0386166110bf5760405163eac0d38960e01b815260206004820152600f60248201526e19195c1bdcda5d10dbdb9d1c9858dd608a1b6044820152606401610d8d565b846001600160a01b031663313ce5676040518163ffffffff1660e01b815260040160206040518083038186803b1580156110f857600080fd5b505afa15801561110c573d6000803e3d6000fd5b505050506040513d601f19601f820116820180604052508101906111309190613c22565b60ff1660121461119e5760405162461bcd60e51b815260206004820152603360248201527f774e617469766520746f6b656e206572726f722c20696d706c656d656e746174604482015272696f6e20666f7220313820646563696d616c7360681b6064820152608401610d8d565b47156111fa5760405162461bcd60e51b815260206004820152602560248201527f4572726f7220696e697469616c697a652077697468206e6f207a65726f2062616044820152646c616e636560d81b6064820152608401610d8d565b61120385612887565b61124d6040518060400160405280600b81526020016a09acae8c2a0deded88aa8960ab1b815250604051806040016040528060058152602001640dae08aa8960db1b8152506128b7565b6112556128e8565b611260600033612801565b61127860008051602061406783398151915284612801565b6112a27fec5aad7bdface20c35bc02d6d2d5760df981277427368525d634f4e2603ea19283612801565b6112ab8761164b565b6112b488611538565b6112bf6101f4611447565b60fe80546001600160a01b038087166001600160a01b03199283161790925560fb8054928916929091169190911790556001600160401b0342166101025561010580546564000000000066ffff000000000019909116179055801561135e576000805461ff0019169055604051600181527f7f26b83ff96e1f2b6a682f133852f6798a09c465da95921460cefb38474024989060200160405180910390a15b5050505050505050565b6001600160a01b03811633146113d85760405162461bcd60e51b815260206004820152602f60248201527f416363657373436f6e74726f6c3a2063616e206f6e6c792072656e6f756e636560448201526e103937b632b9903337b91039b2b63360891b6064820152608401610d8d565b6113e28282612911565b5050565b600033610f0d8185856113f98383612277565b6114039190613e01565b612486565b6000611412612978565b61141d576000610d4d565b60001992915050565b600061143181612446565b50610105805460ff19811660ff90911615179055565b600061145281612446565b6107d061ffff83161115611487576040516308dcf86960e31b815261ffff831660048201526107d06024820152604401610d8d565b50610105805461ffff9092166101000262ffff0019909216919091179055565b60006114b281612446565b8160005b81811461153157600061010460008787858181106114e457634e487b7160e01b600052603260045260246000fd5b90506020020160208101906114f991906137f7565b6001600160a01b031681526020810191909152604001600020805460ff191691151591909117905561152a81613fcc565b90506114b6565b5050505050565b600061154381612446565b6001600160a01b0382166115875760405163eac0d38960e01b815260206004820152600a6024820152691b1a5c5d5a59141bdbdb60b21b6044820152606401610d8d565b5060fc80546001600160a01b0319166001600160a01b0392909216919091179055565b6000806115b684611e78565b90506115e13330866115d06065546001600160a01b031690565b6001600160a01b0316929190612994565b606554604051632e1a7d4d60e01b8152600481018690526001600160a01b0390911690632e1a7d4d90602401600060405180830381600087803b15801561162757600080fd5b505af115801561163b573d6000803e3d6000fd5b50505050610f43338486846122a2565b600061165681612446565b6001600160a01b03821661169a5760405163eac0d38960e01b815260206004820152600a6024820152691dda5d1a191c985dd85b60b21b6044820152606401610d8d565b5060fd80546001600160a01b0319166001600160a01b0392909216919091179055565b60006116c881612446565b8160005b81811461153157600161010460008787858181106116fa57634e487b7160e01b600052603260045260246000fd5b905060200201602081019061170f91906137f7565b6001600160a01b031681526020810191909152604001600020805460ff191691151591909117905561174081613fcc565b90506116cc565b600061175281612446565b606461ffff83161115611785576040516308dcf86960e31b815261ffff8316600482015260646024820152604401610d8d565b50610105805461ffff90921663010000000264ffff00000019909216919091179055565b600091825260c9602090815260408084206001600160a01b0393909316845291905290205460ff1690565b7fec5aad7bdface20c35bc02d6d2d5760df981277427368525d634f4e2603ea1926117fe81612446565b8351600061181b63ffffffff83166801bc16d674ec800000613f06565b68ffffffffffffffffff1690504781856118358884613e01565b61183f9190613e01565b101561187657604051634b82651b60e01b815260048101829052602481018790526044810186905260648101839052608401610d8d565b85156118db5760fc54604051633701206b60e01b8152600481018890526001600160a01b0390911690633701206b90602401600060405180830381600087803b1580156118c257600080fd5b505af11580156118d6573d6000803e3d6000fd5b505050505b84156119405760fd54604051633701206b60e01b8152600481018790526001600160a01b0390911690633701206b90602401600060405180830381600087803b15801561192757600080fd5b505af115801561193b573d6000803e3d6000fd5b505050505b6101015463ffffffff1660005b8463ffffffff168114611c0c5761010389828151811061197d57634e487b7160e01b600052603260045260246000fd5b6020026020010151600001516040516119969190613c6f565b9081526040519081900360200190205460ff16156119f4578881815181106119ce57634e487b7160e01b600052603260045260246000fd5b6020026020010151600001516040516314e6a03d60e11b8152600401610d8d9190613d00565b60016101038a8381518110611a1957634e487b7160e01b600052603260045260246000fd5b602002602001015160000151604051611a329190613c6f565b908152604051908190036020019020805491151560ff1990921691909117905560fb5489516001600160a01b03909116906322895118906801bc16d674ec800000908c9085908110611a9457634e487b7160e01b600052603260045260246000fd5b6020026020010151600001518c8581518110611ac057634e487b7160e01b600052603260045260246000fd5b6020026020010151602001518d8681518110611aec57634e487b7160e01b600052603260045260246000fd5b6020026020010151604001518e8781518110611b1857634e487b7160e01b600052603260045260246000fd5b6020026020010151606001516040518663ffffffff1660e01b8152600401611b439493929190613d13565b6000604051808303818588803b158015611b5c57600080fd5b505af1158015611b70573d6000803e3d6000fd5b50505050508180611b8090613fe7565b925050888181518110611ba357634e487b7160e01b600052603260045260246000fd5b602002602001015160000151604051611bbc9190613c6f565b60405190819003812063ffffffff84168252907fd30c530f2d5e6c518f21d801360ff46849e74bf1cba98a64c7dbc741fc9b263a9060200160405180910390a2611c0581613fcc565b905061194d565b50610101805463ffffffff191663ffffffff9290921691909117905550505050505050565b600080611c3d84611cee565b9050610f43338483876122a2565b606060378054610e6f90613f91565b60003381611c688286612277565b905083811015611cc85760405162461bcd60e51b815260206004820152602560248201527f45524332303a2064656372656173656420616c6c6f77616e63652062656c6f77604482015264207a65726f60d81b6064820152608401610d8d565b611cd58286868403612486565b506001949350505050565b600033610f0d818585612656565b6000610d4d826001612453565b6000611d0682611e85565b841115611d555760405162461bcd60e51b815260206004820152601f60248201527f455243343632363a207769746864726177206d6f7265207468616e206d6178006044820152606401610d8d565b6000611d6085610f17565b9050611d6f33858588856129ee565b949350505050565b6000611d8282612259565b841115611dd15760405162461bcd60e51b815260206004820152601d60248201527f455243343632363a2072656465656d206d6f7265207468616e206d61780000006044820152606401610d8d565b6000611ddc85610ef2565b9050611d6f33858584896129ee565b600080516020614067833981519152611e0381612446565b60fc54604051633701206b60e01b8152600481018490526001600160a01b0390911690633701206b90602401600060405180830381600087803b158015611e4957600080fd5b505af1158015611e5d573d6000803e3d6000fd5b505060fd546113e292506001600160a01b0316905083612b08565b6000610d4d8260006125aa565b6001600160a01b038116600090815260336020526040812054610d4d906000612453565b600080516020614067833981519152611ec181612446565b60006301c9c380611ed0610dbe565b611eda9190613e44565b905080831380611ef15750611eee8161400b565b83125b15611f195760405163bcc1b4cf60e01b81526004810184905260248101829052604401610d8d565b505061010055565b600080516020614067833981519152611f3981612446565b6101025442811115611f675760405163a966ca8960e01b815260048101829052426024820152604401610d8d565b8380602001516001600160401b031681600001516001600160401b03161115611fbd578051602082015160405163a52a8b0d60e01b81526001600160401b03928316600482015291166024820152604401610d8d565b61010554611fdc90600160381b90046001600160401b03166001613e19565b6001600160401b031681600001516001600160401b031614158015612013575061010554600160381b90046001600160401b031615155b156120535780516101055460405163198b9e6760e11b81526001600160401b039283166004820152600160381b9091049091166024820152604401610d8d565b60ff54606086015160408701516000919061206e9084613e01565b6120789190613f37565b90508181116000816120935761208e8385613f37565b61209d565b61209d8484613f37565b610105549091506000906127109065010000000000900461ffff166120c0610dbe565b6120ca9190613ee7565b6120d49190613e44565b905080821115612118576120e6610dbe565b604051633a588a7960e11b81526004810191909152602481018590526044810183905260648101829052608401610d8d565b821561216f57610105546000906127109061213c90610100900461ffff1685613ee7565b6121469190613e44565b9050600061215382611e78565b60fe5490915061216c906001600160a01b031682612c21565b50505b60ff84905561217d89611ea9565b604080518b516001600160401b0390811682526020808e0151909116908201528b820151818301526060808d0151908201526080810186905290517f642cc6ad3f4e6e00dab418b5a48b88a15e0a0f37e10ab912506316d8cf0598789181900360a00190a150505060209092015161010580546001600160401b03909216600160381b026effffffffffffffff00000000000000199092169190911790555061222a905061384042613e01565b6101025550505050565b600082815260c9602052604090206001015461224f81612446565b610f6f8383612911565b6001600160a01b038116600090815260336020526040812054610d4d565b6001600160a01b03918216600090815260346020908152604080832093909416825291909152205490565b6101055460ff1680156122c65750336000908152610104602052604090205460ff16155b156122e657604051632e6eba8560e11b8152336004820152602401610d8d565b662386f26fc1000082101561231e5760405163ea691a4b60e01b8152662386f26fc10000600482015260248101839052604401610d8d565b60008061232b8330612ce2565b9092509050600061233c8385613f37565b9050600061234a8387613f37565b9050811561235c5761235c3083612c21565b8060ff600082825461236e9190613e01565b909155505060fc5485906001600160a01b031633146123da5761010554600090612710906123a7906301000000900461ffff1689613ee7565b6123b19190613e44565b60fe549091506123cc9030906001600160a01b031683612656565b6123d68183613f37565b9150505b6123e5308983612656565b876001600160a01b0316896001600160a01b03167fdcbc1c05240f31ff3ad067ef1ee35ce4997762752e3a095284754544f4c709d78989604051612433929190918252602082015260400190565b60405180910390a3505050505050505050565b6124508133612dd7565b50565b60008061245f60355490565b905080156124805761247b612472610dbe565b85908386612e30565b611d6f565b83611d6f565b6001600160a01b0383166124e85760405162461bcd60e51b8152602060048201526024808201527f45524332303a20617070726f76652066726f6d20746865207a65726f206164646044820152637265737360e01b6064820152608401610d8d565b6001600160a01b0382166125495760405162461bcd60e51b815260206004820152602260248201527f45524332303a20617070726f766520746f20746865207a65726f206164647265604482015261737360f01b6064820152608401610d8d565b6001600160a01b0383811660008181526034602090815260408083209487168084529482529182902085905590518481527f8c5be1e5ebec7d5bd14f71427d1e84f3dd0314c0f7b2291e5b200ac8c7c3b925910160405180910390a3505050565b6000806125b660355490565b90508315806125c3575080155b6124805761247b816125d3610dbe565b86919086612e30565b60006125e88484612277565b9050600019811461265057818110156126435760405162461bcd60e51b815260206004820152601d60248201527f45524332303a20696e73756666696369656e7420616c6c6f77616e63650000006044820152606401610d8d565b6126508484848403612486565b50505050565b6001600160a01b0383166126ba5760405162461bcd60e51b815260206004820152602560248201527f45524332303a207472616e736665722066726f6d20746865207a65726f206164604482015264647265737360d81b6064820152608401610d8d565b6001600160a01b03821661271c5760405162461bcd60e51b815260206004820152602360248201527f45524332303a207472616e7366657220746f20746865207a65726f206164647260448201526265737360e81b6064820152608401610d8d565b6001600160a01b038316600090815260336020526040902054818110156127945760405162461bcd60e51b815260206004820152602660248201527f45524332303a207472616e7366657220616d6f756e7420657863656564732062604482015265616c616e636560d01b6064820152608401610d8d565b6001600160a01b0380851660008181526033602052604080822086860390559286168082529083902080548601905591517fddf252ad1be2c89b69c2b068fc378daa952ba7f163c4a11628f55a4df523b3ef906127f49086815260200190565b60405180910390a3612650565b61280b82826117a9565b6113e257600082815260c9602090815260408083206001600160a01b03851684529091529020805460ff191660011790556128433390565b6001600160a01b0316816001600160a01b0316837f2f8788117e7eff1d82e926ec794901d17c78024a50270940304540a733656f0d60405160405180910390a45050565b600054610100900460ff166128ae5760405162461bcd60e51b8152600401610d8d90613d5e565b61245081612ea9565b600054610100900460ff166128de5760405162461bcd60e51b8152600401610d8d90613d5e565b6113e28282612f2e565b600054610100900460ff1661290f5760405162461bcd60e51b8152600401610d8d90613d5e565b565b61291b82826117a9565b156113e257600082815260c9602090815260408083206001600160a01b0385168085529252808320805460ff1916905551339285917ff6391f5c32d9c69d2a47ea670b442974b53935d1edc7fd64eb21e047a839171b9190a45050565b600080612983610dbe565b118061298f5750603554155b905090565b604080516001600160a01b0385811660248301528416604482015260648082018490528251808303909101815260849091019091526020810180516001600160e01b03166323b872dd60e01b179052612650908590612f7c565b826001600160a01b0316856001600160a01b031614612a1257612a128386836125dc565b612a1c838261304e565b8160ff6000828254612a2e9190613f37565b909155505060fd546040516319792d1d60e11b8152600481018490526001600160a01b0387811660248301528681166044830152909116906332f25a3a90606401600060405180830381600087803b158015612a8957600080fd5b505af1158015612a9d573d6000803e3d6000fd5b50505050826001600160a01b0316846001600160a01b0316866001600160a01b03167ffbde797d201c681b91056529119e0b02407c7bb96a4a2c75c01fc9667232c8db8585604051612af9929190918252602082015260400190565b60405180910390a45050505050565b80471015612b585760405162461bcd60e51b815260206004820152601d60248201527f416464726573733a20696e73756666696369656e742062616c616e63650000006044820152606401610d8d565b6000826001600160a01b03168260405160006040518083038185875af1925050503d8060008114612ba5576040519150601f19603f3d011682016040523d82523d6000602084013e612baa565b606091505b5050905080610f6f5760405162461bcd60e51b815260206004820152603a60248201527f416464726573733a20756e61626c6520746f2073656e642076616c75652c207260448201527f6563697069656e74206d617920686176652072657665727465640000000000006064820152608401610d8d565b6001600160a01b038216612c775760405162461bcd60e51b815260206004820152601f60248201527f45524332303a206d696e7420746f20746865207a65726f2061646472657373006044820152606401610d8d565b8060356000828254612c899190613e01565b90915550506001600160a01b0382166000818152603360209081526040808320805486019055518481527fddf252ad1be2c89b69c2b068fc378daa952ba7f163c4a11628f55a4df523b3ef910160405180910390a35050565b60fc5460009081906001600160a01b03163314612dd05760fc546001600160a01b0316600090815260336020526040902054612d1e9085613182565b91508115612dd057612d2f82611cee565b60fc546040516361f4627d60e11b81526001600160a01b03868116600483015292935084929091169063c3e8c4fa9084906024016020604051808303818588803b158015612d7c57600080fd5b505af1158015612d90573d6000803e3d6000fd5b50505050506040513d601f19601f82011682018060405250810190612db59190613bc9565b14612dd057634e487b7160e01b600052600160045260246000fd5b9250929050565b612de182826117a9565b6113e257612dee81613198565b612df98360206131aa565b604051602001612e0a929190613c8b565b60408051601f198184030181529082905262461bcd60e51b8252610d8d91600401613d00565b600080612e3e86868661338b565b90506001836002811115612e6257634e487b7160e01b600052602160045260246000fd5b148015612e8d575060008480612e8857634e487b7160e01b600052601260045260246000fd5b868809115b15612ea057612e9d600182613e01565b90505b95945050505050565b600054610100900460ff16612ed05760405162461bcd60e51b8152600401610d8d90613d5e565b600080612edc83613449565b9150915081612eec576012612eee565b805b606580546001600160a01b039095166001600160a01b031960ff93909316600160a01b02929092166001600160a81b031990951694909417179092555050565b600054610100900460ff16612f555760405162461bcd60e51b8152600401610d8d90613d5e565b8151612f68906036906020850190613645565b508051610f6f906037906020840190613645565b6000612fd1826040518060400160405280602081526020017f5361666545524332303a206c6f772d6c6576656c2063616c6c206661696c6564815250856001600160a01b03166135259092919063ffffffff16565b805190915015610f6f5780806020019051810190612fef9190613a8b565b610f6f5760405162461bcd60e51b815260206004820152602a60248201527f5361666545524332303a204552433230206f7065726174696f6e20646964206e6044820152691bdd081cdd58d8d9595960b21b6064820152608401610d8d565b6001600160a01b0382166130ae5760405162461bcd60e51b815260206004820152602160248201527f45524332303a206275726e2066726f6d20746865207a65726f206164647265736044820152607360f81b6064820152608401610d8d565b6001600160a01b038216600090815260336020526040902054818110156131225760405162461bcd60e51b815260206004820152602260248201527f45524332303a206275726e20616d6f756e7420657863656564732062616c616e604482015261636560f01b6064820152608401610d8d565b6001600160a01b03831660008181526033602090815260408083208686039055603580548790039055518581529192917fddf252ad1be2c89b69c2b068fc378daa952ba7f163c4a11628f55a4df523b3ef910160405180910390a3505050565b60008183106131915781610f43565b5090919050565b6060610d4d6001600160a01b03831660145b606060006131b9836002613ee7565b6131c4906002613e01565b6001600160401b038111156131e957634e487b7160e01b600052604160045260246000fd5b6040519080825280601f01601f191660200182016040528015613213576020820181803683370190505b509050600360fc1b8160008151811061323c57634e487b7160e01b600052603260045260246000fd5b60200101906001600160f81b031916908160001a905350600f60fb1b8160018151811061327957634e487b7160e01b600052603260045260246000fd5b60200101906001600160f81b031916908160001a905350600061329d846002613ee7565b6132a8906001613e01565b90505b600181111561333c576f181899199a1a9b1b9c1cb0b131b232b360811b85600f16601081106132ea57634e487b7160e01b600052603260045260246000fd5b1a60f81b82828151811061330e57634e487b7160e01b600052603260045260246000fd5b60200101906001600160f81b031916908160001a90535060049490941c9361333581613f7a565b90506132ab565b508315610f435760405162461bcd60e51b815260206004820181905260248201527f537472696e67733a20686578206c656e67746820696e73756666696369656e746044820152606401610d8d565b6000808060001985870985870292508281108382030391505080600014156133d4578382816133ca57634e487b7160e01b600052601260045260246000fd5b0492505050610f43565b8084116133e057600080fd5b60008486880960026001871981018816978890046003810283188082028403028082028403028082028403028082028403028082028403029081029092039091026000889003889004909101858311909403939093029303949094049190911702949350505050565b60408051600481526024810182526020810180516001600160e01b031663313ce56760e01b17905290516000918291829182916001600160a01b0387169161349091613c6f565b600060405180830381855afa9150503d80600081146134cb576040519150601f19603f3d011682016040523d82523d6000602084013e6134d0565b606091505b50915091508180156134e457506020815110155b15613518576000818060200190518101906134ff9190613bc9565b905060ff8111613516576001969095509350505050565b505b5060009485945092505050565b6060611d6f848460008585600080866001600160a01b0316858760405161354c9190613c6f565b60006040518083038185875af1925050503d8060008114613589576040519150601f19603f3d011682016040523d82523d6000602084013e61358e565b606091505b509150915061359f878383876135aa565b979650505050505050565b6060831561361657825161360f576001600160a01b0385163b61360f5760405162461bcd60e51b815260206004820152601d60248201527f416464726573733a2063616c6c20746f206e6f6e2d636f6e74726163740000006044820152606401610d8d565b5081611d6f565b611d6f838381511561362b5781518083602001fd5b8060405162461bcd60e51b8152600401610d8d9190613d00565b82805461365190613f91565b90600052602060002090601f01602090048101928261367357600085556136b9565b82601f1061368c57805160ff19168380011785556136b9565b828001600101855582156136b9579182015b828111156136b957825182559160200191906001019061369e565b50610e279291505b80821115610e2757600081556001016136c1565b600082601f8301126136e5578081fd5b81356001600160401b038111156136fe576136fe61403b565b613711601f8201601f1916602001613dd1565b818152846020838601011115613725578283fd5b816020850160208301379081016020019190915292915050565b600060808284031215613750578081fd5b613758613da9565b905081356001600160401b038082111561377157600080fd5b61377d858386016136d5565b8352602084013591508082111561379357600080fd5b61379f858386016136d5565b602084015260408401359150808211156137b857600080fd5b506137c5848285016136d5565b6040830152506060820135606082015292915050565b80356001600160401b03811681146137f257600080fd5b919050565b600060208284031215613808578081fd5b8135610f4381614051565b60008060408385031215613825578081fd5b823561383081614051565b9150602083013561384081614051565b809150509250929050565b600080600080600080600060e0888a031215613865578283fd5b873561387081614051565b9650602088013561388081614051565b9550604088013561389081614051565b945060608801356138a081614051565b935060808801356138b081614051565b925060a08801356138c081614051565b915060c08801356138d081614051565b8091505092959891949750929550565b6000806000606084860312156138f4578283fd5b83356138ff81614051565b9250602084013561390f81614051565b929592945050506040919091013590565b60008060408385031215613932578182fd5b823561393d81614051565b946020939093013593505050565b6000806020838503121561395d578182fd5b82356001600160401b0380821115613973578384fd5b818501915085601f830112613986578384fd5b813581811115613994578485fd5b8660208260051b85010111156139a8578485fd5b60209290920196919550909350505050565b6000806000606084860312156139ce578081fd5b83356001600160401b03808211156139e4578283fd5b818601915086601f8301126139f7578283fd5b8135602082821115613a0b57613a0b61403b565b8160051b613a1a828201613dd1565b8381528281019086840183880185018d1015613a34578889fd5b8893505b85841015613a7157803587811115613a4e57898afd5b613a5c8e87838c010161373f565b84525060019390930192918401918401613a38565b509b928a01359a5050506040909701359695505050505050565b600060208284031215613a9c578081fd5b81518015158114610f43578182fd5b600060208284031215613abc578081fd5b5035919050565b60008060408385031215613ad5578182fd5b82359150602083013561384081614051565b600060208284031215613af8578081fd5b81356001600160e01b031981168114610f43578182fd5b600060208284031215613b20578081fd5b81356001600160401b03811115613b35578182fd5b611d6f848285016136d5565b60008082840360a0811215613b54578283fd5b6080811215613b61578283fd5b50613b6a613da9565b613b73846137db565b8152613b81602085016137db565b602082015260408481013590820152606080850135908201529460809093013593505050565b600060208284031215613bb8578081fd5b813561ffff81168114610f43578182fd5b600060208284031215613bda578081fd5b5051919050565b600080600060608486031215613bf5578081fd5b833592506020840135613c0781614051565b91506040840135613c1781614051565b809150509250925092565b600060208284031215613c33578081fd5b815160ff81168114610f43578182fd5b60008151808452613c5b816020860160208601613f4e565b601f01601f19169290920160200192915050565b60008251613c81818460208701613f4e565b9190910192915050565b7f416363657373436f6e74726f6c3a206163636f756e7420000000000000000000815260008351613cc3816017850160208801613f4e565b7001034b99036b4b9b9b4b733903937b6329607d1b6017918401918201528351613cf4816028840160208801613f4e565b01602801949350505050565b602081526000610f436020830184613c43565b608081526000613d266080830187613c43565b8281036020840152613d388187613c43565b90508281036040840152613d4c8186613c43565b91505082606083015295945050505050565b6020808252602b908201527f496e697469616c697a61626c653a20636f6e7472616374206973206e6f74206960408201526a6e697469616c697a696e6760a81b606082015260800190565b604051608081016001600160401b0381118282101715613dcb57613dcb61403b565b60405290565b604051601f8201601f191681016001600160401b0381118282101715613df957613df961403b565b604052919050565b60008219821115613e1457613e14614025565b500190565b60006001600160401b03808316818516808303821115613e3b57613e3b614025565b01949350505050565b600082613e5f57634e487b7160e01b81526012600452602481fd5b500490565b60006001600160ff1b0381841382841380821686840486111615613e8a57613e8a614025565b600160ff1b84871282811687830589121615613ea857613ea8614025565b858712925087820587128484161615613ec357613ec3614025565b87850587128184161615613ed957613ed9614025565b505050929093029392505050565b6000816000190483118215151615613f0157613f01614025565b500290565b600068ffffffffffffffffff80831681851681830481118215151615613f2e57613f2e614025565b02949350505050565b600082821015613f4957613f49614025565b500390565b60005b83811015613f69578181015183820152602001613f51565b838111156126505750506000910152565b600081613f8957613f89614025565b506000190190565b600181811c90821680613fa557607f821691505b60208210811415613fc657634e487b7160e01b600052602260045260246000fd5b50919050565b6000600019821415613fe057613fe0614025565b5060010190565b600063ffffffff8083168181141561400157614001614025565b6001019392505050565b6000600160ff1b82141561402157614021614025565b0390565b634e487b7160e01b600052601160045260246000fd5b634e487b7160e01b600052604160045260246000fd5b6001600160a01b038116811461245057600080fdfe73e573f9566d61418a34d5de3ff49360f9c51fec37f7486551670290f6285daba2646970667358221220a09a3a183154765e05528dcb0013831f6f314c592c00e8f6de5af75ada8901ab64736f6c63430008040033","opcodes":"PUSH1 0x80 PUSH1 0x40 MSTORE CALLVALUE DUP1 ISZERO PUSH2 0x10 JUMPI PUSH1 0x0 DUP1 REVERT JUMPDEST POP PUSH2 0x40BC DUP1 PUSH2 0x20 PUSH1 0x0 CODECOPY PUSH1 0x0 RETURN INVALID PUSH1 0x80 PUSH1 0x40 MSTORE PUSH1 0x4 CALLDATASIZE LT PUSH2 0x408 JUMPI PUSH1 0x0 CALLDATALOAD PUSH1 0xE0 SHR DUP1 PUSH4 0x7F649783 GT PUSH2 0x213 JUMPI DUP1 PUSH4 0xC62B60F7 GT PUSH2 0x123 JUMPI DUP1 PUSH4 0xD547741F GT PUSH2 0xAB JUMPI DUP1 PUSH4 0xE534744F GT PUSH2 0x7A JUMPI DUP1 PUSH4 0xE534744F EQ PUSH2 0xCB7 JUMPI DUP1 PUSH4 0xE94AD65B EQ PUSH2 0xCCD JUMPI DUP1 PUSH4 0xEF8B30F7 EQ PUSH2 0xB86 JUMPI DUP1 PUSH4 0xF6A6830F EQ PUSH2 0xCED JUMPI DUP1 PUSH4 0xF75CD134 EQ PUSH2 0xD1E JUMPI PUSH1 0x0 DUP1 REVERT JUMPDEST DUP1 PUSH4 0xD547741F EQ PUSH2 0xC3C JUMPI DUP1 PUSH4 0xD905777E EQ PUSH2 0xC5C JUMPI DUP1 PUSH4 0xDD62ED3E EQ PUSH2 0xC7C JUMPI DUP1 PUSH4 0xE1E158A5 EQ PUSH2 0xC9C JUMPI PUSH1 0x0 DUP1 REVERT JUMPDEST DUP1 PUSH4 0xC70920BC GT PUSH2 0xF2 JUMPI DUP1 PUSH4 0xC70920BC EQ PUSH2 0xBA6 JUMPI DUP1 PUSH4 0xCE96CB77 EQ PUSH2 0xBBC JUMPI DUP1 PUSH4 0xD1906EB0 EQ PUSH2 0xBDC JUMPI DUP1 PUSH4 0xD31C8771 EQ PUSH2 0xBFC JUMPI DUP1 PUSH4 0xD4E93292 EQ PUSH2 0xC1C JUMPI PUSH1 0x0 DUP1 REVERT JUMPDEST DUP1 PUSH4 0xC62B60F7 EQ PUSH2 0xB2F JUMPI DUP1 PUSH4 0xC63D75B6 EQ PUSH2 0xB4F JUMPI DUP1 PUSH4 0xC6D87DD5 EQ PUSH2 0xB71 JUMPI DUP1 PUSH4 0xC6E6F592 EQ PUSH2 0xB86 JUMPI PUSH1 0x0 DUP1 REVERT JUMPDEST DUP1 PUSH4 0x95D89B41 GT PUSH2 0x1A6 JUMPI DUP1 PUSH4 0xA457C2D7 GT PUSH2 0x175 JUMPI DUP1 PUSH4 0xA457C2D7 EQ PUSH2 0xA8F JUMPI DUP1 PUSH4 0xA9059CBB EQ PUSH2 0xAAF JUMPI DUP1 PUSH4 0xB3D7F6B9 EQ PUSH2 0xACF JUMPI DUP1 PUSH4 0xB460AF94 EQ PUSH2 0xAEF JUMPI DUP1 PUSH4 0xBA087652 EQ PUSH2 0xB0F JUMPI PUSH1 0x0 DUP1 REVERT JUMPDEST DUP1 PUSH4 0x95D89B41 EQ PUSH2 0xA05 JUMPI DUP1 PUSH4 0x982C3C8D EQ PUSH2 0xA1A JUMPI DUP1 PUSH4 0x9DC162CA EQ PUSH2 0xA5A JUMPI DUP1 PUSH4 0xA217FDDF EQ PUSH2 0xA7A JUMPI PUSH1 0x0 DUP1 REVERT JUMPDEST DUP1 PUSH4 0x91D14854 GT PUSH2 0x1E2 JUMPI DUP1 PUSH4 0x91D14854 EQ PUSH2 0x98E JUMPI DUP1 PUSH4 0x925C765E EQ PUSH2 0x9AE JUMPI DUP1 PUSH4 0x94131038 EQ PUSH2 0x9C5 JUMPI DUP1 PUSH4 0x94BF804D EQ PUSH2 0x9E5 JUMPI PUSH1 0x0 DUP1 REVERT JUMPDEST DUP1 PUSH4 0x7F649783 EQ PUSH2 0x8FC JUMPI DUP1 PUSH4 0x87D6C017 EQ PUSH2 0x91C JUMPI DUP1 PUSH4 0x8AAB7D1C EQ PUSH2 0x958 JUMPI DUP1 PUSH4 0x911140BB EQ PUSH2 0x978 JUMPI PUSH1 0x0 DUP1 REVERT JUMPDEST DUP1 PUSH4 0x35876476 GT PUSH2 0x319 JUMPI DUP1 PUSH4 0x51FB012D GT PUSH2 0x2A1 JUMPI DUP1 PUSH4 0x67A52793 GT PUSH2 0x270 JUMPI DUP1 PUSH4 0x67A52793 EQ PUSH2 0x830 JUMPI DUP1 PUSH4 0x6E553F65 EQ PUSH2 0x853 JUMPI DUP1 PUSH4 0x6E64B578 EQ PUSH2 0x873 JUMPI DUP1 PUSH4 0x70A08231 EQ PUSH2 0x8A6 JUMPI DUP1 PUSH4 0x7BA8837F EQ PUSH2 0x8DC JUMPI PUSH1 0x0 DUP1 REVERT JUMPDEST DUP1 PUSH4 0x51FB012D EQ PUSH2 0x7B5 JUMPI DUP1 PUSH4 0x548DB174 EQ PUSH2 0x7D0 JUMPI DUP1 PUSH4 0x593F8907 EQ PUSH2 0x7F0 JUMPI DUP1 PUSH4 0x61D027B3 EQ PUSH2 0x810 JUMPI PUSH1 0x0 DUP1 REVERT JUMPDEST DUP1 PUSH4 0x402D267D GT PUSH2 0x2E8 JUMPI DUP1 PUSH4 0x402D267D EQ PUSH2 0x73E JUMPI DUP1 PUSH4 0x46FD1268 EQ PUSH2 0x75E JUMPI DUP1 PUSH4 0x47E63380 EQ PUSH2 0x773 JUMPI DUP1 PUSH4 0x4CDAD506 EQ PUSH2 0x4E4 JUMPI DUP1 PUSH4 0x4DC1D6FB EQ PUSH2 0x795 JUMPI PUSH1 0x0 DUP1 REVERT JUMPDEST DUP1 PUSH4 0x35876476 EQ PUSH2 0x6AC JUMPI DUP1 PUSH4 0x36568ABE EQ PUSH2 0x6CC JUMPI DUP1 PUSH4 0x38D52E0F EQ PUSH2 0x6EC JUMPI DUP1 PUSH4 0x39509351 EQ PUSH2 0x71E JUMPI PUSH1 0x0 DUP1 REVERT JUMPDEST DUP1 PUSH4 0xC8797DD GT PUSH2 0x39C JUMPI DUP1 PUSH4 0x248A9CA3 GT PUSH2 0x36B JUMPI DUP1 PUSH4 0x248A9CA3 EQ PUSH2 0x5FC JUMPI DUP1 PUSH4 0x2BB14E1D EQ PUSH2 0x62C JUMPI DUP1 PUSH4 0x2D2DA806 EQ PUSH2 0x64D JUMPI DUP1 PUSH4 0x2F2FF15D EQ PUSH2 0x660 JUMPI DUP1 PUSH4 0x313CE567 EQ PUSH2 0x680 JUMPI PUSH1 0x0 DUP1 REVERT JUMPDEST DUP1 PUSH4 0xC8797DD EQ PUSH2 0x578 JUMPI DUP1 PUSH4 0x17BA07D5 EQ PUSH2 0x58F JUMPI DUP1 PUSH4 0x18160DDD EQ PUSH2 0x5C7 JUMPI DUP1 PUSH4 0x23B872DD EQ PUSH2 0x5DC JUMPI PUSH1 0x0 DUP1 REVERT JUMPDEST DUP1 PUSH4 0x7A2D13A GT PUSH2 0x3D8 JUMPI DUP1 PUSH4 0x7A2D13A EQ PUSH2 0x4E4 JUMPI DUP1 PUSH4 0x8740A3B EQ PUSH2 0x504 JUMPI DUP1 PUSH4 0x95EA7B3 EQ PUSH2 0x538 JUMPI DUP1 PUSH4 0xA28A477 EQ PUSH2 0x558 JUMPI PUSH1 0x0 DUP1 REVERT JUMPDEST DUP1 PUSH3 0xED53D6 EQ PUSH2 0x44A JUMPI DUP1 PUSH4 0x1E1D114 EQ PUSH2 0x46A JUMPI DUP1 PUSH4 0x1FFC9A7 EQ PUSH2 0x492 JUMPI DUP1 PUSH4 0x6FDDE03 EQ PUSH2 0x4C2 JUMPI PUSH1 0x0 DUP1 REVERT JUMPDEST CALLDATASIZE PUSH2 0x445 JUMPI PUSH1 0x65 SLOAD PUSH1 0x1 PUSH1 0x1 PUSH1 0xA0 SHL SUB AND CALLER EQ DUP1 ISZERO SWAP1 PUSH2 0x433 JUMPI POP PUSH1 0xFD SLOAD PUSH1 0x1 PUSH1 0x1 PUSH1 0xA0 SHL SUB AND CALLER EQ ISZERO JUMPDEST ISZERO PUSH2 0x443 JUMPI PUSH2 0x441 CALLER PUSH2 0xD33 JUMP JUMPDEST POP JUMPDEST STOP JUMPDEST PUSH1 0x0 DUP1 REVERT JUMPDEST CALLVALUE DUP1 ISZERO PUSH2 0x456 JUMPI PUSH1 0x0 DUP1 REVERT JUMPDEST POP PUSH2 0x443 PUSH2 0x465 CALLDATASIZE PUSH1 0x4 PUSH2 0x3BA7 JUMP JUMPDEST PUSH2 0xD53 JUMP JUMPDEST CALLVALUE DUP1 ISZERO PUSH2 0x476 JUMPI PUSH1 0x0 DUP1 REVERT JUMPDEST POP PUSH2 0x47F PUSH2 0xDBE JUMP JUMPDEST PUSH1 0x40 MLOAD SWAP1 DUP2 MSTORE PUSH1 0x20 ADD JUMPDEST PUSH1 0x40 MLOAD DUP1 SWAP2 SUB SWAP1 RETURN JUMPDEST CALLVALUE DUP1 ISZERO PUSH2 0x49E JUMPI PUSH1 0x0 DUP1 REVERT JUMPDEST POP PUSH2 0x4B2 PUSH2 0x4AD CALLDATASIZE PUSH1 0x4 PUSH2 0x3AE7 JUMP JUMPDEST PUSH2 0xE2B JUMP JUMPDEST PUSH1 0x40 MLOAD SWAP1 ISZERO ISZERO DUP2 MSTORE PUSH1 0x20 ADD PUSH2 0x489 JUMP JUMPDEST CALLVALUE DUP1 ISZERO PUSH2 0x4CE JUMPI PUSH1 0x0 DUP1 REVERT JUMPDEST POP PUSH2 0x4D7 PUSH2 0xE60 JUMP JUMPDEST PUSH1 0x40 MLOAD PUSH2 0x489 SWAP2 SWAP1 PUSH2 0x3D00 JUMP JUMPDEST CALLVALUE DUP1 ISZERO PUSH2 0x4F0 JUMPI PUSH1 0x0 DUP1 REVERT JUMPDEST POP PUSH2 0x47F PUSH2 0x4FF CALLDATASIZE PUSH1 0x4 PUSH2 0x3AAB JUMP JUMPDEST PUSH2 0xEF2 JUMP JUMPDEST CALLVALUE DUP1 ISZERO PUSH2 0x510 JUMPI PUSH1 0x0 DUP1 REVERT JUMPDEST POP PUSH2 0x47F PUSH32 0xEC5AAD7BDFACE20C35BC02D6D2D5760DF981277427368525D634F4E2603EA192 DUP2 JUMP JUMPDEST CALLVALUE DUP1 ISZERO PUSH2 0x544 JUMPI PUSH1 0x0 DUP1 REVERT JUMPDEST POP PUSH2 0x4B2 PUSH2 0x553 CALLDATASIZE PUSH1 0x4 PUSH2 0x3920 JUMP JUMPDEST PUSH2 0xEFF JUMP JUMPDEST CALLVALUE DUP1 ISZERO PUSH2 0x564 JUMPI PUSH1 0x0 DUP1 REVERT JUMPDEST POP PUSH2 0x47F PUSH2 0x573 CALLDATASIZE PUSH1 0x4 PUSH2 0x3AAB JUMP JUMPDEST PUSH2 0xF17 JUMP JUMPDEST CALLVALUE DUP1 ISZERO PUSH2 0x584 JUMPI PUSH1 0x0 DUP1 REVERT JUMPDEST POP PUSH2 0x47F PUSH2 0x100 SLOAD DUP2 JUMP JUMPDEST CALLVALUE DUP1 ISZERO PUSH2 0x59B JUMPI PUSH1 0x0 DUP1 REVERT JUMPDEST POP PUSH2 0x105 SLOAD PUSH2 0x5B4 SWAP1 PUSH6 0x10000000000 SWAP1 DIV PUSH2 0xFFFF AND DUP2 JUMP JUMPDEST PUSH1 0x40 MLOAD PUSH2 0xFFFF SWAP1 SWAP2 AND DUP2 MSTORE PUSH1 0x20 ADD PUSH2 0x489 JUMP JUMPDEST CALLVALUE DUP1 ISZERO PUSH2 0x5D3 JUMPI PUSH1 0x0 DUP1 REVERT JUMPDEST POP PUSH1 0x35 SLOAD PUSH2 0x47F JUMP JUMPDEST CALLVALUE DUP1 ISZERO PUSH2 0x5E8 JUMPI PUSH1 0x0 DUP1 REVERT JUMPDEST POP PUSH2 0x4B2 PUSH2 0x5F7 CALLDATASIZE PUSH1 0x4 PUSH2 0x38E0 JUMP JUMPDEST PUSH2 0xF24 JUMP JUMPDEST CALLVALUE DUP1 ISZERO PUSH2 0x608 JUMPI PUSH1 0x0 DUP1 REVERT JUMPDEST POP PUSH2 0x47F PUSH2 0x617 CALLDATASIZE PUSH1 0x4 PUSH2 0x3AAB JUMP JUMPDEST PUSH1 0x0 SWAP1 DUP2 MSTORE PUSH1 0xC9 PUSH1 0x20 MSTORE PUSH1 0x40 SWAP1 KECCAK256 PUSH1 0x1 ADD SLOAD SWAP1 JUMP JUMPDEST CALLVALUE DUP1 ISZERO PUSH2 0x638 JUMPI PUSH1 0x0 DUP1 REVERT JUMPDEST POP PUSH2 0x105 SLOAD PUSH2 0x5B4 SWAP1 PUSH2 0x100 SWAP1 DIV PUSH2 0xFFFF AND DUP2 JUMP JUMPDEST PUSH2 0x47F PUSH2 0x65B CALLDATASIZE PUSH1 0x4 PUSH2 0x37F7 JUMP JUMPDEST PUSH2 0xD33 JUMP JUMPDEST CALLVALUE DUP1 ISZERO PUSH2 0x66C JUMPI PUSH1 0x0 DUP1 REVERT JUMPDEST POP PUSH2 0x443 PUSH2 0x67B CALLDATASIZE PUSH1 0x4 PUSH2 0x3AC3 JUMP JUMPDEST PUSH2 0xF4A JUMP JUMPDEST CALLVALUE DUP1 ISZERO PUSH2 0x68C JUMPI PUSH1 0x0 DUP1 REVERT JUMPDEST POP PUSH1 0x65 SLOAD PUSH1 0x1 PUSH1 0xA0 SHL SWAP1 DIV PUSH1 0xFF AND PUSH1 0x40 MLOAD PUSH1 0xFF SWAP1 SWAP2 AND DUP2 MSTORE PUSH1 0x20 ADD PUSH2 0x489 JUMP JUMPDEST CALLVALUE DUP1 ISZERO PUSH2 0x6B8 JUMPI PUSH1 0x0 DUP1 REVERT JUMPDEST POP PUSH2 0x443 PUSH2 0x6C7 CALLDATASIZE PUSH1 0x4 PUSH2 0x384B JUMP JUMPDEST PUSH2 0xF74 JUMP JUMPDEST CALLVALUE DUP1 ISZERO PUSH2 0x6D8 JUMPI PUSH1 0x0 DUP1 REVERT JUMPDEST POP PUSH2 0x443 PUSH2 0x6E7 CALLDATASIZE PUSH1 0x4 PUSH2 0x3AC3 JUMP JUMPDEST PUSH2 0x1368 JUMP JUMPDEST CALLVALUE DUP1 ISZERO PUSH2 0x6F8 JUMPI PUSH1 0x0 DUP1 REVERT JUMPDEST POP PUSH1 0x65 SLOAD PUSH1 0x1 PUSH1 0x1 PUSH1 0xA0 SHL SUB AND JUMPDEST PUSH1 0x40 MLOAD PUSH1 0x1 PUSH1 0x1 PUSH1 0xA0 SHL SUB SWAP1 SWAP2 AND DUP2 MSTORE PUSH1 0x20 ADD PUSH2 0x489 JUMP JUMPDEST CALLVALUE DUP1 ISZERO PUSH2 0x72A JUMPI PUSH1 0x0 DUP1 REVERT JUMPDEST POP PUSH2 0x4B2 PUSH2 0x739 CALLDATASIZE PUSH1 0x4 PUSH2 0x3920 JUMP JUMPDEST PUSH2 0x13E6 JUMP JUMPDEST CALLVALUE DUP1 ISZERO PUSH2 0x74A JUMPI PUSH1 0x0 DUP1 REVERT JUMPDEST POP PUSH2 0x47F PUSH2 0x759 CALLDATASIZE PUSH1 0x4 PUSH2 0x37F7 JUMP JUMPDEST PUSH2 0x1408 JUMP JUMPDEST CALLVALUE DUP1 ISZERO PUSH2 0x76A JUMPI PUSH1 0x0 DUP1 REVERT JUMPDEST POP PUSH2 0x443 PUSH2 0x1426 JUMP JUMPDEST CALLVALUE DUP1 ISZERO PUSH2 0x77F JUMPI PUSH1 0x0 DUP1 REVERT JUMPDEST POP PUSH2 0x47F PUSH1 0x0 DUP1 MLOAD PUSH1 0x20 PUSH2 0x4067 DUP4 CODECOPY DUP2 MLOAD SWAP2 MSTORE DUP2 JUMP JUMPDEST CALLVALUE DUP1 ISZERO PUSH2 0x7A1 JUMPI PUSH1 0x0 DUP1 REVERT JUMPDEST POP PUSH2 0x443 PUSH2 0x7B0 CALLDATASIZE PUSH1 0x4 PUSH2 0x3BA7 JUMP JUMPDEST PUSH2 0x1447 JUMP JUMPDEST CALLVALUE DUP1 ISZERO PUSH2 0x7C1 JUMPI PUSH1 0x0 DUP1 REVERT JUMPDEST POP PUSH2 0x105 SLOAD PUSH2 0x4B2 SWAP1 PUSH1 0xFF AND DUP2 JUMP JUMPDEST CALLVALUE DUP1 ISZERO PUSH2 0x7DC JUMPI PUSH1 0x0 DUP1 REVERT JUMPDEST POP PUSH2 0x443 PUSH2 0x7EB CALLDATASIZE PUSH1 0x4 PUSH2 0x394B JUMP JUMPDEST PUSH2 0x14A7 JUMP JUMPDEST CALLVALUE DUP1 ISZERO PUSH2 0x7FC JUMPI PUSH1 0x0 DUP1 REVERT JUMPDEST POP PUSH2 0x443 PUSH2 0x80B CALLDATASIZE PUSH1 0x4 PUSH2 0x37F7 JUMP JUMPDEST PUSH2 0x1538 JUMP JUMPDEST CALLVALUE DUP1 ISZERO PUSH2 0x81C JUMPI PUSH1 0x0 DUP1 REVERT JUMPDEST POP PUSH1 0xFE SLOAD PUSH2 0x706 SWAP1 PUSH1 0x1 PUSH1 0x1 PUSH1 0xA0 SHL SUB AND DUP2 JUMP JUMPDEST CALLVALUE DUP1 ISZERO PUSH2 0x83C JUMPI PUSH1 0x0 DUP1 REVERT JUMPDEST POP PUSH2 0x105 SLOAD PUSH2 0x5B4 SWAP1 PUSH4 0x1000000 SWAP1 DIV PUSH2 0xFFFF AND DUP2 JUMP JUMPDEST CALLVALUE DUP1 ISZERO PUSH2 0x85F JUMPI PUSH1 0x0 DUP1 REVERT JUMPDEST POP PUSH2 0x47F PUSH2 0x86E CALLDATASIZE PUSH1 0x4 PUSH2 0x3AC3 JUMP JUMPDEST PUSH2 0x15AA JUMP JUMPDEST CALLVALUE DUP1 ISZERO PUSH2 0x87F JUMPI PUSH1 0x0 DUP1 REVERT JUMPDEST POP PUSH2 0x101 SLOAD PUSH2 0x891 SWAP1 PUSH4 0xFFFFFFFF AND DUP2 JUMP JUMPDEST PUSH1 0x40 MLOAD PUSH4 0xFFFFFFFF SWAP1 SWAP2 AND DUP2 MSTORE PUSH1 0x20 ADD PUSH2 0x489 JUMP JUMPDEST CALLVALUE DUP1 ISZERO PUSH2 0x8B2 JUMPI PUSH1 0x0 DUP1 REVERT JUMPDEST POP PUSH2 0x47F PUSH2 0x8C1 CALLDATASIZE PUSH1 0x4 PUSH2 0x37F7 JUMP JUMPDEST PUSH1 0x1 PUSH1 0x1 PUSH1 0xA0 SHL SUB AND PUSH1 0x0 SWAP1 DUP2 MSTORE PUSH1 0x33 PUSH1 0x20 MSTORE PUSH1 0x40 SWAP1 KECCAK256 SLOAD SWAP1 JUMP JUMPDEST CALLVALUE DUP1 ISZERO PUSH2 0x8E8 JUMPI PUSH1 0x0 DUP1 REVERT JUMPDEST POP PUSH2 0x443 PUSH2 0x8F7 CALLDATASIZE PUSH1 0x4 PUSH2 0x37F7 JUMP JUMPDEST PUSH2 0x164B JUMP JUMPDEST CALLVALUE DUP1 ISZERO PUSH2 0x908 JUMPI PUSH1 0x0 DUP1 REVERT JUMPDEST POP PUSH2 0x443 PUSH2 0x917 CALLDATASIZE PUSH1 0x4 PUSH2 0x394B JUMP JUMPDEST PUSH2 0x16BD JUMP JUMPDEST CALLVALUE DUP1 ISZERO PUSH2 0x928 JUMPI PUSH1 0x0 DUP1 REVERT JUMPDEST POP PUSH2 0x4B2 PUSH2 0x937 CALLDATASIZE PUSH1 0x4 PUSH2 0x3B0F JUMP JUMPDEST DUP1 MLOAD PUSH1 0x20 DUP2 DUP4 ADD DUP2 ADD DUP1 MLOAD PUSH2 0x103 DUP3 MSTORE SWAP3 DUP3 ADD SWAP2 SWAP1 SWAP4 ADD KECCAK256 SWAP2 MSTORE SLOAD PUSH1 0xFF AND DUP2 JUMP JUMPDEST CALLVALUE DUP1 ISZERO PUSH2 0x964 JUMPI PUSH1 0x0 DUP1 REVERT JUMPDEST POP PUSH2 0x443 PUSH2 0x973 CALLDATASIZE PUSH1 0x4 PUSH2 0x3BA7 JUMP JUMPDEST PUSH2 0x1747 JUMP JUMPDEST CALLVALUE DUP1 ISZERO PUSH2 0x984 JUMPI PUSH1 0x0 DUP1 REVERT JUMPDEST POP PUSH2 0x5B4 PUSH2 0x7D0 DUP2 JUMP JUMPDEST CALLVALUE DUP1 ISZERO PUSH2 0x99A JUMPI PUSH1 0x0 DUP1 REVERT JUMPDEST POP PUSH2 0x4B2 PUSH2 0x9A9 CALLDATASIZE PUSH1 0x4 PUSH2 0x3AC3 JUMP JUMPDEST PUSH2 0x17A9 JUMP JUMPDEST CALLVALUE DUP1 ISZERO PUSH2 0x9BA JUMPI PUSH1 0x0 DUP1 REVERT JUMPDEST POP PUSH2 0x47F PUSH2 0x102 SLOAD DUP2 JUMP JUMPDEST CALLVALUE DUP1 ISZERO PUSH2 0x9D1 JUMPI PUSH1 0x0 DUP1 REVERT JUMPDEST POP PUSH2 0x443 PUSH2 0x9E0 CALLDATASIZE PUSH1 0x4 PUSH2 0x39BA JUMP JUMPDEST PUSH2 0x17D4 JUMP JUMPDEST CALLVALUE DUP1 ISZERO PUSH2 0x9F1 JUMPI PUSH1 0x0 DUP1 REVERT JUMPDEST POP PUSH2 0x47F PUSH2 0xA00 CALLDATASIZE PUSH1 0x4 PUSH2 0x3AC3 JUMP JUMPDEST PUSH2 0x1C31 JUMP JUMPDEST CALLVALUE DUP1 ISZERO PUSH2 0xA11 JUMPI PUSH1 0x0 DUP1 REVERT JUMPDEST POP PUSH2 0x4D7 PUSH2 0x1C4B JUMP JUMPDEST CALLVALUE DUP1 ISZERO PUSH2 0xA26 JUMPI PUSH1 0x0 DUP1 REVERT JUMPDEST POP PUSH2 0x105 SLOAD PUSH2 0xA42 SWAP1 PUSH1 0x1 PUSH1 0x38 SHL SWAP1 DIV PUSH1 0x1 PUSH1 0x1 PUSH1 0x40 SHL SUB AND DUP2 JUMP JUMPDEST PUSH1 0x40 MLOAD PUSH1 0x1 PUSH1 0x1 PUSH1 0x40 SHL SUB SWAP1 SWAP2 AND DUP2 MSTORE PUSH1 0x20 ADD PUSH2 0x489 JUMP JUMPDEST CALLVALUE DUP1 ISZERO PUSH2 0xA66 JUMPI PUSH1 0x0 DUP1 REVERT JUMPDEST POP PUSH1 0xFC SLOAD PUSH2 0x706 SWAP1 PUSH1 0x1 PUSH1 0x1 PUSH1 0xA0 SHL SUB AND DUP2 JUMP JUMPDEST CALLVALUE DUP1 ISZERO PUSH2 0xA86 JUMPI PUSH1 0x0 DUP1 REVERT JUMPDEST POP PUSH2 0x47F PUSH1 0x0 DUP2 JUMP JUMPDEST CALLVALUE DUP1 ISZERO PUSH2 0xA9B JUMPI PUSH1 0x0 DUP1 REVERT JUMPDEST POP PUSH2 0x4B2 PUSH2 0xAAA CALLDATASIZE PUSH1 0x4 PUSH2 0x3920 JUMP JUMPDEST PUSH2 0x1C5A JUMP JUMPDEST CALLVALUE DUP1 ISZERO PUSH2 0xABB JUMPI PUSH1 0x0 DUP1 REVERT JUMPDEST POP PUSH2 0x4B2 PUSH2 0xACA CALLDATASIZE PUSH1 0x4 PUSH2 0x3920 JUMP JUMPDEST PUSH2 0x1CE0 JUMP JUMPDEST CALLVALUE DUP1 ISZERO PUSH2 0xADB JUMPI PUSH1 0x0 DUP1 REVERT JUMPDEST POP PUSH2 0x47F PUSH2 0xAEA CALLDATASIZE PUSH1 0x4 PUSH2 0x3AAB JUMP JUMPDEST PUSH2 0x1CEE JUMP JUMPDEST CALLVALUE DUP1 ISZERO PUSH2 0xAFB JUMPI PUSH1 0x0 DUP1 REVERT JUMPDEST POP PUSH2 0x47F PUSH2 0xB0A CALLDATASIZE PUSH1 0x4 PUSH2 0x3BE1 JUMP JUMPDEST PUSH2 0x1CFB JUMP JUMPDEST CALLVALUE DUP1 ISZERO PUSH2 0xB1B JUMPI PUSH1 0x0 DUP1 REVERT JUMPDEST POP PUSH2 0x47F PUSH2 0xB2A CALLDATASIZE PUSH1 0x4 PUSH2 0x3BE1 JUMP JUMPDEST PUSH2 0x1D77 JUMP JUMPDEST CALLVALUE DUP1 ISZERO PUSH2 0xB3B JUMPI PUSH1 0x0 DUP1 REVERT JUMPDEST POP PUSH2 0x443 PUSH2 0xB4A CALLDATASIZE PUSH1 0x4 PUSH2 0x3AAB JUMP JUMPDEST PUSH2 0x1DEB JUMP JUMPDEST CALLVALUE DUP1 ISZERO PUSH2 0xB5B JUMPI PUSH1 0x0 DUP1 REVERT JUMPDEST POP PUSH2 0x47F PUSH2 0xB6A CALLDATASIZE PUSH1 0x4 PUSH2 0x37F7 JUMP JUMPDEST POP PUSH1 0x0 NOT SWAP1 JUMP JUMPDEST CALLVALUE DUP1 ISZERO PUSH2 0xB7D JUMPI PUSH1 0x0 DUP1 REVERT JUMPDEST POP PUSH2 0x5B4 PUSH1 0x64 DUP2 JUMP JUMPDEST CALLVALUE DUP1 ISZERO PUSH2 0xB92 JUMPI PUSH1 0x0 DUP1 REVERT JUMPDEST POP PUSH2 0x47F PUSH2 0xBA1 CALLDATASIZE PUSH1 0x4 PUSH2 0x3AAB JUMP JUMPDEST PUSH2 0x1E78 JUMP JUMPDEST CALLVALUE DUP1 ISZERO PUSH2 0xBB2 JUMPI PUSH1 0x0 DUP1 REVERT JUMPDEST POP PUSH2 0x47F PUSH1 0xFF SLOAD DUP2 JUMP JUMPDEST CALLVALUE DUP1 ISZERO PUSH2 0xBC8 JUMPI PUSH1 0x0 DUP1 REVERT JUMPDEST POP PUSH2 0x47F PUSH2 0xBD7 CALLDATASIZE PUSH1 0x4 PUSH2 0x37F7 JUMP JUMPDEST PUSH2 0x1E85 JUMP JUMPDEST CALLVALUE DUP1 ISZERO PUSH2 0xBE8 JUMPI PUSH1 0x0 DUP1 REVERT JUMPDEST POP PUSH2 0x443 PUSH2 0xBF7 CALLDATASIZE PUSH1 0x4 PUSH2 0x3AAB JUMP JUMPDEST PUSH2 0x1EA9 JUMP JUMPDEST CALLVALUE DUP1 ISZERO PUSH2 0xC08 JUMPI PUSH1 0x0 DUP1 REVERT JUMPDEST POP PUSH2 0x443 PUSH2 0xC17 CALLDATASIZE PUSH1 0x4 PUSH2 0x3B41 JUMP JUMPDEST PUSH2 0x1F21 JUMP JUMPDEST CALLVALUE DUP1 ISZERO PUSH2 0xC28 JUMPI PUSH1 0x0 DUP1 REVERT JUMPDEST POP PUSH1 0xFD SLOAD PUSH2 0x706 SWAP1 PUSH1 0x1 PUSH1 0x1 PUSH1 0xA0 SHL SUB AND DUP2 JUMP JUMPDEST CALLVALUE DUP1 ISZERO PUSH2 0xC48 JUMPI PUSH1 0x0 DUP1 REVERT JUMPDEST POP PUSH2 0x443 PUSH2 0xC57 CALLDATASIZE PUSH1 0x4 PUSH2 0x3AC3 JUMP JUMPDEST PUSH2 0x2234 JUMP JUMPDEST CALLVALUE DUP1 ISZERO PUSH2 0xC68 JUMPI PUSH1 0x0 DUP1 REVERT JUMPDEST POP PUSH2 0x47F PUSH2 0xC77 CALLDATASIZE PUSH1 0x4 PUSH2 0x37F7 JUMP JUMPDEST PUSH2 0x2259 JUMP JUMPDEST CALLVALUE DUP1 ISZERO PUSH2 0xC88 JUMPI PUSH1 0x0 DUP1 REVERT JUMPDEST POP PUSH2 0x47F PUSH2 0xC97 CALLDATASIZE PUSH1 0x4 PUSH2 0x3813 JUMP JUMPDEST PUSH2 0x2277 JUMP JUMPDEST CALLVALUE DUP1 ISZERO PUSH2 0xCA8 JUMPI PUSH1 0x0 DUP1 REVERT JUMPDEST POP PUSH2 0xA42 PUSH7 0x2386F26FC10000 DUP2 JUMP JUMPDEST CALLVALUE DUP1 ISZERO PUSH2 0xCC3 JUMPI PUSH1 0x0 DUP1 REVERT JUMPDEST POP PUSH2 0xA42 PUSH2 0x3840 DUP2 JUMP JUMPDEST CALLVALUE DUP1 ISZERO PUSH2 0xCD9 JUMPI PUSH1 0x0 DUP1 REVERT JUMPDEST POP PUSH1 0xFB SLOAD PUSH2 0x706 SWAP1 PUSH1 0x1 PUSH1 0x1 PUSH1 0xA0 SHL SUB AND DUP2 JUMP JUMPDEST CALLVALUE DUP1 ISZERO PUSH2 0xCF9 JUMPI PUSH1 0x0 DUP1 REVERT JUMPDEST POP PUSH2 0x4B2 PUSH2 0xD08 CALLDATASIZE PUSH1 0x4 PUSH2 0x37F7 JUMP JUMPDEST PUSH2 0x104 PUSH1 0x20 MSTORE PUSH1 0x0 SWAP1 DUP2 MSTORE PUSH1 0x40 SWAP1 KECCAK256 SLOAD PUSH1 0xFF AND DUP2 JUMP JUMPDEST CALLVALUE DUP1 ISZERO PUSH2 0xD2A JUMPI PUSH1 0x0 DUP1 REVERT JUMPDEST POP PUSH2 0x5B4 PUSH1 0xC8 DUP2 JUMP JUMPDEST PUSH1 0x0 DUP1 PUSH2 0xD3F CALLVALUE PUSH2 0x1E78 JUMP JUMPDEST SWAP1 POP PUSH2 0xD4D CALLER DUP5 CALLVALUE DUP5 PUSH2 0x22A2 JUMP JUMPDEST SWAP3 SWAP2 POP POP JUMP JUMPDEST PUSH1 0x0 PUSH2 0xD5E DUP2 PUSH2 0x2446 JUMP JUMPDEST PUSH1 0xC8 PUSH2 0xFFFF DUP4 AND GT ISZERO PUSH2 0xD96 JUMPI PUSH1 0x40 MLOAD PUSH4 0x2B34E409 PUSH1 0xE2 SHL DUP2 MSTORE PUSH2 0xFFFF DUP4 AND PUSH1 0x4 DUP3 ADD MSTORE PUSH1 0xC8 PUSH1 0x24 DUP3 ADD MSTORE PUSH1 0x44 ADD JUMPDEST PUSH1 0x40 MLOAD DUP1 SWAP2 SUB SWAP1 REVERT JUMPDEST POP PUSH2 0x105 DUP1 SLOAD PUSH2 0xFFFF SWAP1 SWAP3 AND PUSH6 0x10000000000 MUL PUSH7 0xFFFF0000000000 NOT SWAP1 SWAP3 AND SWAP2 SWAP1 SWAP2 OR SWAP1 SSTORE JUMP JUMPDEST PUSH1 0x0 DUP1 PUSH2 0x3840 PUSH1 0x1 PUSH1 0x1 PUSH1 0x40 SHL SUB AND PUSH2 0x102 SLOAD PUSH2 0xDDB SWAP2 SWAP1 PUSH2 0x3F37 JUMP JUMPDEST PUSH2 0xDE5 SWAP1 TIMESTAMP PUSH2 0x3F37 JUMP JUMPDEST PUSH2 0x100 SLOAD PUSH2 0xDF3 SWAP2 SWAP1 PUSH2 0x3E64 JUMP JUMPDEST SWAP1 POP PUSH1 0x0 DUP2 SLT PUSH2 0xE11 JUMPI DUP1 PUSH1 0xFF SLOAD PUSH2 0xE0B SWAP2 SWAP1 PUSH2 0x3E01 JUMP JUMPDEST SWAP2 POP POP SWAP1 JUMP JUMPDEST PUSH2 0xE1A DUP2 PUSH2 0x400B JUMP JUMPDEST PUSH1 0xFF SLOAD PUSH2 0xE0B SWAP2 SWAP1 PUSH2 0x3F37 JUMP JUMPDEST POP SWAP1 JUMP JUMPDEST PUSH1 0x0 PUSH1 0x1 PUSH1 0x1 PUSH1 0xE0 SHL SUB NOT DUP3 AND PUSH4 0x7965DB0B PUSH1 0xE0 SHL EQ DUP1 PUSH2 0xD4D JUMPI POP PUSH4 0x1FFC9A7 PUSH1 0xE0 SHL PUSH1 0x1 PUSH1 0x1 PUSH1 0xE0 SHL SUB NOT DUP4 AND EQ PUSH2 0xD4D JUMP JUMPDEST PUSH1 0x60 PUSH1 0x36 DUP1 SLOAD PUSH2 0xE6F SWAP1 PUSH2 0x3F91 JUMP JUMPDEST DUP1 PUSH1 0x1F ADD PUSH1 0x20 DUP1 SWAP2 DIV MUL PUSH1 0x20 ADD PUSH1 0x40 MLOAD SWAP1 DUP2 ADD PUSH1 0x40 MSTORE DUP1 SWAP3 SWAP2 SWAP1 DUP2 DUP2 MSTORE PUSH1 0x20 ADD DUP3 DUP1 SLOAD PUSH2 0xE9B SWAP1 PUSH2 0x3F91 JUMP JUMPDEST DUP1 ISZERO PUSH2 0xEE8 JUMPI DUP1 PUSH1 0x1F LT PUSH2 0xEBD JUMPI PUSH2 0x100 DUP1 DUP4 SLOAD DIV MUL DUP4 MSTORE SWAP2 PUSH1 0x20 ADD SWAP2 PUSH2 0xEE8 JUMP JUMPDEST DUP3 ADD SWAP2 SWAP1 PUSH1 0x0 MSTORE PUSH1 0x20 PUSH1 0x0 KECCAK256 SWAP1 JUMPDEST DUP2 SLOAD DUP2 MSTORE SWAP1 PUSH1 0x1 ADD SWAP1 PUSH1 0x20 ADD DUP1 DUP4 GT PUSH2 0xECB JUMPI DUP3 SWAP1 SUB PUSH1 0x1F AND DUP3 ADD SWAP2 JUMPDEST POP POP POP POP POP SWAP1 POP SWAP1 JUMP JUMPDEST PUSH1 0x0 PUSH2 0xD4D DUP3 PUSH1 0x0 PUSH2 0x2453 JUMP JUMPDEST PUSH1 0x0 CALLER PUSH2 0xF0D DUP2 DUP6 DUP6 PUSH2 0x2486 JUMP JUMPDEST POP PUSH1 0x1 SWAP4 SWAP3 POP POP POP JUMP JUMPDEST PUSH1 0x0 PUSH2 0xD4D DUP3 PUSH1 0x1 PUSH2 0x25AA JUMP JUMPDEST PUSH1 0x0 CALLER PUSH2 0xF32 DUP6 DUP3 DUP6 PUSH2 0x25DC JUMP JUMPDEST PUSH2 0xF3D DUP6 DUP6 DUP6 PUSH2 0x2656 JUMP JUMPDEST PUSH1 0x1 SWAP2 POP POP JUMPDEST SWAP4 SWAP3 POP POP POP JUMP JUMPDEST PUSH1 0x0 DUP3 DUP2 MSTORE PUSH1 0xC9 PUSH1 0x20 MSTORE PUSH1 0x40 SWAP1 KECCAK256 PUSH1 0x1 ADD SLOAD PUSH2 0xF65 DUP2 PUSH2 0x2446 JUMP JUMPDEST PUSH2 0xF6F DUP4 DUP4 PUSH2 0x2801 JUMP JUMPDEST POP POP POP JUMP JUMPDEST PUSH1 0x0 SLOAD PUSH2 0x100 SWAP1 DIV PUSH1 0xFF AND ISZERO DUP1 DUP1 ISZERO PUSH2 0xF94 JUMPI POP PUSH1 0x0 SLOAD PUSH1 0x1 PUSH1 0xFF SWAP1 SWAP2 AND LT JUMPDEST DUP1 PUSH2 0xFAE JUMPI POP ADDRESS EXTCODESIZE ISZERO DUP1 ISZERO PUSH2 0xFAE JUMPI POP PUSH1 0x0 SLOAD PUSH1 0xFF AND PUSH1 0x1 EQ JUMPDEST PUSH2 0x1011 JUMPI PUSH1 0x40 MLOAD PUSH3 0x461BCD PUSH1 0xE5 SHL DUP2 MSTORE PUSH1 0x20 PUSH1 0x4 DUP3 ADD MSTORE PUSH1 0x2E PUSH1 0x24 DUP3 ADD MSTORE PUSH32 0x496E697469616C697A61626C653A20636F6E747261637420697320616C726561 PUSH1 0x44 DUP3 ADD MSTORE PUSH14 0x191E481A5B9A5D1A585B1A5E9959 PUSH1 0x92 SHL PUSH1 0x64 DUP3 ADD MSTORE PUSH1 0x84 ADD PUSH2 0xD8D JUMP JUMPDEST PUSH1 0x0 DUP1 SLOAD PUSH1 0xFF NOT AND PUSH1 0x1 OR SWAP1 SSTORE DUP1 ISZERO PUSH2 0x1034 JUMPI PUSH1 0x0 DUP1 SLOAD PUSH2 0xFF00 NOT AND PUSH2 0x100 OR SWAP1 SSTORE JUMPDEST PUSH1 0x1 PUSH1 0x1 PUSH1 0xA0 SHL SUB DUP5 AND PUSH2 0x1076 JUMPI PUSH1 0x40 MLOAD PUSH4 0xEAC0D389 PUSH1 0xE0 SHL DUP2 MSTORE PUSH1 0x20 PUSH1 0x4 DUP3 ADD MSTORE PUSH1 0x8 PUSH1 0x24 DUP3 ADD MSTORE PUSH8 0x7472656173757279 PUSH1 0xC0 SHL PUSH1 0x44 DUP3 ADD MSTORE PUSH1 0x64 ADD PUSH2 0xD8D JUMP JUMPDEST PUSH1 0x1 PUSH1 0x1 PUSH1 0xA0 SHL SUB DUP7 AND PUSH2 0x10BF JUMPI PUSH1 0x40 MLOAD PUSH4 0xEAC0D389 PUSH1 0xE0 SHL DUP2 MSTORE PUSH1 0x20 PUSH1 0x4 DUP3 ADD MSTORE PUSH1 0xF PUSH1 0x24 DUP3 ADD MSTORE PUSH15 0x19195C1BDCDA5D10DBDB9D1C9858DD PUSH1 0x8A SHL PUSH1 0x44 DUP3 ADD MSTORE PUSH1 0x64 ADD PUSH2 0xD8D JUMP JUMPDEST DUP5 PUSH1 0x1 PUSH1 0x1 PUSH1 0xA0 SHL SUB AND PUSH4 0x313CE567 PUSH1 0x40 MLOAD DUP2 PUSH4 0xFFFFFFFF AND PUSH1 0xE0 SHL DUP2 MSTORE PUSH1 0x4 ADD PUSH1 0x20 PUSH1 0x40 MLOAD DUP1 DUP4 SUB DUP2 DUP7 DUP1 EXTCODESIZE ISZERO DUP1 ISZERO PUSH2 0x10F8 JUMPI PUSH1 0x0 DUP1 REVERT JUMPDEST POP GAS STATICCALL ISZERO DUP1 ISZERO PUSH2 0x110C JUMPI RETURNDATASIZE PUSH1 0x0 DUP1 RETURNDATACOPY RETURNDATASIZE PUSH1 0x0 REVERT JUMPDEST POP POP POP POP PUSH1 0x40 MLOAD RETURNDATASIZE PUSH1 0x1F NOT PUSH1 0x1F DUP3 ADD AND DUP3 ADD DUP1 PUSH1 0x40 MSTORE POP DUP2 ADD SWAP1 PUSH2 0x1130 SWAP2 SWAP1 PUSH2 0x3C22 JUMP JUMPDEST PUSH1 0xFF AND PUSH1 0x12 EQ PUSH2 0x119E JUMPI PUSH1 0x40 MLOAD PUSH3 0x461BCD PUSH1 0xE5 SHL DUP2 MSTORE PUSH1 0x20 PUSH1 0x4 DUP3 ADD MSTORE PUSH1 0x33 PUSH1 0x24 DUP3 ADD MSTORE PUSH32 0x774E617469766520746F6B656E206572726F722C20696D706C656D656E746174 PUSH1 0x44 DUP3 ADD MSTORE PUSH19 0x696F6E20666F7220313820646563696D616C73 PUSH1 0x68 SHL PUSH1 0x64 DUP3 ADD MSTORE PUSH1 0x84 ADD PUSH2 0xD8D JUMP JUMPDEST SELFBALANCE ISZERO PUSH2 0x11FA JUMPI PUSH1 0x40 MLOAD PUSH3 0x461BCD PUSH1 0xE5 SHL DUP2 MSTORE PUSH1 0x20 PUSH1 0x4 DUP3 ADD MSTORE PUSH1 0x25 PUSH1 0x24 DUP3 ADD MSTORE PUSH32 0x4572726F7220696E697469616C697A652077697468206E6F207A65726F206261 PUSH1 0x44 DUP3 ADD MSTORE PUSH5 0x6C616E6365 PUSH1 0xD8 SHL PUSH1 0x64 DUP3 ADD MSTORE PUSH1 0x84 ADD PUSH2 0xD8D JUMP JUMPDEST PUSH2 0x1203 DUP6 PUSH2 0x2887 JUMP JUMPDEST PUSH2 0x124D PUSH1 0x40 MLOAD DUP1 PUSH1 0x40 ADD PUSH1 0x40 MSTORE DUP1 PUSH1 0xB DUP2 MSTORE PUSH1 0x20 ADD PUSH11 0x9ACAE8C2A0DEDED88AA89 PUSH1 0xAB SHL DUP2 MSTORE POP PUSH1 0x40 MLOAD DUP1 PUSH1 0x40 ADD PUSH1 0x40 MSTORE DUP1 PUSH1 0x5 DUP2 MSTORE PUSH1 0x20 ADD PUSH5 0xDAE08AA89 PUSH1 0xDB SHL DUP2 MSTORE POP PUSH2 0x28B7 JUMP JUMPDEST PUSH2 0x1255 PUSH2 0x28E8 JUMP JUMPDEST PUSH2 0x1260 PUSH1 0x0 CALLER PUSH2 0x2801 JUMP JUMPDEST PUSH2 0x1278 PUSH1 0x0 DUP1 MLOAD PUSH1 0x20 PUSH2 0x4067 DUP4 CODECOPY DUP2 MLOAD SWAP2 MSTORE DUP5 PUSH2 0x2801 JUMP JUMPDEST PUSH2 0x12A2 PUSH32 0xEC5AAD7BDFACE20C35BC02D6D2D5760DF981277427368525D634F4E2603EA192 DUP4 PUSH2 0x2801 JUMP JUMPDEST PUSH2 0x12AB DUP8 PUSH2 0x164B JUMP JUMPDEST PUSH2 0x12B4 DUP9 PUSH2 0x1538 JUMP JUMPDEST PUSH2 0x12BF PUSH2 0x1F4 PUSH2 0x1447 JUMP JUMPDEST PUSH1 0xFE DUP1 SLOAD PUSH1 0x1 PUSH1 0x1 PUSH1 0xA0 SHL SUB DUP1 DUP8 AND PUSH1 0x1 PUSH1 0x1 PUSH1 0xA0 SHL SUB NOT SWAP3 DUP4 AND OR SWAP1 SWAP3 SSTORE PUSH1 0xFB DUP1 SLOAD SWAP3 DUP10 AND SWAP3 SWAP1 SWAP2 AND SWAP2 SWAP1 SWAP2 OR SWAP1 SSTORE PUSH1 0x1 PUSH1 0x1 PUSH1 0x40 SHL SUB TIMESTAMP AND PUSH2 0x102 SSTORE PUSH2 0x105 DUP1 SLOAD PUSH6 0x640000000000 PUSH7 0xFFFF0000000000 NOT SWAP1 SWAP2 AND OR SWAP1 SSTORE DUP1 ISZERO PUSH2 0x135E JUMPI PUSH1 0x0 DUP1 SLOAD PUSH2 0xFF00 NOT AND SWAP1 SSTORE PUSH1 0x40 MLOAD PUSH1 0x1 DUP2 MSTORE PUSH32 0x7F26B83FF96E1F2B6A682F133852F6798A09C465DA95921460CEFB3847402498 SWAP1 PUSH1 0x20 ADD PUSH1 0x40 MLOAD DUP1 SWAP2 SUB SWAP1 LOG1 JUMPDEST POP POP POP POP POP POP POP POP JUMP JUMPDEST PUSH1 0x1 PUSH1 0x1 PUSH1 0xA0 SHL SUB DUP2 AND CALLER EQ PUSH2 0x13D8 JUMPI PUSH1 0x40 MLOAD PUSH3 0x461BCD PUSH1 0xE5 SHL DUP2 MSTORE PUSH1 0x20 PUSH1 0x4 DUP3 ADD MSTORE PUSH1 0x2F PUSH1 0x24 DUP3 ADD MSTORE PUSH32 0x416363657373436F6E74726F6C3A2063616E206F6E6C792072656E6F756E6365 PUSH1 0x44 DUP3 ADD MSTORE PUSH15 0x103937B632B9903337B91039B2B633 PUSH1 0x89 SHL PUSH1 0x64 DUP3 ADD MSTORE PUSH1 0x84 ADD PUSH2 0xD8D JUMP JUMPDEST PUSH2 0x13E2 DUP3 DUP3 PUSH2 0x2911 JUMP JUMPDEST POP POP JUMP JUMPDEST PUSH1 0x0 CALLER PUSH2 0xF0D DUP2 DUP6 DUP6 PUSH2 0x13F9 DUP4 DUP4 PUSH2 0x2277 JUMP JUMPDEST PUSH2 0x1403 SWAP2 SWAP1 PUSH2 0x3E01 JUMP JUMPDEST PUSH2 0x2486 JUMP JUMPDEST PUSH1 0x0 PUSH2 0x1412 PUSH2 0x2978 JUMP JUMPDEST PUSH2 0x141D JUMPI PUSH1 0x0 PUSH2 0xD4D JUMP JUMPDEST PUSH1 0x0 NOT SWAP3 SWAP2 POP POP JUMP JUMPDEST PUSH1 0x0 PUSH2 0x1431 DUP2 PUSH2 0x2446 JUMP JUMPDEST POP PUSH2 0x105 DUP1 SLOAD PUSH1 0xFF NOT DUP2 AND PUSH1 0xFF SWAP1 SWAP2 AND ISZERO OR SWAP1 SSTORE JUMP JUMPDEST PUSH1 0x0 PUSH2 0x1452 DUP2 PUSH2 0x2446 JUMP JUMPDEST PUSH2 0x7D0 PUSH2 0xFFFF DUP4 AND GT ISZERO PUSH2 0x1487 JUMPI PUSH1 0x40 MLOAD PUSH4 0x8DCF869 PUSH1 0xE3 SHL DUP2 MSTORE PUSH2 0xFFFF DUP4 AND PUSH1 0x4 DUP3 ADD MSTORE PUSH2 0x7D0 PUSH1 0x24 DUP3 ADD MSTORE PUSH1 0x44 ADD PUSH2 0xD8D JUMP JUMPDEST POP PUSH2 0x105 DUP1 SLOAD PUSH2 0xFFFF SWAP1 SWAP3 AND PUSH2 0x100 MUL PUSH3 0xFFFF00 NOT SWAP1 SWAP3 AND SWAP2 SWAP1 SWAP2 OR SWAP1 SSTORE JUMP JUMPDEST PUSH1 0x0 PUSH2 0x14B2 DUP2 PUSH2 0x2446 JUMP JUMPDEST DUP2 PUSH1 0x0 JUMPDEST DUP2 DUP2 EQ PUSH2 0x1531 JUMPI PUSH1 0x0 PUSH2 0x104 PUSH1 0x0 DUP8 DUP8 DUP6 DUP2 DUP2 LT PUSH2 0x14E4 JUMPI PUSH4 0x4E487B71 PUSH1 0xE0 SHL PUSH1 0x0 MSTORE PUSH1 0x32 PUSH1 0x4 MSTORE PUSH1 0x24 PUSH1 0x0 REVERT JUMPDEST SWAP1 POP PUSH1 0x20 MUL ADD PUSH1 0x20 DUP2 ADD SWAP1 PUSH2 0x14F9 SWAP2 SWAP1 PUSH2 0x37F7 JUMP JUMPDEST PUSH1 0x1 PUSH1 0x1 PUSH1 0xA0 SHL SUB AND DUP2 MSTORE PUSH1 0x20 DUP2 ADD SWAP2 SWAP1 SWAP2 MSTORE PUSH1 0x40 ADD PUSH1 0x0 KECCAK256 DUP1 SLOAD PUSH1 0xFF NOT AND SWAP2 ISZERO ISZERO SWAP2 SWAP1 SWAP2 OR SWAP1 SSTORE PUSH2 0x152A DUP2 PUSH2 0x3FCC JUMP JUMPDEST SWAP1 POP PUSH2 0x14B6 JUMP JUMPDEST POP POP POP POP POP JUMP JUMPDEST PUSH1 0x0 PUSH2 0x1543 DUP2 PUSH2 0x2446 JUMP JUMPDEST PUSH1 0x1 PUSH1 0x1 PUSH1 0xA0 SHL SUB DUP3 AND PUSH2 0x1587 JUMPI PUSH1 0x40 MLOAD PUSH4 0xEAC0D389 PUSH1 0xE0 SHL DUP2 MSTORE PUSH1 0x20 PUSH1 0x4 DUP3 ADD MSTORE PUSH1 0xA PUSH1 0x24 DUP3 ADD MSTORE PUSH10 0x1B1A5C5D5A59141BDBDB PUSH1 0xB2 SHL PUSH1 0x44 DUP3 ADD MSTORE PUSH1 0x64 ADD PUSH2 0xD8D JUMP JUMPDEST POP PUSH1 0xFC DUP1 SLOAD PUSH1 0x1 PUSH1 0x1 PUSH1 0xA0 SHL SUB NOT AND PUSH1 0x1 PUSH1 0x1 PUSH1 0xA0 SHL SUB SWAP3 SWAP1 SWAP3 AND SWAP2 SWAP1 SWAP2 OR SWAP1 SSTORE JUMP JUMPDEST PUSH1 0x0 DUP1 PUSH2 0x15B6 DUP5 PUSH2 0x1E78 JUMP JUMPDEST SWAP1 POP PUSH2 0x15E1 CALLER ADDRESS DUP7 PUSH2 0x15D0 PUSH1 0x65 SLOAD PUSH1 0x1 PUSH1 0x1 PUSH1 0xA0 SHL SUB AND SWAP1 JUMP JUMPDEST PUSH1 0x1 PUSH1 0x1 PUSH1 0xA0 SHL SUB AND SWAP3 SWAP2 SWAP1 PUSH2 0x2994 JUMP JUMPDEST PUSH1 0x65 SLOAD PUSH1 0x40 MLOAD PUSH4 0x2E1A7D4D PUSH1 0xE0 SHL DUP2 MSTORE PUSH1 0x4 DUP2 ADD DUP7 SWAP1 MSTORE PUSH1 0x1 PUSH1 0x1 PUSH1 0xA0 SHL SUB SWAP1 SWAP2 AND SWAP1 PUSH4 0x2E1A7D4D SWAP1 PUSH1 0x24 ADD PUSH1 0x0 PUSH1 0x40 MLOAD DUP1 DUP4 SUB DUP2 PUSH1 0x0 DUP8 DUP1 EXTCODESIZE ISZERO DUP1 ISZERO PUSH2 0x1627 JUMPI PUSH1 0x0 DUP1 REVERT JUMPDEST POP GAS CALL ISZERO DUP1 ISZERO PUSH2 0x163B JUMPI RETURNDATASIZE PUSH1 0x0 DUP1 RETURNDATACOPY RETURNDATASIZE PUSH1 0x0 REVERT JUMPDEST POP POP POP POP PUSH2 0xF43 CALLER DUP5 DUP7 DUP5 PUSH2 0x22A2 JUMP JUMPDEST PUSH1 0x0 PUSH2 0x1656 DUP2 PUSH2 0x2446 JUMP JUMPDEST PUSH1 0x1 PUSH1 0x1 PUSH1 0xA0 SHL SUB DUP3 AND PUSH2 0x169A JUMPI PUSH1 0x40 MLOAD PUSH4 0xEAC0D389 PUSH1 0xE0 SHL DUP2 MSTORE PUSH1 0x20 PUSH1 0x4 DUP3 ADD MSTORE PUSH1 0xA PUSH1 0x24 DUP3 ADD MSTORE PUSH10 0x1DDA5D1A191C985DD85B PUSH1 0xB2 SHL PUSH1 0x44 DUP3 ADD MSTORE PUSH1 0x64 ADD PUSH2 0xD8D JUMP JUMPDEST POP PUSH1 0xFD DUP1 SLOAD PUSH1 0x1 PUSH1 0x1 PUSH1 0xA0 SHL SUB NOT AND PUSH1 0x1 PUSH1 0x1 PUSH1 0xA0 SHL SUB SWAP3 SWAP1 SWAP3 AND SWAP2 SWAP1 SWAP2 OR SWAP1 SSTORE JUMP JUMPDEST PUSH1 0x0 PUSH2 0x16C8 DUP2 PUSH2 0x2446 JUMP JUMPDEST DUP2 PUSH1 0x0 JUMPDEST DUP2 DUP2 EQ PUSH2 0x1531 JUMPI PUSH1 0x1 PUSH2 0x104 PUSH1 0x0 DUP8 DUP8 DUP6 DUP2 DUP2 LT PUSH2 0x16FA JUMPI PUSH4 0x4E487B71 PUSH1 0xE0 SHL PUSH1 0x0 MSTORE PUSH1 0x32 PUSH1 0x4 MSTORE PUSH1 0x24 PUSH1 0x0 REVERT JUMPDEST SWAP1 POP PUSH1 0x20 MUL ADD PUSH1 0x20 DUP2 ADD SWAP1 PUSH2 0x170F SWAP2 SWAP1 PUSH2 0x37F7 JUMP JUMPDEST PUSH1 0x1 PUSH1 0x1 PUSH1 0xA0 SHL SUB AND DUP2 MSTORE PUSH1 0x20 DUP2 ADD SWAP2 SWAP1 SWAP2 MSTORE PUSH1 0x40 ADD PUSH1 0x0 KECCAK256 DUP1 SLOAD PUSH1 0xFF NOT AND SWAP2 ISZERO ISZERO SWAP2 SWAP1 SWAP2 OR SWAP1 SSTORE PUSH2 0x1740 DUP2 PUSH2 0x3FCC JUMP JUMPDEST SWAP1 POP PUSH2 0x16CC JUMP JUMPDEST PUSH1 0x0 PUSH2 0x1752 DUP2 PUSH2 0x2446 JUMP JUMPDEST PUSH1 0x64 PUSH2 0xFFFF DUP4 AND GT ISZERO PUSH2 0x1785 JUMPI PUSH1 0x40 MLOAD PUSH4 0x8DCF869 PUSH1 0xE3 SHL DUP2 MSTORE PUSH2 0xFFFF DUP4 AND PUSH1 0x4 DUP3 ADD MSTORE PUSH1 0x64 PUSH1 0x24 DUP3 ADD MSTORE PUSH1 0x44 ADD PUSH2 0xD8D JUMP JUMPDEST POP PUSH2 0x105 DUP1 SLOAD PUSH2 0xFFFF SWAP1 SWAP3 AND PUSH4 0x1000000 MUL PUSH5 0xFFFF000000 NOT SWAP1 SWAP3 AND SWAP2 SWAP1 SWAP2 OR SWAP1 SSTORE JUMP JUMPDEST PUSH1 0x0 SWAP2 DUP3 MSTORE PUSH1 0xC9 PUSH1 0x20 SWAP1 DUP2 MSTORE PUSH1 0x40 DUP1 DUP5 KECCAK256 PUSH1 0x1 PUSH1 0x1 PUSH1 0xA0 SHL SUB SWAP4 SWAP1 SWAP4 AND DUP5 MSTORE SWAP2 SWAP1 MSTORE SWAP1 KECCAK256 SLOAD PUSH1 0xFF AND SWAP1 JUMP JUMPDEST PUSH32 0xEC5AAD7BDFACE20C35BC02D6D2D5760DF981277427368525D634F4E2603EA192 PUSH2 0x17FE DUP2 PUSH2 0x2446 JUMP JUMPDEST DUP4 MLOAD PUSH1 0x0 PUSH2 0x181B PUSH4 0xFFFFFFFF DUP4 AND PUSH9 0x1BC16D674EC800000 PUSH2 0x3F06 JUMP JUMPDEST PUSH9 0xFFFFFFFFFFFFFFFFFF AND SWAP1 POP SELFBALANCE DUP2 DUP6 PUSH2 0x1835 DUP9 DUP5 PUSH2 0x3E01 JUMP JUMPDEST PUSH2 0x183F SWAP2 SWAP1 PUSH2 0x3E01 JUMP JUMPDEST LT ISZERO PUSH2 0x1876 JUMPI PUSH1 0x40 MLOAD PUSH4 0x4B82651B PUSH1 0xE0 SHL DUP2 MSTORE PUSH1 0x4 DUP2 ADD DUP3 SWAP1 MSTORE PUSH1 0x24 DUP2 ADD DUP8 SWAP1 MSTORE PUSH1 0x44 DUP2 ADD DUP7 SWAP1 MSTORE PUSH1 0x64 DUP2 ADD DUP4 SWAP1 MSTORE PUSH1 0x84 ADD PUSH2 0xD8D JUMP JUMPDEST DUP6 ISZERO PUSH2 0x18DB JUMPI PUSH1 0xFC SLOAD PUSH1 0x40 MLOAD PUSH4 0x3701206B PUSH1 0xE0 SHL DUP2 MSTORE PUSH1 0x4 DUP2 ADD DUP9 SWAP1 MSTORE PUSH1 0x1 PUSH1 0x1 PUSH1 0xA0 SHL SUB SWAP1 SWAP2 AND SWAP1 PUSH4 0x3701206B SWAP1 PUSH1 0x24 ADD PUSH1 0x0 PUSH1 0x40 MLOAD DUP1 DUP4 SUB DUP2 PUSH1 0x0 DUP8 DUP1 EXTCODESIZE ISZERO DUP1 ISZERO PUSH2 0x18C2 JUMPI PUSH1 0x0 DUP1 REVERT JUMPDEST POP GAS CALL ISZERO DUP1 ISZERO PUSH2 0x18D6 JUMPI RETURNDATASIZE PUSH1 0x0 DUP1 RETURNDATACOPY RETURNDATASIZE PUSH1 0x0 REVERT JUMPDEST POP POP POP POP JUMPDEST DUP5 ISZERO PUSH2 0x1940 JUMPI PUSH1 0xFD SLOAD PUSH1 0x40 MLOAD PUSH4 0x3701206B PUSH1 0xE0 SHL DUP2 MSTORE PUSH1 0x4 DUP2 ADD DUP8 SWAP1 MSTORE PUSH1 0x1 PUSH1 0x1 PUSH1 0xA0 SHL SUB SWAP1 SWAP2 AND SWAP1 PUSH4 0x3701206B SWAP1 PUSH1 0x24 ADD PUSH1 0x0 PUSH1 0x40 MLOAD DUP1 DUP4 SUB DUP2 PUSH1 0x0 DUP8 DUP1 EXTCODESIZE ISZERO DUP1 ISZERO PUSH2 0x1927 JUMPI PUSH1 0x0 DUP1 REVERT JUMPDEST POP GAS CALL ISZERO DUP1 ISZERO PUSH2 0x193B JUMPI RETURNDATASIZE PUSH1 0x0 DUP1 RETURNDATACOPY RETURNDATASIZE PUSH1 0x0 REVERT JUMPDEST POP POP POP POP JUMPDEST PUSH2 0x101 SLOAD PUSH4 0xFFFFFFFF AND PUSH1 0x0 JUMPDEST DUP5 PUSH4 0xFFFFFFFF AND DUP2 EQ PUSH2 0x1C0C JUMPI PUSH2 0x103 DUP10 DUP3 DUP2 MLOAD DUP2 LT PUSH2 0x197D JUMPI PUSH4 0x4E487B71 PUSH1 0xE0 SHL PUSH1 0x0 MSTORE PUSH1 0x32 PUSH1 0x4 MSTORE PUSH1 0x24 PUSH1 0x0 REVERT JUMPDEST PUSH1 0x20 MUL PUSH1 0x20 ADD ADD MLOAD PUSH1 0x0 ADD MLOAD PUSH1 0x40 MLOAD PUSH2 0x1996 SWAP2 SWAP1 PUSH2 0x3C6F JUMP JUMPDEST SWAP1 DUP2 MSTORE PUSH1 0x40 MLOAD SWAP1 DUP2 SWAP1 SUB PUSH1 0x20 ADD SWAP1 KECCAK256 SLOAD PUSH1 0xFF AND ISZERO PUSH2 0x19F4 JUMPI DUP9 DUP2 DUP2 MLOAD DUP2 LT PUSH2 0x19CE JUMPI PUSH4 0x4E487B71 PUSH1 0xE0 SHL PUSH1 0x0 MSTORE PUSH1 0x32 PUSH1 0x4 MSTORE PUSH1 0x24 PUSH1 0x0 REVERT JUMPDEST PUSH1 0x20 MUL PUSH1 0x20 ADD ADD MLOAD PUSH1 0x0 ADD MLOAD PUSH1 0x40 MLOAD PUSH4 0x14E6A03D PUSH1 0xE1 SHL DUP2 MSTORE PUSH1 0x4 ADD PUSH2 0xD8D SWAP2 SWAP1 PUSH2 0x3D00 JUMP JUMPDEST PUSH1 0x1 PUSH2 0x103 DUP11 DUP4 DUP2 MLOAD DUP2 LT PUSH2 0x1A19 JUMPI PUSH4 0x4E487B71 PUSH1 0xE0 SHL PUSH1 0x0 MSTORE PUSH1 0x32 PUSH1 0x4 MSTORE PUSH1 0x24 PUSH1 0x0 REVERT JUMPDEST PUSH1 0x20 MUL PUSH1 0x20 ADD ADD MLOAD PUSH1 0x0 ADD MLOAD PUSH1 0x40 MLOAD PUSH2 0x1A32 SWAP2 SWAP1 PUSH2 0x3C6F JUMP JUMPDEST SWAP1 DUP2 MSTORE PUSH1 0x40 MLOAD SWAP1 DUP2 SWAP1 SUB PUSH1 0x20 ADD SWAP1 KECCAK256 DUP1 SLOAD SWAP2 ISZERO ISZERO PUSH1 0xFF NOT SWAP1 SWAP3 AND SWAP2 SWAP1 SWAP2 OR SWAP1 SSTORE PUSH1 0xFB SLOAD DUP10 MLOAD PUSH1 0x1 PUSH1 0x1 PUSH1 0xA0 SHL SUB SWAP1 SWAP2 AND SWAP1 PUSH4 0x22895118 SWAP1 PUSH9 0x1BC16D674EC800000 SWAP1 DUP13 SWAP1 DUP6 SWAP1 DUP2 LT PUSH2 0x1A94 JUMPI PUSH4 0x4E487B71 PUSH1 0xE0 SHL PUSH1 0x0 MSTORE PUSH1 0x32 PUSH1 0x4 MSTORE PUSH1 0x24 PUSH1 0x0 REVERT JUMPDEST PUSH1 0x20 MUL PUSH1 0x20 ADD ADD MLOAD PUSH1 0x0 ADD MLOAD DUP13 DUP6 DUP2 MLOAD DUP2 LT PUSH2 0x1AC0 JUMPI PUSH4 0x4E487B71 PUSH1 0xE0 SHL PUSH1 0x0 MSTORE PUSH1 0x32 PUSH1 0x4 MSTORE PUSH1 0x24 PUSH1 0x0 REVERT JUMPDEST PUSH1 0x20 MUL PUSH1 0x20 ADD ADD MLOAD PUSH1 0x20 ADD MLOAD DUP14 DUP7 DUP2 MLOAD DUP2 LT PUSH2 0x1AEC JUMPI PUSH4 0x4E487B71 PUSH1 0xE0 SHL PUSH1 0x0 MSTORE PUSH1 0x32 PUSH1 0x4 MSTORE PUSH1 0x24 PUSH1 0x0 REVERT JUMPDEST PUSH1 0x20 MUL PUSH1 0x20 ADD ADD MLOAD PUSH1 0x40 ADD MLOAD DUP15 DUP8 DUP2 MLOAD DUP2 LT PUSH2 0x1B18 JUMPI PUSH4 0x4E487B71 PUSH1 0xE0 SHL PUSH1 0x0 MSTORE PUSH1 0x32 PUSH1 0x4 MSTORE PUSH1 0x24 PUSH1 0x0 REVERT JUMPDEST PUSH1 0x20 MUL PUSH1 0x20 ADD ADD MLOAD PUSH1 0x60 ADD MLOAD PUSH1 0x40 MLOAD DUP7 PUSH4 0xFFFFFFFF AND PUSH1 0xE0 SHL DUP2 MSTORE PUSH1 0x4 ADD PUSH2 0x1B43 SWAP5 SWAP4 SWAP3 SWAP2 SWAP1 PUSH2 0x3D13 JUMP JUMPDEST PUSH1 0x0 PUSH1 0x40 MLOAD DUP1 DUP4 SUB DUP2 DUP6 DUP9 DUP1 EXTCODESIZE ISZERO DUP1 ISZERO PUSH2 0x1B5C JUMPI PUSH1 0x0 DUP1 REVERT JUMPDEST POP GAS CALL ISZERO DUP1 ISZERO PUSH2 0x1B70 JUMPI RETURNDATASIZE PUSH1 0x0 DUP1 RETURNDATACOPY RETURNDATASIZE PUSH1 0x0 REVERT JUMPDEST POP POP POP POP POP DUP2 DUP1 PUSH2 0x1B80 SWAP1 PUSH2 0x3FE7 JUMP JUMPDEST SWAP3 POP POP DUP9 DUP2 DUP2 MLOAD DUP2 LT PUSH2 0x1BA3 JUMPI PUSH4 0x4E487B71 PUSH1 0xE0 SHL PUSH1 0x0 MSTORE PUSH1 0x32 PUSH1 0x4 MSTORE PUSH1 0x24 PUSH1 0x0 REVERT JUMPDEST PUSH1 0x20 MUL PUSH1 0x20 ADD ADD MLOAD PUSH1 0x0 ADD MLOAD PUSH1 0x40 MLOAD PUSH2 0x1BBC SWAP2 SWAP1 PUSH2 0x3C6F JUMP JUMPDEST PUSH1 0x40 MLOAD SWAP1 DUP2 SWAP1 SUB DUP2 KECCAK256 PUSH4 0xFFFFFFFF DUP5 AND DUP3 MSTORE SWAP1 PUSH32 0xD30C530F2D5E6C518F21D801360FF46849E74BF1CBA98A64C7DBC741FC9B263A SWAP1 PUSH1 0x20 ADD PUSH1 0x40 MLOAD DUP1 SWAP2 SUB SWAP1 LOG2 PUSH2 0x1C05 DUP2 PUSH2 0x3FCC JUMP JUMPDEST SWAP1 POP PUSH2 0x194D JUMP JUMPDEST POP PUSH2 0x101 DUP1 SLOAD PUSH4 0xFFFFFFFF NOT AND PUSH4 0xFFFFFFFF SWAP3 SWAP1 SWAP3 AND SWAP2 SWAP1 SWAP2 OR SWAP1 SSTORE POP POP POP POP POP POP POP JUMP JUMPDEST PUSH1 0x0 DUP1 PUSH2 0x1C3D DUP5 PUSH2 0x1CEE JUMP JUMPDEST SWAP1 POP PUSH2 0xF43 CALLER DUP5 DUP4 DUP8 PUSH2 0x22A2 JUMP JUMPDEST PUSH1 0x60 PUSH1 0x37 DUP1 SLOAD PUSH2 0xE6F SWAP1 PUSH2 0x3F91 JUMP JUMPDEST PUSH1 0x0 CALLER DUP2 PUSH2 0x1C68 DUP3 DUP7 PUSH2 0x2277 JUMP JUMPDEST SWAP1 POP DUP4 DUP2 LT ISZERO PUSH2 0x1CC8 JUMPI PUSH1 0x40 MLOAD PUSH3 0x461BCD PUSH1 0xE5 SHL DUP2 MSTORE PUSH1 0x20 PUSH1 0x4 DUP3 ADD MSTORE PUSH1 0x25 PUSH1 0x24 DUP3 ADD MSTORE PUSH32 0x45524332303A2064656372656173656420616C6C6F77616E63652062656C6F77 PUSH1 0x44 DUP3 ADD MSTORE PUSH5 0x207A65726F PUSH1 0xD8 SHL PUSH1 0x64 DUP3 ADD MSTORE PUSH1 0x84 ADD PUSH2 0xD8D JUMP JUMPDEST PUSH2 0x1CD5 DUP3 DUP7 DUP7 DUP5 SUB PUSH2 0x2486 JUMP JUMPDEST POP PUSH1 0x1 SWAP5 SWAP4 POP POP POP POP JUMP JUMPDEST PUSH1 0x0 CALLER PUSH2 0xF0D DUP2 DUP6 DUP6 PUSH2 0x2656 JUMP JUMPDEST PUSH1 0x0 PUSH2 0xD4D DUP3 PUSH1 0x1 PUSH2 0x2453 JUMP JUMPDEST PUSH1 0x0 PUSH2 0x1D06 DUP3 PUSH2 0x1E85 JUMP JUMPDEST DUP5 GT ISZERO PUSH2 0x1D55 JUMPI PUSH1 0x40 MLOAD PUSH3 0x461BCD PUSH1 0xE5 SHL DUP2 MSTORE PUSH1 0x20 PUSH1 0x4 DUP3 ADD MSTORE PUSH1 0x1F PUSH1 0x24 DUP3 ADD MSTORE PUSH32 0x455243343632363A207769746864726177206D6F7265207468616E206D617800 PUSH1 0x44 DUP3 ADD MSTORE PUSH1 0x64 ADD PUSH2 0xD8D JUMP JUMPDEST PUSH1 0x0 PUSH2 0x1D60 DUP6 PUSH2 0xF17 JUMP JUMPDEST SWAP1 POP PUSH2 0x1D6F CALLER DUP6 DUP6 DUP9 DUP6 PUSH2 0x29EE JUMP JUMPDEST SWAP5 SWAP4 POP POP POP POP JUMP JUMPDEST PUSH1 0x0 PUSH2 0x1D82 DUP3 PUSH2 0x2259 JUMP JUMPDEST DUP5 GT ISZERO PUSH2 0x1DD1 JUMPI PUSH1 0x40 MLOAD PUSH3 0x461BCD PUSH1 0xE5 SHL DUP2 MSTORE PUSH1 0x20 PUSH1 0x4 DUP3 ADD MSTORE PUSH1 0x1D PUSH1 0x24 DUP3 ADD MSTORE PUSH32 0x455243343632363A2072656465656D206D6F7265207468616E206D6178000000 PUSH1 0x44 DUP3 ADD MSTORE PUSH1 0x64 ADD PUSH2 0xD8D JUMP JUMPDEST PUSH1 0x0 PUSH2 0x1DDC DUP6 PUSH2 0xEF2 JUMP JUMPDEST SWAP1 POP PUSH2 0x1D6F CALLER DUP6 DUP6 DUP5 DUP10 PUSH2 0x29EE JUMP JUMPDEST PUSH1 0x0 DUP1 MLOAD PUSH1 0x20 PUSH2 0x4067 DUP4 CODECOPY DUP2 MLOAD SWAP2 MSTORE PUSH2 0x1E03 DUP2 PUSH2 0x2446 JUMP JUMPDEST PUSH1 0xFC SLOAD PUSH1 0x40 MLOAD PUSH4 0x3701206B PUSH1 0xE0 SHL DUP2 MSTORE PUSH1 0x4 DUP2 ADD DUP5 SWAP1 MSTORE PUSH1 0x1 PUSH1 0x1 PUSH1 0xA0 SHL SUB SWAP1 SWAP2 AND SWAP1 PUSH4 0x3701206B SWAP1 PUSH1 0x24 ADD PUSH1 0x0 PUSH1 0x40 MLOAD DUP1 DUP4 SUB DUP2 PUSH1 0x0 DUP8 DUP1 EXTCODESIZE ISZERO DUP1 ISZERO PUSH2 0x1E49 JUMPI PUSH1 0x0 DUP1 REVERT JUMPDEST POP GAS CALL ISZERO DUP1 ISZERO PUSH2 0x1E5D JUMPI RETURNDATASIZE PUSH1 0x0 DUP1 RETURNDATACOPY RETURNDATASIZE PUSH1 0x0 REVERT JUMPDEST POP POP PUSH1 0xFD SLOAD PUSH2 0x13E2 SWAP3 POP PUSH1 0x1 PUSH1 0x1 PUSH1 0xA0 SHL SUB AND SWAP1 POP DUP4 PUSH2 0x2B08 JUMP JUMPDEST PUSH1 0x0 PUSH2 0xD4D DUP3 PUSH1 0x0 PUSH2 0x25AA JUMP JUMPDEST PUSH1 0x1 PUSH1 0x1 PUSH1 0xA0 SHL SUB DUP2 AND PUSH1 0x0 SWAP1 DUP2 MSTORE PUSH1 0x33 PUSH1 0x20 MSTORE PUSH1 0x40 DUP2 KECCAK256 SLOAD PUSH2 0xD4D SWAP1 PUSH1 0x0 PUSH2 0x2453 JUMP JUMPDEST PUSH1 0x0 DUP1 MLOAD PUSH1 0x20 PUSH2 0x4067 DUP4 CODECOPY DUP2 MLOAD SWAP2 MSTORE PUSH2 0x1EC1 DUP2 PUSH2 0x2446 JUMP JUMPDEST PUSH1 0x0 PUSH4 0x1C9C380 PUSH2 0x1ED0 PUSH2 0xDBE JUMP JUMPDEST PUSH2 0x1EDA SWAP2 SWAP1 PUSH2 0x3E44 JUMP JUMPDEST SWAP1 POP DUP1 DUP4 SGT DUP1 PUSH2 0x1EF1 JUMPI POP PUSH2 0x1EEE DUP2 PUSH2 0x400B JUMP JUMPDEST DUP4 SLT JUMPDEST ISZERO PUSH2 0x1F19 JUMPI PUSH1 0x40 MLOAD PUSH4 0xBCC1B4CF PUSH1 0xE0 SHL DUP2 MSTORE PUSH1 0x4 DUP2 ADD DUP5 SWAP1 MSTORE PUSH1 0x24 DUP2 ADD DUP3 SWAP1 MSTORE PUSH1 0x44 ADD PUSH2 0xD8D JUMP JUMPDEST POP POP PUSH2 0x100 SSTORE JUMP JUMPDEST PUSH1 0x0 DUP1 MLOAD PUSH1 0x20 PUSH2 0x4067 DUP4 CODECOPY DUP2 MLOAD SWAP2 MSTORE PUSH2 0x1F39 DUP2 PUSH2 0x2446 JUMP JUMPDEST PUSH2 0x102 SLOAD TIMESTAMP DUP2 GT ISZERO PUSH2 0x1F67 JUMPI PUSH1 0x40 MLOAD PUSH4 0xA966CA89 PUSH1 0xE0 SHL DUP2 MSTORE PUSH1 0x4 DUP2 ADD DUP3 SWAP1 MSTORE TIMESTAMP PUSH1 0x24 DUP3 ADD MSTORE PUSH1 0x44 ADD PUSH2 0xD8D JUMP JUMPDEST DUP4 DUP1 PUSH1 0x20 ADD MLOAD PUSH1 0x1 PUSH1 0x1 PUSH1 0x40 SHL SUB AND DUP2 PUSH1 0x0 ADD MLOAD PUSH1 0x1 PUSH1 0x1 PUSH1 0x40 SHL SUB AND GT ISZERO PUSH2 0x1FBD JUMPI DUP1 MLOAD PUSH1 0x20 DUP3 ADD MLOAD PUSH1 0x40 MLOAD PUSH4 0xA52A8B0D PUSH1 0xE0 SHL DUP2 MSTORE PUSH1 0x1 PUSH1 0x1 PUSH1 0x40 SHL SUB SWAP3 DUP4 AND PUSH1 0x4 DUP3 ADD MSTORE SWAP2 AND PUSH1 0x24 DUP3 ADD MSTORE PUSH1 0x44 ADD PUSH2 0xD8D JUMP JUMPDEST PUSH2 0x105 SLOAD PUSH2 0x1FDC SWAP1 PUSH1 0x1 PUSH1 0x38 SHL SWAP1 DIV PUSH1 0x1 PUSH1 0x1 PUSH1 0x40 SHL SUB AND PUSH1 0x1 PUSH2 0x3E19 JUMP JUMPDEST PUSH1 0x1 PUSH1 0x1 PUSH1 0x40 SHL SUB AND DUP2 PUSH1 0x0 ADD MLOAD PUSH1 0x1 PUSH1 0x1 PUSH1 0x40 SHL SUB AND EQ ISZERO DUP1 ISZERO PUSH2 0x2013 JUMPI POP PUSH2 0x105 SLOAD PUSH1 0x1 PUSH1 0x38 SHL SWAP1 DIV PUSH1 0x1 PUSH1 0x1 PUSH1 0x40 SHL SUB AND ISZERO ISZERO JUMPDEST ISZERO PUSH2 0x2053 JUMPI DUP1 MLOAD PUSH2 0x105 SLOAD PUSH1 0x40 MLOAD PUSH4 0x198B9E67 PUSH1 0xE1 SHL DUP2 MSTORE PUSH1 0x1 PUSH1 0x1 PUSH1 0x40 SHL SUB SWAP3 DUP4 AND PUSH1 0x4 DUP3 ADD MSTORE PUSH1 0x1 PUSH1 0x38 SHL SWAP1 SWAP2 DIV SWAP1 SWAP2 AND PUSH1 0x24 DUP3 ADD MSTORE PUSH1 0x44 ADD PUSH2 0xD8D JUMP JUMPDEST PUSH1 0xFF SLOAD PUSH1 0x60 DUP7 ADD MLOAD PUSH1 0x40 DUP8 ADD MLOAD PUSH1 0x0 SWAP2 SWAP1 PUSH2 0x206E SWAP1 DUP5 PUSH2 0x3E01 JUMP JUMPDEST PUSH2 0x2078 SWAP2 SWAP1 PUSH2 0x3F37 JUMP JUMPDEST SWAP1 POP DUP2 DUP2 GT PUSH1 0x0 DUP2 PUSH2 0x2093 JUMPI PUSH2 0x208E DUP4 DUP6 PUSH2 0x3F37 JUMP JUMPDEST PUSH2 0x209D JUMP JUMPDEST PUSH2 0x209D DUP5 DUP5 PUSH2 0x3F37 JUMP JUMPDEST PUSH2 0x105 SLOAD SWAP1 SWAP2 POP PUSH1 0x0 SWAP1 PUSH2 0x2710 SWAP1 PUSH6 0x10000000000 SWAP1 DIV PUSH2 0xFFFF AND PUSH2 0x20C0 PUSH2 0xDBE JUMP JUMPDEST PUSH2 0x20CA SWAP2 SWAP1 PUSH2 0x3EE7 JUMP JUMPDEST PUSH2 0x20D4 SWAP2 SWAP1 PUSH2 0x3E44 JUMP JUMPDEST SWAP1 POP DUP1 DUP3 GT ISZERO PUSH2 0x2118 JUMPI PUSH2 0x20E6 PUSH2 0xDBE JUMP JUMPDEST PUSH1 0x40 MLOAD PUSH4 0x3A588A79 PUSH1 0xE1 SHL DUP2 MSTORE PUSH1 0x4 DUP2 ADD SWAP2 SWAP1 SWAP2 MSTORE PUSH1 0x24 DUP2 ADD DUP6 SWAP1 MSTORE PUSH1 0x44 DUP2 ADD DUP4 SWAP1 MSTORE PUSH1 0x64 DUP2 ADD DUP3 SWAP1 MSTORE PUSH1 0x84 ADD PUSH2 0xD8D JUMP JUMPDEST DUP3 ISZERO PUSH2 0x216F JUMPI PUSH2 0x105 SLOAD PUSH1 0x0 SWAP1 PUSH2 0x2710 SWAP1 PUSH2 0x213C SWAP1 PUSH2 0x100 SWAP1 DIV PUSH2 0xFFFF AND DUP6 PUSH2 0x3EE7 JUMP JUMPDEST PUSH2 0x2146 SWAP2 SWAP1 PUSH2 0x3E44 JUMP JUMPDEST SWAP1 POP PUSH1 0x0 PUSH2 0x2153 DUP3 PUSH2 0x1E78 JUMP JUMPDEST PUSH1 0xFE SLOAD SWAP1 SWAP2 POP PUSH2 0x216C SWAP1 PUSH1 0x1 PUSH1 0x1 PUSH1 0xA0 SHL SUB AND DUP3 PUSH2 0x2C21 JUMP JUMPDEST POP POP JUMPDEST PUSH1 0xFF DUP5 SWAP1 SSTORE PUSH2 0x217D DUP10 PUSH2 0x1EA9 JUMP JUMPDEST PUSH1 0x40 DUP1 MLOAD DUP12 MLOAD PUSH1 0x1 PUSH1 0x1 PUSH1 0x40 SHL SUB SWAP1 DUP2 AND DUP3 MSTORE PUSH1 0x20 DUP1 DUP15 ADD MLOAD SWAP1 SWAP2 AND SWAP1 DUP3 ADD MSTORE DUP12 DUP3 ADD MLOAD DUP2 DUP4 ADD MSTORE PUSH1 0x60 DUP1 DUP14 ADD MLOAD SWAP1 DUP3 ADD MSTORE PUSH1 0x80 DUP2 ADD DUP7 SWAP1 MSTORE SWAP1 MLOAD PUSH32 0x642CC6AD3F4E6E00DAB418B5A48B88A15E0A0F37E10AB912506316D8CF059878 SWAP2 DUP2 SWAP1 SUB PUSH1 0xA0 ADD SWAP1 LOG1 POP POP POP PUSH1 0x20 SWAP1 SWAP3 ADD MLOAD PUSH2 0x105 DUP1 SLOAD PUSH1 0x1 PUSH1 0x1 PUSH1 0x40 SHL SUB SWAP1 SWAP3 AND PUSH1 0x1 PUSH1 0x38 SHL MUL PUSH15 0xFFFFFFFFFFFFFFFF00000000000000 NOT SWAP1 SWAP3 AND SWAP2 SWAP1 SWAP2 OR SWAP1 SSTORE POP PUSH2 0x222A SWAP1 POP PUSH2 0x3840 TIMESTAMP PUSH2 0x3E01 JUMP JUMPDEST PUSH2 0x102 SSTORE POP POP POP POP JUMP JUMPDEST PUSH1 0x0 DUP3 DUP2 MSTORE PUSH1 0xC9 PUSH1 0x20 MSTORE PUSH1 0x40 SWAP1 KECCAK256 PUSH1 0x1 ADD SLOAD PUSH2 0x224F DUP2 PUSH2 0x2446 JUMP JUMPDEST PUSH2 0xF6F DUP4 DUP4 PUSH2 0x2911 JUMP JUMPDEST PUSH1 0x1 PUSH1 0x1 PUSH1 0xA0 SHL SUB DUP2 AND PUSH1 0x0 SWAP1 DUP2 MSTORE PUSH1 0x33 PUSH1 0x20 MSTORE PUSH1 0x40 DUP2 KECCAK256 SLOAD PUSH2 0xD4D JUMP JUMPDEST PUSH1 0x1 PUSH1 0x1 PUSH1 0xA0 SHL SUB SWAP2 DUP3 AND PUSH1 0x0 SWAP1 DUP2 MSTORE PUSH1 0x34 PUSH1 0x20 SWAP1 DUP2 MSTORE PUSH1 0x40 DUP1 DUP4 KECCAK256 SWAP4 SWAP1 SWAP5 AND DUP3 MSTORE SWAP2 SWAP1 SWAP2 MSTORE KECCAK256 SLOAD SWAP1 JUMP JUMPDEST PUSH2 0x105 SLOAD PUSH1 0xFF AND DUP1 ISZERO PUSH2 0x22C6 JUMPI POP CALLER PUSH1 0x0 SWAP1 DUP2 MSTORE PUSH2 0x104 PUSH1 0x20 MSTORE PUSH1 0x40 SWAP1 KECCAK256 SLOAD PUSH1 0xFF AND ISZERO JUMPDEST ISZERO PUSH2 0x22E6 JUMPI PUSH1 0x40 MLOAD PUSH4 0x2E6EBA85 PUSH1 0xE1 SHL DUP2 MSTORE CALLER PUSH1 0x4 DUP3 ADD MSTORE PUSH1 0x24 ADD PUSH2 0xD8D JUMP JUMPDEST PUSH7 0x2386F26FC10000 DUP3 LT ISZERO PUSH2 0x231E JUMPI PUSH1 0x40 MLOAD PUSH4 0xEA691A4B PUSH1 0xE0 SHL DUP2 MSTORE PUSH7 0x2386F26FC10000 PUSH1 0x4 DUP3 ADD MSTORE PUSH1 0x24 DUP2 ADD DUP4 SWAP1 MSTORE PUSH1 0x44 ADD PUSH2 0xD8D JUMP JUMPDEST PUSH1 0x0 DUP1 PUSH2 0x232B DUP4 ADDRESS PUSH2 0x2CE2 JUMP JUMPDEST SWAP1 SWAP3 POP SWAP1 POP PUSH1 0x0 PUSH2 0x233C DUP4 DUP6 PUSH2 0x3F37 JUMP JUMPDEST SWAP1 POP PUSH1 0x0 PUSH2 0x234A DUP4 DUP8 PUSH2 0x3F37 JUMP JUMPDEST SWAP1 POP DUP2 ISZERO PUSH2 0x235C JUMPI PUSH2 0x235C ADDRESS DUP4 PUSH2 0x2C21 JUMP JUMPDEST DUP1 PUSH1 0xFF PUSH1 0x0 DUP3 DUP3 SLOAD PUSH2 0x236E SWAP2 SWAP1 PUSH2 0x3E01 JUMP JUMPDEST SWAP1 SWAP2 SSTORE POP POP PUSH1 0xFC SLOAD DUP6 SWAP1 PUSH1 0x1 PUSH1 0x1 PUSH1 0xA0 SHL SUB AND CALLER EQ PUSH2 0x23DA JUMPI PUSH2 0x105 SLOAD PUSH1 0x0 SWAP1 PUSH2 0x2710 SWAP1 PUSH2 0x23A7 SWAP1 PUSH4 0x1000000 SWAP1 DIV PUSH2 0xFFFF AND DUP10 PUSH2 0x3EE7 JUMP JUMPDEST PUSH2 0x23B1 SWAP2 SWAP1 PUSH2 0x3E44 JUMP JUMPDEST PUSH1 0xFE SLOAD SWAP1 SWAP2 POP PUSH2 0x23CC SWAP1 ADDRESS SWAP1 PUSH1 0x1 PUSH1 0x1 PUSH1 0xA0 SHL SUB AND DUP4 PUSH2 0x2656 JUMP JUMPDEST PUSH2 0x23D6 DUP2 DUP4 PUSH2 0x3F37 JUMP JUMPDEST SWAP2 POP POP JUMPDEST PUSH2 0x23E5 ADDRESS DUP10 DUP4 PUSH2 0x2656 JUMP JUMPDEST DUP8 PUSH1 0x1 PUSH1 0x1 PUSH1 0xA0 SHL SUB AND DUP10 PUSH1 0x1 PUSH1 0x1 PUSH1 0xA0 SHL SUB AND PUSH32 0xDCBC1C05240F31FF3AD067EF1EE35CE4997762752E3A095284754544F4C709D7 DUP10 DUP10 PUSH1 0x40 MLOAD PUSH2 0x2433 SWAP3 SWAP2 SWAP1 SWAP2 DUP3 MSTORE PUSH1 0x20 DUP3 ADD MSTORE PUSH1 0x40 ADD SWAP1 JUMP JUMPDEST PUSH1 0x40 MLOAD DUP1 SWAP2 SUB SWAP1 LOG3 POP POP POP POP POP POP POP POP POP JUMP JUMPDEST PUSH2 0x2450 DUP2 CALLER PUSH2 0x2DD7 JUMP JUMPDEST POP JUMP JUMPDEST PUSH1 0x0 DUP1 PUSH2 0x245F PUSH1 0x35 SLOAD SWAP1 JUMP JUMPDEST SWAP1 POP DUP1 ISZERO PUSH2 0x2480 JUMPI PUSH2 0x247B PUSH2 0x2472 PUSH2 0xDBE JUMP JUMPDEST DUP6 SWAP1 DUP4 DUP7 PUSH2 0x2E30 JUMP JUMPDEST PUSH2 0x1D6F JUMP JUMPDEST DUP4 PUSH2 0x1D6F JUMP JUMPDEST PUSH1 0x1 PUSH1 0x1 PUSH1 0xA0 SHL SUB DUP4 AND PUSH2 0x24E8 JUMPI PUSH1 0x40 MLOAD PUSH3 0x461BCD PUSH1 0xE5 SHL DUP2 MSTORE PUSH1 0x20 PUSH1 0x4 DUP3 ADD MSTORE PUSH1 0x24 DUP1 DUP3 ADD MSTORE PUSH32 0x45524332303A20617070726F76652066726F6D20746865207A65726F20616464 PUSH1 0x44 DUP3 ADD MSTORE PUSH4 0x72657373 PUSH1 0xE0 SHL PUSH1 0x64 DUP3 ADD MSTORE PUSH1 0x84 ADD PUSH2 0xD8D JUMP JUMPDEST PUSH1 0x1 PUSH1 0x1 PUSH1 0xA0 SHL SUB DUP3 AND PUSH2 0x2549 JUMPI PUSH1 0x40 MLOAD PUSH3 0x461BCD PUSH1 0xE5 SHL DUP2 MSTORE PUSH1 0x20 PUSH1 0x4 DUP3 ADD MSTORE PUSH1 0x22 PUSH1 0x24 DUP3 ADD MSTORE PUSH32 0x45524332303A20617070726F766520746F20746865207A65726F206164647265 PUSH1 0x44 DUP3 ADD MSTORE PUSH2 0x7373 PUSH1 0xF0 SHL PUSH1 0x64 DUP3 ADD MSTORE PUSH1 0x84 ADD PUSH2 0xD8D JUMP JUMPDEST PUSH1 0x1 PUSH1 0x1 PUSH1 0xA0 SHL SUB DUP4 DUP2 AND PUSH1 0x0 DUP2 DUP2 MSTORE PUSH1 0x34 PUSH1 0x20 SWAP1 DUP2 MSTORE PUSH1 0x40 DUP1 DUP4 KECCAK256 SWAP5 DUP8 AND DUP1 DUP5 MSTORE SWAP5 DUP3 MSTORE SWAP2 DUP3 SWAP1 KECCAK256 DUP6 SWAP1 SSTORE SWAP1 MLOAD DUP5 DUP2 MSTORE PUSH32 0x8C5BE1E5EBEC7D5BD14F71427D1E84F3DD0314C0F7B2291E5B200AC8C7C3B925 SWAP2 ADD PUSH1 0x40 MLOAD DUP1 SWAP2 SUB SWAP1 LOG3 POP POP POP JUMP JUMPDEST PUSH1 0x0 DUP1 PUSH2 0x25B6 PUSH1 0x35 SLOAD SWAP1 JUMP JUMPDEST SWAP1 POP DUP4 ISZERO DUP1 PUSH2 0x25C3 JUMPI POP DUP1 ISZERO JUMPDEST PUSH2 0x2480 JUMPI PUSH2 0x247B DUP2 PUSH2 0x25D3 PUSH2 0xDBE JUMP JUMPDEST DUP7 SWAP2 SWAP1 DUP7 PUSH2 0x2E30 JUMP JUMPDEST PUSH1 0x0 PUSH2 0x25E8 DUP5 DUP5 PUSH2 0x2277 JUMP JUMPDEST SWAP1 POP PUSH1 0x0 NOT DUP2 EQ PUSH2 0x2650 JUMPI DUP2 DUP2 LT ISZERO PUSH2 0x2643 JUMPI PUSH1 0x40 MLOAD PUSH3 0x461BCD PUSH1 0xE5 SHL DUP2 MSTORE PUSH1 0x20 PUSH1 0x4 DUP3 ADD MSTORE PUSH1 0x1D PUSH1 0x24 DUP3 ADD MSTORE PUSH32 0x45524332303A20696E73756666696369656E7420616C6C6F77616E6365000000 PUSH1 0x44 DUP3 ADD MSTORE PUSH1 0x64 ADD PUSH2 0xD8D JUMP JUMPDEST PUSH2 0x2650 DUP5 DUP5 DUP5 DUP5 SUB PUSH2 0x2486 JUMP JUMPDEST POP POP POP POP JUMP JUMPDEST PUSH1 0x1 PUSH1 0x1 PUSH1 0xA0 SHL SUB DUP4 AND PUSH2 0x26BA JUMPI PUSH1 0x40 MLOAD PUSH3 0x461BCD PUSH1 0xE5 SHL DUP2 MSTORE PUSH1 0x20 PUSH1 0x4 DUP3 ADD MSTORE PUSH1 0x25 PUSH1 0x24 DUP3 ADD MSTORE PUSH32 0x45524332303A207472616E736665722066726F6D20746865207A65726F206164 PUSH1 0x44 DUP3 ADD MSTORE PUSH5 0x6472657373 PUSH1 0xD8 SHL PUSH1 0x64 DUP3 ADD MSTORE PUSH1 0x84 ADD PUSH2 0xD8D JUMP JUMPDEST PUSH1 0x1 PUSH1 0x1 PUSH1 0xA0 SHL SUB DUP3 AND PUSH2 0x271C JUMPI PUSH1 0x40 MLOAD PUSH3 0x461BCD PUSH1 0xE5 SHL DUP2 MSTORE PUSH1 0x20 PUSH1 0x4 DUP3 ADD MSTORE PUSH1 0x23 PUSH1 0x24 DUP3 ADD MSTORE PUSH32 0x45524332303A207472616E7366657220746F20746865207A65726F2061646472 PUSH1 0x44 DUP3 ADD MSTORE PUSH3 0x657373 PUSH1 0xE8 SHL PUSH1 0x64 DUP3 ADD MSTORE PUSH1 0x84 ADD PUSH2 0xD8D JUMP JUMPDEST PUSH1 0x1 PUSH1 0x1 PUSH1 0xA0 SHL SUB DUP4 AND PUSH1 0x0 SWAP1 DUP2 MSTORE PUSH1 0x33 PUSH1 0x20 MSTORE PUSH1 0x40 SWAP1 KECCAK256 SLOAD DUP2 DUP2 LT ISZERO PUSH2 0x2794 JUMPI PUSH1 0x40 MLOAD PUSH3 0x461BCD PUSH1 0xE5 SHL DUP2 MSTORE PUSH1 0x20 PUSH1 0x4 DUP3 ADD MSTORE PUSH1 0x26 PUSH1 0x24 DUP3 ADD MSTORE PUSH32 0x45524332303A207472616E7366657220616D6F756E7420657863656564732062 PUSH1 0x44 DUP3 ADD MSTORE PUSH6 0x616C616E6365 PUSH1 0xD0 SHL PUSH1 0x64 DUP3 ADD MSTORE PUSH1 0x84 ADD PUSH2 0xD8D JUMP JUMPDEST PUSH1 0x1 PUSH1 0x1 PUSH1 0xA0 SHL SUB DUP1 DUP6 AND PUSH1 0x0 DUP2 DUP2 MSTORE PUSH1 0x33 PUSH1 0x20 MSTORE PUSH1 0x40 DUP1 DUP3 KECCAK256 DUP7 DUP7 SUB SWAP1 SSTORE SWAP3 DUP7 AND DUP1 DUP3 MSTORE SWAP1 DUP4 SWAP1 KECCAK256 DUP1 SLOAD DUP7 ADD SWAP1 SSTORE SWAP2 MLOAD PUSH32 0xDDF252AD1BE2C89B69C2B068FC378DAA952BA7F163C4A11628F55A4DF523B3EF SWAP1 PUSH2 0x27F4 SWAP1 DUP7 DUP2 MSTORE PUSH1 0x20 ADD SWAP1 JUMP JUMPDEST PUSH1 0x40 MLOAD DUP1 SWAP2 SUB SWAP1 LOG3 PUSH2 0x2650 JUMP JUMPDEST PUSH2 0x280B DUP3 DUP3 PUSH2 0x17A9 JUMP JUMPDEST PUSH2 0x13E2 JUMPI PUSH1 0x0 DUP3 DUP2 MSTORE PUSH1 0xC9 PUSH1 0x20 SWAP1 DUP2 MSTORE PUSH1 0x40 DUP1 DUP4 KECCAK256 PUSH1 0x1 PUSH1 0x1 PUSH1 0xA0 SHL SUB DUP6 AND DUP5 MSTORE SWAP1 SWAP2 MSTORE SWAP1 KECCAK256 DUP1 SLOAD PUSH1 0xFF NOT AND PUSH1 0x1 OR SWAP1 SSTORE PUSH2 0x2843 CALLER SWAP1 JUMP JUMPDEST PUSH1 0x1 PUSH1 0x1 PUSH1 0xA0 SHL SUB AND DUP2 PUSH1 0x1 PUSH1 0x1 PUSH1 0xA0 SHL SUB AND DUP4 PUSH32 0x2F8788117E7EFF1D82E926EC794901D17C78024A50270940304540A733656F0D PUSH1 0x40 MLOAD PUSH1 0x40 MLOAD DUP1 SWAP2 SUB SWAP1 LOG4 POP POP JUMP JUMPDEST PUSH1 0x0 SLOAD PUSH2 0x100 SWAP1 DIV PUSH1 0xFF AND PUSH2 0x28AE JUMPI PUSH1 0x40 MLOAD PUSH3 0x461BCD PUSH1 0xE5 SHL DUP2 MSTORE PUSH1 0x4 ADD PUSH2 0xD8D SWAP1 PUSH2 0x3D5E JUMP JUMPDEST PUSH2 0x2450 DUP2 PUSH2 0x2EA9 JUMP JUMPDEST PUSH1 0x0 SLOAD PUSH2 0x100 SWAP1 DIV PUSH1 0xFF AND PUSH2 0x28DE JUMPI PUSH1 0x40 MLOAD PUSH3 0x461BCD PUSH1 0xE5 SHL DUP2 MSTORE PUSH1 0x4 ADD PUSH2 0xD8D SWAP1 PUSH2 0x3D5E JUMP JUMPDEST PUSH2 0x13E2 DUP3 DUP3 PUSH2 0x2F2E JUMP JUMPDEST PUSH1 0x0 SLOAD PUSH2 0x100 SWAP1 DIV PUSH1 0xFF AND PUSH2 0x290F JUMPI PUSH1 0x40 MLOAD PUSH3 0x461BCD PUSH1 0xE5 SHL DUP2 MSTORE PUSH1 0x4 ADD PUSH2 0xD8D SWAP1 PUSH2 0x3D5E JUMP JUMPDEST JUMP JUMPDEST PUSH2 0x291B DUP3 DUP3 PUSH2 0x17A9 JUMP JUMPDEST ISZERO PUSH2 0x13E2 JUMPI PUSH1 0x0 DUP3 DUP2 MSTORE PUSH1 0xC9 PUSH1 0x20 SWAP1 DUP2 MSTORE PUSH1 0x40 DUP1 DUP4 KECCAK256 PUSH1 0x1 PUSH1 0x1 PUSH1 0xA0 SHL SUB DUP6 AND DUP1 DUP6 MSTORE SWAP3 MSTORE DUP1 DUP4 KECCAK256 DUP1 SLOAD PUSH1 0xFF NOT AND SWAP1 SSTORE MLOAD CALLER SWAP3 DUP6 SWAP2 PUSH32 0xF6391F5C32D9C69D2A47EA670B442974B53935D1EDC7FD64EB21E047A839171B SWAP2 SWAP1 LOG4 POP POP JUMP JUMPDEST PUSH1 0x0 DUP1 PUSH2 0x2983 PUSH2 0xDBE JUMP JUMPDEST GT DUP1 PUSH2 0x298F JUMPI POP PUSH1 0x35 SLOAD ISZERO JUMPDEST SWAP1 POP SWAP1 JUMP JUMPDEST PUSH1 0x40 DUP1 MLOAD PUSH1 0x1 PUSH1 0x1 PUSH1 0xA0 SHL SUB DUP6 DUP2 AND PUSH1 0x24 DUP4 ADD MSTORE DUP5 AND PUSH1 0x44 DUP3 ADD MSTORE PUSH1 0x64 DUP1 DUP3 ADD DUP5 SWAP1 MSTORE DUP3 MLOAD DUP1 DUP4 SUB SWAP1 SWAP2 ADD DUP2 MSTORE PUSH1 0x84 SWAP1 SWAP2 ADD SWAP1 SWAP2 MSTORE PUSH1 0x20 DUP2 ADD DUP1 MLOAD PUSH1 0x1 PUSH1 0x1 PUSH1 0xE0 SHL SUB AND PUSH4 0x23B872DD PUSH1 0xE0 SHL OR SWAP1 MSTORE PUSH2 0x2650 SWAP1 DUP6 SWAP1 PUSH2 0x2F7C JUMP JUMPDEST DUP3 PUSH1 0x1 PUSH1 0x1 PUSH1 0xA0 SHL SUB AND DUP6 PUSH1 0x1 PUSH1 0x1 PUSH1 0xA0 SHL SUB AND EQ PUSH2 0x2A12 JUMPI PUSH2 0x2A12 DUP4 DUP7 DUP4 PUSH2 0x25DC JUMP JUMPDEST PUSH2 0x2A1C DUP4 DUP3 PUSH2 0x304E JUMP JUMPDEST DUP2 PUSH1 0xFF PUSH1 0x0 DUP3 DUP3 SLOAD PUSH2 0x2A2E SWAP2 SWAP1 PUSH2 0x3F37 JUMP JUMPDEST SWAP1 SWAP2 SSTORE POP POP PUSH1 0xFD SLOAD PUSH1 0x40 MLOAD PUSH4 0x19792D1D PUSH1 0xE1 SHL DUP2 MSTORE PUSH1 0x4 DUP2 ADD DUP5 SWAP1 MSTORE PUSH1 0x1 PUSH1 0x1 PUSH1 0xA0 SHL SUB DUP8 DUP2 AND PUSH1 0x24 DUP4 ADD MSTORE DUP7 DUP2 AND PUSH1 0x44 DUP4 ADD MSTORE SWAP1 SWAP2 AND SWAP1 PUSH4 0x32F25A3A SWAP1 PUSH1 0x64 ADD PUSH1 0x0 PUSH1 0x40 MLOAD DUP1 DUP4 SUB DUP2 PUSH1 0x0 DUP8 DUP1 EXTCODESIZE ISZERO DUP1 ISZERO PUSH2 0x2A89 JUMPI PUSH1 0x0 DUP1 REVERT JUMPDEST POP GAS CALL ISZERO DUP1 ISZERO PUSH2 0x2A9D JUMPI RETURNDATASIZE PUSH1 0x0 DUP1 RETURNDATACOPY RETURNDATASIZE PUSH1 0x0 REVERT JUMPDEST POP POP POP POP DUP3 PUSH1 0x1 PUSH1 0x1 PUSH1 0xA0 SHL SUB AND DUP5 PUSH1 0x1 PUSH1 0x1 PUSH1 0xA0 SHL SUB AND DUP7 PUSH1 0x1 PUSH1 0x1 PUSH1 0xA0 SHL SUB AND PUSH32 0xFBDE797D201C681B91056529119E0B02407C7BB96A4A2C75C01FC9667232C8DB DUP6 DUP6 PUSH1 0x40 MLOAD PUSH2 0x2AF9 SWAP3 SWAP2 SWAP1 SWAP2 DUP3 MSTORE PUSH1 0x20 DUP3 ADD MSTORE PUSH1 0x40 ADD SWAP1 JUMP JUMPDEST PUSH1 0x40 MLOAD DUP1 SWAP2 SUB SWAP1 LOG4 POP POP POP POP POP JUMP JUMPDEST DUP1 SELFBALANCE LT ISZERO PUSH2 0x2B58 JUMPI PUSH1 0x40 MLOAD PUSH3 0x461BCD PUSH1 0xE5 SHL DUP2 MSTORE PUSH1 0x20 PUSH1 0x4 DUP3 ADD MSTORE PUSH1 0x1D PUSH1 0x24 DUP3 ADD MSTORE PUSH32 0x416464726573733A20696E73756666696369656E742062616C616E6365000000 PUSH1 0x44 DUP3 ADD MSTORE PUSH1 0x64 ADD PUSH2 0xD8D JUMP JUMPDEST PUSH1 0x0 DUP3 PUSH1 0x1 PUSH1 0x1 PUSH1 0xA0 SHL SUB AND DUP3 PUSH1 0x40 MLOAD PUSH1 0x0 PUSH1 0x40 MLOAD DUP1 DUP4 SUB DUP2 DUP6 DUP8 GAS CALL SWAP3 POP POP POP RETURNDATASIZE DUP1 PUSH1 0x0 DUP2 EQ PUSH2 0x2BA5 JUMPI PUSH1 0x40 MLOAD SWAP2 POP PUSH1 0x1F NOT PUSH1 0x3F RETURNDATASIZE ADD AND DUP3 ADD PUSH1 0x40 MSTORE RETURNDATASIZE DUP3 MSTORE RETURNDATASIZE PUSH1 0x0 PUSH1 0x20 DUP5 ADD RETURNDATACOPY PUSH2 0x2BAA JUMP JUMPDEST PUSH1 0x60 SWAP2 POP JUMPDEST POP POP SWAP1 POP DUP1 PUSH2 0xF6F JUMPI PUSH1 0x40 MLOAD PUSH3 0x461BCD PUSH1 0xE5 SHL DUP2 MSTORE PUSH1 0x20 PUSH1 0x4 DUP3 ADD MSTORE PUSH1 0x3A PUSH1 0x24 DUP3 ADD MSTORE PUSH32 0x416464726573733A20756E61626C6520746F2073656E642076616C75652C2072 PUSH1 0x44 DUP3 ADD MSTORE PUSH32 0x6563697069656E74206D61792068617665207265766572746564000000000000 PUSH1 0x64 DUP3 ADD MSTORE PUSH1 0x84 ADD PUSH2 0xD8D JUMP JUMPDEST PUSH1 0x1 PUSH1 0x1 PUSH1 0xA0 SHL SUB DUP3 AND PUSH2 0x2C77 JUMPI PUSH1 0x40 MLOAD PUSH3 0x461BCD PUSH1 0xE5 SHL DUP2 MSTORE PUSH1 0x20 PUSH1 0x4 DUP3 ADD MSTORE PUSH1 0x1F PUSH1 0x24 DUP3 ADD MSTORE PUSH32 0x45524332303A206D696E7420746F20746865207A65726F206164647265737300 PUSH1 0x44 DUP3 ADD MSTORE PUSH1 0x64 ADD PUSH2 0xD8D JUMP JUMPDEST DUP1 PUSH1 0x35 PUSH1 0x0 DUP3 DUP3 SLOAD PUSH2 0x2C89 SWAP2 SWAP1 PUSH2 0x3E01 JUMP JUMPDEST SWAP1 SWAP2 SSTORE POP POP PUSH1 0x1 PUSH1 0x1 PUSH1 0xA0 SHL SUB DUP3 AND PUSH1 0x0 DUP2 DUP2 MSTORE PUSH1 0x33 PUSH1 0x20 SWAP1 DUP2 MSTORE PUSH1 0x40 DUP1 DUP4 KECCAK256 DUP1 SLOAD DUP7 ADD SWAP1 SSTORE MLOAD DUP5 DUP2 MSTORE PUSH32 0xDDF252AD1BE2C89B69C2B068FC378DAA952BA7F163C4A11628F55A4DF523B3EF SWAP2 ADD PUSH1 0x40 MLOAD DUP1 SWAP2 SUB SWAP1 LOG3 POP POP JUMP JUMPDEST PUSH1 0xFC SLOAD PUSH1 0x0 SWAP1 DUP2 SWAP1 PUSH1 0x1 PUSH1 0x1 PUSH1 0xA0 SHL SUB AND CALLER EQ PUSH2 0x2DD0 JUMPI PUSH1 0xFC SLOAD PUSH1 0x1 PUSH1 0x1 PUSH1 0xA0 SHL SUB AND PUSH1 0x0 SWAP1 DUP2 MSTORE PUSH1 0x33 PUSH1 0x20 MSTORE PUSH1 0x40 SWAP1 KECCAK256 SLOAD PUSH2 0x2D1E SWAP1 DUP6 PUSH2 0x3182 JUMP JUMPDEST SWAP2 POP DUP2 ISZERO PUSH2 0x2DD0 JUMPI PUSH2 0x2D2F DUP3 PUSH2 0x1CEE JUMP JUMPDEST PUSH1 0xFC SLOAD PUSH1 0x40 MLOAD PUSH4 0x61F4627D PUSH1 0xE1 SHL DUP2 MSTORE PUSH1 0x1 PUSH1 0x1 PUSH1 0xA0 SHL SUB DUP7 DUP2 AND PUSH1 0x4 DUP4 ADD MSTORE SWAP3 SWAP4 POP DUP5 SWAP3 SWAP1 SWAP2 AND SWAP1 PUSH4 0xC3E8C4FA SWAP1 DUP5 SWAP1 PUSH1 0x24 ADD PUSH1 0x20 PUSH1 0x40 MLOAD DUP1 DUP4 SUB DUP2 DUP6 DUP9 DUP1 EXTCODESIZE ISZERO DUP1 ISZERO PUSH2 0x2D7C JUMPI PUSH1 0x0 DUP1 REVERT JUMPDEST POP GAS CALL ISZERO DUP1 ISZERO PUSH2 0x2D90 JUMPI RETURNDATASIZE PUSH1 0x0 DUP1 RETURNDATACOPY RETURNDATASIZE PUSH1 0x0 REVERT JUMPDEST POP POP POP POP POP PUSH1 0x40 MLOAD RETURNDATASIZE PUSH1 0x1F NOT PUSH1 0x1F DUP3 ADD AND DUP3 ADD DUP1 PUSH1 0x40 MSTORE POP DUP2 ADD SWAP1 PUSH2 0x2DB5 SWAP2 SWAP1 PUSH2 0x3BC9 JUMP JUMPDEST EQ PUSH2 0x2DD0 JUMPI PUSH4 0x4E487B71 PUSH1 0xE0 SHL PUSH1 0x0 MSTORE PUSH1 0x1 PUSH1 0x4 MSTORE PUSH1 0x24 PUSH1 0x0 REVERT JUMPDEST SWAP3 POP SWAP3 SWAP1 POP JUMP JUMPDEST PUSH2 0x2DE1 DUP3 DUP3 PUSH2 0x17A9 JUMP JUMPDEST PUSH2 0x13E2 JUMPI PUSH2 0x2DEE DUP2 PUSH2 0x3198 JUMP JUMPDEST PUSH2 0x2DF9 DUP4 PUSH1 0x20 PUSH2 0x31AA JUMP JUMPDEST PUSH1 0x40 MLOAD PUSH1 0x20 ADD PUSH2 0x2E0A SWAP3 SWAP2 SWAP1 PUSH2 0x3C8B JUMP JUMPDEST PUSH1 0x40 DUP1 MLOAD PUSH1 0x1F NOT DUP2 DUP5 SUB ADD DUP2 MSTORE SWAP1 DUP3 SWAP1 MSTORE PUSH3 0x461BCD PUSH1 0xE5 SHL DUP3 MSTORE PUSH2 0xD8D SWAP2 PUSH1 0x4 ADD PUSH2 0x3D00 JUMP JUMPDEST PUSH1 0x0 DUP1 PUSH2 0x2E3E DUP7 DUP7 DUP7 PUSH2 0x338B JUMP JUMPDEST SWAP1 POP PUSH1 0x1 DUP4 PUSH1 0x2 DUP2 GT ISZERO PUSH2 0x2E62 JUMPI PUSH4 0x4E487B71 PUSH1 0xE0 SHL PUSH1 0x0 MSTORE PUSH1 0x21 PUSH1 0x4 MSTORE PUSH1 0x24 PUSH1 0x0 REVERT JUMPDEST EQ DUP1 ISZERO PUSH2 0x2E8D JUMPI POP PUSH1 0x0 DUP5 DUP1 PUSH2 0x2E88 JUMPI PUSH4 0x4E487B71 PUSH1 0xE0 SHL PUSH1 0x0 MSTORE PUSH1 0x12 PUSH1 0x4 MSTORE PUSH1 0x24 PUSH1 0x0 REVERT JUMPDEST DUP7 DUP9 MULMOD GT JUMPDEST ISZERO PUSH2 0x2EA0 JUMPI PUSH2 0x2E9D PUSH1 0x1 DUP3 PUSH2 0x3E01 JUMP JUMPDEST SWAP1 POP JUMPDEST SWAP6 SWAP5 POP POP POP POP POP JUMP JUMPDEST PUSH1 0x0 SLOAD PUSH2 0x100 SWAP1 DIV PUSH1 0xFF AND PUSH2 0x2ED0 JUMPI PUSH1 0x40 MLOAD PUSH3 0x461BCD PUSH1 0xE5 SHL DUP2 MSTORE PUSH1 0x4 ADD PUSH2 0xD8D SWAP1 PUSH2 0x3D5E JUMP JUMPDEST PUSH1 0x0 DUP1 PUSH2 0x2EDC DUP4 PUSH2 0x3449 JUMP JUMPDEST SWAP2 POP SWAP2 POP DUP2 PUSH2 0x2EEC JUMPI PUSH1 0x12 PUSH2 0x2EEE JUMP JUMPDEST DUP1 JUMPDEST PUSH1 0x65 DUP1 SLOAD PUSH1 0x1 PUSH1 0x1 PUSH1 0xA0 SHL SUB SWAP1 SWAP6 AND PUSH1 0x1 PUSH1 0x1 PUSH1 0xA0 SHL SUB NOT PUSH1 0xFF SWAP4 SWAP1 SWAP4 AND PUSH1 0x1 PUSH1 0xA0 SHL MUL SWAP3 SWAP1 SWAP3 AND PUSH1 0x1 PUSH1 0x1 PUSH1 0xA8 SHL SUB NOT SWAP1 SWAP6 AND SWAP5 SWAP1 SWAP5 OR OR SWAP1 SWAP3 SSTORE POP POP JUMP JUMPDEST PUSH1 0x0 SLOAD PUSH2 0x100 SWAP1 DIV PUSH1 0xFF AND PUSH2 0x2F55 JUMPI PUSH1 0x40 MLOAD PUSH3 0x461BCD PUSH1 0xE5 SHL DUP2 MSTORE PUSH1 0x4 ADD PUSH2 0xD8D SWAP1 PUSH2 0x3D5E JUMP JUMPDEST DUP2 MLOAD PUSH2 0x2F68 SWAP1 PUSH1 0x36 SWAP1 PUSH1 0x20 DUP6 ADD SWAP1 PUSH2 0x3645 JUMP JUMPDEST POP DUP1 MLOAD PUSH2 0xF6F SWAP1 PUSH1 0x37 SWAP1 PUSH1 0x20 DUP5 ADD SWAP1 PUSH2 0x3645 JUMP JUMPDEST PUSH1 0x0 PUSH2 0x2FD1 DUP3 PUSH1 0x40 MLOAD DUP1 PUSH1 0x40 ADD PUSH1 0x40 MSTORE DUP1 PUSH1 0x20 DUP2 MSTORE PUSH1 0x20 ADD PUSH32 0x5361666545524332303A206C6F772D6C6576656C2063616C6C206661696C6564 DUP2 MSTORE POP DUP6 PUSH1 0x1 PUSH1 0x1 PUSH1 0xA0 SHL SUB AND PUSH2 0x3525 SWAP1 SWAP3 SWAP2 SWAP1 PUSH4 0xFFFFFFFF AND JUMP JUMPDEST DUP1 MLOAD SWAP1 SWAP2 POP ISZERO PUSH2 0xF6F JUMPI DUP1 DUP1 PUSH1 0x20 ADD SWAP1 MLOAD DUP2 ADD SWAP1 PUSH2 0x2FEF SWAP2 SWAP1 PUSH2 0x3A8B JUMP JUMPDEST PUSH2 0xF6F JUMPI PUSH1 0x40 MLOAD PUSH3 0x461BCD PUSH1 0xE5 SHL DUP2 MSTORE PUSH1 0x20 PUSH1 0x4 DUP3 ADD MSTORE PUSH1 0x2A PUSH1 0x24 DUP3 ADD MSTORE PUSH32 0x5361666545524332303A204552433230206F7065726174696F6E20646964206E PUSH1 0x44 DUP3 ADD MSTORE PUSH10 0x1BDD081CDD58D8D95959 PUSH1 0xB2 SHL PUSH1 0x64 DUP3 ADD MSTORE PUSH1 0x84 ADD PUSH2 0xD8D JUMP JUMPDEST PUSH1 0x1 PUSH1 0x1 PUSH1 0xA0 SHL SUB DUP3 AND PUSH2 0x30AE JUMPI PUSH1 0x40 MLOAD PUSH3 0x461BCD PUSH1 0xE5 SHL DUP2 MSTORE PUSH1 0x20 PUSH1 0x4 DUP3 ADD MSTORE PUSH1 0x21 PUSH1 0x24 DUP3 ADD MSTORE PUSH32 0x45524332303A206275726E2066726F6D20746865207A65726F20616464726573 PUSH1 0x44 DUP3 ADD MSTORE PUSH1 0x73 PUSH1 0xF8 SHL PUSH1 0x64 DUP3 ADD MSTORE PUSH1 0x84 ADD PUSH2 0xD8D JUMP JUMPDEST PUSH1 0x1 PUSH1 0x1 PUSH1 0xA0 SHL SUB DUP3 AND PUSH1 0x0 SWAP1 DUP2 MSTORE PUSH1 0x33 PUSH1 0x20 MSTORE PUSH1 0x40 SWAP1 KECCAK256 SLOAD DUP2 DUP2 LT ISZERO PUSH2 0x3122 JUMPI PUSH1 0x40 MLOAD PUSH3 0x461BCD PUSH1 0xE5 SHL DUP2 MSTORE PUSH1 0x20 PUSH1 0x4 DUP3 ADD MSTORE PUSH1 0x22 PUSH1 0x24 DUP3 ADD MSTORE PUSH32 0x45524332303A206275726E20616D6F756E7420657863656564732062616C616E PUSH1 0x44 DUP3 ADD MSTORE PUSH2 0x6365 PUSH1 0xF0 SHL PUSH1 0x64 DUP3 ADD MSTORE PUSH1 0x84 ADD PUSH2 0xD8D JUMP JUMPDEST PUSH1 0x1 PUSH1 0x1 PUSH1 0xA0 SHL SUB DUP4 AND PUSH1 0x0 DUP2 DUP2 MSTORE PUSH1 0x33 PUSH1 0x20 SWAP1 DUP2 MSTORE PUSH1 0x40 DUP1 DUP4 KECCAK256 DUP7 DUP7 SUB SWAP1 SSTORE PUSH1 0x35 DUP1 SLOAD DUP8 SWAP1 SUB SWAP1 SSTORE MLOAD DUP6 DUP2 MSTORE SWAP2 SWAP3 SWAP2 PUSH32 0xDDF252AD1BE2C89B69C2B068FC378DAA952BA7F163C4A11628F55A4DF523B3EF SWAP2 ADD PUSH1 0x40 MLOAD DUP1 SWAP2 SUB SWAP1 LOG3 POP POP POP JUMP JUMPDEST PUSH1 0x0 DUP2 DUP4 LT PUSH2 0x3191 JUMPI DUP2 PUSH2 0xF43 JUMP JUMPDEST POP SWAP1 SWAP2 SWAP1 POP JUMP JUMPDEST PUSH1 0x60 PUSH2 0xD4D PUSH1 0x1 PUSH1 0x1 PUSH1 0xA0 SHL SUB DUP4 AND PUSH1 0x14 JUMPDEST PUSH1 0x60 PUSH1 0x0 PUSH2 0x31B9 DUP4 PUSH1 0x2 PUSH2 0x3EE7 JUMP JUMPDEST PUSH2 0x31C4 SWAP1 PUSH1 0x2 PUSH2 0x3E01 JUMP JUMPDEST PUSH1 0x1 PUSH1 0x1 PUSH1 0x40 SHL SUB DUP2 GT ISZERO PUSH2 0x31E9 JUMPI PUSH4 0x4E487B71 PUSH1 0xE0 SHL PUSH1 0x0 MSTORE PUSH1 0x41 PUSH1 0x4 MSTORE PUSH1 0x24 PUSH1 0x0 REVERT JUMPDEST PUSH1 0x40 MLOAD SWAP1 DUP1 DUP3 MSTORE DUP1 PUSH1 0x1F ADD PUSH1 0x1F NOT AND PUSH1 0x20 ADD DUP3 ADD PUSH1 0x40 MSTORE DUP1 ISZERO PUSH2 0x3213 JUMPI PUSH1 0x20 DUP3 ADD DUP2 DUP1 CALLDATASIZE DUP4 CALLDATACOPY ADD SWAP1 POP JUMPDEST POP SWAP1 POP PUSH1 0x3 PUSH1 0xFC SHL DUP2 PUSH1 0x0 DUP2 MLOAD DUP2 LT PUSH2 0x323C JUMPI PUSH4 0x4E487B71 PUSH1 0xE0 SHL PUSH1 0x0 MSTORE PUSH1 0x32 PUSH1 0x4 MSTORE PUSH1 0x24 PUSH1 0x0 REVERT JUMPDEST PUSH1 0x20 ADD ADD SWAP1 PUSH1 0x1 PUSH1 0x1 PUSH1 0xF8 SHL SUB NOT AND SWAP1 DUP2 PUSH1 0x0 BYTE SWAP1 MSTORE8 POP PUSH1 0xF PUSH1 0xFB SHL DUP2 PUSH1 0x1 DUP2 MLOAD DUP2 LT PUSH2 0x3279 JUMPI PUSH4 0x4E487B71 PUSH1 0xE0 SHL PUSH1 0x0 MSTORE PUSH1 0x32 PUSH1 0x4 MSTORE PUSH1 0x24 PUSH1 0x0 REVERT JUMPDEST PUSH1 0x20 ADD ADD SWAP1 PUSH1 0x1 PUSH1 0x1 PUSH1 0xF8 SHL SUB NOT AND SWAP1 DUP2 PUSH1 0x0 BYTE SWAP1 MSTORE8 POP PUSH1 0x0 PUSH2 0x329D DUP5 PUSH1 0x2 PUSH2 0x3EE7 JUMP JUMPDEST PUSH2 0x32A8 SWAP1 PUSH1 0x1 PUSH2 0x3E01 JUMP JUMPDEST SWAP1 POP JUMPDEST PUSH1 0x1 DUP2 GT ISZERO PUSH2 0x333C JUMPI PUSH16 0x181899199A1A9B1B9C1CB0B131B232B3 PUSH1 0x81 SHL DUP6 PUSH1 0xF AND PUSH1 0x10 DUP2 LT PUSH2 0x32EA JUMPI PUSH4 0x4E487B71 PUSH1 0xE0 SHL PUSH1 0x0 MSTORE PUSH1 0x32 PUSH1 0x4 MSTORE PUSH1 0x24 PUSH1 0x0 REVERT JUMPDEST BYTE PUSH1 0xF8 SHL DUP3 DUP3 DUP2 MLOAD DUP2 LT PUSH2 0x330E JUMPI PUSH4 0x4E487B71 PUSH1 0xE0 SHL PUSH1 0x0 MSTORE PUSH1 0x32 PUSH1 0x4 MSTORE PUSH1 0x24 PUSH1 0x0 REVERT JUMPDEST PUSH1 0x20 ADD ADD SWAP1 PUSH1 0x1 PUSH1 0x1 PUSH1 0xF8 SHL SUB NOT AND SWAP1 DUP2 PUSH1 0x0 BYTE SWAP1 MSTORE8 POP PUSH1 0x4 SWAP5 SWAP1 SWAP5 SHR SWAP4 PUSH2 0x3335 DUP2 PUSH2 0x3F7A JUMP JUMPDEST SWAP1 POP PUSH2 0x32AB JUMP JUMPDEST POP DUP4 ISZERO PUSH2 0xF43 JUMPI PUSH1 0x40 MLOAD PUSH3 0x461BCD PUSH1 0xE5 SHL DUP2 MSTORE PUSH1 0x20 PUSH1 0x4 DUP3 ADD DUP2 SWAP1 MSTORE PUSH1 0x24 DUP3 ADD MSTORE PUSH32 0x537472696E67733A20686578206C656E67746820696E73756666696369656E74 PUSH1 0x44 DUP3 ADD MSTORE PUSH1 0x64 ADD PUSH2 0xD8D JUMP JUMPDEST PUSH1 0x0 DUP1 DUP1 PUSH1 0x0 NOT DUP6 DUP8 MULMOD DUP6 DUP8 MUL SWAP3 POP DUP3 DUP2 LT DUP4 DUP3 SUB SUB SWAP2 POP POP DUP1 PUSH1 0x0 EQ ISZERO PUSH2 0x33D4 JUMPI DUP4 DUP3 DUP2 PUSH2 0x33CA JUMPI PUSH4 0x4E487B71 PUSH1 0xE0 SHL PUSH1 0x0 MSTORE PUSH1 0x12 PUSH1 0x4 MSTORE PUSH1 0x24 PUSH1 0x0 REVERT JUMPDEST DIV SWAP3 POP POP POP PUSH2 0xF43 JUMP JUMPDEST DUP1 DUP5 GT PUSH2 0x33E0 JUMPI PUSH1 0x0 DUP1 REVERT JUMPDEST PUSH1 0x0 DUP5 DUP7 DUP9 MULMOD PUSH1 0x2 PUSH1 0x1 DUP8 NOT DUP2 ADD DUP9 AND SWAP8 DUP9 SWAP1 DIV PUSH1 0x3 DUP2 MUL DUP4 XOR DUP1 DUP3 MUL DUP5 SUB MUL DUP1 DUP3 MUL DUP5 SUB MUL DUP1 DUP3 MUL DUP5 SUB MUL DUP1 DUP3 MUL DUP5 SUB MUL DUP1 DUP3 MUL DUP5 SUB MUL SWAP1 DUP2 MUL SWAP1 SWAP3 SUB SWAP1 SWAP2 MUL PUSH1 0x0 DUP9 SWAP1 SUB DUP9 SWAP1 DIV SWAP1 SWAP2 ADD DUP6 DUP4 GT SWAP1 SWAP5 SUB SWAP4 SWAP1 SWAP4 MUL SWAP4 SUB SWAP5 SWAP1 SWAP5 DIV SWAP2 SWAP1 SWAP2 OR MUL SWAP5 SWAP4 POP POP POP POP JUMP JUMPDEST PUSH1 0x40 DUP1 MLOAD PUSH1 0x4 DUP2 MSTORE PUSH1 0x24 DUP2 ADD DUP3 MSTORE PUSH1 0x20 DUP2 ADD DUP1 MLOAD PUSH1 0x1 PUSH1 0x1 PUSH1 0xE0 SHL SUB AND PUSH4 0x313CE567 PUSH1 0xE0 SHL OR SWAP1 MSTORE SWAP1 MLOAD PUSH1 0x0 SWAP2 DUP3 SWAP2 DUP3 SWAP2 DUP3 SWAP2 PUSH1 0x1 PUSH1 0x1 PUSH1 0xA0 SHL SUB DUP8 AND SWAP2 PUSH2 0x3490 SWAP2 PUSH2 0x3C6F JUMP JUMPDEST PUSH1 0x0 PUSH1 0x40 MLOAD DUP1 DUP4 SUB DUP2 DUP6 GAS STATICCALL SWAP2 POP POP RETURNDATASIZE DUP1 PUSH1 0x0 DUP2 EQ PUSH2 0x34CB JUMPI PUSH1 0x40 MLOAD SWAP2 POP PUSH1 0x1F NOT PUSH1 0x3F RETURNDATASIZE ADD AND DUP3 ADD PUSH1 0x40 MSTORE RETURNDATASIZE DUP3 MSTORE RETURNDATASIZE PUSH1 0x0 PUSH1 0x20 DUP5 ADD RETURNDATACOPY PUSH2 0x34D0 JUMP JUMPDEST PUSH1 0x60 SWAP2 POP JUMPDEST POP SWAP2 POP SWAP2 POP DUP2 DUP1 ISZERO PUSH2 0x34E4 JUMPI POP PUSH1 0x20 DUP2 MLOAD LT ISZERO JUMPDEST ISZERO PUSH2 0x3518 JUMPI PUSH1 0x0 DUP2 DUP1 PUSH1 0x20 ADD SWAP1 MLOAD DUP2 ADD SWAP1 PUSH2 0x34FF SWAP2 SWAP1 PUSH2 0x3BC9 JUMP JUMPDEST SWAP1 POP PUSH1 0xFF DUP2 GT PUSH2 0x3516 JUMPI PUSH1 0x1 SWAP7 SWAP1 SWAP6 POP SWAP4 POP POP POP POP JUMP JUMPDEST POP JUMPDEST POP PUSH1 0x0 SWAP5 DUP6 SWAP5 POP SWAP3 POP POP POP JUMP JUMPDEST PUSH1 0x60 PUSH2 0x1D6F DUP5 DUP5 PUSH1 0x0 DUP6 DUP6 PUSH1 0x0 DUP1 DUP7 PUSH1 0x1 PUSH1 0x1 PUSH1 0xA0 SHL SUB AND DUP6 DUP8 PUSH1 0x40 MLOAD PUSH2 0x354C SWAP2 SWAP1 PUSH2 0x3C6F JUMP JUMPDEST PUSH1 0x0 PUSH1 0x40 MLOAD DUP1 DUP4 SUB DUP2 DUP6 DUP8 GAS CALL SWAP3 POP POP POP RETURNDATASIZE DUP1 PUSH1 0x0 DUP2 EQ PUSH2 0x3589 JUMPI PUSH1 0x40 MLOAD SWAP2 POP PUSH1 0x1F NOT PUSH1 0x3F RETURNDATASIZE ADD AND DUP3 ADD PUSH1 0x40 MSTORE RETURNDATASIZE DUP3 MSTORE RETURNDATASIZE PUSH1 0x0 PUSH1 0x20 DUP5 ADD RETURNDATACOPY PUSH2 0x358E JUMP JUMPDEST PUSH1 0x60 SWAP2 POP JUMPDEST POP SWAP2 POP SWAP2 POP PUSH2 0x359F DUP8 DUP4 DUP4 DUP8 PUSH2 0x35AA JUMP JUMPDEST SWAP8 SWAP7 POP POP POP POP POP POP POP JUMP JUMPDEST PUSH1 0x60 DUP4 ISZERO PUSH2 0x3616 JUMPI DUP3 MLOAD PUSH2 0x360F JUMPI PUSH1 0x1 PUSH1 0x1 PUSH1 0xA0 SHL SUB DUP6 AND EXTCODESIZE PUSH2 0x360F JUMPI PUSH1 0x40 MLOAD PUSH3 0x461BCD PUSH1 0xE5 SHL DUP2 MSTORE PUSH1 0x20 PUSH1 0x4 DUP3 ADD MSTORE PUSH1 0x1D PUSH1 0x24 DUP3 ADD MSTORE PUSH32 0x416464726573733A2063616C6C20746F206E6F6E2D636F6E7472616374000000 PUSH1 0x44 DUP3 ADD MSTORE PUSH1 0x64 ADD PUSH2 0xD8D JUMP JUMPDEST POP DUP2 PUSH2 0x1D6F JUMP JUMPDEST PUSH2 0x1D6F DUP4 DUP4 DUP2 MLOAD ISZERO PUSH2 0x362B JUMPI DUP2 MLOAD DUP1 DUP4 PUSH1 0x20 ADD REVERT JUMPDEST DUP1 PUSH1 0x40 MLOAD PUSH3 0x461BCD PUSH1 0xE5 SHL DUP2 MSTORE PUSH1 0x4 ADD PUSH2 0xD8D SWAP2 SWAP1 PUSH2 0x3D00 JUMP JUMPDEST DUP3 DUP1 SLOAD PUSH2 0x3651 SWAP1 PUSH2 0x3F91 JUMP JUMPDEST SWAP1 PUSH1 0x0 MSTORE PUSH1 0x20 PUSH1 0x0 KECCAK256 SWAP1 PUSH1 0x1F ADD PUSH1 0x20 SWAP1 DIV DUP2 ADD SWAP3 DUP3 PUSH2 0x3673 JUMPI PUSH1 0x0 DUP6 SSTORE PUSH2 0x36B9 JUMP JUMPDEST DUP3 PUSH1 0x1F LT PUSH2 0x368C JUMPI DUP1 MLOAD PUSH1 0xFF NOT AND DUP4 DUP1 ADD OR DUP6 SSTORE PUSH2 0x36B9 JUMP JUMPDEST DUP3 DUP1 ADD PUSH1 0x1 ADD DUP6 SSTORE DUP3 ISZERO PUSH2 0x36B9 JUMPI SWAP2 DUP3 ADD JUMPDEST DUP3 DUP2 GT ISZERO PUSH2 0x36B9 JUMPI DUP3 MLOAD DUP3 SSTORE SWAP2 PUSH1 0x20 ADD SWAP2 SWAP1 PUSH1 0x1 ADD SWAP1 PUSH2 0x369E JUMP JUMPDEST POP PUSH2 0xE27 SWAP3 SWAP2 POP JUMPDEST DUP1 DUP3 GT ISZERO PUSH2 0xE27 JUMPI PUSH1 0x0 DUP2 SSTORE PUSH1 0x1 ADD PUSH2 0x36C1 JUMP JUMPDEST PUSH1 0x0 DUP3 PUSH1 0x1F DUP4 ADD SLT PUSH2 0x36E5 JUMPI DUP1 DUP2 REVERT JUMPDEST DUP2 CALLDATALOAD PUSH1 0x1 PUSH1 0x1 PUSH1 0x40 SHL SUB DUP2 GT ISZERO PUSH2 0x36FE JUMPI PUSH2 0x36FE PUSH2 0x403B JUMP JUMPDEST PUSH2 0x3711 PUSH1 0x1F DUP3 ADD PUSH1 0x1F NOT AND PUSH1 0x20 ADD PUSH2 0x3DD1 JUMP JUMPDEST DUP2 DUP2 MSTORE DUP5 PUSH1 0x20 DUP4 DUP7 ADD ADD GT ISZERO PUSH2 0x3725 JUMPI DUP3 DUP4 REVERT JUMPDEST DUP2 PUSH1 0x20 DUP6 ADD PUSH1 0x20 DUP4 ADD CALLDATACOPY SWAP1 DUP2 ADD PUSH1 0x20 ADD SWAP2 SWAP1 SWAP2 MSTORE SWAP3 SWAP2 POP POP JUMP JUMPDEST PUSH1 0x0 PUSH1 0x80 DUP3 DUP5 SUB SLT ISZERO PUSH2 0x3750 JUMPI DUP1 DUP2 REVERT JUMPDEST PUSH2 0x3758 PUSH2 0x3DA9 JUMP JUMPDEST SWAP1 POP DUP2 CALLDATALOAD PUSH1 0x1 PUSH1 0x1 PUSH1 0x40 SHL SUB DUP1 DUP3 GT ISZERO PUSH2 0x3771 JUMPI PUSH1 0x0 DUP1 REVERT JUMPDEST PUSH2 0x377D DUP6 DUP4 DUP7 ADD PUSH2 0x36D5 JUMP JUMPDEST DUP4 MSTORE PUSH1 0x20 DUP5 ADD CALLDATALOAD SWAP2 POP DUP1 DUP3 GT ISZERO PUSH2 0x3793 JUMPI PUSH1 0x0 DUP1 REVERT JUMPDEST PUSH2 0x379F DUP6 DUP4 DUP7 ADD PUSH2 0x36D5 JUMP JUMPDEST PUSH1 0x20 DUP5 ADD MSTORE PUSH1 0x40 DUP5 ADD CALLDATALOAD SWAP2 POP DUP1 DUP3 GT ISZERO PUSH2 0x37B8 JUMPI PUSH1 0x0 DUP1 REVERT JUMPDEST POP PUSH2 0x37C5 DUP5 DUP3 DUP6 ADD PUSH2 0x36D5 JUMP JUMPDEST PUSH1 0x40 DUP4 ADD MSTORE POP PUSH1 0x60 DUP3 ADD CALLDATALOAD PUSH1 0x60 DUP3 ADD MSTORE SWAP3 SWAP2 POP POP JUMP JUMPDEST DUP1 CALLDATALOAD PUSH1 0x1 PUSH1 0x1 PUSH1 0x40 SHL SUB DUP2 AND DUP2 EQ PUSH2 0x37F2 JUMPI PUSH1 0x0 DUP1 REVERT JUMPDEST SWAP2 SWAP1 POP JUMP JUMPDEST PUSH1 0x0 PUSH1 0x20 DUP3 DUP5 SUB SLT ISZERO PUSH2 0x3808 JUMPI DUP1 DUP2 REVERT JUMPDEST DUP2 CALLDATALOAD PUSH2 0xF43 DUP2 PUSH2 0x4051 JUMP JUMPDEST PUSH1 0x0 DUP1 PUSH1 0x40 DUP4 DUP6 SUB SLT ISZERO PUSH2 0x3825 JUMPI DUP1 DUP2 REVERT JUMPDEST DUP3 CALLDATALOAD PUSH2 0x3830 DUP2 PUSH2 0x4051 JUMP JUMPDEST SWAP2 POP PUSH1 0x20 DUP4 ADD CALLDATALOAD PUSH2 0x3840 DUP2 PUSH2 0x4051 JUMP JUMPDEST DUP1 SWAP2 POP POP SWAP3 POP SWAP3 SWAP1 POP JUMP JUMPDEST PUSH1 0x0 DUP1 PUSH1 0x0 DUP1 PUSH1 0x0 DUP1 PUSH1 0x0 PUSH1 0xE0 DUP9 DUP11 SUB SLT ISZERO PUSH2 0x3865 JUMPI DUP3 DUP4 REVERT JUMPDEST DUP8 CALLDATALOAD PUSH2 0x3870 DUP2 PUSH2 0x4051 JUMP JUMPDEST SWAP7 POP PUSH1 0x20 DUP9 ADD CALLDATALOAD PUSH2 0x3880 DUP2 PUSH2 0x4051 JUMP JUMPDEST SWAP6 POP PUSH1 0x40 DUP9 ADD CALLDATALOAD PUSH2 0x3890 DUP2 PUSH2 0x4051 JUMP JUMPDEST SWAP5 POP PUSH1 0x60 DUP9 ADD CALLDATALOAD PUSH2 0x38A0 DUP2 PUSH2 0x4051 JUMP JUMPDEST SWAP4 POP PUSH1 0x80 DUP9 ADD CALLDATALOAD PUSH2 0x38B0 DUP2 PUSH2 0x4051 JUMP JUMPDEST SWAP3 POP PUSH1 0xA0 DUP9 ADD CALLDATALOAD PUSH2 0x38C0 DUP2 PUSH2 0x4051 JUMP JUMPDEST SWAP2 POP PUSH1 0xC0 DUP9 ADD CALLDATALOAD PUSH2 0x38D0 DUP2 PUSH2 0x4051 JUMP JUMPDEST DUP1 SWAP2 POP POP SWAP3 SWAP6 SWAP9 SWAP2 SWAP5 SWAP8 POP SWAP3 SWAP6 POP JUMP JUMPDEST PUSH1 0x0 DUP1 PUSH1 0x0 PUSH1 0x60 DUP5 DUP7 SUB SLT ISZERO PUSH2 0x38F4 JUMPI DUP3 DUP4 REVERT JUMPDEST DUP4 CALLDATALOAD PUSH2 0x38FF DUP2 PUSH2 0x4051 JUMP JUMPDEST SWAP3 POP PUSH1 0x20 DUP5 ADD CALLDATALOAD PUSH2 0x390F DUP2 PUSH2 0x4051 JUMP JUMPDEST SWAP3 SWAP6 SWAP3 SWAP5 POP POP POP PUSH1 0x40 SWAP2 SWAP1 SWAP2 ADD CALLDATALOAD SWAP1 JUMP JUMPDEST PUSH1 0x0 DUP1 PUSH1 0x40 DUP4 DUP6 SUB SLT ISZERO PUSH2 0x3932 JUMPI DUP2 DUP3 REVERT JUMPDEST DUP3 CALLDATALOAD PUSH2 0x393D DUP2 PUSH2 0x4051 JUMP JUMPDEST SWAP5 PUSH1 0x20 SWAP4 SWAP1 SWAP4 ADD CALLDATALOAD SWAP4 POP POP POP JUMP JUMPDEST PUSH1 0x0 DUP1 PUSH1 0x20 DUP4 DUP6 SUB SLT ISZERO PUSH2 0x395D JUMPI DUP2 DUP3 REVERT JUMPDEST DUP3 CALLDATALOAD PUSH1 0x1 PUSH1 0x1 PUSH1 0x40 SHL SUB DUP1 DUP3 GT ISZERO PUSH2 0x3973 JUMPI DUP4 DUP5 REVERT JUMPDEST DUP2 DUP6 ADD SWAP2 POP DUP6 PUSH1 0x1F DUP4 ADD SLT PUSH2 0x3986 JUMPI DUP4 DUP5 REVERT JUMPDEST DUP2 CALLDATALOAD DUP2 DUP2 GT ISZERO PUSH2 0x3994 JUMPI DUP5 DUP6 REVERT JUMPDEST DUP7 PUSH1 0x20 DUP3 PUSH1 0x5 SHL DUP6 ADD ADD GT ISZERO PUSH2 0x39A8 JUMPI DUP5 DUP6 REVERT JUMPDEST PUSH1 0x20 SWAP3 SWAP1 SWAP3 ADD SWAP7 SWAP2 SWAP6 POP SWAP1 SWAP4 POP POP POP POP JUMP JUMPDEST PUSH1 0x0 DUP1 PUSH1 0x0 PUSH1 0x60 DUP5 DUP7 SUB SLT ISZERO PUSH2 0x39CE JUMPI DUP1 DUP2 REVERT JUMPDEST DUP4 CALLDATALOAD PUSH1 0x1 PUSH1 0x1 PUSH1 0x40 SHL SUB DUP1 DUP3 GT ISZERO PUSH2 0x39E4 JUMPI DUP3 DUP4 REVERT JUMPDEST DUP2 DUP7 ADD SWAP2 POP DUP7 PUSH1 0x1F DUP4 ADD SLT PUSH2 0x39F7 JUMPI DUP3 DUP4 REVERT JUMPDEST DUP2 CALLDATALOAD PUSH1 0x20 DUP3 DUP3 GT ISZERO PUSH2 0x3A0B JUMPI PUSH2 0x3A0B PUSH2 0x403B JUMP JUMPDEST DUP2 PUSH1 0x5 SHL PUSH2 0x3A1A DUP3 DUP3 ADD PUSH2 0x3DD1 JUMP JUMPDEST DUP4 DUP2 MSTORE DUP3 DUP2 ADD SWAP1 DUP7 DUP5 ADD DUP4 DUP9 ADD DUP6 ADD DUP14 LT ISZERO PUSH2 0x3A34 JUMPI DUP9 DUP10 REVERT JUMPDEST DUP9 SWAP4 POP JUMPDEST DUP6 DUP5 LT ISZERO PUSH2 0x3A71 JUMPI DUP1 CALLDATALOAD DUP8 DUP2 GT ISZERO PUSH2 0x3A4E JUMPI DUP10 DUP11 REVERT JUMPDEST PUSH2 0x3A5C DUP15 DUP8 DUP4 DUP13 ADD ADD PUSH2 0x373F JUMP JUMPDEST DUP5 MSTORE POP PUSH1 0x1 SWAP4 SWAP1 SWAP4 ADD SWAP3 SWAP2 DUP5 ADD SWAP2 DUP5 ADD PUSH2 0x3A38 JUMP JUMPDEST POP SWAP12 SWAP3 DUP11 ADD CALLDATALOAD SWAP11 POP POP POP PUSH1 0x40 SWAP1 SWAP8 ADD CALLDATALOAD SWAP7 SWAP6 POP POP POP POP POP POP JUMP JUMPDEST PUSH1 0x0 PUSH1 0x20 DUP3 DUP5 SUB SLT ISZERO PUSH2 0x3A9C JUMPI DUP1 DUP2 REVERT JUMPDEST DUP2 MLOAD DUP1 ISZERO ISZERO DUP2 EQ PUSH2 0xF43 JUMPI DUP2 DUP3 REVERT JUMPDEST PUSH1 0x0 PUSH1 0x20 DUP3 DUP5 SUB SLT ISZERO PUSH2 0x3ABC JUMPI DUP1 DUP2 REVERT JUMPDEST POP CALLDATALOAD SWAP2 SWAP1 POP JUMP JUMPDEST PUSH1 0x0 DUP1 PUSH1 0x40 DUP4 DUP6 SUB SLT ISZERO PUSH2 0x3AD5 JUMPI DUP2 DUP3 REVERT JUMPDEST DUP3 CALLDATALOAD SWAP2 POP PUSH1 0x20 DUP4 ADD CALLDATALOAD PUSH2 0x3840 DUP2 PUSH2 0x4051 JUMP JUMPDEST PUSH1 0x0 PUSH1 0x20 DUP3 DUP5 SUB SLT ISZERO PUSH2 0x3AF8 JUMPI DUP1 DUP2 REVERT JUMPDEST DUP2 CALLDATALOAD PUSH1 0x1 PUSH1 0x1 PUSH1 0xE0 SHL SUB NOT DUP2 AND DUP2 EQ PUSH2 0xF43 JUMPI DUP2 DUP3 REVERT JUMPDEST PUSH1 0x0 PUSH1 0x20 DUP3 DUP5 SUB SLT ISZERO PUSH2 0x3B20 JUMPI DUP1 DUP2 REVERT JUMPDEST DUP2 CALLDATALOAD PUSH1 0x1 PUSH1 0x1 PUSH1 0x40 SHL SUB DUP2 GT ISZERO PUSH2 0x3B35 JUMPI DUP2 DUP3 REVERT JUMPDEST PUSH2 0x1D6F DUP5 DUP3 DUP6 ADD PUSH2 0x36D5 JUMP JUMPDEST PUSH1 0x0 DUP1 DUP3 DUP5 SUB PUSH1 0xA0 DUP2 SLT ISZERO PUSH2 0x3B54 JUMPI DUP3 DUP4 REVERT JUMPDEST PUSH1 0x80 DUP2 SLT ISZERO PUSH2 0x3B61 JUMPI DUP3 DUP4 REVERT JUMPDEST POP PUSH2 0x3B6A PUSH2 0x3DA9 JUMP JUMPDEST PUSH2 0x3B73 DUP5 PUSH2 0x37DB JUMP JUMPDEST DUP2 MSTORE PUSH2 0x3B81 PUSH1 0x20 DUP6 ADD PUSH2 0x37DB JUMP JUMPDEST PUSH1 0x20 DUP3 ADD MSTORE PUSH1 0x40 DUP5 DUP2 ADD CALLDATALOAD SWAP1 DUP3 ADD MSTORE PUSH1 0x60 DUP1 DUP6 ADD CALLDATALOAD SWAP1 DUP3 ADD MSTORE SWAP5 PUSH1 0x80 SWAP1 SWAP4 ADD CALLDATALOAD SWAP4 POP POP POP JUMP JUMPDEST PUSH1 0x0 PUSH1 0x20 DUP3 DUP5 SUB SLT ISZERO PUSH2 0x3BB8 JUMPI DUP1 DUP2 REVERT JUMPDEST DUP2 CALLDATALOAD PUSH2 0xFFFF DUP2 AND DUP2 EQ PUSH2 0xF43 JUMPI DUP2 DUP3 REVERT JUMPDEST PUSH1 0x0 PUSH1 0x20 DUP3 DUP5 SUB SLT ISZERO PUSH2 0x3BDA JUMPI DUP1 DUP2 REVERT JUMPDEST POP MLOAD SWAP2 SWAP1 POP JUMP JUMPDEST PUSH1 0x0 DUP1 PUSH1 0x0 PUSH1 0x60 DUP5 DUP7 SUB SLT ISZERO PUSH2 0x3BF5 JUMPI DUP1 DUP2 REVERT JUMPDEST DUP4 CALLDATALOAD SWAP3 POP PUSH1 0x20 DUP5 ADD CALLDATALOAD PUSH2 0x3C07 DUP2 PUSH2 0x4051 JUMP JUMPDEST SWAP2 POP PUSH1 0x40 DUP5 ADD CALLDATALOAD PUSH2 0x3C17 DUP2 PUSH2 0x4051 JUMP JUMPDEST DUP1 SWAP2 POP POP SWAP3 POP SWAP3 POP SWAP3 JUMP JUMPDEST PUSH1 0x0 PUSH1 0x20 DUP3 DUP5 SUB SLT ISZERO PUSH2 0x3C33 JUMPI DUP1 DUP2 REVERT JUMPDEST DUP2 MLOAD PUSH1 0xFF DUP2 AND DUP2 EQ PUSH2 0xF43 JUMPI DUP2 DUP3 REVERT JUMPDEST PUSH1 0x0 DUP2 MLOAD DUP1 DUP5 MSTORE PUSH2 0x3C5B DUP2 PUSH1 0x20 DUP7 ADD PUSH1 0x20 DUP7 ADD PUSH2 0x3F4E JUMP JUMPDEST PUSH1 0x1F ADD PUSH1 0x1F NOT AND SWAP3 SWAP1 SWAP3 ADD PUSH1 0x20 ADD SWAP3 SWAP2 POP POP JUMP JUMPDEST PUSH1 0x0 DUP3 MLOAD PUSH2 0x3C81 DUP2 DUP5 PUSH1 0x20 DUP8 ADD PUSH2 0x3F4E JUMP JUMPDEST SWAP2 SWAP1 SWAP2 ADD SWAP3 SWAP2 POP POP JUMP JUMPDEST PUSH32 0x416363657373436F6E74726F6C3A206163636F756E7420000000000000000000 DUP2 MSTORE PUSH1 0x0 DUP4 MLOAD PUSH2 0x3CC3 DUP2 PUSH1 0x17 DUP6 ADD PUSH1 0x20 DUP9 ADD PUSH2 0x3F4E JUMP JUMPDEST PUSH17 0x1034B99036B4B9B9B4B733903937B6329 PUSH1 0x7D SHL PUSH1 0x17 SWAP2 DUP5 ADD SWAP2 DUP3 ADD MSTORE DUP4 MLOAD PUSH2 0x3CF4 DUP2 PUSH1 0x28 DUP5 ADD PUSH1 0x20 DUP9 ADD PUSH2 0x3F4E JUMP JUMPDEST ADD PUSH1 0x28 ADD SWAP5 SWAP4 POP POP POP POP JUMP JUMPDEST PUSH1 0x20 DUP2 MSTORE PUSH1 0x0 PUSH2 0xF43 PUSH1 0x20 DUP4 ADD DUP5 PUSH2 0x3C43 JUMP JUMPDEST PUSH1 0x80 DUP2 MSTORE PUSH1 0x0 PUSH2 0x3D26 PUSH1 0x80 DUP4 ADD DUP8 PUSH2 0x3C43 JUMP JUMPDEST DUP3 DUP2 SUB PUSH1 0x20 DUP5 ADD MSTORE PUSH2 0x3D38 DUP2 DUP8 PUSH2 0x3C43 JUMP JUMPDEST SWAP1 POP DUP3 DUP2 SUB PUSH1 0x40 DUP5 ADD MSTORE PUSH2 0x3D4C DUP2 DUP7 PUSH2 0x3C43 JUMP JUMPDEST SWAP2 POP POP DUP3 PUSH1 0x60 DUP4 ADD MSTORE SWAP6 SWAP5 POP POP POP POP POP JUMP JUMPDEST PUSH1 0x20 DUP1 DUP3 MSTORE PUSH1 0x2B SWAP1 DUP3 ADD MSTORE PUSH32 0x496E697469616C697A61626C653A20636F6E7472616374206973206E6F742069 PUSH1 0x40 DUP3 ADD MSTORE PUSH11 0x6E697469616C697A696E67 PUSH1 0xA8 SHL PUSH1 0x60 DUP3 ADD MSTORE PUSH1 0x80 ADD SWAP1 JUMP JUMPDEST PUSH1 0x40 MLOAD PUSH1 0x80 DUP2 ADD PUSH1 0x1 PUSH1 0x1 PUSH1 0x40 SHL SUB DUP2 GT DUP3 DUP3 LT OR ISZERO PUSH2 0x3DCB JUMPI PUSH2 0x3DCB PUSH2 0x403B JUMP JUMPDEST PUSH1 0x40 MSTORE SWAP1 JUMP JUMPDEST PUSH1 0x40 MLOAD PUSH1 0x1F DUP3 ADD PUSH1 0x1F NOT AND DUP2 ADD PUSH1 0x1 PUSH1 0x1 PUSH1 0x40 SHL SUB DUP2 GT DUP3 DUP3 LT OR ISZERO PUSH2 0x3DF9 JUMPI PUSH2 0x3DF9 PUSH2 0x403B JUMP JUMPDEST PUSH1 0x40 MSTORE SWAP2 SWAP1 POP JUMP JUMPDEST PUSH1 0x0 DUP3 NOT DUP3 GT ISZERO PUSH2 0x3E14 JUMPI PUSH2 0x3E14 PUSH2 0x4025 JUMP JUMPDEST POP ADD SWAP1 JUMP JUMPDEST PUSH1 0x0 PUSH1 0x1 PUSH1 0x1 PUSH1 0x40 SHL SUB DUP1 DUP4 AND DUP2 DUP6 AND DUP1 DUP4 SUB DUP3 GT ISZERO PUSH2 0x3E3B JUMPI PUSH2 0x3E3B PUSH2 0x4025 JUMP JUMPDEST ADD SWAP5 SWAP4 POP POP POP POP JUMP JUMPDEST PUSH1 0x0 DUP3 PUSH2 0x3E5F JUMPI PUSH4 0x4E487B71 PUSH1 0xE0 SHL DUP2 MSTORE PUSH1 0x12 PUSH1 0x4 MSTORE PUSH1 0x24 DUP2 REVERT JUMPDEST POP DIV SWAP1 JUMP JUMPDEST PUSH1 0x0 PUSH1 0x1 PUSH1 0x1 PUSH1 0xFF SHL SUB DUP2 DUP5 SGT DUP3 DUP5 SGT DUP1 DUP3 AND DUP7 DUP5 DIV DUP7 GT AND ISZERO PUSH2 0x3E8A JUMPI PUSH2 0x3E8A PUSH2 0x4025 JUMP JUMPDEST PUSH1 0x1 PUSH1 0xFF SHL DUP5 DUP8 SLT DUP3 DUP2 AND DUP8 DUP4 SDIV DUP10 SLT AND ISZERO PUSH2 0x3EA8 JUMPI PUSH2 0x3EA8 PUSH2 0x4025 JUMP JUMPDEST DUP6 DUP8 SLT SWAP3 POP DUP8 DUP3 SDIV DUP8 SLT DUP5 DUP5 AND AND ISZERO PUSH2 0x3EC3 JUMPI PUSH2 0x3EC3 PUSH2 0x4025 JUMP JUMPDEST DUP8 DUP6 SDIV DUP8 SLT DUP2 DUP5 AND AND ISZERO PUSH2 0x3ED9 JUMPI PUSH2 0x3ED9 PUSH2 0x4025 JUMP JUMPDEST POP POP POP SWAP3 SWAP1 SWAP4 MUL SWAP4 SWAP3 POP POP POP JUMP JUMPDEST PUSH1 0x0 DUP2 PUSH1 0x0 NOT DIV DUP4 GT DUP3 ISZERO ISZERO AND ISZERO PUSH2 0x3F01 JUMPI PUSH2 0x3F01 PUSH2 0x4025 JUMP JUMPDEST POP MUL SWAP1 JUMP JUMPDEST PUSH1 0x0 PUSH9 0xFFFFFFFFFFFFFFFFFF DUP1 DUP4 AND DUP2 DUP6 AND DUP2 DUP4 DIV DUP2 GT DUP3 ISZERO ISZERO AND ISZERO PUSH2 0x3F2E JUMPI PUSH2 0x3F2E PUSH2 0x4025 JUMP JUMPDEST MUL SWAP5 SWAP4 POP POP POP POP JUMP JUMPDEST PUSH1 0x0 DUP3 DUP3 LT ISZERO PUSH2 0x3F49 JUMPI PUSH2 0x3F49 PUSH2 0x4025 JUMP JUMPDEST POP SUB SWAP1 JUMP JUMPDEST PUSH1 0x0 JUMPDEST DUP4 DUP2 LT ISZERO PUSH2 0x3F69 JUMPI DUP2 DUP2 ADD MLOAD DUP4 DUP3 ADD MSTORE PUSH1 0x20 ADD PUSH2 0x3F51 JUMP JUMPDEST DUP4 DUP2 GT ISZERO PUSH2 0x2650 JUMPI POP POP PUSH1 0x0 SWAP2 ADD MSTORE JUMP JUMPDEST PUSH1 0x0 DUP2 PUSH2 0x3F89 JUMPI PUSH2 0x3F89 PUSH2 0x4025 JUMP JUMPDEST POP PUSH1 0x0 NOT ADD SWAP1 JUMP JUMPDEST PUSH1 0x1 DUP2 DUP2 SHR SWAP1 DUP3 AND DUP1 PUSH2 0x3FA5 JUMPI PUSH1 0x7F DUP3 AND SWAP2 POP JUMPDEST PUSH1 0x20 DUP3 LT DUP2 EQ ISZERO PUSH2 0x3FC6 JUMPI PUSH4 0x4E487B71 PUSH1 0xE0 SHL PUSH1 0x0 MSTORE PUSH1 0x22 PUSH1 0x4 MSTORE PUSH1 0x24 PUSH1 0x0 REVERT JUMPDEST POP SWAP2 SWAP1 POP JUMP JUMPDEST PUSH1 0x0 PUSH1 0x0 NOT DUP3 EQ ISZERO PUSH2 0x3FE0 JUMPI PUSH2 0x3FE0 PUSH2 0x4025 JUMP JUMPDEST POP PUSH1 0x1 ADD SWAP1 JUMP JUMPDEST PUSH1 0x0 PUSH4 0xFFFFFFFF DUP1 DUP4 AND DUP2 DUP2 EQ ISZERO PUSH2 0x4001 JUMPI PUSH2 0x4001 PUSH2 0x4025 JUMP JUMPDEST PUSH1 0x1 ADD SWAP4 SWAP3 POP POP POP JUMP JUMPDEST PUSH1 0x0 PUSH1 0x1 PUSH1 0xFF SHL DUP3 EQ ISZERO PUSH2 0x4021 JUMPI PUSH2 0x4021 PUSH2 0x4025 JUMP JUMPDEST SUB SWAP1 JUMP JUMPDEST PUSH4 0x4E487B71 PUSH1 0xE0 SHL PUSH1 0x0 MSTORE PUSH1 0x11 PUSH1 0x4 MSTORE PUSH1 0x24 PUSH1 0x0 REVERT JUMPDEST PUSH4 0x4E487B71 PUSH1 0xE0 SHL PUSH1 0x0 MSTORE PUSH1 0x41 PUSH1 0x4 MSTORE PUSH1 0x24 PUSH1 0x0 REVERT JUMPDEST PUSH1 0x1 PUSH1 0x1 PUSH1 0xA0 SHL SUB DUP2 AND DUP2 EQ PUSH2 0x2450 JUMPI PUSH1 0x0 DUP1 REVERT INVALID PUSH20 0xE573F9566D61418A34D5DE3FF49360F9C51FEC37 0xF7 0x48 PUSH6 0x51670290F628 0x5D 0xAB LOG2 PUSH5 0x6970667358 0x22 SLT KECCAK256 LOG0 SWAP11 GASPRICE XOR BALANCE SLOAD PUSH23 0x5E05528DCB0013831F6F314C592C00E8F6DE5AF75ADA89 ADD 0xAB PUSH5 0x736F6C6343 STOP ADDMOD DIV STOP CALLER "},"methodIdentifiers":{"ACTIVATOR_ROLE()":"08740a3b","DEFAULT_ADMIN_ROLE()":"a217fddf","MAX_ACCEPTABLE_UNDERLYING_CHANGE()":"f75cd134","MAX_DEPOSIT_FEE()":"c6d87dd5","MAX_REWARDS_FEE()":"911140bb","MIN_DEPOSIT()":"e1e158a5","SUBMIT_REPORT_TIMELOCK()":"e534744f","UPDATER_ROLE()":"47e63380","acceptableUnderlyingChange()":"17ba07d5","addToWhitelist(address[])":"7f649783","allowance(address,address)":"dd62ed3e","approve(address,uint256)":"095ea7b3","asset()":"38d52e0f","balanceOf(address)":"70a08231","convertToAssets(uint256)":"07a2d13a","convertToShares(uint256)":"c6e6f592","decimals()":"313ce567","decreaseAllowance(address,uint256)":"a457c2d7","deposit(uint256,address)":"6e553f65","depositContract()":"e94ad65b","depositETH(address)":"2d2da806","depositFee()":"67a52793","estimatedRewardsPerSecond()":"0c8797dd","getRoleAdmin(bytes32)":"248a9ca3","grantRole(bytes32,address)":"2f2ff15d","hasRole(bytes32,address)":"91d14854","increaseAllowance(address,uint256)":"39509351","initialize(address,address,address,address,address,address,address)":"35876476","lastEpochReported()":"982c3c8d","liquidUnstakePool()":"9dc162ca","maxDeposit(address)":"402d267d","maxMint(address)":"c63d75b6","maxRedeem(address)":"d905777e","maxWithdraw(address)":"ce96cb77","mint(uint256,address)":"94bf804d","name()":"06fdde03","nodePubkeyUsed(bytes)":"87d6c017","previewDeposit(uint256)":"ef8b30f7","previewMint(uint256)":"b3d7f6b9","previewRedeem(uint256)":"4cdad506","previewWithdraw(uint256)":"0a28a477","pushToBeacon((bytes,bytes,bytes,bytes32)[],uint256,uint256)":"94131038","redeem(uint256,address,address)":"ba087652","removeFromWhitelist(address[])":"548db174","renounceRole(bytes32,address)":"36568abe","reportEpochs((uint64,uint64,uint256,uint256),int256)":"d31c8771","requestEthFromLiquidPoolToWithdrawal(uint256)":"c62b60f7","revokeRole(bytes32,address)":"d547741f","rewardsFee()":"2bb14e1d","submitReportUnlockTime()":"925c765e","supportsInterface(bytes4)":"01ffc9a7","symbol()":"95d89b41","toggleWhitelistEnabled()":"46fd1268","totalAssets()":"01e1d114","totalNodesActivated()":"6e64b578","totalSupply()":"18160ddd","totalUnderlying()":"c70920bc","transfer(address,uint256)":"a9059cbb","transferFrom(address,address,uint256)":"23b872dd","treasury()":"61d027b3","updateAcceptableUnderlyingChange(uint16)":"00ed53d6","updateDepositFee(uint16)":"8aab7d1c","updateEstimatedRewardsPerSecond(int256)":"d1906eb0","updateLiquidPool(address)":"593f8907","updateRewardsFee(uint16)":"4dc1d6fb","updateWithdrawal(address)":"7ba8837f","whitelistEnabled()":"51fb012d","whitelistedAccounts(address)":"f6a6830f","withdraw(uint256,address,address)":"b460af94","withdrawal()":"d4e93292"}},"storageLayout":{"storage":[{"astId":715,"contract":"contracts/Staking.sol:Staking","label":"_initialized","offset":0,"slot":"0","type":"t_uint8"},{"astId":718,"contract":"contracts/Staking.sol:Staking","label":"_initializing","offset":1,"slot":"0","type":"t_bool"},{"astId":3013,"contract":"contracts/Staking.sol:Staking","label":"__gap","offset":0,"slot":"1","type":"t_array(t_uint256)50_storage"},{"astId":969,"contract":"contracts/Staking.sol:Staking","label":"_balances","offset":0,"slot":"51","type":"t_mapping(t_address,t_uint256)"},{"astId":975,"contract":"contracts/Staking.sol:Staking","label":"_allowances","offset":0,"slot":"52","type":"t_mapping(t_address,t_mapping(t_address,t_uint256))"},{"astId":977,"contract":"contracts/Staking.sol:Staking","label":"_totalSupply","offset":0,"slot":"53","type":"t_uint256"},{"astId":979,"contract":"contracts/Staking.sol:Staking","label":"_name","offset":0,"slot":"54","type":"t_string_storage"},{"astId":981,"contract":"contracts/Staking.sol:Staking","label":"_symbol","offset":0,"slot":"55","type":"t_string_storage"},{"astId":1561,"contract":"contracts/Staking.sol:Staking","label":"__gap","offset":0,"slot":"56","type":"t_array(t_uint256)45_storage"},{"astId":1660,"contract":"contracts/Staking.sol:Staking","label":"_asset","offset":0,"slot":"101","type":"t_contract(IERC20Upgradeable)1640"},{"astId":1662,"contract":"contracts/Staking.sol:Staking","label":"_decimals","offset":20,"slot":"101","type":"t_uint8"},{"astId":2345,"contract":"contracts/Staking.sol:Staking","label":"__gap","offset":0,"slot":"102","type":"t_array(t_uint256)49_storage"},{"astId":3232,"contract":"contracts/Staking.sol:Staking","label":"__gap","offset":0,"slot":"151","type":"t_array(t_uint256)50_storage"},{"astId":39,"contract":"contracts/Staking.sol:Staking","label":"_roles","offset":0,"slot":"201","type":"t_mapping(t_bytes32,t_struct(RoleData)34_storage)"},{"astId":334,"contract":"contracts/Staking.sol:Staking","label":"__gap","offset":0,"slot":"202","type":"t_array(t_uint256)49_storage"},{"astId":6731,"contract":"contracts/Staking.sol:Staking","label":"depositContract","offset":0,"slot":"251","type":"t_contract(IDeposit)8445"},{"astId":6733,"contract":"contracts/Staking.sol:Staking","label":"liquidUnstakePool","offset":0,"slot":"252","type":"t_address_payable"},{"astId":6735,"contract":"contracts/Staking.sol:Staking","label":"withdrawal","offset":0,"slot":"253","type":"t_address_payable"},{"astId":6737,"contract":"contracts/Staking.sol:Staking","label":"treasury","offset":0,"slot":"254","type":"t_address"},{"astId":6739,"contract":"contracts/Staking.sol:Staking","label":"totalUnderlying","offset":0,"slot":"255","type":"t_uint256"},{"astId":6741,"contract":"contracts/Staking.sol:Staking","label":"estimatedRewardsPerSecond","offset":0,"slot":"256","type":"t_int256"},{"astId":6743,"contract":"contracts/Staking.sol:Staking","label":"totalNodesActivated","offset":0,"slot":"257","type":"t_uint32"},{"astId":6745,"contract":"contracts/Staking.sol:Staking","label":"submitReportUnlockTime","offset":0,"slot":"258","type":"t_uint256"},{"astId":6755,"contract":"contracts/Staking.sol:Staking","label":"nodePubkeyUsed","offset":0,"slot":"259","type":"t_mapping(t_bytes_memory_ptr,t_bool)"},{"astId":6759,"contract":"contracts/Staking.sol:Staking","label":"whitelistedAccounts","offset":0,"slot":"260","type":"t_mapping(t_address,t_bool)"},{"astId":6761,"contract":"contracts/Staking.sol:Staking","label":"whitelistEnabled","offset":0,"slot":"261","type":"t_bool"},{"astId":6763,"contract":"contracts/Staking.sol:Staking","label":"rewardsFee","offset":1,"slot":"261","type":"t_uint16"},{"astId":6768,"contract":"contracts/Staking.sol:Staking","label":"depositFee","offset":3,"slot":"261","type":"t_uint16"},{"astId":6773,"contract":"contracts/Staking.sol:Staking","label":"acceptableUnderlyingChange","offset":5,"slot":"261","type":"t_uint16"},{"astId":6778,"contract":"contracts/Staking.sol:Staking","label":"lastEpochReported","offset":7,"slot":"261","type":"t_uint64"}],"types":{"t_address":{"encoding":"inplace","label":"address","numberOfBytes":"20"},"t_address_payable":{"encoding":"inplace","label":"address payable","numberOfBytes":"20"},"t_array(t_uint256)45_storage":{"base":"t_uint256","encoding":"inplace","label":"uint256[45]","numberOfBytes":"1440"},"t_array(t_uint256)49_storage":{"base":"t_uint256","encoding":"inplace","label":"uint256[49]","numberOfBytes":"1568"},"t_array(t_uint256)50_storage":{"base":"t_uint256","encoding":"inplace","label":"uint256[50]","numberOfBytes":"1600"},"t_bool":{"encoding":"inplace","label":"bool","numberOfBytes":"1"},"t_bytes32":{"encoding":"inplace","label":"bytes32","numberOfBytes":"32"},"t_bytes_memory_ptr":{"encoding":"bytes","label":"bytes","numberOfBytes":"32"},"t_contract(IDeposit)8445":{"encoding":"inplace","label":"contract IDeposit","numberOfBytes":"20"},"t_contract(IERC20Upgradeable)1640":{"encoding":"inplace","label":"contract IERC20Upgradeable","numberOfBytes":"20"},"t_int256":{"encoding":"inplace","label":"int256","numberOfBytes":"32"},"t_mapping(t_address,t_bool)":{"encoding":"mapping","key":"t_address","label":"mapping(address => bool)","numberOfBytes":"32","value":"t_bool"},"t_mapping(t_address,t_mapping(t_address,t_uint256))":{"encoding":"mapping","key":"t_address","label":"mapping(address => mapping(address => uint256))","numberOfBytes":"32","value":"t_mapping(t_address,t_uint256)"},"t_mapping(t_address,t_uint256)":{"encoding":"mapping","key":"t_address","label":"mapping(address => uint256)","numberOfBytes":"32","value":"t_uint256"},"t_mapping(t_bytes32,t_struct(RoleData)34_storage)":{"encoding":"mapping","key":"t_bytes32","label":"mapping(bytes32 => struct AccessControlUpgradeable.RoleData)","numberOfBytes":"32","value":"t_struct(RoleData)34_storage"},"t_mapping(t_bytes_memory_ptr,t_bool)":{"encoding":"mapping","key":"t_bytes_memory_ptr","label":"mapping(bytes => bool)","numberOfBytes":"32","value":"t_bool"},"t_string_storage":{"encoding":"bytes","label":"string","numberOfBytes":"32"},"t_struct(RoleData)34_storage":{"encoding":"inplace","label":"struct AccessControlUpgradeable.RoleData","members":[{"astId":31,"contract":"contracts/Staking.sol:Staking","label":"members","offset":0,"slot":"0","type":"t_mapping(t_address,t_bool)"},{"astId":33,"contract":"contracts/Staking.sol:Staking","label":"adminRole","offset":0,"slot":"1","type":"t_bytes32"}],"numberOfBytes":"64"},"t_uint16":{"encoding":"inplace","label":"uint16","numberOfBytes":"2"},"t_uint256":{"encoding":"inplace","label":"uint256","numberOfBytes":"32"},"t_uint32":{"encoding":"inplace","label":"uint32","numberOfBytes":"4"},"t_uint64":{"encoding":"inplace","label":"uint64","numberOfBytes":"8"},"t_uint8":{"encoding":"inplace","label":"uint8","numberOfBytes":"1"}}}}}}